:100000000C94B5000C94D2000C94D2000C94D20045
:100010000C94D2000C94D2000C94D2000C94D20018
:100020000C94D2000C94D2000C94D2000C94D20008
:100030000C94D2000C9435300C94D2000C94D20065
:100040000C94D2000C9418300C94D2000C94D20072
:100050000C94D2000C94F22F0C94D2000C94D20089
:100060000C94D2000C94D2006E616E00696E660032
:1000700000407A10F35A00A0724E18090010A5D45F
:10008000E80000E87648170000E40B54020000CABC
:100090009A3B000000E1F505000080969800000002
:1000A00040420F000000A086010000001027000061
:1000B0000000E803000000006400000000000A00E7
:1000C000000000000100000000002C76D888DC67EA
:1000D0004F0823DFC1DFAE59E1B1B796E5E3E45342
:1000E000C63AE651997696E8E6C28426EB898C9B5F
:1000F00062ED407C6FFCEFBC9C9F40F2BAA56FA5FF
:10010000F490055A2AF75C936B6CF9676DC11BFC80
:10011000E0E40D47FEF520E6B500D0ED902E03009B
:10012000943577050080841E080000204E0A0000E8
:1001300000C80C333333330F986E12831141EF8DA7
:100140002114893BE65516CFFEE6DB18D1844B38E7
:100150001BF77C1D901DA4BBE424203284725E2218
:100160008100C9F124ECA1E53D2711241FBECFEF8A
:10017000D8E0DEBFCDBF11E0A0E0B1E0E0E6F6E7F9
:1001800002C005900D92A436B107D9F717E0A4E696
:10019000B1E001C01D92A736B107E1F70E94D4007B
:1001A0000C942E3B0C9400000F931F93DF93CF937E
:1001B00000D000D0CDB7DEB70E94292E8E010F5F90
:1001C0001F4FC80160E070E044E050E00E94063B31
:1001D00089819A81AB81BC810E94763989819A811B
:1001E000AB81BC810196A11DB11D89839A83AB832C
:1001F000BC83C80160E070E044E050E00E94163B20
:1002000080E090E00E94CE020E9447030E942408F2
:100210000E94E4298091650190916601A091670197
:10022000B09168010196A11DB11D80936501909365
:100230006601A0936701B09368010E94412E0E945D
:10024000502DE8CFEF92FF920F931F93DF93CF9340
:1002500000D000D0CDB7DEB780E0E82E80E0F82EE9
:100260008E010F5F1F4FC801B70144E050E00E94AC
:10027000063B89819A81AB81BC810E947639898154
:100280009A81AB81BC810196A11DB11D89839A839E
:10029000AB83BC83C801B70144E050E00E94163B29
:1002A0000F900F900F900F90CF91DF911F910F91B2
:1002B000FF90EF90089583E28093B00021E02093B7
:1002C000B40083E08093B30089E08093B10080E2C2
:1002D0008093800081E090E0909389008093880073
:1002E00082E090E090938B0080938A0084E290E219
:1002F000909387008093860081E180938100209312
:100300006F0078940895229A2A9A239A259A2D9814
:1003100080E58CBD8DB581608DBD08959CB5259A15
:100320008CB58F7B8CBD2D9A2D989CBD0895982FF0
:1003300096959695E92FEE0FE90FF0E0E451FD4F09
:10034000DF011196990F990F891B8130C1F081301F
:1003500028F0823021F1833039F008958081807C4B
:100360006F73862B80830895660F660F11968C91AC
:1003700011978370682B11966C9311970895908153
:100380009F73862F8295880F880F807C892B8083AE
:10039000669566958181807F682B61830895862F9D
:1003A0008295807F91819F70892B818362956F7088
:1003B00011968C9111978C7F682B11966C931197E5
:1003C00008950F931F93582F082F0295000F000FC9
:1003D000007C182F16951695782F7295707F682FD0
:1003E00062956F70550F550F20E030E08F7309C094
:1003F0009081907C982B90832F5F3F4F2031310567
:1004000021F1422F922F96959695E92FEE0FE90F45
:10041000F0E0E451FD4FDF011196990F990F491B50
:10042000413019F1413020F3423091F0433021F74F
:1004300011969C9111979370952B11969C931197FF
:100440002F5F3F4F20313105E1F61F910F91089545
:1004500091819F70972B918311969C9111979C7F0E
:10046000962B11969C931197C7CF90819F73902BD9
:1004700090839181907F912B9183BECF8EBD0DB4DF
:1004800007FEFDCF0895289AE8EFF2E082918EBD35
:100490000DB407FEFDCF82E0EC3EF807B9F7299ACC
:1004A000299888E11EBC0DB407FEFDCF8150D1F71D
:1004B0009CB5259A8CB58F7B8CBD2D9A2D989CBDB3
:1004C0000895982F9695E8E16E9FF0011124292F49
:1004D000220F290FE20FF11DE459FE4FDF011196A3
:1004E000990F891B31F440838181807F852B818323
:1004F0000895813009F00895842F8295807F91813D
:100500009F70892B8183529542954F7045275F706C
:10051000452711964C9311970895CF93DF93DA01F5
:10052000982F9695E8E16E9FF0011124292F220F54
:10053000290FE20FF11DE459FE4FEF012196990FAB
:10054000891B99F4208130E011963C932E93818190
:1005500090E08F709070982F8827822B932B1196A4
:100560009C938E93DF91CF9108958130D9F7898143
:1005700090E082959295907F9827807F982711969A
:100580009C938E93218122952F7030E0282B392B5C
:1005900011963C932E93DF91CF910895282F592FD8
:1005A000482F4295407F929582958F7089279F7042
:1005B0008927382FECE6F1E080E090E0DC01A459D7
:1005C000BE4F2083652F6F70642B11966C9311972B
:1005D00012963C93DC01A159BE4F2383652F6F70A7
:1005E000642B11966C93119712963C93DC01AE58D4
:1005F000BE4F2683652F6F70642B11966C931197F5
:1006000012963C93DC01AB58BE4F2187652F6F706B
:10061000642B11966C93119712963C93DC01A858A9
:10062000BE4F2487652F6F70642B11966C931197C2
:1006300012963C93DC01A558BE4F2787652F6F703B
:10064000642B11966C93119712963C93DC01A2587F
:10065000BE4F228B652F6F70642B11966C93119790
:1006600012963C93DC01AF57BE4F258B652F6F7000
:10067000642B11966C93119712963C93129748969F
:10068000789661E08038960709F098CF0895A7E63C
:10069000B5E0ECE6F1E080E891E001900D92019781
:1006A000E1F708950F931F93CF93DF93EC016C81D3
:1006B0007D818E819F810E945537162F68817981B7
:1006C0008A819B810E9455376F73812F8295880F95
:1006D000880F807C862B8093EC02688579858A85DB
:1006E0009B850E945537862F8295807F169516959B
:1006F0001F70812B8093ED021091EE021C7F62959A
:100700006F70162B1093EE021370688179818A81C5
:100710009B810E945537660F660F612B6093EE0236
:10072000688579858A859B850E945537062F6C815F
:100730007D818E819F810E9455376F73802F8295B6
:10074000880F880F807C862B8093EF021091F00237
:10075000107F06950695102B1093F0026881798121
:100760008A819B810E945537862F8295807F1F70DA
:10077000812B8093F0021091F1021C7F62956F70C3
:10078000162B1093F10213706C817D818E819F81F5
:100790000E945537660F660F612B6093F10210912E
:1007A000F202107C688579858A859B850E94553781
:1007B0006F73162B1093F202688179818A819B8175
:1007C0000E9455371F73862F8295880F880F807C73
:1007D000812B8093F2021091F302107F669566954B
:1007E000162B1093F3026C817D818E819F810E9474
:1007F0005537862F8295807F1F70812B8093F3025F
:100800001091F4021C7F62956F70162B1093F40206
:100810001370688579858A859B850E945537660F98
:10082000660F612B6093F402DF91CF911F910F91BE
:1008300008952898209A2A9A229A539A219A8FEFFB
:100840008093EC028093ED028093EE028093EF029E
:100850008093F0028093F1028093F2028093F3027E
:100860008093F402229A2A9A239A259A2D9880E559
:100870008CBD8DB581608DBD289AE8EFF2E0829144
:100880008EBD0DB407FEFDCF22E0EC3EF207B9F7B6
:10089000299A299888E11EBC0DB407FEFDCF81502E
:1008A000D1F79CB5259A8CB58F7B8CBD2D9A2D9850
:1008B0009CBD21E02093690128988DB580688DBD8D
:1008C0008CB580688CBD83E28093B0002093B40027
:1008D00083E08093B30089E08093B10080E280934D
:1008E000800081E090E0909389008093880082E00E
:1008F00090E090938B0080938A0084E290E2909342
:1009000087008093860081E18093810020936F00AF
:100910007894ECE6F1E080E090E0DC01A459BE4F71
:10092000108211961C92119712961C92DC01A1590B
:10093000BE4F138211961C92119712961C92DC01E5
:10094000AE58BE4F168211961C92119712961C92A9
:10095000DC01AB58BE4F118611961C92119712966E
:100960001C92DC01A858BE4F148611961C92119758
:1009700012961C92DC01A558BE4F178611961C9248
:10098000119712961C92DC01A258BE4F128A119642
:100990001C92119712961C92DC01AF57BE4F158A1C
:1009A00011961C92119712961C921297489678965F
:1009B00021E08038920709F0B0CFA7E6B5E0ECE679
:1009C000F1E080E891E001900D920197E1F7089540
:1009D00044980895449A08953D9A3C9A3B9A4598C4
:1009E00043984498449A0895EF92FF920F931F936F
:1009F000CF93DF93982F990F980F892F8695440FE7
:100A0000440F460FE8E14E9FF0011124482F440F98
:100A1000480FDF01A40FB11DA459BE4FED0121966F
:100A2000880F492F481B09F060C02C9311968C91B8
:100A30001197807F832B11968C93392F3F5F832FE3
:100A40008695282F220F280FDF01A20FB11DA45970
:100A5000BE4FED012196880F381B91F50C9311962E
:100A60008C911197807F812B11968C939E5F892F9B
:100A70008695282F220F280FE20FF11DE459FE4F13
:100A8000DF011196880F981B09F445C0913089F455
:100A90008E2D8295807F91819F70892B8183F29426
:100AA000E2947FE0E722EF24F722EF241196EC9204
:100AB0001197DF91CF911F910F91FF90EF900895C3
:100AC0003130A1F6802F8295807F11962C9111975D
:100AD0002F70822B11968C931197129502950F709F
:100AE00001271F7001270983C1CF413009F0A5CF2D
:100AF000822F8295807F11964C9111974F70842B95
:100B000011968C931197329522952F7023273F7061
:100B10002327298392CFE0828181807F8F2981835F
:100B2000DF91CF911F910F91FF90EF900895AF92B9
:100B3000BF92CF92DF92FF920F931F93CF93DF93D9
:100B4000F62E042FE901182F110F180F68817981F3
:100B50008A819B8120E030EF4FE755E40E943738CF
:100B60000E9455376B016C817D818E819F8120E0D1
:100B700030EF4FE755E40E9437380E9455375B014C
:100B8000688579858A859B8520E030EF4FE755E4BD
:100B90000E9437380E945537812F8695000F000F2D
:100BA0000F0DE8E10E9FF0011124982F990F980F77
:100BB000DF01A90FB11DA459BE4FED012196880F89
:100BC000912F981B09F063C0CC9211968C911197CC
:100BD000807F8D2911968C93212F2F5F822F8695F0
:100BE000982F990F980FDF01A90FB11DA459BE4F7F
:100BF000ED012196880F281BA1F5AC9211968C91DE
:100C00001197807F8B2911968C931E5F812F86957B
:100C1000982F990F980FE90FF11DE459FE4FDF014E
:100C20001196880F181B09F449C0113081F4862FE2
:100C30008295807F91819F70892B818372956295C7
:100C40006F7067277F70672711966C931197DF91FC
:100C5000CF911F910F91FF90DF90CF90BF90AF90F9
:100C60000895213091F68A2D8295807F11969C916E
:100C700011979F70892B11968C931197B294A2941F
:100C80000FE0A022AB24B022AB24A982BECF9130CA
:100C900009F0A2CF8C2D8295807F11969C9111979F
:100CA0009F70892B11968C931197D294C2948FE0E8
:100CB000C822CD24D822CD24C9828ECF60838181E1
:100CC000807F872B8183C3CFCF92DF92EF92FF92F9
:100CD0000F931F93CF93DF93E901982F990F980FEC
:100CE000892F8695440F440F460FA8E14A9FD001F3
:100CF0001124282F220F280FAD01420F511D9A01F8
:100D000024593E4FA9014F5F5F4F880F692F681B21
:100D100009F098C0F901C080DD24218130E02F70F6
:100D20003070322F2227C22AD32A692F6F5F862F75
:100D30008695282F220F280FAD01420F511D9A01D1
:100D400024593E4FA9014F5F5F4F880F681B09F080
:100D500065C0F901008110E0218130E02F70307012
:100D6000322F2227022B132B9E5F892F8695282F47
:100D7000220F280FA20FB11DA459BE4F9D012F5F56
:100D80003F4F880F981B09F472C0913089F4F90124
:100D9000E180FF24E294F29490EFF922FE24E9220C
:100DA000FE2411968C9182958F7090E0E82AF92AA2
:100DB000B60180E090E00E94813720E030EF4FE7FD
:100DC00055E40E94ED36688379838A839B83B8015A
:100DD00080E090E00E94813720E030EF4FE755E45B
:100DE0000E94ED366C837D838E839F83B70180E004
:100DF00090E00E94813720E030EF4FE755E40E94F9
:100E0000ED36688779878A879B87DF91CF911F911D
:100E10000F91FF90EF90DF90CF900895613009F02F
:100E2000A3CFFA01018110E002951295107F1027DF
:100E3000007F1027F901218122952F7030E0022BCD
:100E4000132B92CF613009F070CFFA01C180DD24FD
:100E5000C294D29460EFD622DC24C622DC24F901AD
:100E6000218122952F7030E0C22AD32A5ECFEC90E8
:100E7000FF2411968C91119790E08F709070982FAD
:100E80008827E82AF92A94CFAF92BF92CF92DF92B7
:100E9000EF92FF921F93CF93DF937C01EB01FC0154
:100EA0008081182F110F180F688179818A819B81A9
:100EB00020E030EF4FE755E40E9437380E94553765
:100EC0006B016C817D818E819F8120E030EF4FE747
:100ED00055E40E9437380E9455375B016885798553
:100EE0008A859B8520E030EF4FE755E40E94373834
:100EF0000E945537912F9695F7018281880F880FB0
:100F00002181820FE8E18E9FF0011124892F880F43
:100F1000890FDF01A80FB11DA459BE4FED01219625
:100F2000990F812F891B09F063C0CC9211968C9187
:100F30001197807F8D2911968C93212F2F5F822FFF
:100F40008695982F990F980FDF01A90FB11DA4590D
:100F5000BE4FED012196880F281BA1F5AC9211968A
:100F60008C911197807F8B2911968C931E5F812F16
:100F70008695982F990F980FE90FF11DE459FE4FB0
:100F8000DF011196880F181B09F449C0113081F454
:100F9000862F8295807F91819F70892B81837295A6
:100FA00062956F7067277F70672711966C93119712
:100FB000DF91CF911F91FF90EF90DF90CF90BF9086
:100FC000AF900895213091F68A2D8295807F1196F9
:100FD0009C9111979F70892B11968C931197B294C5
:100FE000A294AFE0AA22AB24BA22AB24A982BECF3E
:100FF000813009F0A2CF8C2D8295807F11969C9133
:1010000011979F70892B11968C931197D294C2944B
:10101000BFE0CB22CD24DB22CD24C9828ECF6083DA
:101020008181807F872B8183C3CFFC019B018081DD
:10103000618142810E9464060895E0E6F0E08081CB
:1010400080618083108208953D9A3C9A3B9A45982E
:1010500043984498449A0E941904E0E6F0E08081A5
:1010600080618083108208956F927F928F929F9209
:10107000AF92BF92CF92DF92EF92FF920F931F93A6
:10108000D62EC72EB82EA92E922E832E742E652E04
:10109000A6019501652F742F832F922F20E030E059
:1010A00040E050E00E94E93687FF10C0A60195019C
:1010B000652F742F832F922F20E030E040E85FE30C
:1010C0000E948536D62EC72EB82EA92EA6019501D0
:1010D000652F7C2D832F9A2D20E030E040E85FE3E0
:1010E0000E943338181684F4A6019501652F7C2DD3
:1010F000832F9A2D20E030E040E85FE30E948436A1
:10110000D62EC72EB82EA92EA6019501652F7C2DAF
:10111000832F9A2D20E030E040EC50E40E943738D5
:1011200020E030E040E85FE30E94E93687FD6AC0D6
:10113000A6019501652F7C2D832F9A2DD601F501EF
:101140002B2F3C2D4F2F5A2D0E94853620E030E06A
:1011500040E85FE30E94E93687FD51C0A601950192
:10116000652F7C2D832F9A2D20E030E040E450E461
:101170000E94373820E030E040E050E40E94E93639
:1011800087FF59C06E2D7F2D802F912FD401F30141
:101190002B2F382D4F2F562D0E9484367B018C012A
:1011A0006BEA7AEA8AE29FE3D601F5012B2F3C2D08
:1011B0004F2F5A2D0E9484369B01AC01C801B70104
:1011C0000E94373820E030E040EC50E40E9437388D
:1011D000D401F3012B2F382D4F2F562D0E94853629
:1011E000F72E7F2D1F910F91FF90EF90DF90CF9002
:1011F000BF90AF909F908F907F906F9008956E2DCD
:10120000C801EFCF6E2D7F2D802F912FD401F301D8
:101210002B2F382D4F2F562D0E94843620E030E0A2
:1012200040EC50E40E943738D601F5012B2F3C2DBD
:101230004F2F5A2DCBCF692DF82C872D962DD1CF3E
:101240002F923F924F925F926F927F928F929F92D6
:10125000AF92BF92CF92DF92EF92FF920F931F93C4
:10126000DF93CF93CDB7DEB72F970FB6F894DEBFDD
:101270000FBECDBFFC017E876D87E080F1800281CB
:1012800013816480758086809780A084B184C28435
:10129000D384C401B30120E030E040E050E00E947C
:1012A000E936882309F420C1C601B50120E030E009
:1012B00040E05FE30E94E93687FFF3C0C401B30159
:1012C00020E030E040E85FE30E948536A60195010A
:1012D0000E943738562E472E382E292EC601B501CA
:1012E000A60195010E948536D201F1012B2F342DE4
:1012F0004F2F522D0E94843669837A838B839C837F
:101300006E2D7F2D802F912F2BEA3AEA4AEA5EE379
:101310000E948536A62ED72EC82EB92E6E2D7F2D73
:10132000802F912F2BEA3AEA4AEA5EE30E94843644
:101330006D837E838F839887962E672E882E792ED5
:101340006A2D7D2D8C2D9B2D20E030E040E050E07B
:101350000E94E93687FF0EC06A2D7D2D8C2D9B2DB6
:1013600020E030E040E85FE30E948536A62ED72ECD
:10137000C82EB92E6A2D7D2D8C2D9B2D20E030E0BE
:1013800040E85FE30E943338181674F46A2D7D2D0F
:101390008C2D9B2D20E030E040E85FE30E948436F6
:1013A000A62ED72EC82EB92E6A2D7D2D8C2D9B2DC5
:1013B00020E030E040EC50E40E94373820E030E09C
:1013C00040E85FE30E94E93687FDB9C06A2D7D2DB4
:1013D0008C2D9B2D2A2D3D2D4C2D5B2D0E9485366D
:1013E00020E030E040E85FE30E94E93687FDABC2D1
:1013F0006A2D7D2D8C2D9B2D20E030E040E450E4C3
:101400000E94373820E030E040E050E40E94E936A6
:1014100087FF94C2A2019101652F742D832F922D15
:10142000E981FA812B812987AC81AF879F014985AA
:101430005A2F0E94843669877A878B879C876BEA4C
:101440007AEA8AE29FE3EA2DFD2DAC2DBB2D9F01A8
:10145000AD010E9484369B01AC0169857A858B853C
:101460009C850E94373820E030E040EC50E40E9438
:101470003738B62FA72F89879F8779816A819B810B
:101480008C81272F362F492F582FCA01B9016D01A2
:10149000B984AF842D2D3C2D4B2D5A2D0E948536BD
:1014A0007FC0C601B50120E030E040E05FE30E946C
:1014B000333887FD13CFC601B501A40193010E9403
:1014C00085361B012C01C601B501A40193010E94C0
:1014D00037389B01AC01C201B1010E948436562EFF
:1014E000472E382E292EFACEAD85BE85AD92BD92FF
:1014F000CD92DC921397FD01A482B582C682D78279
:101500001896AD92BD92CD92DC921B972F960FB696
:10151000F894DEBF0FBECDBFCF91DF911F910F9129
:10152000FF90EF90DF90CF90BF90AF909F908F9003
:101530007F906F905F904F903F902F900895A20101
:101540009101652F742D832F922DB981AA81EB8192
:10155000E987FC81FF872B2F3A2FAF010E94843649
:1015600020E030E040EC50E40E9437389B01AC01B1
:101570006A2D7D2D8C2D9B2D0E9437385B016C01CF
:1015800079816A819B818C81272F362F492F582F93
:10159000CA01B9012A2D3B2D4C2D5D2D0E948536A7
:1015A000382F292F862F972FA32FB22FED85FE8559
:1015B00080839183A283B3836E2D7F2D802F912F03
:1015C00020E030E040E050E00E94E93687FF0CC0A8
:1015D0006E2D7F2D802F912F20E030E040E85FE3DB
:1015E0000E9485367B018C016E2D7F2D802F912FDF
:1015F00020E030E040E85FE30E943338181664F4DE
:101600006E2D7F2D802F912F20E030E040E85FE3AA
:101610000E9484367B018C016E2D7F2D802F912FAF
:1016200020E030E040EC50E40E94373820E030E029
:1016300040E85FE30E94E93687FD61C06E2D7F2D93
:10164000802F912F2E2D3F2D402F512F0E94853618
:1016500020E030E040E85FE30E94E93687FD78C192
:101660006E2D7F2D802F912F20E030E040E450E45C
:101670000E94373820E030E040E050E40E94E93634
:1016800087FF57C1A2019101652F742D832F922DE1
:10169000A981DA80CB80BC812A2F3D2D4C2D5B2F78
:1016A0000E9484365B016C016BEA7AEA8AE29FE36E
:1016B0002E2D3F2D402F512F0E9484369B01AC01CF
:1016C000C601B5010E94373820E030E040EC50E41C
:1016D0000E943738F62E072F182FB92F79816A818B
:1016E0009B818C81272F362F492F582FCA01B90192
:1016F0002F2D302F412F5B2F0E9485362FC0A20146
:101700009101652F742D832F922DB981AA81DB80E1
:10171000CC802B2F3A2F4D2D5C2D0E94843620E05B
:1017200030E040EC50E40E9437389B01AC016E2D54
:101730007F2D802F912F0E9437387B018C0179817A
:101740006A81C601272F362F492F582FCA01B901A8
:101750002E2D3F2D402F512F0E948536382F292FB7
:10176000862F972FA32FB22FED85FE858483958337
:10177000A683B7835D814E813F812885652F742FB5
:10178000832F922F20E030E040E050E00E94E936C5
:1017900087FF12C05D814E813F812885652F742FA0
:1017A000832F922F20E030E040E85FE30E948536EF
:1017B000962E672E882E792E692D762D882D972DC1
:1017C00020E030E040E85FE30E943338181674F4FC
:1017D000692D762D882D972D20E030E040E85FE3DD
:1017E0000E948436962E672E882E792E692D762DAE
:1017F000882D972D20E030E040EC50E40E943738EF
:1018000020E030E040E85FE30E94E93687FD4BC00E
:10181000692D762D882D972D292D362D482D572D64
:101820000E94853620E030E040E85FE30E94E93620
:1018300087FD6DC0692D762D882D972D20E030E035
:1018400040E450E40E94373820E030E040E050E4CB
:101850000E94E93687FF68C0A2019101652F742DAF
:10186000832F922DB981AA811B810C812B2F3A2FB6
:10187000412F502F0E9484367B018C016BEA7AEA5B
:101880008AE29FE3292D362D482D572D0E9484365C
:101890009B01AC01C801B7010E94373820E030E05D
:1018A00040EC50E41CC0A2019101652F742D832FE0
:1018B000922DB981AA811B810C812B2F3A2F412FA8
:1018C000502F0E94843620E030E040EC50E40E942B
:1018D00037389B01AC01692D762D882D972D0E94FC
:1018E00037387B018C0179816A819B818C81272F1C
:1018F000362F492F582FCA01B9012E2D3F2D402FC9
:10190000512F0E948536562E472E382E292EA201A1
:101910009101852F942DA32FB22DED85FE85808713
:101920009187A287B387F2CD59804A803B802C8073
:10193000EECF69817A818B819C8110CF69817A8118
:101940008B819C812DCE652D742D832D922D28CEDB
:10195000652D742D832D922D01CF2F923F924F92A2
:101960005F926F927F928F929F92AF92BF92CF922F
:10197000DF92EF92FF920F931F93DF93CF9300D0EC
:1019800000D0CDB7DEB79C838B832B0179018A0110
:1019900060E070E080E89FE30E948436D62EC72E78
:1019A000B82EA92EC801B701D601F5012B2F3A2F69
:1019B0004F2F5E2F0E948536362E272E89839A83DD
:1019C000C801B701F20120813181428153810E9417
:1019D00037383B014C01A6019501652F742F832FE9
:1019E000922FEB81FC8120813181428153810E94C1
:1019F00037389B01AC01C401B3010E948536D10187
:101A000069809A802B2F3A2F462D592D0E94ED3652
:101A1000EB81FC816083718382839383C801B7016A
:101A2000F20124813581468157810E9437383B017C
:101A30004C01A6019501652F742F832F922FEB8106
:101A4000FC8124813581468157810E9437389B0172
:101A5000AC01C401B3010E948536D10199806A802E
:101A60002B2F3A2F492D562D0E94ED36EB81FC810C
:101A70006483758386839783C801B701F20120854B
:101A80003185428553850E9437387B018C01A60140
:101A90009501652F742F832F922FEB81FC81208578
:101AA0003185428553850E9437389B01AC01C801BE
:101AB000B7010E948536D1012B2F3A2F492D562D83
:101AC0000E94ED36EB81FC81608771878287938766
:101AD0000F900F900F900F90CF91DF911F910F916A
:101AE000FF90EF90DF90CF90BF90AF909F908F903E
:101AF0007F906F905F904F903F902F900895EF925E
:101B0000FF920F931F93CF93DF93EC018FEFE82E9B
:101B10008FE7F82E012D112D0E9471399C01B9011A
:101B2000882777FD8095982F26E030E040E050E050
:101B30000E949A38A80197010E94B938223081F199
:101B4000233070F42223F1F48981833028F78F5FEA
:101B50008983DF91CF911F910F91FF90EF900895AE
:101B6000243061F1243018F12530B1F68A818330B8
:101B700098F68F5F8A83DF91CF911F910F91FF902D
:101B8000EF900895213041F68981882329F2815010
:101B90008983DF91CF911F910F91FF90EF9008956E
:101BA0008881882309F4B8CF81508883D2CF888177
:101BB000833008F0B1CF8F5F8883CBCF8A818823B1
:101BC00009F4AACF81508A83C4CFCF92DF92EF92DB
:101BD000FF920F931F93DF93CF93CDB7DEB72C9770
:101BE0000FB6F894DEBF0FBECDBF6E010894C11CC6
:101BF000D11CD601E0E1F1E08CE001900D92815022
:101C0000E1F7C60168EF72E00E9420090E94713975
:101C10009C01B901882777FD8095982F660F771F63
:101C2000881F991F660F771F881F991FFFEFEF2EE0
:101C3000FFE7FF2E012D112DA80197010E94B93851
:101C4000209304030E9471399C01B901882777FD14
:101C50008095982F660F771F881F991F660F771F33
:101C6000881F991FA80197010E94B9382093050386
:101C70000E9471399C01B901882777FD8095982FC2
:101C8000660F771F881F991F660F771F881F991F80
:101C9000A80197010E94B938209306030E94713968
:101CA0009C01B901882777FD8095982F0E94833782
:101CB00020E03EEF4FEF56E40E94ED3669837A83D1
:101CC0008B839C83C60167E073E00E9420090E9419
:101CD00071399C01B901882777FD8095982F660F8F
:101CE000771F881F991F660F771F881F991FA801EC
:101CF00097010E94B938209313030E9471399C0107
:101D0000B901882777FD8095982F660F771F881F68
:101D1000991F660F771F881F991FA80197010E94BE
:101D2000B938209314030E9471399C01B9018827A6
:101D300077FD8095982F660F771F881F991F660F74
:101D4000771F881F991FA80197010E94B938209317
:101D500015030E9471399C01B901882777FD809590
:101D6000982F0E94833720E03EEF4FEF56E40E9409
:101D7000ED3669837A838B839C83C60166E173E0C9
:101D80000E9420090E9471399C01B901882777FDC2
:101D90008095982F660F771F881F991F660F771FF2
:101DA000881F991FA80197010E94B9382093220328
:101DB0000E9471399C01B901882777FD8095982F81
:101DC000660F771F881F991F660F771F881F991F3F
:101DD000A80197010E94B938209323030E9471390A
:101DE0009C01B901882777FD8095982F660F771F92
:101DF000881F991F660F771F881F991FA8019701D9
:101E00000E94B938209324030E9471399C01B901C2
:101E1000882777FD8095982F0E94833720E03EEF3A
:101E20004FEF56E40E94ED3669837A838B839C835F
:101E3000C60165E273E00E9420090E9471399C018D
:101E4000B901882777FD8095982F660F771F881F27
:101E5000991F660F771F881F991FA80197010E947D
:101E6000B938209331030E9471399C01B901882748
:101E700077FD8095982F660F771F881F991F660F33
:101E8000771F881F991FA80197010E94B9382093D6
:101E900032030E9471399C01B901882777FD809532
:101EA000982F660F771F881F991F660F771F881F4F
:101EB000991FA80197010E94B938209333030E940B
:101EC00071399C01B901882777FD8095982F0E9470
:101ED000833720E03EEF4FEF56E40E94ED366983F2
:101EE0007A838B839C83C60164E373E00E9420099C
:101EF0000E9471399C01B901882777FD8095982F40
:101F0000660F771F881F991F660F771F881F991FFD
:101F1000A80197010E94B938209340030E947139AB
:101F20009C01B901882777FD8095982F660F771F50
:101F3000881F991F660F771F881F991FA801970197
:101F40000E94B938209341030E9471399C01B90164
:101F5000882777FD8095982F660F771F881F991F18
:101F6000660F771F881F991FA80197010E94B93833
:101F7000209342030E9471399C01B901882777FDA3
:101F80008095982F0E94833720E03EEF4FEF56E474
:101F90000E94ED3669837A838B839C83C60163E458
:101FA00073E00E9420090E9471399C01B9018827C1
:101FB00077FD8095982F660F771F881F991F660FF2
:101FC000771F881F991FA80197010E94B938209395
:101FD0004F030E9471399C01B901882777FD8095D4
:101FE000982F660F771F881F991F660F771F881F0E
:101FF000991FA80197010E94B938209350030E94AD
:1020000071399C01B901882777FD8095982F660F5B
:10201000771F881F991F660F771F881F991FA801B8
:1020200097010E94B938209351030E9471399C0195
:10203000B901882777FD8095982F0E94833720E08B
:102040003EEF4FEF56E40E94ED3669837A838B832F
:102050009C83C60162E573E00E9420090E947139E9
:102060009C01B901882777FD8095982F660F771F0F
:10207000881F991F660F771F881F991FA801970156
:102080000E94B93820935E030E9471399C01B90106
:10209000882777FD8095982F660F771F881F991FD7
:1020A000660F771F881F991FA80197010E94B938F2
:1020B00020935F030E9471399C01B901882777FD45
:1020C0008095982F660F771F881F991F660F771FBF
:1020D000881F991FA80197010E94B93820936003B7
:1020E0000E9471399C01B901882777FD8095982F4E
:1020F0000E94833720E03EEF4FEF56E40E94ED361A
:1021000069837A838B839C83C60161E673E00E94B6
:1021100020090E9471399C01B901882777FD8095BB
:10212000982F660F771F881F991F660F771F881FCC
:10213000991FA80197010E94B93820936D030E944E
:1021400071399C01B901882777FD8095982F660F1A
:10215000771F881F991F660F771F881F991FA80177
:1021600097010E94B93820936E030E9471399C0137
:10217000B901882777FD8095982F660F771F881FF4
:10218000991F660F771F881F991FA80197010E944A
:10219000B93820936F030E9471399C01B9018827D7
:1021A00077FD8095982F0E94833720E03EEF4FEF18
:1021B00056E40E94ED3669837A838B839C83C60143
:1021C00060E773E00E9420090E9471399C01B90107
:1021D000882777FD8095982F660F771F881F991F96
:1021E000660F771F881F991FA80197010E94B938B1
:1021F00020937C030E9471399C01B901882777FDE7
:102200008095982F660F771F881F991F660F771F7D
:10221000881F991FA80197010E94B93820937D0358
:102220000E9471399C01B901882777FD8095982F0C
:10223000660F771F881F991F660F771F881F991FCA
:10224000A80197010E94B93820937E030E9471393A
:102250009C01B901882777FD8095982F0E948337CC
:1022600020E03EEF4FEF56E40E94ED3669837A831B
:102270008B839C83C6016FE773E00E9420090E9454
:1022800071399C01B901882777FD8095982F660FD9
:10229000771F881F991F660F771F881F991FA80136
:1022A00097010E94B93820938B030E9471399C01D9
:1022B000B901882777FD8095982F660F771F881FB3
:1022C000991F660F771F881F991FA80197010E9409
:1022D000B93820938C030E9471399C01B901882779
:1022E00077FD8095982F660F771F881F991F660FBF
:1022F000771F881F991FA80197010E94B938209362
:102300008D030E9471392C960FB6F894DEBF0FBE74
:10231000CDBFCF91DF911F910F91FF90EF90DF9094
:10232000CF90089580E090E00E94CE0284E093E098
:102330000E947F0D84E093E068EF72E00E94440702
:1023400083E193E00E947F0D83E193E067E073E017
:102350000E94440782E293E00E947F0D82E293E0B4
:1023600066E173E00E94440781E393E00E947F0DE1
:1023700081E393E065E273E00E94440780E493E028
:102380000E947F0D80E493E064E373E00E944407C1
:102390008FE493E00E947F0D8FE493E063E473E0A9
:1023A0000E9444078EE593E00E947F0D8EE593E046
:1023B00062E573E00E9444078DE693E00E947F0D82
:1023C0008DE693E061E673E00E9444078CE793E0BA
:1023D0000E947F0D8CE793E060E773E00E94440762
:1023E0008BE893E00E947F0D8BE893E06FE773E04A
:1023F0000E9444070E94470388EE93E024EF31E0F7
:10240000F9013197F1F70197D9F708950F931F93C9
:10241000DF93CF93CDB7DEB72C970FB6F894DEBF1E
:102420000FBECDBF8E010F5F1F4FD801ECE1F1E071
:102430008CE001900D928150E1F780918E0388230A
:1024400009F4E8C0C80161E973E00E9420090E9414
:1024500071399C01B901882777FD8095982F0E94DA
:10246000833720E03EEF4FEF56E40E94ED3669835C
:102470007A838B839C8380918E03882309F43FC1E8
:10248000C80160EA73E00E9420090E9471399C0132
:10249000B901882777FD8095982F0E94833720E027
:1024A0003EEF4FEF56E40E94ED3669837A838B83CB
:1024B0009C8380918E03882309F4FAC0C8016FEAD7
:1024C00073E00E9420090E9471399C01B90188279C
:1024D00077FD8095982F0E94833720E03EEF4FEFE5
:1024E00056E40E94ED3669837A838B839C838091C6
:1024F0008E03882309F4B5C0C8016EEB73E00E9417
:1025000020090E9471399C01B901882777FD8095C7
:10251000982F0E94833720E03EEF4FEF56E40E9451
:10252000ED3669837A838B839C8380918E0381301F
:1025300029F480918F03882309F47DC1C8016DECD3
:1025400073E00E9420090E9471399C01B90188271B
:1025500077FD8095982F0E94833720E03EEF4FEF64
:1025600056E40E94ED3669837A838B839C83809145
:102570008E03813009F438C1C8016CED73E00E940C
:1025800020090E9471399C01B901882777FD809547
:10259000982F0E94833720E03EEF4FEF56E40E94D1
:1025A000ED3669837A838B839C8380918E0381309F
:1025B00009F4F3C0C8016BEE73E00E9420090E9489
:1025C00071399C01B901882777FD8095982F0E9469
:1025D000833720E03EEF4FEF56E40E94ED366983EB
:1025E0007A838B839C8380918E03813009F4AEC003
:1025F000C8016AEF73E00E9420090E9471392C968D
:102600000FB6F894DEBF0FBECDBFCF91DF911F9103
:102610000F91089580918F03882309F013CF809143
:102620009003882309F00ECF80E090E0A0E0B0E0B6
:102630008093910390939203A0939303B093940398
:102640008093950390939603A0939703B093980378
:102650008093990390939A03A0939B03B0939C0358
:1026600053C080918F03813009F046CF8091900351
:10267000813009F041CF80E090E0A0E0B0E08093AD
:10268000BE039093BF03A093C003B093C103809394
:10269000C2039093C303A093C403B093C503809374
:1026A000C6039093C703A093C803B093C90346CF52
:1026B00080918F03813009F001CF809190038823AE
:1026C00009F0FCCE80E090E0A0E0B0E08093AF03A2
:1026D0009093B003A093B103B093B2038093B3037C
:1026E0009093B403A093B503B093B6038093B7035C
:1026F0009093B803A093B903B093BA03B7CF809176
:102700008F03882309F0BCCE80919003813009F0BB
:10271000B7CE80E090E0A0E0B0E08093A00390937B
:10272000A103A093A203B093A3038093A403909367
:10273000A503A093A603B093A7038093A803909347
:10274000A903A093AA03B093AB03B8CE80918F03E3
:10275000813009F04DCF80919003813009F048CF4E
:1027600080E090E0A0E0B0E08093FA039093FB0358
:10277000A093FC03B093FD038093FE039093FF03AB
:10278000A0930004B0930104809302049093030487
:10279000A0930404B093050432CF80918F0381305D
:1027A00009F008CF80919003882309F003CF80E0DF
:1027B00090E0A0E0B0E08093EB039093EC03A09353
:1027C000ED03B093EE038093EF039093F003A09397
:1027D000F103B093F2038093F3039093F403A09377
:1027E000F503B093F603B7CF80918F03882309F0E8
:1027F000C3CE80919003813009F0BECE80E090E09E
:10280000A0E0B0E08093DC039093DD03A093DE03AF
:10281000B093DF038093E0039093E103A093E2037E
:10282000B093E3038093E4039093E503A093E6035E
:10283000B093E703BFCE80919003882309F07ECE4A
:1028400080E090E0A0E0B0E08093CD039093CE03D1
:10285000A093CF03B093D0038093D1039093D2037E
:10286000A093D303B093D4038093D5039093D6035E
:10287000A093D703B093D803BCCFDF92EF92FF921F
:102880000F931F93CF93DF93EC018B014881D42EDC
:102890004430B8F55981543040F54A81E52E443032
:1028A000B8F4F42E03C08F2D843088F48D2D6E2D56
:1028B0004F2D98010E949705F3944A81242F30E010
:1028C0002F5F3F4F8F2D90E02817390764F759810C
:1028D000E394852F90E001962E2D30E08217930728
:1028E0001CF08E2D8430D8F24881D394842F90E050
:1028F00001962D2D30E0821793071CF08D2D84302A
:1029000050F2DF91CF911F910F91FF90EF90DF90E8
:1029100008952F923F924F925F926F927F928F9283
:102920009F92AF92BF92CF92DF92EF92FF920F935E
:102930001F93DF93CF93CDB7DEB72C970FB6F894E4
:10294000DEBF0FBECDBF1C821B821E821D828B800C
:102950006B807C800894611C711C1A82198244244B
:1029600055244D815E818CE390E0489F9001499F02
:10297000300D589F300D11243A8729879980E980BE
:10298000FA800894E11CF11C01E010E0AA24222442
:102990003324C201880F991FA201440F551F42958D
:1029A0005295507F5427407F5427481B590B588716
:1029B0004F83910122953295307F3227207F322735
:1029C000221933094F815885240F351F89859A852F
:1029D000280F391F2F563C4F982D943080F5B82C76
:1029E000892D843018F5C92C4A2D4430B0F4DA2CE6
:1029F0003C872B8703C0ED2DE43068F48B2D6C2DC4
:102A00004D2D2B853C850E949705D3948D2D90E00C
:102A10000817190784F72B853C85C3948C2D90E00B
:102A2000E816F9061CF0FC2DF430F0F2B3948B2D6F
:102A300090E0681679061CF05B2D543088F20894FB
:102A4000211C311C92E0A90E0E5F1F4FEA2DE430CD
:102A500009F0AFCF0894411C511C29813A812E5FA7
:102A60003F4F3A83298332E04316510409F086CF61
:102A70008D819E8101969E838D83EB81FC813296B0
:102A8000FC83EB838230910509F061CF2C960FB661
:102A9000F894DEBF0FBECDBFCF91DF911F910F9194
:102AA000FF90EF90DF90CF90BF90AF909F908F906E
:102AB0007F906F905F904F903F902F9008950F936D
:102AC0001F93DF93CF930F92CDB7DEB78C0169834D
:102AD0000E947139AA2797FDA095BA2F6981262FE8
:102AE00030E040E050E0BC01CD010E949A382FEF69
:102AF0003FE740E050E00E94B938F801E20FF11DD5
:102B000080810F90CF91DF911F910F9108952F92A7
:102B10003F924F925F926F927F928F929F92AF926D
:102B2000BF92CF92DF92EF92FF920F931F93DF93AA
:102B3000CF93CDB7DEB7AF970FB6F894DEBF0FBE19
:102B4000CDBF80918E03882309F455C220910904DA
:102B5000243009F46BC283E08F83CE010996FE0115
:102B60003896CC24C3948E01095F1F4F30918F0398
:102B7000332309F436C2213031F0C39422E020839C
:102B8000FC012091090480919003882309F422C25A
:102B9000253019F0C39486E080830E947139DD24CA
:102BA000EE24FF249C01442737FD4095542FC70194
:102BB000B6010E949A382FEF3FE740E050E00E94B4
:102BC000B938F801E20FF11D80818093090460910A
:102BD0008E0350918F0340919003833009F420C2FB
:102BE000843008F0EDC1813009F430C2823009F43C
:102BF00027C24C8F5B8F6D8F3D8D232F30E03BA71D
:102C00002AA79C8D892F90E09BA38AA382959295F9
:102C1000907F9827807F98279DA78CA77C01EAA1A9
:102C2000FBA1EE1AFF0A8B8D90E09C01220F331F4F
:102C3000880F991F82959295907F9827807F98277B
:102C4000821B930BE80EF91E2CE330E0EAA5FBA5EE
:102C5000E29FC001E39F900DF29F900D1124E80EBA
:102C6000F91E21E933E0E20EF31E80E090E0A0E0DF
:102C7000B0E08D879E87AF87B88B898B9A8BAB8BA3
:102C8000BC8B8D8B9E8BAF8BB88F2D8D220F2983A4
:102C90009B8D990F9A838C8D880F8B83660F6C8325
:102CA000550F5D83440F4E83261708F484C16217C5
:102CB00008F47CC11F8E1E8E951708F472C1591737
:102CC00008F46AC119A218A2841708F451C1481760
:102CD00008F43BC11DA21CA29DE0C92ED12CCC0E34
:102CE000DD1EAE014C5F5F4F59A748A7CE0101968C
:102CF0009FA38EA314EF412E11E0512E4701F980BE
:102D00006F2C77240894611C711C3F2D343008F01F
:102D100095C1AF2C2A811401F98EE22E822E9924BE
:102D20000894811C911C243018F5BB800B2D10E0F9
:102D30000F5F1F4F4B2D443088F4FB2C03C05F2DD9
:102D4000543060F48A2D6E2D4F2D96010E94970508
:102D5000F3948F2D90E0081719078CF7E3948E2DCC
:102D600090E0881699061CF08E2D843018F32A8185
:102D7000A3948A2D90E0681679061CF09A2D943061
:102D800060F24101F98CAE8CAF0CA982F8A0F20E72
:102D9000FA826B80ECA16E0E6B822A2D30E02F5FE1
:102DA0003F4F3A8F298F3A2D3430D0F52F2C3324D2
:102DB0000894211C311C062D10E00F5F1F4FDFA669
:102DC000CEA6CF2C2C2D2430F0F4EC2C862D843084
:102DD00088F4F62C03C04F2D443060F48A2D6E2DFC
:102DE0004F2D94010E949705F3948F2D90E00817C2
:102DF00019078CF7E3948E2D90E0281639061CF005
:102E00005E2D543018F3A3948A2D90E0E98DFA8D4D
:102E1000E817F9071CF0FA2DF430A0F2CEA4DFA4D5
:102E20000E9447038CE291E0F2013197F1F701979C
:102E3000D9F78EA19FA168A579A543E050E00E9433
:102E4000643A009709F05BCF74018091900390E0A1
:102E5000FC01E295F295F07FFE27E07FFE27E81B5C
:102E6000F90B80918F0390E09C01220F331F880F94
:102E7000991F82959295907F9827807F9827821B33
:102E8000930BE80FF91F40918E0350E02CE330E0E4
:102E9000429FC001439F900D529F900D1124E80F57
:102EA000F91FACA5BDA54AA15BA1A41BB50B4AA502
:102EB0005BA5429FC001439F900D529F900D11242E
:102EC000A80FB91F8B8D90E09C01220F331F880F34
:102ED000991F82959295907F9827807F9827821BD3
:102EE000930BA80FB91FEF56FC4FAF56BC4F8CE0A9
:102EF0000D9001928150E1F7D701F6018CE001902D
:102F00000D928150E1F75D8D50938E038B8D8093F0
:102F10008F039C8D90939003AF960FB6F894DEBF0D
:102F20000FBECDBFCF91DF911F910F91FF90EF901A
:102F3000DF90CF90BF90AF909F908F907F906F90D9
:102F40005F904F903F902F9008958FEF9FEF9DA33C
:102F50008CA30DE0C02ED12CCC0EDD1EFE013496CC
:102F6000F9A7E8A79E012F5F3F4F3FA32EA3C2CE34
:102F7000E1E0F0E0FDA3ECA38DE0C82ED12CCC0E57
:102F8000DD1E9E012C5F3F4F39A728A7AE014F5F82
:102F90005F4F5FA34EA3AECE2FEF3FEF39A328A321
:102FA00093CEE1E0F0E0F9A3E8A38ECE2FEF3FEF60
:102FB0003F8F2E8F81CEE1E0F0E0FF8FEE8F7CCE51
:102FC000853041F18530E8F4962F9F5F9D8F4C8FBF
:102FD0005B8F12CE263009F4E0CDC39485E0808368
:102FE000DCCD223009F4CFCDC39421E02083FC0155
:102FF00020910904C8CD209109042330B9F084E060
:10300000ABCD863009F0F5CDF42FF150FC8F5B8FFE
:103010006D8FF2CDE42FEF5FEC8F5B8F6D8FECCD7A
:10302000862F81508D8F4C8F5B8FE6CD8E01095F8F
:103030001F4FCE010896F801CC2498CD2A81A3CE4B
:10304000352F31503B8F4C8F6D8FD6CD252F2F5F75
:103050002B8F4C8F6D8FD0CD2F923F924F925F92DE
:103060006F927F928F929F92AF92BF92CF92DF9298
:10307000EF92FF920F931F93DF93CF93CDB7DEB7FD
:103080002C970FB6F894DEBF0FBECDBF1A821982FF
:103090001E821D82898069807A800894611C711C5F
:1030A0001C821B82442455244D815E818CE390E078
:1030B000489F9001499F300D589F300D11243A8749
:1030C00029879B80EB80FC800894E11CF11C01E0C7
:1030D00010E0AA2422243324C201880F991FA201E0
:1030E000440F551F42955295507F5427407F5427D7
:1030F000481B590B58874F83910122953295307F99
:103100003227207F3227221933094F815885240F17
:10311000351F89859A85280F391F2F563C4F982DCA
:10312000943080F5B82C892D843018F5C92C4A2D9F
:103130004430B0F4DA2C3C872B8703C0ED2DE4300B
:1031400068F48B2D6C2D4D2D2B853C850E949705A9
:10315000D3948D2D90E00817190784F72B853C85B3
:10316000C3948C2D90E0E816F9061CF0FC2DF43089
:10317000F0F2B3948B2D90E0681679061CF05B2D6D
:10318000543088F20894211C311C92E0A90E0E5F85
:103190001F4FEA2DE43009F0AFCF0894411C511CB9
:1031A0002B813C812E5F3F4F3C832B8332E04316C3
:1031B000510409F086CF8D819E8101969E838D8377
:1031C000E981FA813296FA83E9838230910509F028
:1031D00061CF0E94470380ED97E024EF31E0F901D1
:1031E0003197F1F70197D9F70E9487152C960FB602
:1031F000F894DEBF0FBECDBFCF91DF911F910F912D
:10320000FF90EF90DF90CF90BF90AF909F908F9006
:103210007F906F905F904F903F902F9008952F92E6
:103220003F924F925F926F927F928F929F92AF9256
:10323000BF92CF92DF92EF92FF920F931F93DF9393
:10324000CF93CDB7DEB72C970FB6F894DEBF0FBE85
:10325000CDBF80E090E0A0E0B0E08D839E83AF839F
:10326000B88789879A87AB87BC8723E0622E7E0167
:103270000894E11CF11C04EF11E00F2EF0E0AF2EDA
:10328000F0E0BF2EF0E8CF2EFFE3DF2EF02D1C0183
:103290002D01772488249924A982BA82CB82DC82EA
:1032A000892D672D482D97010E9497050E9447039D
:1032B00088EE93E0F8013197F1F70197D9F7298269
:1032C0003A824B825C82AD82BE82CF82D886892DC3
:1032D000672D482D97010E9497050E94470388EEAD
:1032E00093E0F8013197F1F70197D9F72D823E82EB
:1032F0004F825886A986BA86CB86DC86892D672DB3
:10330000482D97010E9497050E94470388EE93E09D
:10331000F8013197F1F70197D9F729863A864B865C
:103320005C86892D672D482D97010E9497059394FF
:10333000892D843009F0B0CF8394882D843009F032
:10334000AACF7394872D843009F0A4CF6A9409F032
:10335000A0CF2C960FB6F894DEBF0FBECDBFCF9195
:10336000DF911F910F91FF90EF90DF90CF90BF9072
:10337000AF909F908F907F906F905F904F903F9015
:103380002F900895FF920F931F93DF93CF93CDB7A4
:10339000DEB72C970FB6F894DEBF0FBECDBF33E07B
:1033A000F32E8E010F5F1F4FD801E8E2F1E08CE0B1
:1033B00001900D928150E1F760E040E098010E9499
:1033C000970581E060E040E098010E94970582E067
:1033D00060E040E098010E94970583E060E040E0F3
:1033E00098010E949705D801E8E2F1E08CE0019095
:1033F0000D928150E1F760E041E098010E9497054D
:1034000081E060E041E098010E94970582E060E081
:1034100041E098010E94970583E060E041E0980157
:103420000E949705D801E8E2F1E08CE001900D924E
:103430008150E1F760E042E098010E94970581E049
:1034400060E042E098010E94970582E060E042E07F
:1034500098010E94970583E060E042E098010E9495
:103460009705D801E8E2F1E08CE001900D928150DF
:10347000E1F760E043E098010E94970581E060E099
:1034800043E098010E94970582E060E043E09801E4
:103490000E94970583E060E043E098010E94970551
:1034A000D801E8E2F1E08CE001900D928150E1F763
:1034B00061E040E098010E94970581E061E040E012
:1034C00098010E94970582E061E040E098010E9427
:1034D000970583E061E040E098010E949705D801DC
:1034E000E8E2F1E08CE001900D928150E1F761E0BB
:1034F00041E098010E94970581E061E041E0980178
:103500000E94970582E061E041E098010E949705E2
:1035100083E061E041E098010E949705D801E8E26C
:10352000F1E08CE001900D928150E1F761E042E022
:1035300098010E94970581E061E042E098010E94B5
:10354000970582E061E042E098010E94970583E0E0
:1035500061E042E098010E949705D801E8E2F1E0BD
:103560008CE001900D928150E1F761E043E0980119
:103570000E94970581E061E043E098010E94970571
:1035800082E061E043E098010E94970583E061E0FA
:1035900043E098010E949705D801E8E2F1E08CE051
:1035A00001900D928150E1F762E040E098010E94A5
:1035B000970581E062E040E098010E94970582E073
:1035C00062E040E098010E94970583E062E040E0FD
:1035D00098010E949705D801E8E2F1E08CE00190A3
:1035E0000D928150E1F762E041E098010E94970559
:1035F00081E062E041E098010E94970582E062E08C
:1036000041E098010E94970583E062E041E0980163
:103610000E949705D801E8E2F1E08CE001900D925C
:103620008150E1F762E042E098010E94970581E055
:1036300062E042E098010E94970582E062E042E089
:1036400098010E94970583E062E042E098010E94A1
:103650009705D801E8E2F1E08CE001900D928150ED
:10366000E1F762E043E098010E94970581E062E0A3
:1036700043E098010E94970582E062E043E09801F0
:103680000E94970583E062E043E098010E9497055D
:10369000D801E8E2F1E08CE001900D928150E1F771
:1036A00063E040E098010E94970581E063E040E01C
:1036B00098010E94970582E063E040E098010E9433
:1036C000970583E063E040E098010E949705D801E8
:1036D000E8E2F1E08CE001900D928150E1F763E0C7
:1036E00041E098010E94970581E063E041E0980184
:1036F0000E94970582E063E041E098010E949705EF
:1037000083E063E041E098010E949705D801E8E278
:10371000F1E08CE001900D928150E1F763E042E02E
:1037200098010E94970581E063E042E098010E94C1
:10373000970582E063E042E098010E94970583E0EC
:1037400063E042E098010E949705D801E8E2F1E0C9
:103750008CE001900D928150E1F763E043E0980125
:103760000E94970581E063E043E098010E9497057D
:1037700082E063E043E098010E94970583E063E004
:1037800043E098010E949705FA9409F00DCE0E943B
:1037900047032C960FB6F894DEBF0FBECDBFCF9176
:1037A000DF911F910F91FF9008952F923F924F92BA
:1037B0005F926F927F928F929F92AF92BF92CF92C1
:1037C000DF92EF92FF920F931F93DF93CF93CDB7CA
:1037D000DEB72C970FB6F894DEBF0FBECDBF222404
:1037E0007E010894E11CF11C04EF11E00F2EF0E0C3
:1037F0008F2EF0E09F2EF0E0AF2EF0E0BF2EF02DE8
:103800000F2EF0E04F2EF0E05F2EF0E86F2EFFE37A
:103810007F2EF02D3324DD2489829A82AB82BC82F4
:103820008D829E82AF82B88689869A86AB86BC8658
:10383000822D813009F44AC0823009F442C04982A5
:103840005A826B827C8282E390E00E94CE02CC247A
:103850008C2D632D4D2D97010E9497050E944703E3
:1038600088EB9BE0F8013197F1F70197D9F7C39402
:103870008C2D843069F7D3948D2D843069F6339480
:10388000832D843041F62394822D833009F0C2CFFA
:103890002C960FB6F894DEBF0FBECDBFCF91DF914F
:1038A0001F910F91FF90EF90DF90CF90BF90AF905E
:1038B0009F908F907F906F905F904F903F902F9050
:1038C000089549865A866B867C86BDCF4D825E827E
:1038D0006F827886B8CF2F923F924F925F926F920D
:1038E0007F928F929F92AF92BF92CF92DF92EF9290
:1038F000FF920F931F93DF93CF93CDB7DEB72C9733
:103900000FB6F894DEBF0FBECDBF88243E010894E9
:10391000611C711C04EF11E00F2EF0E0CF2EF0E0DF
:10392000DF2EF0E0EF2EF0E0FF2EF02D0F2EF0E076
:103930002F2EF0E03F2EF0E84F2EFFE35F2EF02D0C
:103940009924AA24BB24C982DA82EB82FC82CD822C
:10395000DE82EF82F886C986DA86EB86FC86882DC1
:10396000813009F459C0823009F451C029823A8269
:103970004B825C82892D6A2D4B2D93010E94970505
:103980000E94470380E197E2F8013197F1F7019730
:10399000D9F7C986DA86EB86FC86CD82DE82EF8295
:1039A000F886C982DA82EB82FC82892D6A2D4B2D42
:1039B00093010E949705B3948B2D843021F6A39434
:1039C0008A2D843009F0BECF9394892D843009F07C
:1039D000B8CF8394882D833009F0B2CF2C960FB6E0
:1039E000F894DEBF0FBECDBFCF91DF911F910F9135
:1039F000FF90EF90DF90CF90BF90AF909F908F900F
:103A00007F906F905F904F903F902F900895298600
:103A10003A864B865C86AECF2D823E824F82588698
:103A2000A9CF4F925F926F927F928F929F92AF92A7
:103A3000BF92CF92DF92EF92FF920F931F93DF938B
:103A4000CF93CDB7DEB72C970FB6F894DEBF0FBE7D
:103A5000CDBF99245E010894A11CB11C0F2EF0E08B
:103A60004F2EF0E05F2EF0E06F2EF0E07F2EF02D75
:103A70000F2EF0E0CF2EF0E0DF2EF0E8EF2EFFE388
:103A8000FF2EF02D04EF11E049825A826B827C8276
:103A90004D825E826F82788649865A866B867C86E6
:103AA0008824892D813009F4D1C1823009F433C1D1
:103AB000C982DA82EB82FC82882D60E040E09501C9
:103AC0000E949705892D813009F4CAC1823009F41A
:103AD0002CC1C982DA82EB82FC82882D60E041E051
:103AE00095010E949705892D813009F4C3C1823068
:103AF00009F425C1C982DA82EB82FC82882D60E05C
:103B000042E095010E949705892D813009F4BCC1DE
:103B1000823009F41EC1C982DA82EB82FC82882DD0
:103B200060E043E095010E949705892D813009F4FA
:103B3000B5C1823009F417C1C982DA82EB82FC82F6
:103B4000882D61E040E095010E949705892D813024
:103B500009F4AEC1823009F410C1C982DA82EB8265
:103B6000FC82882D61E041E095010E949705892D36
:103B7000813009F4A7C1823009F409C1C982DA820F
:103B8000EB82FC82882D61E042E095010E9497055E
:103B9000892D813009F4A0C1823009F402C1C982A3
:103BA000DA82EB82FC82882D61E043E095010E947D
:103BB0009705892D813009F499C1823009F4FBC041
:103BC000C982DA82EB82FC82882D62E040E09501B6
:103BD0000E949705892D813009F492C1823009F441
:103BE000F4C0C982DA82EB82FC82882D62E041E077
:103BF00095010E949705892D813009F48BC182308F
:103C000009F4EDC0C982DA82EB82FC82882D62E081
:103C100042E095010E949705892D813009F484C105
:103C2000823009F4E6C0C982DA82EB82FC82882DF8
:103C300062E043E095010E949705892D813009F4E7
:103C40007DC1823009F4DFC0C982DA82EB82FC8256
:103C5000882D63E040E095010E949705892D813011
:103C600009F476C1823009F4D8C0C982DA82EB82C5
:103C7000FC82882D63E041E095010E949705892D23
:103C8000813009F46FC1823009F4D1C0C982DA826F
:103C9000EB82FC82882D63E042E095010E9497054B
:103CA000892D813009F468C1823009F4CAC0C98203
:103CB000DA82EB82FC82882D63E043E095010E946A
:103CC00097058394882D843009F0EBCE0E9447033A
:103CD00088E99AE3F8013197F1F70197D9F79394BE
:103CE000892D833009F0D0CE2C960FB6F894DEBF24
:103CF0000FBECDBFCF91DF911F910F91FF90EF903D
:103D0000DF90CF90BF90AF909F908F907F906F90FB
:103D10005F904F900895C986DA86EB86FC86882DE1
:103D200060E040E095010E949705C986DA86EB863F
:103D3000FC86882D60E041E095010E949705C986C8
:103D4000DA86EB86FC86882D60E042E095010E94D1
:103D50009705C986DA86EB86FC86882D60E043E00D
:103D600095010E949705C986DA86EB86FC86882D28
:103D700061E040E095010E949705C986DA86EB86EE
:103D8000FC86882D61E041E095010E949705C98677
:103D9000DA86EB86FC86882D61E042E095010E9480
:103DA0009705C986DA86EB86FC86882D61E043E0BC
:103DB00095010E949705C986DA86EB86FC86882DD8
:103DC00062E040E095010E949705C986DA86EB869D
:103DD000FC86882D62E041E095010E949705C98626
:103DE000DA86EB86FC86882D62E042E095010E942F
:103DF0009705C986DA86EB86FC86882D62E043E06B
:103E000095010E949705C986DA86EB86FC86882D87
:103E100063E040E095010E949705C986DA86EB864B
:103E2000FC86882D63E041E095010E949705C986D4
:103E3000DA86EB86FC86882D63E042E095010E94DD
:103E40009705C986DA86EB86FC8635CFCD82DE8281
:103E5000EF82F886882D60E040E095010E9497058A
:103E6000CD82DE82EF82F886882D60E041E0950108
:103E70000E949705CD82DE82EF82F886882D60E071
:103E800042E095010E949705CD82DE82EF82F8869E
:103E9000882D60E043E095010E949705CD82DE8287
:103EA000EF82F886882D61E040E095010E94970539
:103EB000CD82DE82EF82F886882D61E041E09501B7
:103EC0000E949705CD82DE82EF82F886882D61E020
:103ED00042E095010E949705CD82DE82EF82F8864E
:103EE000882D61E043E095010E949705CD82DE8236
:103EF000EF82F886882D62E040E095010E949705E8
:103F0000CD82DE82EF82F886882D62E041E0950165
:103F10000E949705CD82DE82EF82F886882D62E0CE
:103F200042E095010E949705CD82DE82EF82F886FD
:103F3000882D62E043E095010E949705CD82DE82E4
:103F4000EF82F886882D63E040E095010E94970596
:103F5000CD82DE82EF82F886882D63E041E0950114
:103F60000E949705CD82DE82EF82F886882D63E07D
:103F700042E095010E949705CD82DE82EF82F886AD
:103F80009ACE80E090E00E94CE020E9447030895FE
:103F9000FF920F931F93DF93CF93CDB7DEB72C978C
:103FA0000FB6F894DEBF0FBECDBFFF248E010F5FAA
:103FB0001F4F0E9471399C01B901882777FD8095B8
:103FC000982F0E94833720E03EEF4FEF56E40E9487
:103FD000ED3660934C0170934D0180934E019093A8
:103FE0004F010E9471399C01B901882777FD8095A6
:103FF000982F0E94833720E03EEF4FEF56E40E9457
:10400000ED3620E030E040E05FE30E943738609317
:1040100054017093550180935601909357010E946B
:1040200071399C01B901882777FD8095982F0E94EE
:10403000833720E03EEF4FEF56E40E94ED3620E05C
:1040400030E040E85EE30E94373820E030E040E8AE
:104050005FE30E94853620E030E040E85EE30E94A6
:104060008436609350017093510180935201909374
:1040700053018CE491E0B8010E9420098F2D60E08B
:1040800040E098010E9497050E9471399C01B90196
:10409000882777FD8095982F0E94833720E03EEF98
:1040A0004FEF56E40E94ED3660934C0170934D0142
:1040B00080934E0190934F010E9471399C01B90188
:1040C000882777FD8095982F0E94833720E03EEF68
:1040D0004FEF56E40E94ED3620E030E040E05FE331
:1040E0000E943738609354017093550180935601B4
:1040F000909357010E9471399C01B901882777FD7F
:104100008095982F0E94833720E03EEF4FEF56E4D2
:104110000E94ED3620E030E040E85EE30E94373850
:1041200020E030E040E85FE30E94853620E030E0A8
:1041300040E85EE30E948436609350017093510121
:1041400080935201909353018CE491E0B8010E9456
:1041500020098F2D60E041E098010E9497050E94A0
:1041600071399C01B901882777FD8095982F0E94AD
:10417000833720E03EEF4FEF56E40E94ED36609328
:104180004C0170934D0180934E0190934F010E941A
:1041900071399C01B901882777FD8095982F0E947D
:1041A000833720E03EEF4FEF56E40E94ED3620E0EB
:1041B00030E040E05FE30E94373860935401709331
:1041C000550180935601909357010E9471399C01CB
:1041D000B901882777FD8095982F0E94833720E0CA
:1041E0003EEF4FEF56E40E94ED3620E030E040E82D
:1041F0005EE30E94373820E030E040E85FE30E9451
:10420000853620E030E040E85EE30E94843660932B
:1042100050017093510180935201909353018CE4AB
:1042200091E0B8010E9420098F2D60E042E09801E2
:104230000E9497050E9471399C01B901882777FD7A
:104240008095982F0E94833720E03EEF4FEF56E491
:104250000E94ED3660934C0170934D0180934E01A6
:1042600090934F010E9471399C01B901882777FD15
:104270008095982F0E94833720E03EEF4FEF56E461
:104280000E94ED3620E030E040E05FE30E943738E6
:104290006093540170935501809356019093570198
:1042A0000E9471399C01B901882777FD8095982F6C
:1042B0000E94833720E03EEF4FEF56E40E94ED3638
:1042C00020E030E040E85EE30E94373820E030E054
:1042D00040E85FE30E94853620E030E040E85EE39E
:1042E0000E94843660935001709351018093520173
:1042F000909353018CE491E0B8010E9420098F2D26
:1043000060E043E098010E9497050E9471399C018A
:10431000B901882777FD8095982F0E94833720E088
:104320003EEF4FEF56E40E94ED3660934C017093E0
:104330004D0180934E0190934F010E9471399C0171
:10434000B901882777FD8095982F0E94833720E058
:104350003EEF4FEF56E40E94ED3620E030E040E0C3
:104360005FE30E9437386093540170935501809346
:104370005601909357010E9471399C01B901882719
:1043800077FD8095982F0E94833720E03EEF4FEF16
:1043900056E40E94ED3620E030E040E85EE30E9403
:1043A000373820E030E040E85FE30E94853620E0C7
:1043B00030E040E85EE30E948436609350017093E1
:1043C000510180935201909353018CE491E0B80124
:1043D0000E9420098F2D61E040E098010E9497051E
:1043E0000E9471399C01B901882777FD8095982F2B
:1043F0000E94833720E03EEF4FEF56E40E94ED36F7
:1044000060934C0170934D0180934E0190934F0146
:104410000E9471399C01B901882777FD8095982FFA
:104420000E94833720E03EEF4FEF56E40E94ED36C6
:1044300020E030E040E05FE30E94373860935401B1
:104440007093550180935601909357010E947139E2
:104450009C01B901882777FD8095982F0E948337AA
:1044600020E03EEF4FEF56E40E94ED3620E030E0D2
:1044700040E85EE30E94373820E030E040E85FE348
:104480000E94853620E030E040E85EE30E948436FA
:1044900060935001709351018093520190935301A6
:1044A0008CE491E0B8010E9420098F2D61E041E089
:1044B00098010E9497050E9471399C01B9018827D3
:1044C00077FD8095982F0E94833720E03EEF4FEFD5
:1044D00056E40E94ED3660934C0170934D01809339
:1044E0004E0190934F010E9471399C01B9018827B8
:1044F00077FD8095982F0E94833720E03EEF4FEFA5
:1045000056E40E94ED3620E030E040E05FE30E9498
:1045100037386093540170935501809356019093FE
:1045200057010E9471399C01B901882777FD809558
:10453000982F0E94833720E03EEF4FEF56E40E9411
:10454000ED3620E030E040E85EE30E94373820E0BE
:1045500030E040E85FE30E94853620E030E040E84C
:104560005EE30E9484366093500170935101809302
:104570005201909353018CE491E0B8010E9420090C
:104580008F2D61E042E098010E9497050E947139E9
:104590009C01B901882777FD8095982F0E94833769
:1045A00020E03EEF4FEF56E40E94ED3660934C0161
:1045B00070934D0180934E0190934F010E94713989
:1045C0009C01B901882777FD8095982F0E94833739
:1045D00020E03EEF4FEF56E40E94ED3620E030E061
:1045E00040E05FE30E9437386093540170935501B7
:1045F00080935601909357010E9471399C01B90133
:10460000882777FD8095982F0E94833720E03EEF22
:104610004FEF56E40E94ED3620E030E040E85EE3E4
:104620000E94373820E030E040E85FE30E948536A2
:1046300020E030E040E85EE30E9484366093500161
:104640007093510180935201909353018CE491E057
:10465000B8010E9420098F2D61E043E098010E947B
:1046600097050E9471399C01B901882777FD8095D3
:10467000982F0E94833720E03EEF4FEF56E40E94D0
:10468000ED3660934C0170934D0180934E019093F1
:104690004F010E9471399C01B901882777FD8095EF
:1046A000982F0E94833720E03EEF4FEF56E40E94A0
:1046B000ED3620E030E040E05FE30E943738609361
:1046C00054017093550180935601909357010E94B5
:1046D00071399C01B901882777FD8095982F0E9438
:1046E000833720E03EEF4FEF56E40E94ED3620E0A6
:1046F00030E040E85EE30E94373820E030E040E8F8
:104700005FE30E94853620E030E040E85EE30E94EF
:1047100084366093500170935101809352019093BD
:1047200053018CE491E0B8010E9420098F2D62E0D2
:1047300040E098010E9497050E9471399C01B901DF
:10474000882777FD8095982F0E94833720E03EEFE1
:104750004FEF56E40E94ED3660934C0170934D018B
:1047600080934E0190934F010E9471399C01B901D1
:10477000882777FD8095982F0E94833720E03EEFB1
:104780004FEF56E40E94ED3620E030E040E05FE37A
:104790000E943738609354017093550180935601FD
:1047A000909357010E9471399C01B901882777FDC8
:1047B0008095982F0E94833720E03EEF4FEF56E41C
:1047C0000E94ED3620E030E040E85EE30E9437389A
:1047D00020E030E040E85FE30E94853620E030E0F2
:1047E00040E85EE30E94843660935001709351016B
:1047F00080935201909353018CE491E0B8010E94A0
:1048000020098F2D62E041E098010E9497050E94E7
:1048100071399C01B901882777FD8095982F0E94F6
:10482000833720E03EEF4FEF56E40E94ED36609371
:104830004C0170934D0180934E0190934F010E9463
:1048400071399C01B901882777FD8095982F0E94C6
:10485000833720E03EEF4FEF56E40E94ED3620E034
:1048600030E040E05FE30E9437386093540170937A
:10487000550180935601909357010E9471399C0114
:10488000B901882777FD8095982F0E94833720E013
:104890003EEF4FEF56E40E94ED3620E030E040E876
:1048A0005EE30E94373820E030E040E85FE30E949A
:1048B000853620E030E040E85EE30E948436609375
:1048C00050017093510180935201909353018CE4F5
:1048D00091E0B8010E9420098F2D62E042E098012A
:1048E0000E9497050E9471399C01B901882777FDC4
:1048F0008095982F0E94833720E03EEF4FEF56E4DB
:104900000E94ED3660934C0170934D0180934E01EF
:1049100090934F010E9471399C01B901882777FD5E
:104920008095982F0E94833720E03EEF4FEF56E4AA
:104930000E94ED3620E030E040E05FE30E9437382F
:1049400060935401709355018093560190935701E1
:104950000E9471399C01B901882777FD8095982FB5
:104960000E94833720E03EEF4FEF56E40E94ED3681
:1049700020E030E040E85EE30E94373820E030E09D
:1049800040E85FE30E94853620E030E040E85EE3E7
:104990000E948436609350017093510180935201BC
:1049A000909353018CE491E0B8010E9420098F2D6F
:1049B00062E043E098010E9497050E9471399C01D2
:1049C000B901882777FD8095982F0E94833720E0D2
:1049D0003EEF4FEF56E40E94ED3660934C0170932A
:1049E0004D0180934E0190934F010E9471399C01BB
:1049F000B901882777FD8095982F0E94833720E0A2
:104A00003EEF4FEF56E40E94ED3620E030E040E00C
:104A10005FE30E943738609354017093550180938F
:104A20005601909357010E9471399C01B901882762
:104A300077FD8095982F0E94833720E03EEF4FEF5F
:104A400056E40E94ED3620E030E040E85EE30E944C
:104A5000373820E030E040E85FE30E94853620E010
:104A600030E040E85EE30E9484366093500170932A
:104A7000510180935201909353018CE491E0B8016D
:104A80000E9420098F2D63E040E098010E94970565
:104A90000E9471399C01B901882777FD8095982F74
:104AA0000E94833720E03EEF4FEF56E40E94ED3640
:104AB00060934C0170934D0180934E0190934F0190
:104AC0000E9471399C01B901882777FD8095982F44
:104AD0000E94833720E03EEF4FEF56E40E94ED3610
:104AE00020E030E040E05FE30E94373860935401FB
:104AF0007093550180935601909357010E9471392C
:104B00009C01B901882777FD8095982F0E948337F3
:104B100020E03EEF4FEF56E40E94ED3620E030E01B
:104B200040E85EE30E94373820E030E040E85FE391
:104B30000E94853620E030E040E85EE30E94843643
:104B400060935001709351018093520190935301EF
:104B50008CE491E0B8010E9420098F2D63E041E0D0
:104B600098010E9497050E9471399C01B90188271C
:104B700077FD8095982F0E94833720E03EEF4FEF1E
:104B800056E40E94ED3660934C0170934D01809382
:104B90004E0190934F010E9471399C01B901882701
:104BA00077FD8095982F0E94833720E03EEF4FEFEE
:104BB00056E40E94ED3620E030E040E05FE30E94E2
:104BC0003738609354017093550180935601909348
:104BD00057010E9471399C01B901882777FD8095A2
:104BE000982F0E94833720E03EEF4FEF56E40E945B
:104BF000ED3620E030E040E85EE30E94373820E008
:104C000030E040E85FE30E94853620E030E040E895
:104C10005EE30E948436609350017093510180934B
:104C20005201909353018CE491E0B8010E94200955
:104C30008F2D63E042E098010E9497050E94713930
:104C40009C01B901882777FD8095982F0E948337B2
:104C500020E03EEF4FEF56E40E94ED3660934C01AA
:104C600070934D0180934E0190934F010E947139D2
:104C70009C01B901882777FD8095982F0E94833782
:104C800020E03EEF4FEF56E40E94ED3620E030E0AA
:104C900040E05FE30E943738609354017093550100
:104CA00080935601909357010E9471399C01B9017C
:104CB000882777FD8095982F0E94833720E03EEF6C
:104CC0004FEF56E40E94ED3620E030E040E85EE32E
:104CD0000E94373820E030E040E85FE30E948536EC
:104CE00020E030E040E85EE30E94843660935001AB
:104CF0007093510180935201909353018CE491E0A1
:104D0000B8010E9420098F2D63E043E098010E94C2
:104D10009705F3943F2D343009F04BC90E944703A7
:104D200088EE93E024EF31E0F9013197F1F7019734
:104D3000D9F72C960FB6F894DEBF0FBECDBFCF913A
:104D4000DF911F910F91FF900895DF92EF92FF92F4
:104D50000F931F93DF93CF93CDB7DEB72C970FB68A
:104D6000F894DEBF0FBECDBF60914001709141014C
:104D700080914201909143012FE632E143E05BE3F1
:104D80000E948536F62E172FE82E092F862F912F99
:104D9000AE2DB02F8093400190934101A09342012A
:104DA000B09343016F2D712F8E2D902F20E030E0B6
:104DB00040E85FE30E94333887FD12C06F2D712FEA
:104DC0008E2D902F20E030E040E85FE30E94843693
:104DD000609340017093410180934201909343019D
:104DE00080E491E07E010894E11CF11CB7010E946F
:104DF0002009DD2404EF11E08D2D60E040E09701F3
:104E00000E9497058D2D60E041E097010E94970573
:104E10008D2D60E042E097010E9497058D2D60E0A6
:104E200043E097010E9497058D2D61E040E09701D6
:104E30000E9497058D2D61E041E097010E94970542
:104E40008D2D61E042E097010E9497058D2D61E074
:104E500043E097010E9497058D2D62E040E09701A5
:104E60000E9497058D2D62E041E097010E94970511
:104E70008D2D62E042E097010E9497058D2D62E042
:104E800043E097010E9497058D2D63E040E0970174
:104E90000E9497058D2D63E041E097010E949705E0
:104EA0008D2D63E042E097010E9497058D2D63E010
:104EB00043E097010E9497050E94470380E090E03D
:104EC0000E94CE0224EF31E0C8010197F1F7215092
:104ED0003040D1F7D3948D2D843009F08DCF83E00D
:104EE000D82E04EF11E0DA948D2D60E040E09701B8
:104EF0000E9497058D2D60E041E097010E94970583
:104F00008D2D60E042E097010E9497058D2D60E0B5
:104F100043E097010E9497058D2D61E040E09701E5
:104F20000E9497058D2D61E041E097010E94970551
:104F30008D2D61E042E097010E9497058D2D61E083
:104F400043E097010E9497058D2D62E040E09701B4
:104F50000E9497058D2D62E041E097010E94970520
:104F60008D2D62E042E097010E9497058D2D62E051
:104F700043E097010E9497058D2D63E040E0970183
:104F80000E9497058D2D63E041E097010E949705EF
:104F90008D2D63E042E097010E9497058D2D63E01F
:104FA00043E097010E9497050E94470380E090E04C
:104FB0000E94CE0224EF31E0C8010197F1F72150A1
:104FC0003040D1F78D2D813009F08DCF2C960FB662
:104FD000F894DEBF0FBECDBFCF91DF911F910F912F
:104FE000FF90EF90DF9008952F923F924F925F9243
:104FF0006F927F928F929F92AF92BF92CF92DF92E9
:10500000EF92FF920F931F93DF93CF93CDB7DEB74D
:105010002D970FB6F894DEBF0FBECDBF0E94713939
:105020006091340170913501809136019091370182
:105030002AE037ED43EA5CE30E948536D62EE72E60
:10504000F82E092F862F9E2DAF2DB02F809334017F
:1050500090933501A0933601B09337016D2D7E2DCD
:105060008F2D902F20E030E040E85FE30E9433383E
:1050700087FD12C06D2D7E2D8F2D902F20E030E00A
:1050800040E85FE30E9484366093340170933501F9
:105090008093360190933701A9E05A2EFAE94F2EFA
:1050A000E9E93E2E79E9272E8EEB8D878E010F5F81
:1050B0001F4F64EFA62E61E0B62E682EE42CD32C91
:1050C000722C54E0F52E43E0C42E93018E2D9D2DBD
:1050D000A32FB62D80933C0190933D01A0933E01F8
:1050E000B0933F016E2D7D2D832F962D20E030E073
:1050F00040E05FE30E94333818160CF054C080E0A3
:1051000090E0A0E0BFE380933C0190933D01A09329
:105110003E01B0933F0184E391E0B8010E94200971
:10512000FF2009F461C0882499248C2D682D492D15
:1051300098010E94970593949F14B8F383948F1459
:1051400098F388249924892D682D4C2D98010E946C
:10515000970593949F14B8F383948F1498F388243D
:105160009924892D6C2D482D98010E9497059394C0
:105170009F14B8F383948F1498F30E944703CC20B4
:10518000B1F193016E2D7D2D832F962D2DEC3CECEE
:105190004CEC5DE30E948536E62ED72E782E692EE4
:1051A000CA94FA9492CF93016E2D7D2D832F962D64
:1051B00020E030E040E050E00E94E93687FFABCFCE
:1051C00080E090E0A0E0B0E080933C0190933D014E
:1051D000A0933E01B0933F0184E391E0B8010E94A7
:1051E0002009FF2009F09FCF0E944703CACF0E94E9
:1051F000470388E99AE3F5013197F1F70197D9F769
:105200002D85642D732D822D922F2DEC3CEC4CECD2
:105210005DE30E9485365A9431F0462E372E282EB3
:105220009D87692E4BCF2DEC3CEC4CEC5DE30E944E
:105230008436662E572E482E392E39E0232E24EF41
:10524000C22E21E0D22EE62CA52CB42C732C93E098
:10525000F92E8E2D9A2DAB2DB72D80933C01909376
:105260003D01A0933E01B0933F016E2D7A2D8B2D11
:10527000972D20E030E040E05FE30E9433381816BD
:105280000CF056C080E090E0A0E0BFE380933C01CA
:1052900090933D01A0933E01B0933F0184E391E0E0
:1052A000B8010E9420098F2C9F2C8F2D682D492D2D
:1052B00098010E9497059394892D8430B0F38394CC
:1052C000882D843089F78F2C9F2C892D682D4F2DA8
:1052D00098010E9497059394892D8430B0F38394AC
:1052E000882D843088F38F2C9F2C892D6F2D482D8D
:1052F00098010E9497059394892D8430B0F383948C
:10530000882D843088F30E944703FA948F2D8F3FB5
:1053100041F16E2D7A2D8B2D972D2DEC3CEC4CEC24
:105320005DE30E948436E62EA72EB82E792E91CF0B
:105330006E2D7A2D8B2D972D20E030E040E050E04F
:105340000E94E93687FFAACF80E090E0A0E0B0E0BD
:1053500080933C0190933D01A0933E01B0933F01A7
:105360009DCF0E94470388E99AE3F6013197F1F750
:105370000197D9F72A9479F0662D752D842D932DF8
:105380002DEC3CEC4CEC5DE30E948436662E572EEF
:10539000482E392E58CF2D960FB6F894DEBF0FBE8B
:1053A000CDBFCF91DF911F910F91FF90EF90DF90D4
:1053B000CF90BF90AF909F908F907F906F905F90B5
:1053C0004F903F902F9008950E94713910920A04D7
:1053D0009C01B901882777FD8095982F0E9483371B
:1053E00020E03EEF4FEF56E40E94ED3660934B0411
:1053F00070934C0480934D0490934E0480E090E0B1
:10540000A0E8BFE380934F0490935004A09351040D
:10541000B093520410920B0480E090E00E94CE0200
:105420000E94470308952CE330E0AC014E5F5F4FCC
:10543000C9010397DA01A20FB31FFA01E80FF91FA0
:1054400023E001900D922150E1F79C01009781F734
:1054500008950F931F93DF93CF930F92CDB7DEB7CD
:105460008C0169830E947139AA2797FDA095BA2FF4
:105470006981262F30E040E050E0BC01CD010E9460
:105480009A382FEF3FE740E050E00E94B938F8012A
:10549000E20FF11D80810F90CF91DF911F910F914D
:1054A00008958F929F92AF92BF92CF92DF92EF9228
:1054B000FF920F931F93DF93CF93CDB7DEB72C9757
:1054C0000FB6F894DEBF0FBECDBF8C01DC018C910E
:1054D000853110F48F5F8C93ACE3B0E098012E5FC0
:1054E0003F4FCD010397A20FB31FF901E80FF91F3A
:1054F00043E001900D924150E1F7DC01009789F7FC
:10550000F8018081813009F409C1F8014281442306
:1055100009F07BC09E012B5F3F4FCE010496FE0138
:10552000339642E0842E912C8C0E9D1E5E010894D1
:10553000A11CB11CA501CC24D8011196FC90BF2D53
:10554000B43009F4E0C0C39463E0DA016C93D8018D
:1055500013964C911397442309F488C0BF2DB130A2
:1055600009F4D8C0C39452E0D4015C93433008F4EA
:105570007AC0D80114962C911497222309F46BC099
:10558000BF2DB63009F4C4C0C39435E03083233056
:1055900008F460C00E947139DD24EE24FF249C01D0
:1055A000442737FD4095542FC701B6010E949A3811
:1055B0002FEF3FE740E050E00E94B938F501E20FDD
:1055C000F11D8081D80111968C931197833009F4D5
:1055D0006FC0843008F052C0813009F472C082304C
:1055E00009F461C02C960FB6F894DEBF0FBECDBF94
:1055F000CF91DF911F910F91FF90EF90DF90CF90AF
:10560000BF90AF909F908F900895F180FF2DF33061
:1056100009F468C084E08983BE016A5F7F4F9E0100
:105620002B5F3F4FCE010496FE01339652E0852E4C
:10563000912C8C0E9D1ECC24C3945E010894A11C59
:10564000B11C433008F083CFA4014F01FC01C90114
:105650009B0175CFFC012F2D253009F49BCFC394FE
:1056600086E0808397CF4F01FC01C901BF2DB23086
:10567000B1F1C39421E0D4012C937BCF853051F15B
:10568000853028F4F801828181508283ABCF863047
:1056900009F0A8CFD80114968C9114978F5F1496B7
:1056A0008C9314979FCFF8018381815083839ACF85
:1056B000D80112968C9112978F5F12968C93129745
:1056C00091CFD80113968C9113978F5F13968C937B
:1056D000139788CFF80184818150848383CFCF01D1
:1056E000F40147CFBE016B5F7F4F9E012C5F3F4FA0
:1056F000CE010396FE0132965E010894A11CB11CF6
:105700004501CC249ECF9C01CF01F4014A011FCF5B
:10571000CF013DCF9C01CF01F40128CF0E94713908
:105720009C01B901882777FD8095982F660F771F18
:10573000881F991F660F771F881F991FAFEFCA2E0A
:10574000AFE7DA2EE12CF12CA70196010E94B938BF
:10575000D80112962C930E947139FC01BF01882751
:1057600077FD8095982F660F771F881F991F660F0A
:10577000771F881F991FA70196010E94B938D80189
:1057800013962C930E947139FC01BF01882777FD85
:105790008095982F660F771F881F991F660F771FB8
:1057A000881F991FA70196010E94B938D801149645
:1057B0002C93149717CF2F923F924F925F926F9234
:1057C0007F928F929F92AF92BF92CF92DF92EF9291
:1057D000FF920F931F93DF93CF93CDB7DEB7AF97B1
:1057E0000FB6F894DEBF0FBECDBF9EA38DA3FC0104
:1057F000F0806F2D70E080E090E00E9481375B01C7
:105800006C0160E070E080E09FE3A60195010E94DA
:10581000ED366FA378A789A7492E0DA11EA10F5BB6
:105820001F4FF80160817181828193812FE632E1FF
:1058300043E85AE30E948536262F372F482F592FE9
:10584000F801208331834283538320E030E040E835
:105850005FE30E94333887FD09C080E090E0A0E05C
:10586000B0E0F80180839183A283B383EDA1FEA110
:10587000E75BFF4F80E090E0A0E0B0E080839183A1
:10588000A283B383FE013D96D8018CE00D90019276
:105890008150E1F76DEC7CEC8CE49EE3A601950170
:1058A0000E94ED366CA77DA78EA79FA7FF2009F465
:1058B000DEC08F2D90E001978C01000F111F080FA3
:1058C000191F0E5F1F4F8DA19EA1080F191F99244C
:1058D00002969BA78AA71E010894211C311C89E10E
:1058E000A82EB12CAC0EBD1E43C0CE010D96B10149
:1058F0000E942009C801B5010E941508698D7A8DA2
:105900008B8D9C8D20E030E040E050E00E94E93635
:105910008823C9F46D8D7E8D8F8D98A120E030E0B5
:1059200040E050E00E94E936882369F469A17AA139
:105930008BA19CA120E030E040E050E00E94E936DD
:10594000882309F489C0C501B10120E030E040E0BE
:105950005FE30E94AD0CC801B5010E944407939417
:10596000EDA1FEA18081981608F081C0035010407F
:105970005FA148A539A5652F742F832F942D2D89FC
:105980003E894F89588D0E948536862E772E682E47
:10599000592E862F972DA62DB52D8D8B9E8BAF8BD7
:1059A000B88F5CA54DA53EA52FA5652F742F832F1D
:1059B000922F2D853E854F8558890E948536F62E7B
:1059C000E72ED82EC92EA7019601852F942FA32F3D
:1059D000B22F8D879E87AF87B88B652F742F832F4B
:1059E000922F20E030E040E85FE30E94333887FDEB
:1059F00010C0A7019601652F742F832F922F20E0EE
:105A000030E040E85FE30E9484366D877E878F87B1
:105A1000988B682D772D862D952D20E030E040E085
:105A20005FE30E943338181644F480E090E0A0E071
:105A3000BFE38D8B9E8BAF8BB88FEAA5FBA50E17AE
:105A40001F0709F052CF80E090E0A0E0BFE38D8B0C
:105A50009E8BAF8BB88F49CFC801B1010E9444071C
:105A60009394EDA1FEA18081981608F47FCFAF96A4
:105A70000FB6F894DEBF0FBECDBFCF91DF911F915F
:105A80000F91FF90EF90DF90CF90BF90AF909F90DD
:105A90008F907F906F905F904F903F902F900895E0
:105AA000AF92BF92CF92DF92EF92FF920F931F932C
:105AB000CF93DF930E947139EC01E0905801F09090
:105AC000590100915A0110915B01C801B70120E012
:105AD00030E040EC50E40E94373820E030E040EE07
