:100000000C94B5000C94D2000C94D2000C94D20045
:100010000C94D2000C94D2000C94D2000C94D20018
:100020000C94D2000C94D2000C94D2000C94D20008
:100030000C94D2000C943A290C94D2000C94D20067
:100040000C94D2000C941D290C94D2000C94D20074
:100050000C94D2000C94F7280C94D2000C94D2008B
:100060000C94D2000C94D2006E616E00696E660032
:1000700000407A10F35A00A0724E18090010A5D45F
:10008000E80000E87648170000E40B54020000CABC
:100090009A3B000000E1F505000080969800000002
:1000A00040420F000000A086010000001027000061
:1000B0000000E803000000006400000000000A00E7
:1000C000000000000100000000002C76D888DC67EA
:1000D0004F0823DFC1DFAE59E1B1B796E5E3E45342
:1000E000C63AE651997696E8E6C28426EB898C9B5F
:1000F00062ED407C6FFCEFBC9C9F40F2BAA56FA5FF
:10010000F490055A2AF75C936B6CF9676DC11BFC80
:10011000E0E40D47FEF520E6B500D0ED902E03009B
:10012000943577050080841E080000204E0A0000E8
:1001300000C80C333333330F986E12831141EF8DA7
:100140002114893BE65516CFFEE6DB18D1844B38E7
:100150001BF77C1D901DA4BBE424203284725E2218
:100160008100C9F124ECA1E53D2711241FBECFEF8A
:10017000D8E0DEBFCDBF11E0A0E0B1E0EAE6F8E6EE
:1001800002C005900D92A834B107D9F717E0A8E492
:10019000B1E001C01D92AC3BB107E1F70E94D40071
:1001A0000C9433340C9400000F931F93DF93CF9380
:1001B00000D000D0CDB7DEB70E942E278E010F5F92
:1001C0001F4FC80160E070E044E050E00E940B3433
:1001D00089819A81AB81BC810E947B3289819A811D
:1001E000AB81BC810196A11DB11D89839A83AB832C
:1001F000BC83C80160E070E044E050E00E941B3422
:1002000080E090E00E94CE020E9447030E942B08EB
:100210000E94D5218091490190914A01A0914B0102
:10022000B0914C010196A11DB11D8093490190939D
:100230004A01A0934B01B0934C010E9446270E94B3
:10024000F226E8CFEF92FF920F931F93DF93CF93A5
:1002500000D000D0CDB7DEB780E0E82E80E0F82EE9
:100260008E010F5F1F4FC801B70144E050E00E94AC
:100270000B3489819A81AB81BC810E947B32898158
:100280009A81AB81BC810196A11DB11D89839A839E
:10029000AB83BC83C801B70144E050E00E941B342B
:1002A0000F900F900F900F90CF91DF911F910F91B2
:1002B000FF90EF90089583E28093B00021E02093B7
:1002C000B40083E08093B30089E08093B10080E2C2
:1002D0008093800081E090E0909389008093880073
:1002E00082E090E090938B0080938A0084E290E219
:1002F000909387008093860081E180938100209312
:100300006F0078940895229A2A9A239A259A2D9814
:1003100080E58CBD8DB581608DBD08959CB5259A15
:100320008CB58F7B8CBD2D9A2D989CBD0895982FF0
:1003300096959695E92FEE0FE90FF0E0E053FD4F0B
:10034000DF011196990F990F891B8130C1F081301F
:1003500028F0823021F1833039F008958081807C4B
:100360006F73862B80830895660F660F11968C91AC
:1003700011978370682B11966C9311970895908153
:100380009F73862F8295880F880F807C892B8083AE
:10039000669566958181807F682B61830895862F9D
:1003A0008295807F91819F70892B818362956F7088
:1003B00011968C9111978C7F682B11966C931197E5
:1003C00008950F931F93582F082F0295000F000FC9
:1003D000007C182F16951695782F7295707F682FD0
:1003E00062956F70550F550F20E030E08F7309C094
:1003F0009081907C982B90832F5F3F4F2031310567
:1004000021F1422F922F96959695E92FEE0FE90F45
:10041000F0E0E053FD4FDF011196990F990F491B52
:10042000413019F1413020F3423091F0433021F74F
:1004300011969C9111979370952B11969C931197FF
:100440002F5F3F4F20313105E1F61F910F91089545
:1004500091819F70972B918311969C9111979C7F0E
:10046000962B11969C931197C7CF90819F73902BD9
:1004700090839181907F912B9183BECF8EBD0DB4DF
:1004800007FEFDCF0895289AECEDF2E082918EBD33
:100490000DB407FEFDCF82E0E03DF807B9F7299AD9
:1004A000299888E11EBC0DB407FEFDCF8150D1F71D
:1004B0009CB5259A8CB58F7B8CBD2D9A2D989CBDB3
:1004C0000895982F9695E8E16E9FF0011124292F49
:1004D000220F290FE20FF11DE05BFE4FDF011196A5
:1004E000990F891B31F440838181807F852B818323
:1004F0000895813009F00895842F8295807F91813D
:100500009F70892B8183529542954F7045275F706C
:10051000452711964C9311970895CF93DF93DA01F5
:10052000982F9695E8E16E9FF0011124292F220F54
:10053000290FE20FF11DE05BFE4FEF012196990FAD
:10054000891B99F4208130E011963C932E93818190
:1005500090E08F709070982F8827822B932B1196A4
:100560009C938E93DF91CF9108958130D9F7898143
:1005700090E082959295907F9827807F982711969A
:100580009C938E93218122952F7030E0282B392B5C
:1005900011963C932E93DF91CF910895282F592FD8
:1005A000482F4295407F929582958F7089279F7042
:1005B0008927382FE0E5F1E080E090E0DC01A05BE6
:1005C000BE4F2083652F6F70642B11966C9311972B
:1005D00012963C93DC01AD5ABE4F2383652F6F709A
:1005E000642B11966C93119712963C93DC01AA5AD6
:1005F000BE4F2683652F6F70642B11966C931197F5
:1006000012963C93DC01A75ABE4F2187652F6F706D
:10061000642B11966C93119712963C93DC01A45AAB
:10062000BE4F2487652F6F70642B11966C931197C2
:1006300012963C93DC01A15ABE4F2787652F6F703D
:10064000642B11966C93119712963C93DC01AE5972
:10065000BE4F228B652F6F70642B11966C93119790
:1006600012963C93DC01AB59BE4F258B652F6F7002
:10067000642B11966C93119712963C93129748969F
:10068000789661E08038960709F098CF0895ACEB32
:10069000B5E0E0E5F1E080E891E001900D9201978E
:1006A000E1F708950F931F93CF93DF93EC016C81D3
:1006B0007D818E819F810E945A30162F68817981B9
:1006C0008A819B810E945A306F73812F8295880F97
:1006D000880F807C862B8093D002688579858A85F7
:1006E0009B850E945A30862F8295807F169516959D
:1006F0001F70812B8093D1021091D2021C7F6295D2
:100700006F70162B1093D2021370688179818A81E1
:100710009B810E945A30660F660F612B6093D20254
:10072000688579858A859B850E945A30062F6C8161
:100730007D818E819F810E945A306F73802F8295B8
:10074000880F880F807C862B8093D3021091D4026F
:10075000107F06950695102B1093D402688179813D
:100760008A819B810E945A30862F8295807F1F70DC
:10077000812B8093D4021091D5021C7F62956F70FB
:10078000162B1093D50213706C817D818E819F8111
:100790000E945A30660F660F612B6093D50210914C
:1007A000D602107C688579858A859B850E945A309F
:1007B0006F73162B1093D602688179818A819B8191
:1007C0000E945A301F73862F8295880F880F807C75
:1007D000812B8093D6021091D702107F6695669583
:1007E000162B1093D7026C817D818E819F810E9490
:1007F0005A30862F8295807F1F70812B8093D7027D
:100800001091D8021C7F62956F70162B1093D8023E
:100810001370688579858A859B850E945A30660F9A
:10082000660F612B6093D802DF91CF911F910F91DA
:1008300008952898209A2A9A229A539A219A8FEBFF
:100840008093D0028CE28093D1028FEF8093D2020A
:1008500082EB8093D3028CEF8093D4028BEC809355
:10086000D50292EF9093D6029FE29093D7028093A5
:10087000D802229A2A9A239A259A2D9880E58CBD2F
:100880008DB581608DBD289AECEDF2E082918EBD30
:100890000DB407FEFDCF22E0E03DF207B9F7299A3B
:1008A000299888E11EBC0DB407FEFDCF8150D1F719
:1008B0009CB5259A8CB58F7B8CBD2D9A2D989CBDAF
:1008C00021E020934D0128988DB580688DBD8CB5B1
:1008D00080688CBD83E28093B0002093B40083E0F5
:1008E0008093B30089E08093B10080E28093800020
:1008F00081E090E0909389008093880082E090E00E
:1009000090938B0080938A0084E290E2909387001A
:100910008093860081E18093810020936F0078941A
:10092000E0E5F1E080E090E0DC01A05BBE4F1082EA
:1009300011961C92119712961C92DC01AD5ABE4F73
:10094000138211961C92119712961C92DC01AA5ADE
:10095000BE4F168211961C92119712961C92DC01C2
:10096000A75ABE4F118611961C92119712961C928F
:10097000DC01A45ABE4F148611961C921197129650
:100980001C92DC01A15ABE4F178611961C9211973A
:1009900012961C92DC01AE59BE4F128A11961C921F
:1009A000119712961C92DC01AB59BE4F158A119615
:1009B0001C92119712961C9212974896789621E0F5
:1009C0008038920709F0B0CFACEBB5E0E0E5F1E09C
:1009D00080E891E001900D920197E1F70895449825
:1009E0000895449A08953D9A3C9A3B9A45984398B5
:1009F0004498449A0895EF92FF920F931F93CF93D8
:100A0000DF93982F990F980F892F8695440F440FE5
:100A1000460FE8E14E9FF0011124482F440F480F84
:100A2000DF01A40FB11DA05BBE4FED012196880F21
:100A3000492F481B09F060C02C9311968C91119797
:100A4000807F832B11968C93392F3F5F832F869560
:100A5000282F220F280FDF01A20FB11DA05BBE4F70
:100A6000ED012196880F381B91F50C9311968C910E
:100A70001197807F812B11968C939E5F892F86958D
:100A8000282F220F280FE20FF11DE05BFE4FDF0140
:100A90001196880F981B09F445C0913089F48E2D6A
:100AA0008295807F91819F70892B8183F294E2945B
:100AB0007FE0E722EF24F722EF241196EC921197C2
:100AC000DF91CF911F910F91FF90EF9008953130FA
:100AD000A1F6802F8295807F11962C9111972F700F
:100AE000822B11968C931197129502950F70012706
:100AF0001F7001270983C1CF413009F0A5CF822F94
:100B00008295807F11964C9111974F70842B11968E
:100B10008C931197329522952F7023273F702327AE
:100B2000298392CFE0828181807F8F298183DF9129
:100B3000CF911F910F91FF90EF900895AF92BF92C8
:100B4000CF92DF92FF920F931F93CF93DF93F62EF6
:100B5000042FE901182F110F180F688179818A81FC
:100B60009B8120E030EF4FE755E40E943C310E942A
:100B70005A306B016C817D818E819F8120E030EF46
:100B80004FE755E40E943C310E945A305B01688572
:100B900079858A859B8520E030EF4FE755E40E94F8
:100BA0003C310E945A30812F8695000F000F0F0DA7
:100BB000E8E10E9FF0011124982F990F980FDF01A3
:100BC000A90FB11DA05BBE4FED012196880F912F9B
:100BD000981B09F063C0CC9211968C911197807F7D
:100BE0008D2911968C93212F2F5F822F8695982F18
:100BF000990F980FDF01A90FB11DA05BBE4FED014A
:100C00002196880F281BA1F5AC9211968C91119713
:100C1000807F8B2911968C931E5F812F8695982F4C
:100C2000990F980FE90FF11DE05BFE4FDF01119660
:100C3000880F181B09F449C0113081F4862F829562
:100C4000807F91819F70892B8183729562956F70EF
:100C500067277F70672711966C931197DF91CF916B
:100C60001F910F91FF90DF90CF90BF90AF900895AC
:100C7000213091F68A2D8295807F11969C91119753
:100C80009F70892B11968C931197B294A2940FE0C8
:100C9000A022AB24B022AB24A982BECF913009F0B0
:100CA000A2CF8C2D8295807F11969C9111979F7079
:100CB000892B11968C931197D294C2948FE0C822FD
:100CC000CD24D822CD24C9828ECF60838181807FBC
:100CD000872B8183C3CFCF92DF92EF92FF920F9346
:100CE0001F93CF93DF93E901982F990F980F892FC6
:100CF0008695440F440F460FA8E14A9FD001112466
:100D0000282F220F280FAD01420F511D9A01205BA1
:100D10003E4FA9014F5F5F4F880F692F681B09F095
:100D200098C0F901C080DD24218130E02F7030703F
:100D3000322F2227C22AD32A692F6F5F862F8695EA
:100D4000282F220F280FAD01420F511D9A01205B61
:100D50003E4FA9014F5F5F4F880F681B09F065C0C8
:100D6000F901008110E0218130E02F703070322FC6
:100D70002227022B132B9E5F892F8695282F220F67
:100D8000280FA20FB11DA05BBE4F9D012F5F3F4FEB
:100D9000880F981B09F472C0913089F4F901E18041
:100DA000FF24E294F29490EFF922FE24E922FE243B
:100DB00011968C9182958F7090E0E82AF92AB601FD
:100DC00080E090E00E94863020E030EF4FE755E46D
:100DD0000E94F22F688379838A839B83B80180E025
:100DE00090E00E94863020E030EF4FE755E40E940B
:100DF000F22F6C837D838E839F83B70180E090E028
:100E00000E94863020E030EF4FE755E40E94F22F39
:100E1000688779878A879B87DF91CF911F910F9190
:100E2000FF90EF90DF90CF900895613009F0A3CF4D
:100E3000FA01018110E002951295107F1027007FC2
:100E40001027F901218122952F7030E0022B132BFE
:100E500092CF613009F070CFFA01C180DD24C294D5
:100E6000D29460EFD622DC24C622DC24F901218151
:100E700022952F7030E0C22AD32A5ECFEC90FF2457
:100E800011968C91119790E08F709070982F882711
:100E9000E82AF92A94CFAF92BF92CF92DF92EF92D5
:100EA000FF921F93CF93DF937C01EB01FC018081C4
:100EB000182F110F180F688179818A819B8120E09A
:100EC00030EF4FE755E40E943C310E945A306B01ED
:100ED0006C817D818E819F8120E030EF4FE755E46A
:100EE0000E943C310E945A305B01688579858A8571
:100EF0009B8520E030EF4FE755E40E943C310E9493
:100F00005A30912F9695F7018281880F880F2181A1
:100F1000820FE8E18E9FF0011124892F880F890F3D
:100F2000DF01A80FB11DA05BBE4FED012196990F07
:100F3000812F891B09F063C0CC9211968C91119777
:100F4000807F8D2911968C93212F2F5F822F86957C
:100F5000982F990F980FDF01A90FB11DA05BBE4F0D
:100F6000ED012196880F281BA1F5AC9211968C916A
:100F70001197807F8B2911968C931E5F812F869508
:100F8000982F990F980FE90FF11DE05BFE4FDF01DD
:100F90001196880F181B09F449C0113081F4862F6F
:100FA0008295807F91819F70892B81837295629554
:100FB0006F7067277F70672711966C931197DF9189
:100FC000CF911F91FF90EF90DF90CF90BF90AF90A7
:100FD0000895213091F68A2D8295807F11969C91FB
:100FE00011979F70892B11968C931197B294A294AC
:100FF000AFE0AA22AB24BA22AB24A982BECF8130B3
:1010000009F0A2CF8C2D8295807F11969C9111972B
:101010009F70892B11968C931197D294C294BFE044
:10102000CB22CD24DB22CD24C9828ECF6083818167
:10103000807F872B8183C3CFFC019B0180816181ED
:1010400042810E946B060895E0E6F0E080818061B5
:101050008083108208953D9A3C9A3B9A4598439824
:101060004498449A0E941904E0E6F0E0808180618F
:101070008083108208956F927F928F929F92AF9299
:10108000BF92CF92DF92EF92FF920F931F93D62ED3
:10109000C72EB82EA92E922E832E742E652EA60151
:1010A0009501652F742F832F922F20E030E040E0D0
:1010B00050E00E94EE2F87FF10C0A6019501652F1A
:1010C000742F832F922F20E030E040E85FE30E94EE
:1010D0008A2FD62EC72EB82EA92EA6019501652FD0
:1010E0007C2D832F9A2D20E030E040E85FE30E94C2
:1010F0003831181684F4A6019501652F7C2D832FB5
:101100009A2D20E030E040E85FE30E94892FD62E40
:10111000C72EB82EA92EA6019501652F7C2D832FF1
:101120009A2D20E030E040EC50E40E943C3120E079
:1011300030E040E85FE30E94EE2F87FD6AC0A60121
:101140009501652F7C2D832F9A2DD601F5012B2F2C
:101150003C2D4F2F5A2D0E948A2F20E030E040E88E
:101160005FE30E94EE2F87FD51C0A6019501652F18
:101170007C2D832F9A2D20E030E040E450E40E9443
:101180003C3120E030E040E050E40E94EE2F87FF49
:1011900059C06E2D7F2D802F912FD401F3012B2F5D
:1011A000382D4F2F562D0E94892F7B018C016BEA21
:1011B0007AEA8AE29FE3D601F5012B2F3C2D4F2FCF
:1011C0005A2D0E94892F9B01AC01C801B7010E94D2
:1011D0003C3120E030E040EC50E40E943C31D4014E
:1011E000F3012B2F382D4F2F562D0E948A2FF72ECB
:1011F0007F2D1F910F91FF90EF90DF90CF90BF90C8
:10120000AF909F908F907F906F9008956E2DC80142
:10121000EFCF6E2D7F2D802F912FD401F3012B2F37
:10122000382D4F2F562D0E94892F20E030E040ECC2
:1012300050E40E943C31D601F5012B2F3C2D4F2F5D
:101240005A2DCBCF692DF82C872D962DD1CF2F92EB
:101250003F924F925F926F927F928F929F92AF9246
:10126000BF92CF92DF92EF92FF920F931F93DF9383
:10127000CF93CDB7DEB72F970FB6F894DEBF0FBE72
:10128000CDBFFC017E876D87E080F18002811381F4
:101290006480758086809780A084B184C284D38462
:1012A000C401B30120E030E040E050E00E94EE2FA6
:1012B000882309F420C1C601B50120E030E040E0F8
:1012C0005FE30E94EE2F87FFF3C0C401B30120E06B
:1012D00030E040E85FE30E948A2FA60195010E945A
:1012E0003C31562E472E382E292EC601B501A601B7
:1012F00095010E948A2FD201F1012B2F342D4F2FFF
:10130000522D0E94892F69837A838B839C836E2D53
:101310007F2D802F912F2BEA3AEA4AEA5EE30E9462
:101320008A2FA62ED72EC82EB92E6E2D7F2D802F58
:10133000912F2BEA3AEA4AEA5EE30E94892F6D83F5
:101340007E838F839887962E672E882E792E6A2D1E
:101350007D2D8C2D9B2D20E030E040E050E00E9460
:10136000EE2F87FF0EC06A2D7D2D8C2D9B2D20E04A
:1013700030E040E85FE30E948A2FA62ED72EC82EC9
:10138000B92E6A2D7D2D8C2D9B2D20E030E040E87C
:101390005FE30E943831181674F46A2D7D2D8C2D70
:1013A0009B2D20E030E040E85FE30E94892FA62ECD
:1013B000D72EC82EB92E6A2D7D2D8C2D9B2D20E089
:1013C00030E040EC50E40E943C3120E030E040E866
:1013D0005FE30E94EE2F87FDB9C06A2D7D2D8C2D15
:1013E0009B2D2A2D3D2D4C2D5B2D0E948A2F20E018
:1013F00030E040E85FE30E94EE2F87FDABC26A2D2C
:101400007D2D8C2D9B2D20E030E040E450E40E94A7
:101410003C3120E030E040E050E40E94EE2F87FFB6
:1014200094C2A2019101652F742D832F922DE98121
:10143000FA812B812987AC81AF879F0149855A2F7B
:101440000E94892F69877A878B879C876BEA7AEA63
:101450008AE29FE3EA2DFD2DAC2DBB2D9F01AD014E
:101460000E94892F9B01AC0169857A858B859C85BB
:101470000E943C3120E030E040EC50E40E943C31DE
:10148000B62FA72F89879F8779816A819B818C815D
:10149000272F362F492F582FCA01B9016D01B98462
:1014A000AF842D2D3C2D4B2D5A2D0E948A2F7FC0AD
:1014B000C601B50120E030E040E05FE30E94383132
:1014C00087FD13CFC601B501A40193010E948A2FA5
:1014D0001B012C01C601B501A40193010E943C31FE
:1014E0009B01AC01C201B1010E94892F562E472EEB
:1014F000382E292EFACEAD85BE85AD92BD92CD9205
:10150000DC921397FD01A482B582C682D782189619
:10151000AD92BD92CD92DC921B972F960FB6F894A8
:10152000DEBF0FBECDBFCF91DF911F910F91FF9016
:10153000EF90DF90CF90BF90AF909F908F907F9073
:101540006F905F904F903F902F900895A20191016E
:10155000652F742D832F922DB981AA81EB81E987A4
:10156000FC81FF872B2F3A2FAF010E94892F20E0AB
:1015700030E040EC50E40E943C319B01AC016A2D0C
:101580007D2D8C2D9B2D0E943C315B016C0179815E
:101590006A819B818C81272F362F492F582FCA01B2
:1015A000B9012A2D3B2D4C2D5D2D0E948A2F382FFD
:1015B000292F862F972FA32FB22FED85FE858083AD
:1015C0009183A283B3836E2D7F2D802F912F20E0F6
:1015D00030E040E050E00E94EE2F87FF0CC06E2DFF
:1015E0007F2D802F912F20E030E040E85FE30E94C4
:1015F0008A2F7B018C016E2D7F2D802F912F20E073
:1016000030E040E85FE30E943831181664F46E2D34
:101610007F2D802F912F20E030E040E85FE30E9493
:10162000892F7B018C016E2D7F2D802F912F20E043
:1016300030E040EC50E40E943C3120E030E040E8F3
:101640005FE30E94EE2F87FD61C06E2D7F2D802FFE
:10165000912F2E2D3F2D402F512F0E948A2F20E0B9
:1016600030E040E85FE30E94EE2F87FD78C16E2DE9
:101670007F2D802F912F20E030E040E450E40E9445
:101680003C3120E030E040E050E40E94EE2F87FF44
:1016900057C1A2019101652F742D832F922DA9812D
:1016A000DA80CB80BC812A2F3D2D4C2D5B2F0E94F0
:1016B000892F5B016C016BEA7AEA8AE29FE32E2DA7
:1016C0003F2D402F512F0E94892F9B01AC01C60155
:1016D000B5010E943C3120E030E040EC50E40E9433
:1016E0003C31F62E072F182FB92F79816A819B8103
:1016F0008C81272F362F492F582FCA01B9012F2D42
:10170000302F412F5B2F0E948A2F2FC0A201910101
:10171000652F742D832F922DB981AA81DB80CC8017
:101720002B2F3A2F4D2D5C2D0E94892F20E030E089
:1017300040EC50E40E943C319B01AC016E2D7F2DAA
:10174000802F912F0E943C317B018C0179816A812D
:10175000C601272F362F492F582FCA01B9012E2D28
:101760003F2D402F512F0E948A2F382F292F862F4F
:10177000972FA32FB22FED85FE8584839583A683B3
:10178000B7835D814E813F812885652F742F832F1C
:10179000922F20E030E040E050E00E94EE2F87FFE3
:1017A00012C05D814E813F812885652F742F832F64
:1017B000922F20E030E040E85FE30E948A2F962ECF
:1017C000672E882E792E692D762D882D972D20E075
:1017D00030E040E85FE30E943831181674F4692D58
:1017E000762D882D972D20E030E040E85FE30E94C1
:1017F000892F962E672E882E792E692D762D882D8D
:10180000972D20E030E040EC50E40E943C3120E095
:1018100030E040E85FE30E94EE2F87FD4BC0692D6A
:10182000762D882D972D292D362D482D572D0E9448
:101830008A2F20E030E040E85FE30E94EE2F87FD32
:101840006DC0692D762D882D972D20E030E040E485
:1018500050E40E943C3120E030E040E050E40E943F
:10186000EE2F87FF68C0A2019101652F742D832F91
:10187000922DB981AA811B810C812B2F3A2F412FE8
:10188000502F0E94892F7B018C016BEA7AEA8AE251
:101890009FE3292D362D482D572D0E94892F9B011E
:1018A000AC01C801B7010E943C3120E030E040ECBF
:1018B00050E41CC0A2019101652F742D832F922D3D
:1018C000B981AA811B810C812B2F3A2F412F502FD8
:1018D0000E94892F20E030E040EC50E40E943C312F
:1018E0009B01AC01692D762D882D972D0E943C31EE
:1018F0007B018C0179816A819B818C81272F362F16
:10190000492F582FCA01B9012E2D3F2D402F512F9D
:101910000E948A2F562E472E382E292EA201910181
:10192000852F942DA32FB22DED85FE85808791877D
:10193000A287B387F2CD59804A803B802C80EECFBE
:1019400069817A818B819C8110CF69817A818B81B9
:101950009C812DCE652D742D832D922D28CE652D45
:10196000742D832D922D01CF2F923F924F925F9233
:101970006F927F928F929F92AF92BF92CF92DF929F
:10198000EF92FF920F931F93DF93CF9300D000D07D
:10199000CDB7DEB79C838B832B0179018A0160E090
:1019A00070E080E89FE30E94892FD62EC72EB82EC4
:1019B000A92EC801B701D601F5012B2F3A2F4F2FC1
:1019C0005E2F0E948A2F362E272E89839A83C80184
:1019D000B701F20120813181428153810E943C3163
:1019E0003B014C01A6019501652F742F832F922F87
:1019F000EB81FC8120813181428153810E943C3105
:101A00009B01AC01C401B3010E948A2FD1016980FE
:101A10009A802B2F3A2F462D592D0E94F22FEB81C1
:101A2000FC816083718382839383C801B701F201D3
:101A300024813581468157810E943C313B014C0114
:101A4000A6019501652F742F832F922FEB81FC81C6
:101A500024813581468157810E943C319B01AC0134
:101A6000C401B3010E948A2FD10199806A802B2F73
:101A70003A2F492D562D0E94F22FEB81FC81648371
:101A8000758386839783C801B701F201208531856C
:101A9000428553850E943C317B018C01A601950152
:101AA000652F742F832F922FEB81FC812085318548
:101AB000428553850E943C319B01AC01C801B701AE
:101AC0000E948A2FD1012B2F3A2F492D562D0E948B
:101AD000F22FEB81FC8160877187828793870F905B
:101AE0000F900F900F90CF91DF911F910F91FF906A
:101AF000EF90DF90CF90BF90AF909F908F907F90AE
:101B00006F905F904F903F902F900895EF92FF92CB
:101B10000F931F93CF93DF93EC018FEFE82E8FE7A6
:101B2000F82E012D112D0E9476329C01B9018827D3
:101B300077FD8095982F26E030E040E050E00E944D
:101B40009F31A80197010E94BE31223081F12330DC
:101B500070F42223F1F48981833028F78F5F898321
:101B6000DF91CF911F910F91FF90EF900895243056
:101B700061F1243018F12530B1F68A81833098F66E
:101B80008F5F8A83DF91CF911F910F91FF90EF902C
:101B90000895213041F68981882329F28150898373
:101BA000DF91CF911F910F91FF90EF900895888161
:101BB000882309F4B8CF81508883D2CF88818330BD
:101BC00008F0B1CF8F5F8883CBCF8A81882309F457
:101BD000AACF81508A83C4CFCF92DF92EF92FF9237
:101BE0000F931F93DF93CF93CDB7DEB72C970FB62C
:101BF000F894DEBF0FBECDBF6E010894C11CD11C8E
:101C0000D601E0E1F1E08CE001900D928150E1F726
:101C1000C6016CED72E00E9427090E9476329C0199
:101C2000B901882777FD8095982F660F771F881F49
:101C3000991F660F771F881F991FFFEFEF2EFFE791
:101C4000FF2E012D112DA80197010E94BE31209376
:101C5000E8020E9476329C01B901882777FD8095C1
:101C6000982F660F771F881F991F660F771F881F91
:101C7000991FA80197010E94BE312093E9020E949A
:101C800076329C01B901882777FD8095982F660FE1
:101C9000771F881F991F660F771F881F991FA8013C
:101CA00097010E94BE312093EA020E9476329C0185
:101CB000B901882777FD8095982F0E94883020E011
:101CC0003EEF4FEF56E40E94F22F69837A838B83B5
:101CD0009C83C6016BEE72E00E9427090E94763257
:101CE0009C01B901882777FD8095982F660F771F93
:101CF000881F991F660F771F881F991FA8019701DA
:101D00000E94BE312093F7020E9476329C01B901F5
:101D1000882777FD8095982F660F771F881F991F5A
:101D2000660F771F881F991FA80197010E94BE3177
:101D30002093F8020E9476329C01B901882777FD32
:101D40008095982F660F771F881F991F660F771F42
:101D5000881F991FA80197010E94BE312093F902A4
:101D60000E9476329C01B901882777FD8095982FD3
:101D70000E94883020E03EEF4FEF56E40E94F22FA1
:101D800069837A838B839C83C6016AEF72E00E9429
:101D900027090E9476329C01B901882777FD80953A
:101DA000982F660F771F881F991F660F771F881F50
:101DB000991FA80197010E94BE31209306030E943B
:101DC00076329C01B901882777FD8095982F660FA0
:101DD000771F881F991F660F771F881F991FA801FB
:101DE00097010E94BE31209307030E9476329C0126
:101DF000B901882777FD8095982F660F771F881F78
:101E0000991F660F771F881F991FA80197010E94CD
:101E1000BE31209308030E9476329C01B9018827C5
:101E200077FD8095982F0E94883020E03EEF4FEF9D
:101E300056E40E94F22F69837A838B839C83C601C8
:101E400069E073E00E9427090E9476329C01B90183
:101E5000882777FD8095982F660F771F881F991F19
:101E6000660F771F881F991FA80197010E94BE3136
:101E7000209315030E9476329C01B901882777FDD3
:101E80008095982F660F771F881F991F660F771F01
:101E9000881F991FA80197010E94BE312093160345
:101EA0000E9476329C01B901882777FD8095982F92
:101EB000660F771F881F991F660F771F881F991F4E
:101EC000A80197010E94BE31209317030E94763229
:101ED0009C01B901882777FD8095982F0E94883052
:101EE00020E03EEF4FEF56E40E94F22F69837A83A1
:101EF0008B839C83C60168E173E00E9427090E94DE
:101F000076329C01B901882777FD8095982F660F5E
:101F1000771F881F991F660F771F881F991FA801B9
:101F200097010E94BE31209324030E9476329C01C7
:101F3000B901882777FD8095982F660F771F881F36
:101F4000991F660F771F881F991FA80197010E948C
:101F5000BE31209325030E9476329C01B901882767
:101F600077FD8095982F660F771F881F991F660F42
:101F7000771F881F991FA80197010E94BE312093E7
:101F800026030E9476329C01B901882777FD80954F
:101F9000982F0E94883020E03EEF4FEF56E40E94D9
:101FA000F22F69837A838B839C83C60167E273E097
:101FB0000E9427090E9476329C01B901882777FD8B
:101FC0008095982F660F771F881F991F660F771FC0
:101FD000881F991FA80197010E94BE3120933303E7
:101FE0000E9476329C01B901882777FD8095982F51
:101FF000660F771F881F991F660F771F881F991F0D
:10200000A80197010E94BE31209334030E947632CA
:102010009C01B901882777FD8095982F660F771F5F
:10202000881F991F660F771F881F991FA8019701A6
:102030000E94BE31209335030E9476329C01B90183
:10204000882777FD8095982F0E94883020E03EEF0A
:102050004FEF56E40E94F22F69837A838B839C832F
:10206000C60166E373E00E9427090E9476329C0154
:10207000B901882777FD8095982F660F771F881FF5
:10208000991F660F771F881F991FA80197010E944B
:10209000BE31209342030E9476329C01B901882709
:1020A00077FD8095982F660F771F881F991F660F01
:1020B000771F881F991FA80197010E94BE312093A6
:1020C00043030E9476329C01B901882777FD8095F1
:1020D000982F660F771F881F991F660F771F881F1D
:1020E000991FA80197010E94BE31209344030E94CA
:1020F00076329C01B901882777FD8095982F0E9440
:10210000883020E03EEF4FEF56E40E94F22F6983C3
:102110007A838B839C83C60165E473E00E94270960
:102120000E9476329C01B901882777FD8095982F0F
:10213000660F771F881F991F660F771F881F991FCB
:10214000A80197010E94BE31209351030E9476326C
:102150009C01B901882777FD8095982F660F771F1E
:10216000881F991F660F771F881F991FA801970165
:102170000E94BE31209352030E9476329C01B90125
:10218000882777FD8095982F660F771F881F991FE6
:10219000660F771F881F991FA80197010E94BE3103
:1021A000209353030E9476329C01B901882777FD62
:1021B0008095982F0E94883020E03EEF4FEF56E444
:1021C0000E94F22F69837A838B839C83C60164E526
:1021D00073E00E9427090E9476329C01B90188278A
:1021E00077FD8095982F660F771F881F991F660FC0
:1021F000771F881F991FA80197010E94BE31209365
:1022000060030E9476329C01B901882777FD809592
:10221000982F660F771F881F991F660F771F881FDB
:10222000991FA80197010E94BE31209361030E946B
:1022300076329C01B901882777FD8095982F660F2B
:10224000771F881F991F660F771F881F991FA80186
:1022500097010E94BE31209362030E9476329C0156
:10226000B901882777FD8095982F0E94883020E05B
:102270003EEF4FEF56E40E94F22F69837A838B83FF
:102280009C83C60163E673E00E9427090E947632B0
:102290009C01B901882777FD8095982F660F771FDD
:1022A000881F991F660F771F881F991FA801970124
:1022B0000E94BE3120936F030E9476329C01B901C7
:1022C000882777FD8095982F660F771F881F991FA5
:1022D000660F771F881F991FA80197010E94BE31C2
:1022E000209370030E9476329C01B901882777FD04
:1022F0008095982F660F771F881F991F660F771F8D
:10230000881F991FA80197010E94BE312093710375
:102310000E9476322C960FB6F894DEBF0FBECDBF6A
:10232000CF91DF911F910F91FF90EF90DF90CF90B1
:10233000089580E090E00E94CE0288EE92E00E9434
:10234000860D88EE92E06CED72E00E944B0787EFFD
:1023500092E00E94860D87EF92E06BEE72E00E94A1
:102360004B0786E093E00E94860D86E093E06AEFDB
:1023700072E00E944B0785E193E00E94860D85E1A3
:1023800093E069E073E00E944B0784E293E00E94CF
:10239000860D84E293E068E173E00E944B0783E3DB
:1023A00093E00E94860D83E393E067E273E00E946E
:1023B0004B0782E493E00E94860D82E493E066E39B
:1023C00073E00E944B0781E593E00E94860D81E552
:1023D00093E065E473E00E944B0780E693E00E947F
:1023E000860D80E693E064E573E00E944B078FE67C
:1023F00093E00E94860D8FE693E063E673E00E940F
:102400004B070E94470388EE93E024EF31E0F90187
:102410003197F1F70197D9F708950F931F93DF9341
:10242000CF93CDB7DEB72C970FB6F894DEBF0FBEB3
:10243000CDBF8E010F5F1F4FD801ECE1F1E08CE0C2
:1024400001900D928150E1F780917203882309F485
:10245000E8C0C80165E773E00E9427090E94763250
:102460009C01B901882777FD8095982F0E948830BC
:1024700020E03EEF4FEF56E40E94F22F69837A830B
:102480008B839C8380917203882309F43FC1C80128
:1024900064E873E00E9427090E9476329C01B9012A
:1024A000882777FD8095982F0E94883020E03EEFA6
:1024B0004FEF56E40E94F22F69837A838B839C83CB
:1024C00080917203882309F4FAC0C80163E973E0BC
:1024D0000E9427090E9476329C01B901882777FD66
:1024E0008095982F0E94883020E03EEF4FEF56E411
:1024F0000E94F22F69837A838B839C83809172037D
:10250000882309F4B5C0C80162EA73E00E94270974
:102510000E9476329C01B901882777FD8095982F1B
:102520000E94883020E03EEF4FEF56E40E94F22FE9
:1025300069837A838B839C8380917203813029F431
:1025400080917303882309F47DC1C80161EB73E0B6
:102550000E9427090E9476329C01B901882777FDE5
:102560008095982F0E94883020E03EEF4FEF56E490
:102570000E94F22F69837A838B839C8380917203FC
:10258000813009F438C1C80160EC73E00E9427096A
:102590000E9476329C01B901882777FD8095982F9B
:1025A0000E94883020E03EEF4FEF56E40E94F22F69
:1025B00069837A838B839C8380917203813009F4D1
:1025C000F3C0C8016FEC73E00E9427090E947632C5
:1025D0009C01B901882777FD8095982F0E9488304B
:1025E00020E03EEF4FEF56E40E94F22F69837A839A
:1025F0008B839C8380917203813009F4AEC0C80143
:102600006EED73E00E9427090E9476322C960FB679
:10261000F894DEBF0FBECDBFCF91DF911F910F9118
:10262000089580917303882309F013CF8091740378
:10263000882309F00ECF80E090E0A0E0B0E0809326
:10264000750390937603A0937703B09378038093F8
:10265000790390937A03A0937B03B0937C038093D8
:102660007D0390937E03A0937F03B093800353C0B8
:1026700080917303813009F046CF809174038130DB
:1026800009F041CF80E090E0A0E0B0E08093A203A9
:102690009093A303A093A403B093A5038093A603F0
:1026A0009093A703A093A803B093A9038093AA03D0
:1026B0009093AB03A093AC03B093AD0346CF80914E
:1026C0007303813009F001CF80917403882309F0EE
:1026D000FCCE80E090E0A0E0B0E080939303909384
:1026E0009403A0939503B0939603809397039093DC
:1026F0009803A0939903B0939A0380939B039093BC
:102700009C03A0939D03B0939E03B7CF8091730366
:10271000882309F0BCCE80917403813009F0B7CED4
:1027200080E090E0A0E0B0E0809384039093850384
:10273000A0938603B09387038093880390938903C3
:10274000A0938A03B0938B0380938C0390938D03A3
:10275000A0938E03B0938F03B8CE80917303813022
:1027600009F04DCF80917403813009F048CF80E0AB
:1027700090E0A0E0B0E08093DE039093DF03A093AD
:10278000E003B093E1038093E2039093E303A0930B
:10279000E403B093E5038093E6039093E703A093EB
:1027A000E803B093E90332CF80917303813009F0DD
:1027B00008CF80917403882309F003CF80E090E074
:1027C000A0E0B0E08093CF039093D003A093D10317
:1027D000B093D2038093D3039093D403A093D503F3
:1027E000B093D6038093D7039093D803A093D903D3
:1027F000B093DA03B7CF80917303882309F0C3CE77
:1028000080917403813009F0BECE80E090E0A0E0BA
:10281000B0E08093C0039093C103A093C203B09330
:10282000C3038093C4039093C503A093C603B093DE
:10283000C7038093C8039093C903A093CA03B093BE
:10284000CB03BFCE80917403882309F07ECE80E055
:1028500090E0A0E0B0E08093B1039093B203A09326
:10286000B303B093B4038093B5039093B603A093DE
:10287000B703B093B8038093B9039093BA03A093BE
:10288000BB03B093BC03BCCFDF92EF92FF920F93D8
:102890001F93CF93DF93EC018B014881D42E4430FA
:1028A000B8F55981543040F54A81E52E4430B8F4EA
:1028B000F42E03C08F2D843088F48D2D6E2D4F2D76
:1028C00098010E949E05F3944A81242F30E02F5FE7
:1028D0003F4F8F2D90E02817390764F75981E39413
:1028E000852F90E001962E2D30E0821793071CF083
:1028F0008E2D8430D8F24881D394842F90E00196B5
:102900002D2D30E0821793071CF08D2D843050F26E
:10291000DF91CF911F910F91FF90EF90DF9008957D
:102920002F923F924F925F926F927F928F929F92DF
:10293000AF92BF92CF92DF92EF92FF920F931F93CD
:10294000DF93CF93CDB7DEB72C970FB6F894DEBFE9
:102950000FBECDBF1C821B821E821D828B806B80AE
:102960007C800894611C711C1A82198244245524AD
:102970004D815E818CE390E0489F9001499F300D2E
:10298000589F300D11243A8729879980E980FA8071
:102990000894E11CF11C01E010E0AA242224332455
:1029A000C201880F991FA201440F551F42955295ED
:1029B000507F5427407F5427481B590B58874F831B
:1029C000910122953295307F3227207F32272219BC
:1029D00033094F815885240F351F89859A85280F23
:1029E000391F2B583C4F982D943080F5B82C892DE9
:1029F000843018F5C92C4A2D4430B0F4DA2C3C87C9
:102A00002B8703C0ED2DE43068F48B2D6C2D4D2DFC
:102A10002B853C850E949E05D3948D2D90E0081750
:102A2000190784F72B853C85C3948C2D90E0E8161C
:102A3000F9061CF0FC2DF430F0F2B3948B2D90E0ED
:102A4000681679061CF05B2D543088F20894211C1E
:102A5000311C92E0A90E0E5F1F4FEA2DE43009F001
:102A6000AFCF0894411C511C29813A812E5F3F4F02
:102A70003A83298332E04316510409F086CF8D81D1
:102A80009E8101969E838D83EB81FC813296FC832F
:102A9000EB838230910509F061CF2C960FB6F89444
:102AA000DEBF0FBECDBFCF91DF911F910F91FF9081
:102AB000EF90DF90CF90BF90AF909F908F907F90DE
:102AC0006F905F904F903F902F9008950F931F93BA
:102AD000DF93CF930F92CDB7DEB78C0169830E944D
:102AE0007632AA2797FDA095BA2F6981262F30E06C
:102AF00040E050E0BC01CD010E949F312FEF3FE745
:102B000040E050E00E94BE31F801E20FF11D8081EB
:102B10000F90CF91DF911F910F9108952F923F92C7
:102B20004F925F926F927F928F929F92AF92BF92DD
:102B3000CF92DF92EF92FF920F931F93DF93CF9389
:102B4000CDB7DEB7AF970FB6F894DEBF0FBECDBFDF
:102B500080917203882309F455C22091ED0324303B
:102B600009F46BC283E08F83CE010996FE0138968B
:102B7000CC24C3948E01095F1F4F3091730333231C
:102B800009F436C2213031F0C39422E02083FC01E5
:102B90002091ED0380917403882309F422C225302B
:102BA00019F0C39486E080830E947632DD24EE24FF
:102BB000FF249C01442737FD4095542FC701B601DF
:102BC0000E949F312FEF3FE740E050E00E94BE316E
:102BD000F801E20FF11D80818093ED036091720393
:102BE0005091730340917403833009F420C2843000
:102BF00008F0EDC1813009F430C2823009F427C2F7
:102C00004C8F5B8F6D8F3D8D232F30E03BA72AA724
:102C10009C8D892F90E09BA38AA382959295907FAB
:102C20009827807F98279DA78CA77C01EAA1FBA10C
:102C3000EE1AFF0A8B8D90E09C01220F331F880F44
:102C4000991F82959295907F9827807F9827821B65
:102C5000930BE80EF91E2CE330E0EAA5FBA5E29FFA
:102C6000C001E39F900DF29F900D1124E80EF91E14
:102C700025E733E0E20EF31E80E090E0A0E0B0E054
:102C80008D879E87AF87B88B898B9A8BAB8BBC8BDC
:102C90008D8B9E8BAF8BB88F2D8D220F29839B8DB3
:102CA000990F9A838C8D880F8B83660F6C83550FD9
:102CB0005D83440F4E83261708F484C1621708F41D
:102CC0007CC11F8E1E8E951708F472C1591708F427
:102CD0006AC119A218A2841708F451C1481708F450
:102CE0003BC11DA21CA29DE0C92ED12CCC0EDD1E25
:102CF000AE014C5F5F4F59A748A7CE0101969FA335
:102D00008EA314EF412E11E0512E4701F9806F2C54
:102D100077240894611C711C3F2D343008F095C154
:102D2000AF2C2A811401F98EE22E822E9924089468
:102D3000811C911C243018F5BB800B2D10E00F5F17
:102D40001F4F4B2D443088F4FB2C03C05F2D5430B3
:102D500060F48A2D6E2D4F2D96010E949E05F394EE
:102D60008F2D90E0081719078CF7E3948E2D90E0D3
:102D7000881699061CF08E2D843018F32A81A394AE
:102D80008A2D90E0681679061CF09A2D943060F236
:102D90004101F98CAE8CAF0CA982F8A0F20EFA8238
:102DA0006B80ECA16E0E6B822A2D30E02F5F3F4FBF
:102DB0003A8F298F3A2D3430D0F52F2C33240894B4
:102DC000211C311C062D10E00F5F1F4FDFA6CEA681
:102DD000CF2C2C2D2430F0F4EC2C862D843088F46C
:102DE000F62C03C04F2D443060F48A2D6E2D4F2DEC
:102DF00094010E949E05F3948F2D90E00817190707
:102E00008CF7E3948E2D90E0281639061CF05E2D89
:102E1000543018F3A3948A2D90E0E98DFA8DE817C9
:102E2000F9071CF0FA2DF430A0F2CEA4DFA40E9422
:102E300047038CE291E0F2013197F1F70197D9F75E
:102E40008EA19FA168A579A543E050E00E94693357
:102E5000009709F05BCF74018091740390E0FC014E
:102E6000E295F295F07FFE27E07FFE27E81BF90B45
:102E70008091730390E09C01220F331F880F991FEC
:102E800082959295907F9827807F9827821B930B3D
:102E9000E80FF91F4091720350E02CE330E0429FAD
:102EA000C001439F900D529F900D1124E80FF91F10
:102EB000ACA5BDA54AA15BA1A41BB50B4AA55BA50A
:102EC000429FC001439F900D529F900D1124A80F67
:102ED000B91F8B8D90E09C01220F331F880F991F23
:102EE00082959295907F9827807F9827821B930BDD
:102EF000A80FB91FEB58FC4FAB58BC4F8CE00D909E
:102F000001928150E1F7D701F6018CE001900D921A
:102F10008150E1F75D8D509372038B8D8093730325
:102F20009C8D90937403AF960FB6F894DEBF0FBEDE
:102F3000CDBFCF91DF911F910F91FF90EF90DF9068
:102F4000CF90BF90AF909F908F907F906F905F9049
:102F50004F903F902F9008958FEF9FEF9DA38CA3EC
:102F60000DE0C02ED12CCC0EDD1EFE013496F9A74B
:102F7000E8A79E012F5F3F4F3FA32EA3C2CEE1E003
:102F8000F0E0FDA3ECA38DE0C82ED12CCC0EDD1E0D
:102F90009E012C5F3F4F39A728A7AE014F5F5F4FBF
:102FA0005FA34EA3AECE2FEF3FEF39A328A393CE5E
:102FB000E1E0F0E0F9A3E8A38ECE2FEF3FEF3F8FE3
:102FC0002E8F81CEE1E0F0E0FF8FEE8F7CCE85305A
:102FD00041F18530E8F4962F9F5F9D8F4C8F5B8F7A
:102FE00012CE263009F4E0CDC39485E08083DCCD99
:102FF000223009F4CFCDC39421E02083FC0120913D
:10300000ED03C8CD2091ED032330B9F084E0ABCDC2
:10301000863009F0F5CDF42FF150FC8F5B8F6D8F6A
:10302000F2CDE42FEF5FEC8F5B8F6D8FECCD862FB1
:1030300081508D8F4C8F5B8FE6CD8E01095F1F4FC6
:10304000CE010896F801CC2498CD2A81A3CE352F45
:1030500031503B8F4C8F6D8FD6CD252F2F5F2B8F0F
:103060004C8F6D8FD0CD2F923F924F925F926F9287
:103070007F928F929F92AF92BF92CF92DF92EF9208
:10308000FF920F931F93DF93CF93CDB7DEB72C97AB
:103090000FB6F894DEBF0FBECDBF1A8219821E8212
:1030A0001D82898069807A800894611C711C1C8251
:1030B0001B82442455244D815E818CE390E0489F1F
:1030C0009001499F300D589F300D11243A87298770
:1030D0009B80EB80FC800894E11CF11C01E010E077
:1030E000AA2422243324C201880F991FA201440F6D
:1030F000551F42955295507F5427407F5427481BB7
:10310000590B58874F83910122953295307F322792
:10311000207F3227221933094F815885240F351F0C
:1031200089859A85280F391F2B583C4F982D94304C
:1031300080F5B82C892D843018F5C92C4A2D4430DF
:10314000B0F4DA2C3C872B8703C0ED2DE43068F413
:103150008B2D6C2D4D2D2B853C850E949E05D39487
:103160008D2D90E00817190784F72B853C85C394B3
:103170008C2D90E0E816F9061CF0FC2DF430F0F2EE
:10318000B3948B2D90E0681679061CF05B2D5430BB
:1031900088F20894211C311C92E0A90E0E5F1F4F8B
:1031A000EA2DE43009F0AFCF0894411C511C2B816B
:1031B0003C812E5F3F4F3C832B8332E0431651040A
:1031C00009F086CF8D819E8101969E838D83E98152
:1031D000FA813296FA83E9838230910509F061CF52
:1031E0000E9447038CE291E024EF31E0F90131972E
:1031F000F1F70197D9F70E948E152C960FB6F89427
:10320000DEBF0FBECDBFCF91DF911F910F91FF9019
:10321000EF90DF90CF90BF90AF909F908F907F9076
:103220006F905F904F903F902F9008952F923F9214
:103230004F925F926F927F928F929F92AF92BF92C6
:10324000CF92DF92EF92FF920F931F93DF93CF9372
:10325000CDB7DEB72C970FB6F894DEBF0FBECDBF4B
:1032600080E090E0A0E0B0E08D839E83AF83B887DC
:1032700089879A87AB87BC8723E0622E7E010894FA
:10328000E11CF11C04EF11E00F2EF0E0AF2EF0E096
:10329000BF2EF0E8CF2EFFE3DF2EF02D1C012D0115
:1032A000772488249924A982BA82CB82DC82892D52
:1032B000672D482D97010E949E050E94470388EEC6
:1032C00093E0F8013197F1F70197D9F729823A8213
:1032D0004B825C82AD82BE82CF82D886892D672DDB
:1032E000482D97010E949E050E94470388EE93E0B7
:1032F000F8013197F1F70197D9F72D823E824F827D
:103300005886A986BA86CB86DC86892D672D482DFE
:1033100097010E949E050E94470388EE93E0F80102
:103320003197F1F70197D9F729863A864B865C8663
:10333000892D672D482D97010E949E059394892D14
:10334000843009F0B0CF8394882D843009F0AACF5F
:103350007394872D843009F0A4CF6A9409F0A0CF2C
:103360002C960FB6F894DEBF0FBECDBFCF91DF9184
:103370001F910F91FF90EF90DF90CF90BF90AF9093
:103380009F908F907F906F905F904F903F902F9085
:103390000895FF920F931F93DF93CF93CDB7DEB7BE
:1033A0002C970FB6F894DEBF0FBECDBF33E0F32EDF
:1033B0008E010F5F1F4FD801E8E2F1E08CE0019031
:1033C0000D928150E1F760E040E098010E949E0577
:1033D00081E060E040E098010E949E0582E060E0AC
:1033E00040E098010E949E0583E060E040E0980183
:1033F0000E949E05D801E8E2F1E08CE001900D9278
:103400008150E1F760E041E098010E949E0581E073
:1034100060E041E098010E949E0582E060E041E0AA
:1034200098010E949E0583E060E041E098010E94BF
:103430009E05D801E8E2F1E08CE001900D92815008
:10344000E1F760E042E098010E949E0581E060E0C3
:1034500042E098010E949E0582E060E042E098010F
:103460000E949E0583E060E042E098010E949E0574
:10347000D801E8E2F1E08CE001900D928150E1F793
:1034800060E043E098010E949E0581E060E043E037
:1034900098010E949E0582E060E043E098010E944E
:1034A0009E0583E060E043E098010E949E05D801FC
:1034B000E8E2F1E08CE001900D928150E1F761E0EB
:1034C00040E098010E949E0581E061E040E09801A3
:1034D0000E949E0582E061E040E098010E949E0506
:1034E00083E061E040E098010E949E05D801E8E297
:1034F000F1E08CE001900D928150E1F761E041E054
:1035000098010E949E0581E061E041E098010E94DF
:103510009E0582E061E041E098010E949E0583E003
:1035200061E041E098010E949E05D801E8E2F1E0E7
:103530008CE001900D928150E1F761E042E098014A
:103540000E949E0581E061E042E098010E949E0594
:1035500082E061E042E098010E949E0583E061E024
:1035600042E098010E949E05D801E8E2F1E08CE07B
:1035700001900D928150E1F761E043E098010E94D3
:103580009E0581E061E043E098010E949E0582E093
:1035900061E043E098010E949E0583E061E043E022
:1035A00098010E949E05D801E8E2F1E08CE00190CC
:1035B0000D928150E1F762E040E098010E949E0583
:1035C00081E062E040E098010E949E0582E062E0B6
:1035D00040E098010E949E0583E062E040E098018F
:1035E0000E949E05D801E8E2F1E08CE001900D9286
:1035F0008150E1F762E041E098010E949E0581E080
:1036000062E041E098010E949E0582E062E041E0B4
:1036100098010E949E0583E062E041E098010E94CB
:103620009E05D801E8E2F1E08CE001900D92815016
:10363000E1F762E042E098010E949E0581E062E0CD
:1036400042E098010E949E0582E062E042E098011B
:103650000E949E0583E062E042E098010E949E0580
:10366000D801E8E2F1E08CE001900D928150E1F7A1
:1036700062E043E098010E949E0581E062E043E041
:1036800098010E949E0582E062E043E098010E945A
:103690009E0583E062E043E098010E949E05D80108
:1036A000E8E2F1E08CE001900D928150E1F763E0F7
:1036B00040E098010E949E0581E063E040E09801AF
:1036C0000E949E0582E063E040E098010E949E0512
:1036D00083E063E040E098010E949E05D801E8E2A3
:1036E000F1E08CE001900D928150E1F763E041E060
:1036F00098010E949E0581E063E041E098010E94EC
:103700009E0582E063E041E098010E949E0583E00F
:1037100063E041E098010E949E05D801E8E2F1E0F3
:103720008CE001900D928150E1F763E042E0980156
:103730000E949E0581E063E042E098010E949E05A0
:1037400082E063E042E098010E949E0583E063E02E
:1037500042E098010E949E05D801E8E2F1E08CE089
:1037600001900D928150E1F763E043E098010E94DF
:103770009E0581E063E043E098010E949E0582E09F
:1037800063E043E098010E949E0583E063E043E02C
:1037900098010E949E05FA9409F00DCE0E944703FD
:1037A0002C960FB6F894DEBF0FBECDBFCF91DF9140
:1037B0001F910F91FF9008952F923F924F925F9229
:1037C0006F927F928F929F92AF92BF92CF92DF9231
:1037D000EF92FF920F931F93DF93CF93CDB7DEB796
:1037E0002C970FB6F894DEBF0FBECDBF22247E010A
:1037F0000894E11CF11C04EF11E00F2EF0E08F2E75
:10380000F0E09F2EF0E0AF2EF0E0BF2EF02D0F2E57
:10381000F0E04F2EF0E05F2EF0E86F2EFFE37F2EFA
:10382000F02D3324DD2489829A82AB82BC828D8282
:103830009E82AF82B88689869A86AB86BC86822DA8
:10384000813009F44AC0823009F442C049825A8268
:103850006B827C8282E390E00E94CE02CC248C2D8D
:10386000632D4D2D97010E949E050E94470388EB12
:103870009BE0F8013197F1F70197D9F7C3948C2DAC
:10388000843069F7D3948D2D843069F63394832D79
:10389000843041F62394822D833009F0C2CF2C96D8
:1038A0000FB6F894DEBF0FBECDBFCF91DF911F9151
:1038B0000F91FF90EF90DF90CF90BF90AF909F90CF
:1038C0008F907F906F905F904F903F902F900895D2
:1038D00049865A866B867C86BDCF4D825E826F821A
:1038E0007886B8CF2F923F924F925F926F927F92DD
:1038F0008F929F92AF92BF92CF92DF92EF92FF9200
:103900000F931F93DF93CF93CDB7DEB72C970FB6EE
:10391000F894DEBF0FBECDBF88243E010894611C21
:10392000711C04EF11E00F2EF0E0CF2EF0E0DF2E3F
:10393000F0E0EF2EF0E0FF2EF02D0F2EF0E02F2E16
:10394000F0E03F2EF0E84F2EFFE35F2EF02D99249C
:10395000AA24BB24C982DA82EB82FC82CD82DE8279
:10396000EF82F886C986DA86EB86FC86882D813060
:1039700009F459C0823009F451C029823A824B823D
:103980005C82892D6A2D4B2D93010E949E050E9419
:10399000470380E197E2F8013197F1F70197D9F7F2
:1039A000C986DA86EB86FC86CD82DE82EF82F886D7
:1039B000C982DA82EB82FC82892D6A2D4B2D93011C
:1039C0000E949E05B3948B2D843021F6A3948A2DFA
:1039D000843009F0BECF9394892D843009F0B8CF9C
:1039E0008394882D833009F0B2CF2C960FB6F894CB
:1039F000DEBF0FBECDBFCF91DF911F910F91FF9022
:103A0000EF90DF90CF90BF90AF909F908F907F907E
:103A10006F905F904F903F902F90089529863A863F
:103A20004B865C86AECF2D823E824F825886A9CFD0
:103A30004F925F926F927F928F929F92AF92BF92BE
:103A4000CF92DF92EF92FF920F931F93DF93CF936A
:103A5000CDB7DEB72C970FB6F894DEBF0FBECDBF43
:103A600099245E010894A11CB11C0F2EF0E04F2E8A
:103A7000F0E05F2EF0E06F2EF0E07F2EF02D0F2EA5
:103A8000F0E0CF2EF0E0DF2EF0E8EF2EFFE3FF2E88
:103A9000F02D04EF11E049825A826B827C824D82C4
:103AA0005E826F82788649865A866B867C868824F9
:103AB000892D813009F4D1C1823009F433C1C98222
:103AC000DA82EB82FC82882D60E040E095010E9462
:103AD0009E05892D813009F4CAC1823009F42CC1B8
:103AE000C982DA82EB82FC82882D60E041E0950198
:103AF0000E949E05892D813009F4C3C1823009F4EA
:103B000025C1C982DA82EB82FC82882D60E042E026
:103B100095010E949E05892D813009F4BCC1823037
:103B200009F41EC1C982DA82EB82FC82882D60E032
:103B300043E095010E949E05892D813009F4B5C1AD
:103B4000823009F417C1C982DA82EB82FC82882DA7
:103B500061E040E095010E949E05892D813009F4C5
:103B6000AEC1823009F410C1C982DA82EB82FC82D4
:103B7000882D61E041E095010E949E05892D8130EC
:103B800009F4A7C1823009F409C1C982DA82EB8243
:103B9000FC82882D61E042E095010E949E05892DFE
:103BA000813009F4A0C1823009F402C1C982DA82ED
:103BB000EB82FC82882D61E043E095010E949E0526
:103BC000892D813009F499C1823009F4FBC0C98282
:103BD000DA82EB82FC82882D62E040E095010E944F
:103BE0009E05892D813009F492C1823009F4F4C018
:103BF000C982DA82EB82FC82882D62E041E0950185
:103C00000E949E05892D813009F48BC1823009F410
:103C1000EDC0C982DA82EB82FC82882D62E042E04C
:103C200095010E949E05892D813009F484C182305E
:103C300009F4E6C0C982DA82EB82FC82882D62E058
:103C400043E095010E949E05892D813009F47DC1D4
:103C5000823009F4DFC0C982DA82EB82FC82882DCF
:103C600063E040E095010E949E05892D813009F4B2
:103C700076C1823009F4D8C0C982DA82EB82FC8234
:103C8000882D63E041E095010E949E05892D8130D9
:103C900009F46FC1823009F4D1C0C982DA82EB82A3
:103CA000FC82882D63E042E095010E949E05892DEB
:103CB000813009F468C1823009F4CAC0C982DA824D
:103CC000EB82FC82882D63E043E095010E949E0513
:103CD0008394882D843009F0EBCE0E94470388E955
:103CE0009AE3F8013197F1F70197D9F79394892D69
:103CF000833009F0D0CE2C960FB6F894DEBF0FBEFD
:103D0000CDBFCF91DF911F910F91FF90EF90DF908A
:103D1000CF90BF90AF909F908F907F906F905F906B
:103D20004F900895C986DA86EB86FC86882D60E080
:103D300040E095010E949E05C986DA86EB86FC86E6
:103D4000882D60E041E095010E949E05C986DA86D3
:103D5000EB86FC86882D60E042E095010E949E057E
:103D6000C986DA86EB86FC86882D60E043E0950103
:103D70000E949E05C986DA86EB86FC86882D61E066
:103D800040E095010E949E05C986DA86EB86FC8696
:103D9000882D61E041E095010E949E05C986DA8682
:103DA000EB86FC86882D61E042E095010E949E052D
:103DB000C986DA86EB86FC86882D61E043E09501B2
:103DC0000E949E05C986DA86EB86FC86882D62E015
:103DD00040E095010E949E05C986DA86EB86FC8646
:103DE000882D62E041E095010E949E05C986DA8631
:103DF000EB86FC86882D62E042E095010E949E05DC
:103E0000C986DA86EB86FC86882D62E043E0950160
:103E10000E949E05C986DA86EB86FC86882D63E0C3
:103E200040E095010E949E05C986DA86EB86FC86F5
:103E3000882D63E041E095010E949E05C986DA86DF
:103E4000EB86FC86882D63E042E095010E949E058A
:103E5000C986DA86EB86FC8635CFCD82DE82EF829C
:103E6000F886882D60E040E095010E949E05CD8295
:103E7000DE82EF82F886882D60E041E095010E94A5
:103E80009E05CD82DE82EF82F886882D60E042E0DA
:103E900095010E949E05CD82DE82EF82F886882DF4
:103EA00060E043E095010E949E05CD82DE82EF82B4
:103EB000F886882D61E040E095010E949E05CD8244
:103EC000DE82EF82F886882D61E041E095010E9454
:103ED0009E05CD82DE82EF82F886882D61E042E089
:103EE00095010E949E05CD82DE82EF82F886882DA4
:103EF00061E043E095010E949E05CD82DE82EF8263
:103F0000F886882D62E040E095010E949E05CD82F2
:103F1000DE82EF82F886882D62E041E095010E9402
:103F20009E05CD82DE82EF82F886882D62E042E037
:103F300095010E949E05CD82DE82EF82F886882D53
:103F400062E043E095010E949E05CD82DE82EF8211
:103F5000F886882D63E040E095010E949E05CD82A1
:103F6000DE82EF82F886882D63E041E095010E94B1
:103F70009E05CD82DE82EF82F886882D63E042E0E6
:103F800095010E949E05CD82DE82EF82F8869ACE50
:103F900080E090E00E94CE020E94470308952F9295
:103FA0003F924F925F926F927F928F929F92AF92C9
:103FB000BF92CF92DF92EF92FF920F931F93DF9306
:103FC000CF93CDB7DEB72D970FB6F894DEBF0FBEF7
:103FD000CDBF0E947632E0903401F090350100911F
:103FE0003601109137010E9476329C01B901882771
:103FF00077FD8095982F0E94883020E03EEF4FEFAC
:1040000056E40E94F22F2BEA3AEA4AEA5EE30E9463
:104010003C319B01AC01C801B7010E948A2FD62E0A
:10402000E72EF82E092F862F9E2DAF2DB02F8093CF
:10403000340190933501A0933601B09337016D2D73
:104040007E2D8F2D902F20E030E040E85FE30E942E
:10405000383187FD12C06D2D7E2D8F2D902F20E0E1
:1040600030E040E85FE30E94892F60933401709351
:1040700035018093360190933701F9E05F2EEAE92C
:104080004E2E79E9372E69E9262E3EEB3D878E01CB
:104090000F5F1F4F54EFA52E51E0B52E632EE42C79
:1040A000D32C722C44E0F42E33E0C32E93018E2DDA
:1040B0009D2DA32FB62D80933C0190933D01A0939D
:1040C0003E01B0933F016E2D7D2D832F962D20E074
:1040D00030E040E05FE30E94383118160CF054C025
:1040E00080E090E0A0E0BFE380933C0190933D012D
:1040F000A0933E01B0933F0184E391E0B8010E9498
:104100002709FF2009F461C0882499248C2D682D8B
:10411000492D98010E949E0593949F14B8F38394AF
:104120008F1498F388249924892D682D4C2D98019B
:104130000E949E0593949F14B8F383948F1498F370
:1041400088249924892D6C2D482D98010E949E0564
:1041500093949F14B8F383948F1498F30E944703A9
:10416000CC20B1F193016E2D7D2D832F962D2DEC5A
:104170003CEC4CEC5DE30E948A2FE62ED72E782E85
:10418000692ECA94FA9492CF93016E2D7D2D832FC0
:10419000962D20E030E040E050E00E94EE2F87FFB7
:1041A000ABCF80E090E0A0E0B0E080933C01909342
:1041B0003D01A0933E01B0933F0184E391E0B8013B
:1041C0000E942709FF2009F09FCF0E944703CACF12
:1041D0000E94470388EE93E0F5013197F1F70197CC
:1041E000D9F72D85642D732D822D922F2DEC3CEC6B
:1041F0004CEC5DE30E948A2F5A9431F0462E372E04
:10420000282E9D87692E4BCF2DEC3CEC4CEC5DE3CA
:104210000E94892F662E572E482E392E29E0222EF5
:1042200094EFC92E91E0D92EE62CA52CB42C732C3A
:1042300083E0F82E8E2D9A2DAB2DB72D80933C0167
:1042400090933D01A0933E01B0933F016E2D7A2DD6
:104250008B2D972D20E030E040E05FE30E94383165
:1042600018160CF056C080E090E0A0E0BFE3809309
:104270003C0190933D01A0933E01B0933F0184E344
:1042800091E0B8010E9427098F2C9F2C8F2D682D5B
:10429000492D98010E949E059394892D8430B0F396
:1042A0008394282D243089F78F2C9F2C892D682DFD
:1042B0004F2D98010E949E059394392D3430B0F310
:1042C0008394882D843088F38F2C9F2C892D6F2D1B
:1042D000482D98010E949E059394292D2430B0F317
:1042E0008394382D343088F30E944703FA948F2D3D
:1042F0008F3F41F16E2D7A2D8B2D972D2DEC3CECBF
:104300004CEC5DE30E94892FE62EA72EB82E792E65
:1043100091CF6E2D7A2D8B2D972D20E030E040E04F
:1043200050E00E94EE2F87FFAACF80E090E0A0E04F
:10433000B0E080933C0190933D01A0933E01B09387
:104340003F019DCF0E94470388EE93E0F60131972D
:10435000F1F70197D9F72A9479F0662D752D842D00
:10436000932D2DEC3CEC4CEC5DE30E94892F662EE6
:10437000572E482E392E58CF2D960FB6F894DEBF03
:104380000FBECDBFCF91DF911F910F91FF90EF90A6
:10439000DF90CF90BF90AF909F908F907F906F9065
:1043A0005F904F903F902F9008951092EE0380E021
:1043B00090E0A0E0B0E08093410490934204A09389
:1043C0004304B093440480E090E0A0E8BFE380930E
:1043D000450490934604A0934704B0934804109278
:1043E000EF0310924D0420E030E040E05FE32093C3
:1043F000A0043093A1044093A2045093A30480939B
:10440000A4049093A504A093A604B093A7041092CB
:104410004E0480E090E00E94CE020E94470308957F
:104420002EE430E0AC014E5F5F4FC9010397DA0123
:10443000A20FB31FFA01E80FF91F23E001900D92BC
:104440002150E1F79C01009781F708950F931F9386
:10445000DF93CF930F92CDB7DEB78C0169830E94B3
:104460007632AA2797FDA095BA2F6981262F30E0D2
:1044700040E050E0BC01CD010E949F312FEF3FE7AB
:1044800040E050E00E94BE31F801E20FF11D808152
:104490000F90CF91DF911F910F9108952F923F922E
:1044A0004F925F926F927F928F929F92AF92BF9244
:1044B000CF92DF92EF92FF920F931F93DF93CF93F0
:1044C000CDB7DEB76C970FB6F894DEBF0FBECDBF89
:1044D0008C01DC018C918B3110F48F5F8C93AEE4F6
:1044E000B0E098012E5F3F4FCD010397A20FB31F9D
:1044F000F901E80FF91F43E001900D924150E1F7F7
:10450000DC01009789F7F8018081813009F405C248
:10451000F8013280332009F0C0C0CE010F969C8B89
:104520008B8BDE011E96BA8BA98BFE013D96F88B14
:10453000EF879E01245F3F4F3E872D872BE0622E41
:10454000712C6C0E7D1E9AE0A92EB12CAC0EBD1EF6
:1045500089E0882E912C8C0E9D1EB8E0CB2ED12C9C
:10456000CC0EDD1EAE01495F5F4F5C8F4B8F9E010D
:104570002A5F3F4FCE0105969A8F898FCE01049610
:10458000FE013396BE016E5F7F4F2E010894411CE1
:10459000511C5E8A4D8AFF24D8011196EC90119728
:1045A0003E2C5E2D543009F494C1F394A3E02A2EDE
:1045B000AD89BE892C92533009F441C2D8011396BB
:1045C0002C901397222009F4BEC0BE2DB13009F4FF
:1045D00023C1F39442E0342EDB013C92BE2DB23075
:1045E00009F44CC2522D533008F45DC2D801119623
:1045F0003C90D80114966C911497662309F4C9C0B5
:10460000B32DB63009F45FC1F39475E07083B53013
:1046100009F475C1633008F4B4C00E947632CF2C1F
:10462000DD24EE24FF249C01442737FD4095542FC0
:10463000C701B6010E949F312FEF3FE740E050E0F5
:104640000E94BE31F201E20FF11D8081F8018183E9
:10465000833009F4D7C0843008F0ADC0813009F44C
:10466000D6C0823009F4BCC06C960FB6F894DEBF99
:104670000FBECDBFCF91DF911F910F91FF90EF90B3
:10468000DF90CF90BF90AF909F908F907F906F9072
:104690005F904F903F902F900895E180FE2DF33072
:1046A00009F4C8C084E08983F43009F483C1DE01D1
:1046B0005096BC8BAB8BFE013F96FA8BE98BDE01EB
:1046C0001E969E01235F3F4F388B2F87AE01445FBC
:1046D0005F4F5E874D876BE0662E712C6C0E7D1EE2
:1046E0005AE0A52EB12CAC0EBD1E49E0842E912CB3
:1046F0008C0E9D1E38E0C32ED12CCC0EDD1ECE01BB
:1047000007969C8F8B8F9E012A5F3F4FFE01359647
:10471000FA8FE98FCE010496FE013396BE016E5FDB
:104720007F4FFF24F3942E010894411C511C432D0C
:10473000433008F4CAC13E2CD80113962C9013972D
:10474000222009F042CFB32DB23009F4B1C0F39466
:10475000EE24E394DB01EC92B32DB13009F049CFA4
:104760003082E2E0FE0EDC013C92C9019601650157
:10477000E98DFA8D4B8D5C8D5A8F498F9C8E8B8E77
:1047800038CFD80111963C90FC01898D9A8D3A8FD3
:10479000298FB32DB53009F440CFF39426E0208360
:1047A000B63009F03ACFFC013082F2E0FF0EA98D5D
:1047B000BA8D3C9232CF8530E1F0853048F4D80193
:1047C00012968C911297815012968C9312974CCF1F
:1047D000863009F049CFF80184818F5F848344CF0C
:1047E000D80113968C911397815013968C9313973D
:1047F0003BCFD80114968C911497815014968C93CA
:10480000149732CFF80182818F5F82832DCFF80118
:1048100083818F5F838328CF350154014601CB8C80
:10482000DC8C3C8F2B8F298D3A8D9A8F898FCF010D
:10483000FB01D8CECE010F969C8B8B8BDE011E9692
:10484000BA8BA98BDE011D96FE013C96F88BEF8793
:104850009E01255F3F4F3E872D878AE0682E712C91
:104860006C0E7D1EF9E0AF2EB12CAC0EBD1EE8E043
:104870008E2E912C8C0E9D1E77E0C72ED12CCC0E47
:10488000DD1EAE014A5F5F4F5C8F4B8F9E012B5F39
:104890003F4FCE0104969A8F898FCE010396FE0179
:1048A00032962E010894411C511CB201FF243FCFC7
:1048B000CB8CDC8C3C8F2B8F298D3A8D9A8F898FF6
:1048C000CF01FB0196CE298D3A8D9A8F898FCF012A
:1048D000A1CEAD85BE85B88BAF877E866D8635014E
:1048E00054014601CB8CDC8C3C8F2B8F298D3A8D6B
:1048F0009A8F898FCF01FB016D897E895FCEFC0184
:104900003082F2E0FF0EA98DBA8D3C92EB8DFC8DCA
:10491000FA8FE98FC90196017DCE0E9476329C0103
:10492000B901882777FD8095982F660F771F881F1C
:10493000991F660F771F881F991FBFEFCB2EBFE708
:10494000DB2EE12CF12CA70196010E94BE31D8018B
:1049500012962C930E947632FC01BF01882777FDC6
:104960008095982F660F771F881F991F660F771FF6
:10497000881F991FA70196010E94BE31D801139686
:104980002C930E947632FC01BF01882777FD809529
:10499000982F660F771F881F991F660F771F881F34
:1049A000991FA70196010E94BE31D80114962C933D
:1049B00014975ACEEA82EB829E012E5E3F4F3C8BCB
:1049C0002B8BAE014F5E5F4F5A8B498BDE015096A9
:1049D000CE010F96988B8F87FE013E96FE87ED875E
:1049E000EDE06E2E712C6C0E7D1E7CE0A72EB12C9E
:1049F000AC0EBD1E6BE0862E912C8C0E9D1E5AE0D7
:104A0000C52ED12CCC0EDD1E9E01275F3F4F3C8F63
:104A10002B8F9E01285F3F4FAE01495F5F4F5A8F3A
:104A2000498FCE010696FE013596BE016C5F7F4F21
:104A300043E0F42E2E010894411C511C78CEDB017A
:104A4000EC92B2E0FB0EE082E98DFA8D4B8D5C8D2D
:104A50005A8F498F9C8E8B8E43016F847888AB89E7
:104A6000BC89B88BAF87BC01C90196016501AD84D3
:104A7000BE8449895A895E874D87A0CDE082F30CB8
:104A8000FC01E082C90196016501AD84BE84E98D17
:104A9000FA8D4B8D5C8D5A8F498F9C8E8B8E430186
:104AA0006F8478889FCDD80111963C901197BF01F3
:104AB000FC01898D9A8D3A8F298F2B8D3C8DDC8E50
:104AC000CB8E6401450153013ECE7E8B6D8BBF01C1
:104AD000FC01898D9A8D3A8F298F2B8D3C8DDC8E30
:104AE000CB8E6401450153016D847E844F855889C6
:104AF0005E874D87B88BAF8753CD2F923F924F92F1
:104B00005F926F927F928F929F92AF92BF92CF925D
:104B1000DF92EF92FF920F931F93DF93CF93CDB766
:104B2000DEB7AF970FB6F894DEBF0FBECDBF9EA322
:104B30008DA3FC01F0806F2D70E080E090E00E947A
:104B400086305B016C0160E070E080E09FE3A601CD
:104B500095010E94F22F6FA378A789A7492E0DA176
:104B60001EA10D5A1F4FF8016081718182819381CE
:104B70002FE632E143E85AE30E948A2F262F372F8F
:104B8000482F592FF801208331834283538320E03B
:104B900030E040E85FE30E94383187FD09C080E0E3
:104BA00090E0A0E0B0E0F80180839183A283B3831A
:104BB000EDA1FEA1E55AFF4F80E090E0A0E0B0E05B
:104BC00080839183A283B383FE013D96D8018CE05C
:104BD0000D9001928150E1F76DEC7CEC8CEC9DE343
:104BE000A60195010E94F22F6CA77DA78EA79FA713
:104BF000FF2009F4DEC08F2D90E001978C01000F9B
:104C0000111F080F191F0E5F1F4F8DA19EA1080FC6
:104C1000191F992402969BA78AA71E010894211C9C
:104C2000311C39E1A32EB12CAC0EBD1E43C0CE0108
:104C30000D96B1010E942709C801B5010E941C0808
:104C4000698D7A8D8B8D9C8D20E030E040E050E0C6
:104C50000E94EE2F8823C9F46D8D7E8D8F8D98A1D3
:104C600020E030E040E050E00E94EE2F882369F41D
:104C700069A17AA18BA19CA120E030E040E050E046
:104C80000E94EE2F882309F489C0C501B10120E0FC
:104C900030E040E05FE30E94B40CC801B5010E941F
:104CA0004B079394EDA1FEA18081981608F081C076
:104CB000035010405FA148A539A5652F742F832F9D
:104CC000942D2D893E894F89588D0E948A2F862EDA
:104CD000772E682E592E862F972DA62DB52D8D8BCC
:104CE0009E8BAF8BB88F5CA54DA53EA52FA5652FDC
:104CF000742F832F922F2D853E854F8558890E94D2
:104D00008A2FF62EE72ED82EC92EA7019601852FC1
:104D1000942FA32FB22F8D879E87AF87B88B652FD7
:104D2000742F832F922F20E030E040E85FE30E9451
:104D3000383187FD10C0A7019601652F742F832F8E
:104D4000922F20E030E040E85FE30E94892F6D87DA
:104D50007E878F87988B682D772D862D952D20E067
:104D600030E040E05FE30E943831181644F480E000
:104D700090E0A0E0BFE38D8B9E8BAF8BB88FEAA550
:104D8000FBA50E171F0709F052CF80E090E0A0E0CE
:104D9000BFE38D8B9E8BAF8BB88F49CFC801B1011C
:104DA0000E944B079394EDA1FEA18081981608F410
:104DB0007FCFAF960FB6F894DEBF0FBECDBFCF91B9
:104DC000DF911F910F91FF90EF90DF90CF90BF90F8
:104DD000AF909F908F907F906F905F904F903F909B
:104DE0002F9008958091AC049091AD04A091AE04F1
:104DF000B091AF049C01AD012F5F3F4F4F4F5F4F0C
:104E00002093AC043093AD044093AE045093AF04B0
:104E10000097A105B10509F408951092AC04109211
:104E2000AD041092AE041092AF0480E090E00E94B6
:104E3000CE028EEE93E00E944E228EEE93E060E072
:104E40000E947D258DE494E00E944E228DE494E042
:104E500061E00E947D250E9447030895559A84E1F0
:104E600087BD87B5869588BD83E284BD8AE085BD10
:104E700080E480937C00EAE7F0E08FEA8083109280
:104E80007B0078948081806480830895AF92BF9284
:104E9000CF92DF92EF92FF920F931F93DF93CF9306
:104EA000CDB7DEB7A0970FB6F894DEBF0FBECDBF6B
:104EB0008CE397E068EB74E00E941D2A88EB94E095
:104EC0000E94622A88EB94E0BE016F5F7F4F0E94D0
:104ED0002C2B6A8170E0882777FD8095982F0E949F
:104EE000883020E030E040E050E00E948A2F7B01D3
:104EF0008C016B8170E0882777FD8095982F0E9448
:104F000088309B01AC016E2D7F2D802F912F0E9448
:104F10008A2F7B018C016C8170E0882777FD80955A
:104F2000982F0E9488309B01AC016E2D7F2D802F21
:104F3000912F0E948A2F7B018C016D8170E0882760
:104F400077FD8095982F0E9488302E2D3F2D402F81
:104F5000512F0E948A2F7B018C017F2D912F20E001
:104F600030E048E452E40E94EE2F87FD24C16E2D0C
:104F70007F2D802F912F2BEA3AEA4AE25EE30E94CE
:104F80003C317B018C016091B8057091B90580912D
:104F9000BA059091BB0520E030E040EA50E40E9461
:104FA0003C3120E030E040EC50E40E94F22F2E2D06
:104FB0003F2D402F512F0E948A2F162F072FF82E9A
:104FC000E92EA8019701652F742F832F922F20E0DF
:104FD00030E040E05BE30E943C312DEC3CEC4CECDB
:104FE0005DE30E9438311816BCF58091B4049091AD
:104FF000B504A091B604B091B7040097A105B1051E
:1050000009F4EAC00196A11DB11D8093B4049093E8
:10501000B504A093B604B093B704A8019701852FF7
:10502000902FA32FBE2D8093B8059093B905A09320
:10503000BA05B093BB05A0960FB6F894DEBF0FBEBD
:10504000CDBFCF91DF911F910F91FF90EF90DF9037
:10505000CF90BF90AF9008958091B0049091B1042B
:10506000A091B204B091B3040097A105B10509F075
:10507000A7C06091B4047091B5048091B60490917A
:10508000B7040E948830DD24D39420E030E040E073
:105090005FEB0E94383118160CF0A7C01092B404D0
:1050A0001092B5041092B6041092B70481E090E01B
:1050B000A0E0B0E08093B0049093B104A093B20458
:1050C000B093B304DD2009F4A8CF81E080934801B8
:1050D00060910001709101018091020190910301A2
:1050E0002AE939E949E95EE30E948A2FD62EC72EC4
:1050F000B82EA92EA6019501852F942FA32FB22F8C
:105100008093000190930101A0930201B0930301E9
:105110000E9476329C01B901882777FD8095982FEF
:105120000E94883020E03EEF4FEF56E40E94F22FBD
:1051300020E030E040E05FE30E943C319B01AC01A5
:10514000D601F5016B2F7A2F8F2F9E2F0E948A2F69
:10515000D62EC72EB82EA92EA6019501852F942FE5
:10516000A32FB22F8093000190930101A09302011D
:10517000B0930301652F742F832F922F20E030E02E
:1051800040E85FE30E94383187FD47CFA6019501D3
:10519000652F742F832F922F20E030E040E85FE3EB
:1051A0000E94892F60930001709301018093020196
:1051B0009093030132CFEE24FF2400E010E0E3CE11
:1051C0000196A11DB11D8093B0049093B104A093EA
:1051D000B204B093B30421CF1092B0041092B10482
:1051E0001092B2041092B3040DCFDD2457CF0F9369
:1051F0000FB70F931F93AF93BF9300917800109157
:10520000790000501240A0914001B09141010D93EE
:105210001D93009142010A9519F400E4ACE3B7E054
:1052200000934201A0934001B0934101BF91AF911F
:105230001F910F910FBF0F911895A895AF93AFB71E
:10524000AF93BF930F9300910D01003069F00A9561
:1052500000930D01A0910E01B0910F010E910EBDB2
:10526000A0930E01B0930F010F91BF91AF91AFBF0B
:10527000AF911895A8952F930F931F93AF93BF935A
:10528000BFB7BF93A0910E01B0910F010CEB15E0D9
:10529000A017B10711F4ACE3B7E007E100930D01EB
:1052A000209180002F7D20938000299A29980091D9
:1052B0004E01003039F44398459A4598439AA4E248
:1052C000B7E002C0459A4598209180002062209363
:1052D00080000395003108F0002700934E011E91D5
:1052E0001EBDA0930E01B0930F01BF91BFBFBF9130
:1052F000AF911F910F912F9118953D0A880A680B65
:10530000DB0CDC0E681178140318011C68202C25B6
:10531000412A9B2F2C35E53AB8409646704C3852BE
:10532000DF57555D8E627D67146C47700D745C7736
:105330002A7A727C2D7E577FEC7FEC7F577F2D7E03
:10534000727C2A7A5C770D744770146C7D678E626C
:10535000555DDF573852704C9646B840E53A2C35CB
:105360009B2F412A2C256820011C031878146811F2
:10537000DC0EDB0C680B880A3D0AFF7F0000617FB2
:105380008B0C897DF8187C7A27254076FB30E170FC
:10539000563C6C6A1C47F1623351815A815A335131
:1053A000F1621C476C6A563CE170FB304076272561
:1053B0007C7AF818897D8B0C617F0000FE7F75F385
:1053C000617F08E7897DD9DA7C7A05CF4076AAC368
:1053D000E170E4B86C6ACDAEF1627FA5815A0F9D91
:1053E000335194951C471F8F563CC089FB308485F0
:1053F00027257782F8189F808B0C000080004000E2
:10540000C0002000A0006000E000100090005000EC
:10541000D0003000B0007000F000080088004800A4
:10542000C8002800A8006800E8001800980058008C
:10543000D8003800B8007800F8003F922F921F93F0
:105440000F93DF93CF93DC01EB019927EAEFF2E5AD
:1054500000E410E0259135914D915D91B503B001C7
:105460002C031001691FBC03790B300C611D791FDF
:10547000DA03790B300C611D791F69937993699375
:1054800079930150104031F7CF91DF910F911F9127
:105490002F903F90112408951F930F93DF93CF9384
:1054A000DC01EB0100E410E04D915D9149935993CB
:1054B0004993599301501040B9F7CF91DF910F9163
:1054C0001F9108953F922F925F924F927F926F9219
:1054D0009F928F92BF92AF92DF92CF92FF92EF9204
:1054E0001F930F93DF93CF93FC0181E090E0A0E244
:1054F000B0E004E0809F6001909FD00C7C019F93FE
:105500008F93EF01A09FC00DD11DB09FD00DFF93D1
:10551000EF93BB24AA249927008111811595079543
:105520006881798175956795A801061B170B460F51
:10553000571F4193519320813181359527956A8179
:105540007B8175956795A901261B370B460F571F61
:10555000419351930F01EAE7F3E5EA0DFB1D4591F5
:10556000559165917591F001950320010C0310018F
:10557000491E9C03590A300C411C591ED803590A74
:10558000300C411C591EB70340012E033001891E07
:10559000BE03990A700C811C991EFA03990A700CBB
:1055A000811C991E260C371C481C591C4992599283
:1055B000B50320012C031001491EBC03590A300C0D
:1055C000411C591EDA03590A300C411C591E97031D
:1055D00040010E033001891E9E03990A700C811C44
:1055E000991EF803990A700C811C991E2618370819
:1055F0004808590849925992AC0CBD1CA7FE8CCFA3
:1056000004E0A09FC00DD11DE00DF11DB09FD00D95
:10561000F00D81E0E81AF90A09F07BCFEF91FF91D4
:105620008F919F91880F991FB695A795109609F0B5
:1056300060CFCF91DF910F911F91EF90FF90CF90AE
:10564000DF90AF90BF908F909F906F907F904F9022
:105650005F902F903F9008953F922F925F924F92CC
:105660007F926F929F928F92BF92AF921F930F93F0
:10567000DF93CF935C01EB01EAEFF3E5992700E2BA
:1056800010E0A591B591AA0DBB1D2D913D914D91B5
:105690005D91B30320012A031001491EBA03590A80
:1056A000300C411C591EBA03590A300C411C591EBA
:1056B000D50340014C033001891EDC03990A700CAC
:1056C000811C991EDC03990A700C811C991E260C02
:1056D000371C481C591C50EC442730E4221B18F09E
:1056E0004216530620F0421A530A242B352B5695A6
:1056F000479535272427221C331C441C551C20FEAB
:10570000EECF18F0330C24053505251F29930150E1
:10571000104009F0B6CFCF91DF910F911F91AF905C
:10572000BF908F909F906F907F904F905F902F9041
:105730003F900895AC019927D703F0014E03D001A3
:10574000E91FDE03F90BB00DE11DF91FFC03F90B96
:10575000B00DE11DF91FCF01089561157105810597
:10576000910521F4FA0180E3819315C0DA019B01D0
:10577000217030702115310511F021E301C020E3C3
:105780002D93FD0196958795779567956115710520
:105790008105910561F7CF010895A3E1B0E0E3ED44
:1057A000FBE20C94D9315C017D876C87FC01178288
:1057B0001682838181FD03C0A5C3A10105C09E019E
:1057C0002F5F3F4F3B8B2A8BF5019381EC85FD8545
:1057D00093FD859193FF8191FD87EC87882309F4E0
:1057E0008DC3853241F493FD859193FF8191FD87AF
:1057F000EC87853251F490E0B501488B598B0E94BB
:105800008133488959891A01D8CF10E0FF2400E07C
:105810000032B0F48B3269F08C3228F4803251F0CF
:10582000833271F40BC08D3239F0803349F401605A
:105830002CC00260046029C0086027C0006125C038
:1058400007FD2EC0282F20532A3098F406FF08C0E9
:10585000812F880F182F110F110F180F120F15C05D
:105860008F2D880FF82EFF0CFF0CF80EF20E006241
:105870000CC08E3221F406FD41C3006406C08C3694
:1058800011F4006802C0883659F4EC85FD8593FD5B
:10589000859193FF8191FD87EC87882309F0B8CF2C
:1058A000982F9554933018F40061805E06C0982FAD
:1058B0009556933008F0A5C10F7E06FF16E0EFE382
:1058C000EE2EE022853619F4F0E4EF2A07C0863682
:1058D00019F420E8E22A02C011111150E7FE06C0B7
:1058E0001C3340F4912E939427E00BC0183030F411
:1058F000212F06C027E07CE3972E03C027E017E0A6
:10590000992464E0262E312C240E351EFA01608184
:10591000718182819381AE014F5F5F4F092D0E949B
:1059200086326C016980262D30E03F872E8760FE2D
:1059300003C03E8533FF06C0E1FC06C0E2FE06C0A0
:1059400000E205C00DE203C00BE201C000E08E855D
:105950009F858C7090700097C1F1002311F084E056
:1059600001C083E08F1558F4F81AE3FC09C080E207
:1059700090E0B5010E948133FA94C9F701C0FF2479
:10598000002329F0802F90E0B5010E9481338E859D
:1059900083FD03C00CE610E00EC008E610E00BC06B
:1059A000C114D10409F0805290E0B5010E94813306
:1059B0000F5F1F4F05C0CE2CDD2490E1C922DD24EE
:1059C000F8018491882361F796C2E7FE0EC09C0C13
:1059D000FE85F4FF04C08A81813309F49A94191476
:1059E00054F5292D293050F52DC0E6FC2BC0812F10
:1059F00090E08C159D054CF03CEFC3163FEFD306AD
:105A000024F080E8E82A01C01150112349F0E2E0B7
:105A1000F0E0EC0FFD1FE10FF11D80818033A1F359
:105A2000E7FE10C0912E9394812F90E0C816D906FE
:105A300044F41C1907C09924939404C038E0932EB1
:105A400001C010E0E7FE07C01C141D043CF49601E1
:105A50002F5F3F4F05C025E030E002C021E030E07D
:105A6000002311F02F5F3F4F112329F0812F90E089
:105A70000196280F391F8F2D90E02817390714F44D
:105A8000F21A01C0FF244E2C5524C2018970907077
:105A9000009749F406C080E290E0B5010E9481338E
:105AA000FA94FF20C1F7002329F0802F90E0B50180
:105AB0000E94813343FC09C006C080E390E0B50139
:105AC0000E948133FA94FF20C1F7E7FE4AC03601F5
:105AD000D7FE02C06624772426010894411C511C7D
