:100000000C94B5000C94D2000C94D2000C94D20045
:100010000C94D2000C94D2000C94D2000C94D20018
:100020000C94D2000C94D2000C94D2000C94D20008
:100030000C94D2000C94E9230C94D2000C94D200BE
:100040000C94D2000C9443060C94D2000C94D20071
:100050000C94D2000C94D2000C94D2000C94D200D8
:100060000C94D2000C94D2006E616E00696E660032
:1000700000407A10F35A00A0724E18090010A5D45F
:10008000E80000E87648170000E40B54020000CABC
:100090009A3B000000E1F505000080969800000002
:1000A00040420F000000A086010000001027000061
:1000B0000000E803000000006400000000000A00E7
:1000C000000000000100000000002C76D888DC67EA
:1000D0004F0823DFC1DFAE59E1B1B796E5E3E45342
:1000E000C63AE651997696E8E6C28426EB898C9B5F
:1000F00062ED407C6FFCEFBC9C9F40F2BAA56FA5FF
:10010000F490055A2AF75C936B6CF9676DC11BFC80
:10011000E0E40D47FEF520E6B500D0ED902E03009B
:10012000943577050080841E080000204E0A0000E8
:1001300000C80C333333330F986E12831141EF8DA7
:100140002114893BE65516CFFEE6DB18D1844B38E7
:100150001BF77C1D901DA4BBE424203284725E2218
:100160008100C9F124ECA1E53D2711241FBECFEF8A
:10017000D8E0DEBFCDBF11E0A0E0B1E0E6E7F9E5F1
:1001800002C005900D92A035B107D9F715E0A0E5A2
:10019000B1E001C01D92A73FB107E1F70E94EB015A
:1001A0000C94B92C0C9400000F931F93DF93CF9302
:1001B000CDB7DEB7A1970FB6F894DEBF0FBECDBFA7
:1001C0008AE090E0A0E0B0E08C839D83AE83BF83A3
:1001D00080E091E09E012A5E3F4FB9010E946F0AC4
:1001E00019821BC01A8213C01B820BC09E012A5E9B
:1001F0003F4F89816A814B810E94BA078B818F5F53
:100200008B838B81843090F38A818F5F8A838A818C
:10021000843050F389818F5F89838981843010F322
:100220000E94CD056C817D818E819F810E94052970
:10023000DC01CB0188879987AA87BB876885798588
:100240008A859B8520E030E44CE955E40E94B92979
:10025000DC01CB018C879D87AE87BF8711E06C8561
:100260007D858E859F8520E030E040E85FE30E9439
:100270006B2888230CF010E0112329F081E090E036
:10028000998B888B46C011E06C857D858E859F8516
:1002900020E03FEF4FE757E40E94B52918160CF015
:1002A00010E0112361F1688579858A859B8520E0BE
:1002B00030E040E251E40E94B929DC01CB01BC01ED
:1002C000CD010E94D728DC01CB01998B888B12C00D
:1002D00084EF91E09B8B8A8B8A899B898C01C80172
:1002E0000197F1F78C011B8B0A8B888999890197FB
:1002F000998B888B88899989009751F717C06C85ED
:100300007D858E859F850E94D728DC01CB01998B46
:10031000888B888999899D8B8C8B8C899D898C0190
:10032000C8010197F1F78C011D8B0C8B80910001A6
:1003300090910101A0910201B0910301BC01CD0196
:1003400027E137EB41E559E30E940728DC01CB01A7
:100350008093000190930101A0930201B0930301E7
:100360008091000190910101A0910201B0910301DF
:1003700011E0BC01CD0120E030E040E85FE30E94E5
:10038000B52988230CF410E01123D1F080910001ED
:1003900090910101A0910201B0910301BC01CD0136
:1003A00020E030E040E85FE30E940628DC01CB015A
:1003B0008093000190930101A0930201B093030187
:1003C000A1960FB6F894DEBF0FBECDBFCF91DF91DF
:1003D0001F910F910895DF93CF9300D00F92CDB767
:1003E000DEB78AE290E02AE230E0F9012081206263
:1003F000FC01208387E490E02AE0FC01208388E46C
:1004000090E027E430E0F90120812695FC0120836B
:1004100084E490E023E2FC01208385E490E02AE07C
:10042000FC0120830E94380280E090E00E94A00539
:100430000E94CD050E942E090E94AE1E1A821982CA
:1004400081E08B838091500190915101A0915201E4
:10045000B09153010196A11DB11D8093500190935D
:100460005101A0935201B09353010E942D23EACF72
:10047000DF93CF9300D000D0CDB7DEB720E030E0DF
:10048000CE010196B90144E050E00E94912C89818F
:100490009A81AB81BC810E94F82A89819A81AB81C3
:1004A000BC810196A11DB11D89839A83AB83BC8356
:1004B00020E030E0CE010196B90144E050E00E9416
:1004C000A12C0F900F900F900F90CF91DF91089576
:1004D000DF93CF93CDB7DEB78EE790E02DE3FC013D
:1004E0002083CF91DF910895DF93CF93CDB7DEB70F
:1004F00080EB90E023E2FC01208384EB90E021E09C
:10050000FC01208383EB90E023E0FC01208381EB5E
:1005100090E029E0FC01208380E890E020E2FC01EB
:10052000208388E890E021E030E0FC0131832083E3
:100530008AE890E022E030E0FC013183208386E805
:1005400090E024E230E2FC013183208381E890E0F6
:1005500021E1FC0120838FE690E021E0FC01208373
:100560007894CF91DF910895DF93CF93CDB7DEB725
:1005700084E290E024E230E0F90120812460FC0173
:10058000208385E290E025E230E0F90120812460BB
:10059000FC01208384E290E024E230E0F901208134
:1005A0002860FC01208384E290E024E230E0F9013D
:1005B00020812062FC01208385E290E025E230E08A
:1005C000F90120812F7DFC0120838CE490E020E55F
:1005D000FC0120838DE490E02DE430E0F9012081DE
:1005E0002160FC012083CF91DF910895DF93CF93A9
:1005F0000F92CDB7DEB78CE490E0FC018081898357
:1006000084E290E024E230E0F90120812062FC01E4
:1006100020838CE490E02CE430E0F90120812F7BF2
:10062000FC01208385E290E025E230E0F9012081A1
:100630002062FC01208385E290E025E230E0F901B0
:1006400020812F7DFC0120838CE490E02981FC0136
:1006500020830F90CF91DF910895DF93CF93CDB793
:10066000DEB729970FB6F894DEBF0FBECDBF8887DF
:1006700069878885869586958983998180E0891B1D
:10068000880F880F9885890F88879981892F880F0F
:10069000890F89838981882F90E0895A9E4F9B8397
:1006A0008A838A819B8101969D838C838C819D8125
:1006B00001969F838E838885882F90E081309105F5
:1006C000E9F0823091051CF4009749F078C082303F
:1006D0009105E1F18330910509F45DC070C08A8114
:1006E0009B81FC018081982F907C89858F73892B59
:1006F000282F8A819B81FC01208361C08A819B8194
:10070000FC018081282F2F738985882F90E0002499
:10071000969587950794969587950794982F802DA1
:10072000822B282F8A819B81FC0120838C819D81D3
:10073000FC018081982F907F898586958695892BED
:10074000282F8C819D81FC01208339C08C819D8163
:10075000FC018081282F2F708985882F90E0829559
:100760009295907F9827807F9827822B282F8C81C5
:100770009D81FC0120838E819F81FC018081982FC7
:100780009C7F898582958F70892B282F8E819F81F0
:10079000FC01208314C08E819F81FC018081282F61
:1007A00023708985882F90E0880F991F880F991FE3
:1007B000822B282F8E819F81FC01208300002996A7
:1007C0000FB6F894DEBF0FBECDBFCF91DF91089575
:1007D000DF93CF9300D00F92CDB7DEB78B831A8211
:1007E000198209C089816B810E942D0389819A81B8
:1007F00001969A83898389819A818031910590F34A
:100800000F900F900F90CF91DF910895DF93CF93CA
:100810000F92CDB7DEB789838EE490E02981FC0189
:10082000208300008DE490E0FC0180818823D4F7D0
:100830000F90CF91DF910895DF93CF9300D000D038
:100840000F92CDB7DEB785E290E025E230E0F90106
:1008500020812160FC0120838CE090E09A838983D1
:1008600082E691E09C838B830CC08B819C81FC0190
:1008700020818B819C8101979C838B83822F0E9496
:10088000060421E089819A81009709F420E089819A
:100890009A8101979A838983222339F785E290E030
:1008A00025E230E0F90120812260FC01208385E20D
:1008B00090E025E230E0F90120812D7FFC012083CA
:1008C00088E18D830BC08EE490E0FC011082000073
:1008D0008DE490E0FC0180818823D4F781E09D8144
:1008E000992309F480E09D8191509D83882359F7D5
:1008F0000E94F6020F900F900F900F900F90CF91E3
:10090000DF910895DF93CF93CDB7DEB72B970FB666
:10091000F894DEBF0FBECDBF888769875B874A87A3
:10092000888586958983998180E0891B880F9885C1
:10093000890F88879981892F880F890F89838985F5
:10094000282F30E0C901880F991F820F931F880F4D
:10095000991F880F991F880F991F9C018981882FE3
:1009600090E0820F931F8D599E4F9B838A838A81CB
:100970009B8101969D838C838C819D8101969F83B1
:100980008E838885882F90E0009721F08130910533
:10099000B1F032C02A858A819B81FC0120838C8141
:1009A0009D81FC018081282F207F8A859B85892F4E
:1009B0009927282B8C819D81FC0120831DC08C816F
:1009C0009D81FC018081982F9F708A858295807F10
:1009D000292F282B8C819D81FC0120838A859B8572
:1009E000929582958F7089279F708927282F8E81F5
:1009F0009F81FC01208300002B960FB6F894DEBF88
:100A00000FBECDBFCF91DF910895DF93CF93CDB7C8
:100A1000DEB72B970FB6F894DEBF0FBECDBF888729
:100A200069875B874A87888586958983998180E075
:100A3000891B880F9885890F88879981892F880F4E
:100A4000890F89838985282F30E0C901880F991F74
:100A5000820F931F880F991F880F991F880F991F66
:100A60009C018981882F90E0820F931F8D599E4FA2
:100A70009B838A838A819B8101969D838C838C8151
:100A80009D8101969F838E838885882F90E00097B3
:100A900021F08130910519F14AC08A819B81FC01C6
:100AA0008081282F30E08A859B85FC01318320835B
:100AB0008A859B85FC01208131818C819D81FC018F
:100AC0008081882F90E08F709070982F8827282B36
:100AD000392B8A859B85FC013183208328C08E8138
:100AE0009F81FC018081882F90E082959295907F74
:100AF0009827807F98279C018A859B85FC013183FC
:100B000020838A859B85FC01208131818C819D8198
:100B1000FC01808182958F70882F90E09070282B47
:100B2000392B8A859B85FC013183208300002B961D
:100B30000FB6F894DEBF0FBECDBFCF91DF91089501
:100B4000DF93CF9300D000D00F92CDB7DEB79D8357
:100B50008C83198217C01B821A820CC08A812C8157
:100B60003D816981A9010E9482048A819B8101964D
:100B70009B838A838A819B818031910578F3898167
:100B80008F5F89838981803130F30F900F900F90B0
:100B90000F900F90CF91DF910895DF93CF93CDB752
:100BA000DEB787E794E023E631E0B90140E851E0A1
:100BB0000E94F32BCF91DF9108951F93DF93CF9382
:100BC00000D000D0CDB7DEB79C838B831A82198208
:100BD0004CC09981892F880F182F190F8B819C8108
:100BE000FC0180819181A281B381BC01CD010E9471
:100BF000D728DC01CB01982F812F692F0E942D036C
:100C00009981892F880F890F182F1F5F8B819C81F5
:100C1000FC0184819581A681B781BC01CD010E9430
:100C2000D728DC01CB01982F812F692F0E942D033B
:100C30009981892F880F890F182F1E5F8B819C81C6
:100C4000FC0180859185A285B385BC01CD010E9400
:100C5000D728DC01CB01982F812F692F0E942D030B
:100C600089819A8101969A83898389819A818430C6
:100C700091050CF4AECF0F900F900F900F90CF9185
:100C8000DF911F9108951F920F920FB60F921124BA
:100C90002F933F938F939F93EF93FF93DF93CF9384
:100CA000CDB7DEB7A89590910D0181E0992309F4A5
:100CB00080E0915090930D018823A1F08EE490E0A4
:100CC00020910E0130910F012150304030930F01DF
:100CD00020930E0120910E0130910F01F901208126
:100CE000FC012083CF91DF91FF91EF919F918F9134
:100CF0003F912F910F900FBE0F901F901895DF938B
:100D0000CF93CDB7DEB72C970FB6F894DEBF0FBEEA
:100D1000CDBF85E290E025E230E0F90120812E7F11
:100D2000FC01208384E290E024E230E0F90120819C
:100D30002160FC01208385E290E025E230E0F901AA
:100D400020812460FC01208384E290E024E230E0F2
:100D5000F90120812460FC0120838AE290E02AE2EC
:100D600030E0F90120812860FC01208384E290E0DA
:100D700024E230E0F90120812260FC012083CE01D1
:100D8000019620E131E04CE0F90100802F5F3F4FF8
:100D9000FC010082019641504423B1F7CE01019637
:100DA0000E94DD050E94B4020E941C0481E0809331
:100DB000540185E290E025E230E0F90120812E7FA8
:100DC000FC0120838DE490E02DE430E0F9012081E6
:100DD0002068FC0120838CE490E02CE430E0F901F1
:100DE00020812068FC0120830E94740280E090E052
:100DF0000E94A0050E94CD052C960FB6F894DEBF88
:100E00000FBECDBFCF91DF910895DF93CF93CDB7C4
:100E1000DEB788E290E028E230E0F90120812F7E01
:100E2000FC012083CF91DF910895DF93CF93CDB75D
:100E3000DEB788E290E028E230E0F901208120610D
:100E4000FC012083CF91DF910895DF93CF930F9220
:100E5000CDB7DEB789838EE490E02981FC01208341
:100E600000008DE490E0FC0180818823D4F70F908E
:100E7000CF91DF910895DF93CF93CDB7DEB787E2AF
:100E800090E027E230E0F90120812062FC0120831C
:100E900087E290E027E230E0F90120812061FC0147
:100EA000208387E290E027E230E0F901208128608A
:100EB000FC01208388E290E028E230E0F901208103
:100EC0002F7DFC01208388E290E028E230E0F901E8
:100ED0002081277FFC0120830E9405070E941507BF
:100EE000CF91DF910895EF92FF920F931F93DF93BD
:100EF000CF93CDB7DEB72B970FB6F894DEBF0FBEFA
:100F0000CDBF8B836C834D833F832E8319870887E6
:100F1000FB86EA868D81982F990F990F8C81890F16
:100F200089839B81892F880F890F8A832E813F8136
:100F30008A816981A9010E9482048A818F5F288544
:100F400039856981A9010E9482048A818E5F2A8580
:100F50003B856981A9010E9482042B960FB6F89403
:100F6000DEBF0FBECDBFCF91DF911F910F91FF90DC
:100F7000EF900895DF93CF93CDB7DEB72D970FB6DF
:100F8000F894DEBF0FBECDBF89876A874B873D8748
:100F90002C878B85982F990F990F8A85890F8983C4
:100FA0009985892F880F890F8A838C859D85FC01FF
:100FB00080819181A281B381BC01CD0120E030EF1D
:100FC0004FE755E40E94B929DC01CB01BC01CD01FA
:100FD0000E94D728DC01CB019C838B838C859D8567
:100FE000FC0184819581A681B781BC01CD0120E0FF
:100FF00030EF4FE755E40E94B929DC01CB01BC0179
:10100000CD010E94D728DC01CB019E838D838C8586
:101010009D85FC0180859185A285B385BC01CD01AC
:1010200020E030EF4FE755E40E94B929DC01CB0105
:10103000BC01CD010E94D728DC01CB0198878F83AA
:101040002B813C818A816981A9010E9482048A8165
:101050008F5F2D813E816981A9010E9482048A816E
:101060008E5F2F8138856981A9010E9482042D96A7
:101070000FB6F894DEBF0FBECDBFCF91DF910895BC
:10108000DF93CF93CDB7DEB72D970FB6F894DEBFC1
:101090000FBECDBF89876A874B873D872C878B859D
:1010A000982F990F990F8A85890F89839985892FA0
:1010B000880F890F8A839E012D5F3F4F8A81698146
:1010C000A9010E9405058A818F5F9E012B5F3F4F1A
:1010D0006981A9010E9405058A818E5F9E01295FB1
:1010E0003F4F6981A9010E9405058B819C81CC013C
:1010F000A0E0B0E0BC01CD010E940329DC01CB01DE
:10110000BC01CD0120E030EF4FE755E40E946F288D
:10111000DC01CB012C853D85F90180839183A2837D
:10112000B3838D819E81CC01A0E0B0E0BC01CD01F4
:101130000E940329DC01CB01BC01CD0120E030EF8E
:101140004FE755E40E946F28DC01CB012C853D85DB
:10115000F90184839583A683B7838F819885CC0119
:10116000A0E0B0E0BC01CD010E940329DC01CB016D
:10117000BC01CD0120E030EF4FE755E40E946F281D
:10118000DC01CB012C853D85F90180879187A28701
:10119000B3872D960FB6F894DEBF0FBECDBFCF91AB
:1011A000DF910895DF93CF9300D000D0CDB7DEB7A5
:1011B0009A8389837C836B8389819A81FC01508126
:1011C00089819A81FC01418189819A81FC01928106
:1011D0002B813C81852F642F492F0E94BA070F90E5
:1011E0000F900F900F90CF91DF910895DF93CF93E1
:1011F00000D000D0CDB7DEB79A8389837C836B8320
:1012000089819A81FC01508189819A81FC01418107
:1012100089819A81FC0192812B813C81852F642FE9
:10122000492F0E9440080F900F900F900F90CF9180
:10123000DF910895DF93CF93CDB7DEB780E690E0DE
:1012400020E630E0F90120812061FC01208380E666
:1012500090E0FC011082CF91DF910895DF93CF934E
:10126000CDB7DEB70E943B070E947F060E941A0995
:10127000CF91DF910895EF92FF920F931F93DF9329
:10128000CF93CDB7DEB760970FB6F894DEBF0FBE31
:10129000CDBF6D837E838F83988729873A874B875D
:1012A0005C87ED86FE860F87188B11E06D817E814D
:1012B0008F81988520E030E040E050E00E946B286C
:1012C00088230CF010E0112381F06D817E818F81E5
:1012D000988520E030E040E85FE30E940728DC01C9
:1012E000CB018D839E83AF83B88711E06D817E81B2
:1012F0008F81988520E030E040E85FE30E94B529C7
:1013000018160CF010E0112381F06D817E818F8121
:10131000988520E030E040E85FE30E940628DC0189
:10132000CB018D839E83AF83B8876D817E818F8152
:10133000988520E030E040EC50E40E94B929DC01BF
:10134000CB0111E0BC01CD0120E030E040E85FE3DB
:101350000E946B2888230CF010E0112379F16D8531
:101360007E858F85988929853A854B855C850E9485
:101370000628DC01CB01BC01CD0120E030E040ECCF
:1013800050E40E94B929DC01CB01BC01CD012D81C3
:101390003E814F8158850E94B929DC01CB01BC01F7
:1013A000CD0129853A854B855C850E940728DC01A3
:1013B000CB0189839A83AB83BC837EC02D813E8120
:1013C0004F815885CA01B9010E940728DC01CB0171
:1013D00011E0BC01CD0120E030E040E85FE30E9475
:1013E0006B2888230CF010E0112349F08D859E8531
:1013F000AF85B88989839A83AB83BC835DC06D81D7
:101400007E818F81988520E030E040E450E40E94A6
:10141000B929DC01CB0111E0BC01CD0120E030E0B5
:1014200040E050E40E946B2888230CF010E0112368
:10143000D9F16D857E858F85988929853A854B857B
:101440005C850E940628DC01CB017C018D016BEAE2
:101450007AEA8AE29FE32D813E814F8158850E947E
:101460000628DC01CB019C01AD01C801B7010E9437
:10147000B929DC01CB01BC01CD0120E030E040EC1A
:1014800050E40E94B929DC01CB01BC01CD012985C2
:101490003A854B855C850E940728DC01CB01898356
:1014A0009A83AB83BC8308C089859A85AB85BC854C
:1014B00089839A83AB83BC8389819A81AB81BC8108
:1014C000BC01CD0160960FB6F894DEBF0FBECDBF54
:1014D000CF91DF911F910F91FF90EF900895EF92C0
:1014E000FF920F931F93DF93CF93CDB7DEB7A497EF
:1014F0000FB6F894DEBF0FBECDBF9AA389A37CA31D
:101500006BA389A19AA1FC0180819181A281B38101
:101510008D839E83AF83B88789A19AA1FC018481C2
:101520009581A681B78189879A87AB87BC8789A176
:101530009AA1FC0180859185A285B3858D879E87C0
:10154000AF87B88B69857A858B859C8520E030E0F4
:1015500040E050E00E946B28882311F52BA13CA1AC
:101560008D859E85AF85B889F90180839183A2839B
:10157000B3832BA13CA18D859E85AF85B889F901E8
:1015800084839583A683B7832BA13CA18D859E85FB
:10159000AF85B889F90180879187A287B387EDC0AD
:1015A00011E06D857E858F85988920E030E040E0F0
:1015B0005FE30E946B2888230CF010E01123D9F020
:1015C00069857A858B859C8520E030E040E85FE383
:1015D0000E940728DC01CB01BC01CD012D853E8591
:1015E0004F8558890E94B929DC01CB0189839A83F0
:1015F000AB83BC8336C011E06D857E858F8598896D
:1016000020E030E040E05FE30E94B52988230CF43D
:1016100010E0112331F16D857E858F8598892985AC
:101620003A854B855C850E940728DC01CB017C0153
:101630008D016D857E858F85988929853A854B85B5
:101640005C850E94B929DC01CB019C01AD01C80178
:10165000B7010E940628DC01CB0189839A83AB8302
:10166000BC832D853E854F855889CA01B9010E94EA
:101670000728DC01CB01BC01CD0129813A814B81D6
:101680005C810E940628DC01CB01898B9A8BAB8B95
:10169000BC8B6D817E818F8198852BEA3AEA4AEA7C
:1016A0005EE30E940728DC01CB018D8B9E8BAF8B04
:1016B000B88F8D819E81AF81B885898F9A8FAB8FCE
:1016C000BC8F6D817E818F8198852BEA3AEA4AEA48
:1016D0005EE30E940628DC01CB018D8F9E8FAF8FC9
:1016E000B8A38D899E89AF89B88D29893A894B899C
:1016F0005C89E980FA800B811C81BC01CD010E94CC
:101700003B09DC01CB012BA13CA1F9018083918332
:10171000A283B383898D9A8DAB8DBC8D29893A893B
:101720004B895C89E980FA800B811C81BC01CD0169
:101730000E943B09DC01CB012BA13CA1F901848370
:101740009583A683B7838D8D9E8DAF8DB8A1298992
:101750003A894B895C89E980FA800B811C81BC0144
:10176000CD010E943B09DC01CB012BA13CA1F90179
:1017700080879187A287B3870000A4960FB6F8945C
:10178000DEBF0FBECDBFCF91DF911F910F91FF90B4
:10179000EF900895AF92BF92CF92DF92EF92FF92B7
:1017A0000F931F93DF93CF93CDB7DEB760970FB63C
:1017B000F894DEBF0FBECDBF9A8789877C876B8781
:1017C0002D873E874F87588B80E090E0A0E8BFE3ED
:1017D00089839A83AB83BC8360E070E080E89FE3F9
:1017E0002D853E854F8558890E940628DC01CB0156
:1017F000BC01CD0129813A814B815C810E94B929CC
:10180000DC01CB01BC01CD012D853E854F8558897A
:101810000E940728DC01CB018D839E83AF83B887AC
:101820008B859C85FC0180819181A281B381BC0163
:10183000CD012D853E854F8558890E94B929DC014F
:10184000CB017C018D0189859A85FC018081918184
:10185000A281B381BC01CD0129813A814B815C8198
:101860000E94B929DC01CB015C016D0160E070E0F0
:1018700080E89FE32D853E854F8558890E94062884
:10188000DC01CB019C01AD01C601B5010E94B92963
:10189000DC01CB019C01AD01C801B7010E94072802
:1018A000DC01CB01BC01CD012D813E814F815885EA
:1018B0000E946F28DC01CB0129853A85F9018083DC
:1018C0009183A283B3838B859C85FC018481958160
:1018D000A681B781BC01CD012D853E854F855889F4
:1018E0000E94B929DC01CB017C018D0189859A8593
:1018F000FC0184819581A681B781BC01CD0129813C
:101900003A814B815C810E94B929DC01CB015C01E9
:101910006D0160E070E080E89FE32D853E854F8596
:1019200058890E940628DC01CB019C01AD01C6014B
:10193000B5010E94B929DC01CB019C01AD01C801B0
:10194000B7010E940728DC01CB01BC01CD012D812C
:101950003E814F8158850E946F28DC01CB0129858B
:101960003A85F90184839583A683B7838B859C850B
:10197000FC0180859185A285B385BC01CD012D85B3
:101980003E854F8558890E94B929DC01CB017C0135
:101990008D0189859A85FC0180859185A285B38515
:1019A000BC01CD0129813A814B815C810E94B9291A
:1019B000DC01CB015C016D0160E070E080E89FE339
:1019C0002D853E854F8558890E940628DC01CB0174
:1019D0009C01AD01C601B5010E94B929DC01CB0112
:1019E0009C01AD01C801B7010E940728DC01CB01B1
:1019F000BC01CD012D813E814F8158850E946F2809
:101A0000DC01CB0129853A85F90180879187A2877E
:101A1000B38760960FB6F894DEBF0FBECDBFCF91EF
:101A2000DF911F910F91FF90EF90DF90CF90BF90CB
:101A3000AF900895DF93CF9300D000D0CDB7DEB73D
:101A40009C838B8319828FEF8A83B9C00E94F32A0B
:101A5000AA2797FDA095BA2F26E030E040E050E09D
:101A6000BC01CD010E941C2ADC01CB012FEF3FE716
:101A700040E050E0BC01CD010E943B2ADA01C901DF
:101A80008A838A81882F90E08230910509F451C0C1
:101A90008330910534F4009781F08130910509F18C
:101AA00081C08430910509F46AC0843091056CF1DD
:101AB0008530910509F450C075C08B819C81FC0173
:101AC0008181833008F070C081E089838B819C81A3
:101AD000FC018181282F2F5F8B819C81FC01218358
:101AE0006EC08B819C81FC018181882309F45EC0DA
:101AF00081E089838B819C81FC018181282F215089
:101B00008B819C81FC0121835AC08B819C81FC01CB
:101B10008081833008F04CC081E089838B819C8177
:101B2000FC018081282F2F5F8B819C81FC01208309
:101B300046C08B819C81FC0180818823D9F181E0A2
:101B400089838B819C81FC018081282F21508B818E
:101B50009C81FC01208333C08B819C81FC018281AC
:101B6000833050F581E089838B819C81FC018281E7
:101B7000282F2F5F8B819C81FC01228320C08B81C9
:101B80009C81FC0182818823C9F081E089838B815B
:101B90009C81FC018281282F21508B819C81FC013A
:101BA00022830DC019820BC0000009C0000007C0CD
:101BB000000005C0000003C0000001C000008981D2
:101BC000882309F443CF0F900F900F900F90CF917F
:101BD000DF910895DF93CF93CDB7DEB72E970FB681
:101BE000F894DEBF0FBECDBFCE0103962CE131E0ED
:101BF0004CE0F90100802F5F3F4FFC01008201960D
:101C000041504423B1F71A821982B6C029813A8122
:101C1000C901880F991F820F931F9C01220F331F48
:101C2000220F331F820F931F9C012D513D4FCE0178
:101C30000396B9010E946F0A0E94F32AAA2797FD12
:101C4000A095BA2F880F991FAA1FBB1F880F991F35
:101C5000AA1FBB1F2FEF3FE740E050E0BC01CD01C2
:101C60000E943B2ADA01C901482F29813A81C90122
:101C7000880F991F820F931F9C01220F331F220F81
:101C8000331F820F931F81519D4FFC0140830E949F
:101C9000F32AAA2797FDA095BA2F880F991FAA1F8C
:101CA000BB1F880F991FAA1FBB1F2FEF3FE740E004
:101CB00050E0BC01CD010E943B2ADA01C901482F46
:101CC00029813A81C901880F991F820F931F9C01B6
:101CD000220F331F220F331F820F931F80519D4FFE
:101CE000FC0140830E94F32AAA2797FDA095BA2FF2
:101CF000880F991FAA1FBB1F880F991FAA1FBB1F00
:101D00002FEF3FE740E050E0BC01CD010E943B2AAD
:101D1000DA01C901482F29813A81C901880F991F29
:101D2000820F931F9C01220F331F220F331F820F3C
:101D3000931F8F509D4FFC0140830E94F32AAA27D6
:101D400097FDA095BA2FBC01CD010E940529DC01A9
:101D5000CB01BC01CD0120E03EEF4FEF56E40E94E5
:101D60006F28DC01CB018B839C83AD83BE8389818B
:101D70009A8101969A83898389819A818A30910513
:101D80000CF444CF2E960FB6F894DEBF0FBECDBF35
:101D9000CF91DF9108950F931F93DF93CF93CDB72A
:101DA000DEB760970FB6F894DEBF0FBECDBF80E000
:101DB00090E00E94A0051A8219823FC029813A81D1
:101DC000C901880F991F820F931F9C01220F331F97
:101DD000220F331F820F931F0C968D519D4F0E942F
:101DE0001A0D29813A81C901880F991F820F931F0B
:101DF0009C01220F331F220F331F820F931F0C965B
:101E0000AC014D515D4F29813A81C901880F991F5D
:101E1000820F931F9C01220F331F220F331F820F4B
:101E2000931F9C012D513D4FCA01B9010E94D20858
:101E300089819A8101969A83898389819A818A30DE
:101E400091050CF4BBCF0E94CD0580E090E0A8EC9A
:101E5000B2E48B839C83AD83BE836B817C818D8157
:101E60009E8120E030E44CE955E40E94B929DC0170
:101E7000CB018F839887A987BA8711E06F81788516
:101E800089859A8520E030E040E85FE30E946B2876
:101E900088230CF010E0112329F081E090E09C876A
:101EA0008B8746C011E06F81788589859A8520E00F
:101EB0003FEF4FE757E40E94B52918160CF010E0E9
:101EC000112361F16B817C818D819E8120E030E066
:101ED00040E251E40E94B929DC01CB01BC01CD01F3
:101EE0000E94D728DC01CB019C878B8712C084EF2E
:101EF00091E09E878D878D859E858C01C801019715
:101F0000F1F78C011E870D878B859C8501979C8737
:101F10008B878B859C85009751F717C06F817885DB
:101F200089859A850E94D728DC01CB019C878B8705
:101F30008B859C85988B8F878F8598898C01C801AC
:101F40000197F1F78C01188B0F8760960FB6F89404
:101F5000DEBF0FBECDBFCF91DF911F910F910895CE
:101F6000DF93CF93CDB7DEB72F970FB6F894DEBFD0
:101F70000FBECDBFCE01049628E231E04CE0F9015E
:101F800000802F5F3F4FFC010082019641504423A7
:101F9000B1F7198226C11A821DC11B8214C190910A
:101FA000F1038981981709F0C1C09091F2038A81E9
:101FB000981709F0BBC09091F3038B81981709F033
:101FC000B5C08981E82FF0E08A81282F30E08B812D
:101FD000482F50E0CA01880F991F840F951FAC014C
:101FE000440F551F440F551F840F951F6CE370E07D
:101FF000E69FA001E79F500DF69F500D1124480F5A
:10200000591FC901880F991F820F931F9C01220F2E
:10201000331F220F331F820F931F880F991F840FC6
:10202000951F9C0127583C4F80E090E0A0E0B0E075
:10203000F90180839183A283B3838981682F70E043
:102040008A81482F50E08B81882F90E09C01220FDD
:10205000331F280F391FC901880F991F880F991F37
:10206000280F391FCA01880F991F840F951FAC01D3
:10207000440F551F440F551F840F951F880F991F3C
:10208000280F391F4CE350E0649FC001659F900DFD
:10209000749F900D1124820F931F9C0123583C4F75
:1020A00080E090E0A0E0B0E0F90180839183A2831A
:1020B000B3838981682F70E08A81482F50E08B813B
:1020C000882F90E09C01220F331F280F391FC90170
:1020D000880F991F880F991F280F391FCA01880F71
:1020E000991F840F951FAC01440F551F440F551FB6
:1020F000840F951F880F991F280F391F4CE350E05C
:10210000649FC001659F900D749F900D1124820FF4
:10211000931F9C012F573C4F80E090E0A0E0B0E07F
:10212000F90180839183A283B3834AC08981682F98
:1021300070E08A81482F50E08B81882F90E09C01CD
:10214000220F331F280F391FC901880F991F880FCD
:10215000991F280F391FCA01880F991F840F951FD7
:10216000AC01440F551F440F551F840F951F880F56
:10217000991F280F391F4CE350E0649FC001659FF1
:10218000900D749F900D1124820F931F9C0127586E
:102190003C4FCE010496B9010E946F0A8C819D814B
:1021A000AE81BF81BC01CD0120E030E040E05EE3C4
:1021B0000E940728DC01CB018C839D83AE83BF8303
:1021C0008B818F5F8B838B81823008F4E8CE8A818C
:1021D0008F5F8A838A81823008F4DFCE89818F5FA6
:1021E00089838981823008F4D6CE2F960FB6F89471
:1021F000DEBF0FBECDBFCF91DF910895DF93CF93A8
:10220000CDB7DEB727970FB6F894DEBF0FBECDBFB0
:102210009D838C837F836E838C819D81FC01808173
:1022200089833CC08C819D81FC0181818A8323C08C
:102230008C819D81FC0182818B830AC02E813F812C
:1022400089816A814B810E94BA078B818F5F8B8362
:102250008B81282F30E08C819D81FC018281882F29
:1022600090E00296281739071CF48B81843030F3F4
:102270008A818F5F8A838A81282F30E08C819D81BB
:10228000FC018181882F90E00296281739071CF401
:102290008A81843068F289818F5F89838981282FC0
:1022A00030E08C819D81FC018081882F90E0029636
:1022B0002817390724F48981843008F4B3CF27968E
:1022C0000FB6F894DEBF0FBECDBFCF91DF9108955A
:1022D000DF93CF9300D000D000D0CDB7DEB7198206
:1022E00056C01A824DC01B8244C08981880F8C83DE
:1022F0008A81880F8D838B81880F8E838981682FD7
:1023000070E08A81482F50E08B81882F90E09C01FB
:10231000220F331F280F391FC901880F991F880FFB
:10232000991F280F391FCA01880F991F840F951F05
:10233000AC01440F551F440F551F840F951F880F84
:10234000991F280F391F4CE350E0649FC001659F1F
:10235000900D749F900D1124820F931F9C0127589C
:102360003C4FCE010496B9010E94FE108B818F5F15
:102370008B838B81823008F4B8CF8A818F5F8A8308
:102380008A81823008F4AFCF89818F5F8983898108
:10239000823008F4A6CF26960FB6F894DEBF0FBEA3
:1023A000CDBFCF91DF910895DF93CF9300D000D0C0
:1023B0000F92CDB7DEB79C838B836D830E94F32A87
:1023C000AA2797FDA095BA2F2D81222F30E040E05B
:1023D00050E0BC01CD010E941C2ADC01CB012FEF93
:1023E0003FE740E050E0BC01CD010E943B2ADA010A
:1023F000C90189838981882F90E02B813C81820FDC
:10240000931FFC0180818A838A810F900F900F9027
:102410000F900F90CF91DF9108950F931F93DF934B
:10242000CF93CDB7DEB7E5970FB6F894DEBF0FBEFA
:10243000CDBF1982CE014B969B838A838091F10395
:10244000882389F08091F403843069F089818F5F5B
:1024500089838A819B8123E0FC0120838A819B817F
:1024600001969B838A838091F103882389F480916C
:10247000F403833069F089818F5F89838A819B812E
:1024800024E0FC0120838A819B8101969B838A83BF
:102490008091F203882389F08091F403813069F000
:1024A00089818F5F89838A819B8122E0FC0120835F
:1024B0008A819B8101969B838A838091F203882382
:1024C00089F48091F403823069F089818F5F898378
:1024D0008A819B8121E0FC0120838A819B81019676
:1024E0009B838A838091F303882389F08091F4038E
:1024F000853069F089818F5F89838A819B8126E09D
:10250000FC0120838A819B8101969B838A83809131
:10251000F303882389F48091F403863069F089817C
:102520008F5F89838A819B8125E0FC0120838A81DA
:102530009B8101969B838A83CE014B9669810E9481
:10254000D4118A878A858093F403CE01819621EF86
:1025500033E0B90143E050E00E94F32B8A85882FD5
:1025600090E083309105E1F0843091053CF48130B6
:10257000910571F08230910579F022C08530910586
:10258000B9F08530910584F086309105A9F018C026
:102590008AA18F5F8AA314C08AA181508AA310C028
:1025A00089A1815089A30CC089A18F5F89A308C02C
:1025B0008BA18F5F8BA304C08BA181508BA30000E4
:1025C00089A1682F70E08AA1482F50E08BA1882F45
:1025D00090E09C01220F331F280F391FC901880F7B
:1025E000991F880F991F280F391FCA01880F991F3B
:1025F000840F951FAC01440F551F440F551F840FC6
:10260000951F880F991F280F391F4CE350E0649FD6
:10261000C001659F900D749F900D1124820F931F30
:1026200087589C4F9C878B8780E090E0A0E0B0E0CB
:102630008CA39DA3AEA3BFA380E090E0A0E0B0E098
:1026400088A799A7AAA7BBA780E090E0A0E0B0E088
:102650008CA79DA7AEA7BFA789A1880F88AB8AA129
:10266000880F89AB8BA1880F8AAB8091F103880F0B
:102670008BAB8091F203880F8CAB8091F303880FB2
:102680008DAB1D821C821F821E821986188698A916
:102690008BA9981728F481E090E09D838C8308C073
:1026A00098A98BA9891720F48FEF9FEF9D838C83C6
:1026B00099A98CA9981728F481E090E09F838E83D4
:1026C00008C099A98CA9891720F48FEF9FEF9F83E9
:1026D0008E839AA98DA9981728F481E090E09987B4
:1026E000888708C09AA98DA9891720F48FEF9FEFDA
:1026F00099878887CE01C0969E012C5D3F4FB90116
:102700000E94FE1098A98C81890F88AB99A98E81AF
:10271000890F89AB9AA98885890F8AABCE01C096AB
:102720002B853C85B9010E94FE100E94CD0580E0FA
:1027300090E0A8E4B2E48D879E87AF87B88B6D8563
:102740007E858F85988920E030E44CE955E40E942D
:10275000B929DC01CB01898B9A8BAB8BBC8B11E047
:1027600069897A898B899C8920E030E040E85FE3C1
:102770000E946B2888230CF010E0112329F081E0DF
:1027800090E09E8B8D8B46C011E069897A898B8998
:102790009C8920E03FEF4FE757E40E94B5291816C7
:1027A0000CF010E0112361F16D857E858F8598898D
:1027B00020E030E040E251E40E94B929DC01CB0185
:1027C000BC01CD010E94D728DC01CB019E8B8D8BF3
:1027D00012C084EF91E0988F8F8B8F89988D8C0138
:1027E000C8010197F1F78C01188F0F8B8D899E8995
:1027F00001979E8B8D8B8D899E89009751F717C00D
:1028000069897A898B899C890E94D728DC01CB0150
:102810009E8B8D8B8D899E899A8F898F898D9A8DBC
:102820008C01F8013197F1F78F011A8F098FCE01D2
:10283000C0969E012D5C3F4FB90143E050E00E94DD
:10284000E62B009709F056CF8091F103682F70E0D6
:102850008091F203482F50E08091F303882F90E09D
:102860009C01220F331F280F391FC901880F991FA0
:10287000880F991F280F391FCA01880F991F840FCD
:10288000951FAC01440F551F440F551F840F951F12
:10289000880F991F280F391F4CE350E0649FC00137
:1028A000659F900D749F900D1124820F931FBC01A2
:1028B00067587C4F89A1E82FF0E08AA1482F50E0AB
:1028C0008BA1882F90E09C01220F331F280F391F06
:1028D000C901880F991F880F991F280F391FCA0136
:1028E000880F991F840F951FAC01440F551F440F8B
:1028F000551F840F951F880F991F280F391F4CE310
:1029000050E0E49FC001E59F900DF49F900D1124CD
:10291000820F931F9C0127583C4FCB01B9014CE01B
:1029200050E00E94F32B89A1682F70E08AA1482F04
:1029300050E08BA1882F90E09C01220F331F280FBD
:10294000391FC901880F991F880F991F280F391F38
:10295000CA01880F991F840F951FAC01440F551FA2
:10296000440F551F840F951F880F991F280F391F7B
:102970004CE350E0649FC001659F900D749F900DE3
:102980001124820F931F87589C4F9E012C5D3F4F4F
:10299000B9014CE050E00E94F32B81EF93E09E01DF
:1029A0002F5D3F4FB90143E050E00E94F32BE596C5
:1029B0000FB6F894DEBF0FBECDBFCF91DF911F9150
:1029C0000F9108950F931F93DF93CF93CDB7DEB789
:1029D0002E970FB6F894DEBF0FBECDBF0E946811D0
:1029E0000E94CD050E94F32AAA2797FDA095BA2F31
:1029F0002CE231E040E050E0BC01CD010E941C2AF5
:102A0000DC01CB012FEF3FE740E050E0BC01CD01FE
:102A10000E943B2ADA01C9010596A11DB11DBC0126
:102A2000CD010E940529DC01CB0189839A83AB8308
:102A3000BC8369817A818B819C8120E030E44CE900
:102A400055E40E94B929DC01CB018D839E83AF83BD
:102A5000B88711E06D817E818F81988520E030E01C
:102A600040E85FE30E946B2888230CF010E01123FC
:102A700029F081E090E09A87898746C011E06D8156
:102A80007E818F81988520E03FEF4FE757E40E94D9
:102A9000B52918160CF010E0112361F169817A81D3
:102AA0008B819C8120E030E040E251E40E94B92912
:102AB000DC01CB01BC01CD010E94D728DC01CB0198
:102AC0009A87898712C084EF91E09C878B878B85DA
:102AD0009C858C01C8010197F1F78C011C870B873D
:102AE00089859A8501979A87898789859A8500972C
:102AF00051F717C06D817E818F8198850E94D728FC
:102B0000DC01CB019A87898789859A859E878D8785
:102B10008D859E858C01C8010197F1F78C011E8778
:102B20000D870E940D122E960FB6F894DEBF0FBED1
:102B3000CDBFCF91DF911F910F9108950F931F93F8
:102B4000DF93CF93CDB7DEB7EC970FB6F894DEBF27
:102B50000FBECDBF84E690E09E838D8380E090E041
:102B6000A0E0B0E089AB9AABABABBCAB80E090E04F
:102B7000A0E0B0E08DAB9EABAFABB8AF80E090E033
:102B8000A0E0B0E089AF9AAFABAFBCAF198209C289
:102B90001A8200C21B82F7C11C82EEC180E090E065
:102BA000A0E8BFE389AB9AABABABBCAB9E012F5C9B
:102BB0003F4F8C816A814B810E94BA070E94CD05EC
:102BC0008D819E81CC01A0E0B0E0BC01CD010E94CE
:102BD0000329DC01CB018F839887A987BA876F818E
:102BE000788589859A8520E030E44CE955E40E9497
:102BF000B929DC01CB018B879C87AD87BE8711E0AB
:102C00006B857C858D859E8520E030E040E85FE324
:102C10000E946B2888230CF010E0112329F081E03A
:102C200090E0988B8F8746C011E06B857C858D8501
:102C30009E8520E03FEF4FE757E40E94B529181624
:102C40000CF010E0112361F16F81788589859A85F8
:102C500020E030E040E251E40E94B929DC01CB01E0
:102C6000BC01CD010E94D728DC01CB01988B8F8756
:102C700012C084EF91E09A8B898B89899A898C01A3
:102C8000C8010197F1F78C011A8B098B8F85988900
:102C90000197988B8F878F859889009751F717C078
:102CA0006B857C858D859E850E94D728DC01CB01B4
:102CB000988B8F878F8598899C8B8B8B8B899C8930
:102CC0008C01C8010197F1F78C011C8B0B8B80E004
:102CD00090E0A0E0B0E089AB9AABABABBCAB80E0DE
:102CE00090E0A0E8BFE38DAB9EABAFABB8AF9E0169
:102CF0002F5C3F4F8C816A814B810E94BA070E94F2
:102D0000CD058D819E81CC01A0E0B0E0BC01CD015C
:102D10000E940329DC01CB018D8B9E8BAF8BB88F7A
:102D20006D897E898F89988D20E030E44CE955E4E7
:102D30000E94B929DC01CB01898F9A8FAB8FBC8FA0
:102D400011E0698D7A8D8B8D9C8D20E030E040E81C
:102D50005FE30E946B2888230CF010E0112329F018
:102D600081E090E09E8F8D8F46C011E0698D7A8D55
:102D70008B8D9C8D20E03FEF4FE757E40E94B529F3
:102D800018160CF010E0112361F16D897E898F898E
:102D9000988D20E030E040E251E40E94B929DC0146
:102DA000CB01BC01CD010E94D728DC01CB019E8F55
:102DB0008D8F12C084EF91E098A38F8F8F8D98A193
:102DC0008C01C8010197F1F78C0118A30F8F8D8D2D
:102DD0009E8D01979E8F8D8F8D8D9E8D009751F7C3
:102DE00017C0698D7A8D8B8D9C8D0E94D728DC0150
:102DF000CB019E8F8D8F8D8D9E8D9AA389A389A1E6
:102E00009AA18C01C8010197F1F78C011AA309A3BB
:102E100080E090E0A0E0B0E08DAB9EABAFABB8AF90
:102E200080E090E0A0E8BFE389AF9AAFABAFBCAF62
:102E30009E012F5C3F4F8C816A814B810E94BA07B3
:102E40000E94CD058D819E81CC01A0E0B0E0BC0147
:102E5000CD010E940329DC01CB018BA39CA3ADA370
:102E6000BEA36BA17CA18DA19EA120E030E44CE922
:102E700055E40E94B929DC01CB018FA398A7A9A72B
:102E8000BAA711E06FA178A589A59AA520E030E046
:102E900040E85FE30E946B2888230CF010E01123C8
:102EA00029F081E090E09CA78BA746C011E06FA1BC
:102EB00078A589A59AA520E03FEF4FE757E40E9447
:102EC000B52918160CF010E0112361F16BA17CA15B
:102ED0008DA19EA120E030E040E251E40E94B9299A
:102EE000DC01CB01BC01CD010E94D728DC01CB0164
:102EF0009CA78BA712C084EF91E09EA78DA78DA5FC
:102F00009EA58C01C8010197F1F78C011EA70DA7A2
:102F10008BA59CA501979CA78BA78BA59CA500972B
:102F200051F717C06FA178A589A59AA50E94D72847
:102F3000DC01CB019CA78BA78BA59CA598AB8FA789
:102F40008FA598A98C01C8010197F1F78C0118ABE6
:102F50000FA780E090E0A0E0B0E089AF9AAFABAF00
:102F6000BCAF9E012F5C3F4F8C816A814B810E94D8
:102F7000BA078C818F5F8C838C81843008F40ECEED
:102F80008B818F5F8B838B81843008F405CE8A819F
:102F90008F5F8A838A81843008F4FCCD89818F5FBA
:102FA00089838981833008F4F3CDEC960FB6F894C9
:102FB000DEBF0FBECDBFCF91DF911F910F9108955E
:102FC000DF93CF93CDB7DEB760970FB6F894DEBF2F
:102FD0000FBECDBF198232C01A822AC01B8222C006
:102FE000CE01059624E331E04CE0F90100802F5F2B
:102FF0003F4FFC010082019641504423B1F71C82EF
:103000000BC09E012B5F3F4F8C816A814B810E94D8
:10301000BA078C818F5F8C838C81843090F38B8195
:103020008F5F8B838B818430D8F28A818F5F8A8314
:103030008A81843098F289818F5F89838981833086
:1030400058F20E94CD0560960FB6F894DEBF0FBE11
:10305000CDBFCF91DF9108950F931F93DF93CF934F
:10306000CDB7DEB76E970FB6F894DEBF0FBECDBFFB
:103070001982EAC01A82E1C01B82D8C080E090E0C9
:10308000A0E0B0E08B8B9C8BAD8BBE8B80E090E0A2
:10309000A0E0B0E08F8B988FA98FBA8F80E090E08E
:1030A000A0E0B0E08B8F9C8FAD8FBE8F8981882F81
:1030B00090E08130910571F082309105A1F0009788
:1030C000D9F480E090E0A0E8BFE38B8B9C8BAD8BC4
:1030D000BE8B12C080E090E0A0E8BFE38F8B988F9A
:1030E000A98FBA8F09C080E090E0A0E8BFE38B8F82
:1030F0009C8FAD8FBE8F000082E390E00E94A00500
:103100001C828DC09E012D5E3F4F8C816A814B8158
:103110000E94BA070E94CD0580E090E0A6E9B3E4E2
:103120008D839E83AF83B8876D817E818F819885E3
:1031300020E030E44CE955E40E94B929DC01CB01E0
:1031400089879A87AB87BC8711E069857A858B85EB
:103150009C8520E030E040E85FE30E946B288823F4
:103160000CF010E0112329F081E090E09E878D871C
:1031700046C011E069857A858B859C8520E03FEF0C
:103180004FE757E40E94B52918160CF010E0112300
:1031900061F16D817E818F81988520E030E040E291
:1031A00051E40E94B929DC01CB01BC01CD010E9490
:1031B000D728DC01CB019E878D8712C084EF91E078
:1031C000988B8F878F8598898C01C8010197F1F7BB
:1031D0008C01188B0F878D859E8501979E878D8723
:1031E0008D859E85009751F717C069857A858B85F7
:1031F0009C850E94D728DC01CB019E878D878D8519
:103200009E859A8B898B89899A898C01C80101973F
:10321000F1F78C011A8B098B8C818F5F8C838C81E9
:10322000843008F46FCF8B818F5F8B838B818430E8
:1032300008F424CF8A818F5F8A838A81843008F4DE
:103240001BCF89818F5F89838981833008F412CFF6
:103250006E960FB6F894DEBF0FBECDBFCF91DF9153
:103260001F910F9108950F931F93DF93CF93CDB7C5
:10327000DEB76E970FB6F894DEBF0FBECDBF1982D2
:1032800006C11A82FDC01B82F4C01C82EBC080E024
:1032900090E0A0E0B0E08B8B9C8BAD8BBE8B80E090
:1032A00090E0A0E0B0E08F8B988FA98FBA8F80E07C
:1032B00090E0A0E0B0E08B8F9C8FAD8FBE8F8981B6
:1032C000882F90E08130910571F082309105A1F056
:1032D0000097D9F480E090E0A0E8BFE38B8B9C8B53
:1032E000AD8BBE8B12C080E090E0A0E8BFE38F8B77
:1032F000988FA98FBA8F09C080E090E0A0E8BFE363
:103300008B8F9C8FAD8FBE8F00009E012D5E3F4F37
:103310008A816B814C810E94BA070E94CD0580E0B2
:1033200090E0A8ECB2E48D839E83AF83B8876D8173
:103330007E818F81988520E030E44CE955E40E943D
:10334000B929DC01CB0189879A87AB87BC8711E05B
:1033500069857A858B859C8520E030E040E85FE3D5
:103360000E946B2888230CF010E0112329F081E0E3
:1033700090E09E878D8746C011E069857A858B85B0
:103380009C8520E03FEF4FE757E40E94B5291816CF
:103390000CF010E0112361F16D817E818F819885A1
:1033A00020E030E040E251E40E94B929DC01CB0189
:1033B000BC01CD010E94D728DC01CB019E878D87FF
:1033C00012C084EF91E0988B8F878F8598898C014C
:1033D000C8010197F1F78C01188B0F878D859E85A9
:1033E00001979E878D878D859E85009751F717C021
:1033F00069857A858B859C850E94D728DC01CB0165
:103400009E878D878D859E859A8B898B89899A89E0
:103410008C01C8010197F1F78C011A8B098B80E0B0
:1034200090E0A0E0B0E08B8F9C8FAD8FBE8F8B8D36
:103430009C8DAD8DBE8D8F8B988FA98FBA8F8F8904
:10344000988DA98DBA8D8B8B9C8BAD8BBE8B9E017D
:103450002D5E3F4F8A816B814C810E94BA078C811F
:103460008F5F8C838C81843008F411CF8B818F5FC8
:103470008B838B81843008F408CF8A818F5F8A83A5
:103480008A81843008F4FFCE89818F5F89838981A6
:10349000833008F4F6CE6E960FB6F894DEBF0FBEFA
:1034A000CDBFCF91DF911F910F910895DF93CF93FF
:1034B000CDB7DEB780E090E00E94A0050E94CD0568
:1034C000CF91DF910895EF92FF920F931F93DF93B7
:1034D000CF93CDB7DEB7C655D0400FB6F894DEBF58
:1034E0000FBECDBF0E94F32AAA2797FDA095BA2F41
:1034F00029E130E040E050E0BC01CD010E941C2AEF
:10350000DC01CB012FEF3FE740E050E0BC01CD01F3
:103510000E943B2ADA01C9014496A11DB11D8D8F7D
:103520009E8FAF8FB8A384E690E0A0E0B0E08D8FCF
:103530009E8FAF8FB8A380E090E0A0E0BFE389A3A7
:103540009AA3ABA3BCA380E090E0A0E0B0E08DA381
:103550009EA3AFA3B8A785E089A769A17AA18BA193
:103560009CA12DA13EA14FA158A50E940628DC01D7
:10357000CB017C018D0189A5882F90E0A0E0B0E00F
:10358000BC01CD010E9403299B01AC01C801B70118
:103590000E946F28DC01CB018AA79BA7ACA7BDA71F
:1035A00089A5880F81508EA7E0904001F0904101DD
:1035B00000914201109143010E94F32AAA2797FD2E
:1035C000A095BA2FBC01CD010E940529DC01CB01D9
:1035D000BC01CD0120E03EEF4FEF56E40E946F2882
:1035E000DC01CB01BC01CD012BEA3AEA4AEA5EE3F9
:1035F0000E94B929DC01CB019C01AD01C801B701D2
:103600000E940728DC01CB01809340019093410187
:10361000A0934201B09343018091400190914101F8
:10362000A0914201B091430111E0BC01CD0120E025
:1036300030E040E85FE30E94B52988230CF410E0F5
:103640001123D1F08091400190914101A09142015C
:10365000B0914301BC01CD0120E030E040E85FE3E0
:103660000E940628DC01CB01809340019093410128
:10367000A0934201B09343016AA57BA58CA59DA5AB
:1036800020E030E040E450E40E94B929DC01CB01A5
:103690009C01AD016DA17EA18FA198A50E94062875
:1036A000DC01CB0189839A83AB83BC831D826BC110
:1036B00089819A81AB81BC818E839F83A887B987DA
:1036C00084E08A87C3C08E819F81A885B985809355
:1036D000480190934901A0934A01B0934B01809116
:1036E000480190914901A0914A01B0914B0111E02C
:1036F000BC01CD0129A13AA14BA15CA10E94B52931
:1037000018160CF010E0112369F089A19AA1ABA161
:10371000BCA18093480190934901A0934A01B093C2
:103720004B0122C08091480190914901A0914A012A
:10373000B0914B0111E0BC01CD012DA13EA14FA1E3
:1037400058A50E946B2888230CF010E0112361F02B
:103750008DA19EA1AFA1B8A5809348019093490186
:10376000A0934A01B0934B016E817F818885998532
:103770002AA53BA54CA55DA50E940728DC01CB012D
:103780008E839F83A887B98780E491E09E01255BA3
:103790003F4FB9010E946F0A1B8615C01C860CC0E2
:1037A0008A8581509E01255B3F4F6B854C850E9429
:1037B000BA078C858F5F8C879C858A85981780F3E4
:1037C0008B858F5F8B879B858A85981738F31D863D
:1037D00017C01E860EC08A85982F91509E01255BCA
:1037E0003F4F8E856D85492F0E94BA078E858F5F6A
:1037F0008E879E858A85981770F38D858F5F8D875C
:103800009D858A85981728F31F8617C0188A0EC0D1
:103810008A85982F91509E01255B3F4F8889692F9B
:103820004F850E94BA0788898F5F888B98898A851F
:10383000981770F38F858F5F8F879F858A8598177C
:1038400028F30E94CD058A8581508A878A8588233E
:1038500009F039CF0E94CD056D8D7E8D8F8D98A199
:103860000E940529DC01CB018FA798ABA9ABBAABAD
:103870006FA578A989A99AA920E030E44CE955E41C
:103880000E94B929DC01CB018BAB9CABADABBEABCD
:1038900011E06BA97CA98DA99EA920E030E040E849
:1038A0005FE30E946B2888230CF010E0112329F0BD
:1038B00081E090E098AF8FAB46C011E06BA97CA986
:1038C0008DA99EA920E03FEF4FE757E40E94B5295C
:1038D00018160CF010E0112361F16FA578A989A9E1
:1038E0009AA920E030E040E251E40E94B929DC01CD
:1038F000CB01BC01CD010E94D728DC01CB0198AFE0
:103900008FAB12C084EF91E09AAF89AF89AD9AADC9
:103910008C01C8010197F1F78C011AAF09AF8FA98B
:1039200098AD019798AF8FAB8FA998AD009751F7DD
:1039300017C06BA97CA98DA99EA90E94D728DC017C
:10394000CB0198AF8FAB8FA998AD9CAF8BAF8BADF0
:103950009CAD8C01F8013197F1F78F011CAF0BAFD3
:1039600069817A818B819C812AA53BA54CA55DA5A7
:103970000E940728DC01CB0189839A83AB83BC8337
:103980008D818F5F8D839D818EA5981708F490CED1
:1039900069817A818B819C812AA53BA54CA55DA577
:1039A0000E940628DC01CB0189839A83AB83BC8308
:1039B000198AC1C189819A81AB81BC818A8B9B8B19
:1039C000AC8BBD8B84E08E8BC9C08A899B89AC8906
:1039D000BD898093480190934901A0934A01B09317
:1039E0004B018091480190914901A0914A01B09109
:1039F0004B0111E0BC01CD0129A13AA14BA15CA171
:103A00000E94B52918160CF010E0112369F089A165
:103A10009AA1ABA1BCA18093480190934901A093C6
:103A20004A01B0934B0122C0809148019091490115
:103A3000A0914A01B0914B0111E0BC01CD012DA133
:103A40003EA14FA158A50E946B2888230CF010E0DE
:103A5000112361F08DA19EA1AFA1B8A5809348016B
:103A600090934901A0934A01B0934B016A897B89E5
:103A70008C899D892AA53BA54CA55DA50E94062899
:103A8000DC01CB018A8B9B8BAC8BBD8B80E491E0FE
:103A90009E01255B3F4FB9010E946F0A8E898150BC
:103AA0008F8B16C08E898150888F0CC08E89815073
:103AB0009E01255B3F4F6F89488D0E94BA07888D14
:103AC0008F5F888F888D843088F38F898F5F8F8B8D
:103AD0008F89843038F38E898150898F18C08E8900
:103AE00081508A8F0EC08E89982F91509E01255B40
:103AF0003F4F8A8D698D492F0E94BA078A8D8F5F4B
:103B00008A8F8A8D843078F3898D8F5F898F898D34
:103B1000843028F38E8981508B8F18C08E89815014
:103B20008C8F0EC08E89982F91509E01255B3F4F40
:103B30008C8D692F4B8D0E94BA078C8D8F5F8C8F77
:103B40008C8D843078F38B8D8F5F8B8F8B8D843051
:103B500028F30E94CD058E8981508E8B8E89882313
:103B600009F033CF0E94CD056D8D7E8D8F8D98A18C
:103B70000E940529DC01CB019E01235C3F4FF90126
:103B800080839183A283B3838E010F5B1F4FCE018D
:103B9000CD96FC01608171818281938120E030E4C7
:103BA0004CE955E40E94B929DC01CB01F80180837E
:103BB0009183A283B383CE018F5B9F4F11E0FC0101
:103BC000608171818281938120E030E040E85FE391
:103BD0000E946B2888230CF010E0112349F0CE01DD
:103BE0008B5B9F4F21E030E0FC013183208373C069
:103BF000CE018F5B9F4F11E0FC016081718182815A
:103C0000938120E03FEF4FE757E40E94B529181653
:103C10000CF010E0112309F44CC0CE01CD96FC014C
:103C2000608171818281938120E030E040E251E443
:103C30000E94B929DC01CB018E010B5B1F4FBC0137
:103C4000CD010E94D728DC01CB01F801918380834C
:103C500027C0CE01895B9F4F24EF31E0FC01318307
:103C60002083CE01895B9F4FFC01808191818C0173
:103C7000C8010197F1F78C01CE01895B9F4FFC01D0
:103C800011830083CE018B5B9F4F9E012B5B3F4FC7
:103C9000F9012081318121503040FC0131832083A2
:103CA000CE018B5B9F4FFC0180819181009789F64B
:103CB0002FC08E010B5B1F4FCE018F5B9F4FFC010E
:103CC00060817181828193810E94D728DC01CB01C0
:103CD000F80191838083CE01875B9F4F9E012B5B10
:103CE0003F4FF90120813181FC0131832083CE01D6
:103CF000875B9F4FFC01808191818C01C8010197F6
:103D0000F1F78C01CE01875B9F4FFC01118300838B
:103D100069817A818B819C812AA53BA54CA55DA5F3
:103D20000E940628DC01CB0189839A83AB83BC8384
:103D300089898F5F898B99898EA5981708F43ACE67
:103D4000CA5ADF4F0FB6F894DEBF0FBECDBFCF917A
:103D5000DF911F910F91FF90EF9008951F93DF93D4
:103D6000CF93CDB7DEB72C970FB6F894DEBF0FBE5A
:103D7000CDBF85EF93E09A83898380E090E0A0E057
:103D8000B0E08B839C83AD83BE8380E090E0A0E0B5
:103D9000BFE389879A87AB87BC8718861F8251C08B
:103DA00089819A81FC01108229813A818B819C81D1
:103DB000AD81BE81F90185AB96ABA7ABB0AF2981D0
:103DC0003A8180E090E0A0E8BFE3F90181AF92AFD3
:103DD000A3AFB4AF89819A81FC0111826B817C8190
:103DE0008D819E8129853A854B855C850E940728B7
:103DF000DC01CB018B839C83AD83BE8311E06B819F
:103E00007C818D819E8120E030E040E85FE30E946C
:103E1000B52988230CF410E0112341F080E090E0F4
:103E2000A0E0B0E08B839C83AD83BE8389819A81BF
:103E30008F5B9F4F9A8389838F819885019698879E
:103E40008F838F819885823091050CF4A9CF80E013
:103E500090E00E94A0050E94CD052C960FB6F89424
:103E6000DEBF0FBECDBFCF91DF911F910895DF93CD
:103E7000CF9300D00F92CDB7DEB79B838A8380E1CA
:103E800089832BC08A819B81AC014E5F5F4F898102
:103E9000282F30E0C901880F991F820F931F480F08
:103EA000591F8A819B81BC016E5F7F4F8981882F5A
:103EB00090E09C0121503040C901880F991F820F6A
:103EC000931F9B01280F391FCA01B90143E050E03D
:103ED0000E94F32B8981815089838981882391F6FF
:103EE0000F900F900F90CF91DF910895DF93CF93B4
:103EF00000D000D00F92CDB7DEB79C838B836D834B
:103F00000E94F32AAA2797FDA095BA2F2D81222F70
:103F100030E040E050E0BC01CD010E941C2ADC01F1
:103F2000CB012FEF3FE740E050E0BC01CD010E9404
:103F30003B2ADA01C90189838981882F90E02B818E
:103F40003C81820F931FFC0180818A838A810F90BC
:103F50000F900F900F900F90CF91DF910895DF9306
:103F6000CF93CDB7DEB764970FB6F894DEBF0FBE20
:103F7000CDBF9C8B8B8B8B899C89FC01808181318F
:103F800050F48B899C89FC018081282F2F5F8B89BD
:103F90009C89FC0120838B899C890E94371F8B8917
:103FA0009C8902969D838C838B899C89FC018081EE
:103FB000813009F058C00E94F32AAA2797FDA095E6
:103FC000BA2F880F991FAA1FBB1F880F991FAA1FFE
:103FD000BB1F2FEF3FE740E050E0BC01CD010E9446
:103FE0003B2ADA01C901282F8C819D81FC012083A5
:103FF0000E94F32AAA2797FDA095BA2F880F991F30
:10400000AA1FBB1F880F991FAA1FBB1F2FEF3FE7D7
:1040100040E050E0BC01CD010E943B2ADA01C90119
:10402000282F8C819D81FC0121830E94F32AAA27DD
:1040300097FDA095BA2F880F991FAA1FBB1F880F45
:10404000991FAA1FBB1F2FEF3FE740E050E0BC01C4
:10405000CD010E943B2ADA01C901282F8C819D8164
:10406000FC012283C2C11982CE0107969B838A83F9
:104070008C819D81FC018081882399F18B899C89A9
:10408000FC018181833069F189818F5F89838A8115
:104090009B8124E0FC0120838A819B8101969B8384
:1040A0008A838B899C89FC0181818430D1F4898148
:1040B0008F5F89838A819B8124E0FC0120838A8130
:1040C0009B8101969B838A8389818F5F89838A8103
:1040D0009B8124E0FC0120838A819B8101969B8344
:1040E0008A838C819D81FC018081833098F58B8946
:1040F0009C89FC018181843069F189818F5F89838A
:104100008A819B8123E0FC0120838A819B81019627
:104110009B838A838B899C89FC0181818330D1F4C4
:1041200089818F5F89838A819B8123E0FC012083C1
:104130008A819B8101969B838A8389818F5F898392
:104140008A819B8123E0FC0120838A819B810196E7
:104150009B838A838C819D81FC018181882399F1D5
:104160008B899C89FC018181813069F189818F5F14
:1041700089838A819B8122E0FC0120838A819B8143
:1041800001969B838A838B899C89FC018181823083
:10419000D1F489818F5F89838A819B8122E0FC0130
:1041A00020838A819B8101969B838A8389818F5F8B
:1041B00089838A819B8122E0FC0120838A819B8103
:1041C00001969B838A838C819D81FC018181833050
:1041D00098F58B899C89FC018181823069F1898104
:1041E0008F5F89838A819B8121E0FC0120838A8102
:1041F0009B8101969B838A838B899C89FC018181A9
:104200008130D1F489818F5F89838A819B8121E00C
:10421000FC0120838A819B8101969B838A8389810B
:104220008F5F89838A819B8121E0FC0120838A81C1
:104230009B8101969B838A838C819D81FC01828175
:10424000882399F18B899C89FC018181863069F1F1
:1042500089818F5F89838A819B8125E0FC0120838E
:104260008A819B8101969B838A838B899C89FC012F
:1042700081818530D1F489818F5F89838A819B8197
:1042800025E0FC0120838A819B8101969B838A83A0
:1042900089818F5F89838A819B8125E0FC0120834E
:1042A0008A819B8101969B838A838C819D81FC01FD
:1042B0008281833098F58B899C89FC0181818530CE
:1042C00069F189818F5F89838A819B8126E0FC0166
:1042D00020838A819B8101969B838A838B899C8919
:1042E000FC0181818630D1F489818F5F89838A8145
:1042F0009B8126E0FC0120838A819B8101969B8320
:104300008A8389818F5F89838A819B8126E0FC0172
:1043100020838A819B8101969B838A83CE010796A5
:1043200069810E94761F8E838B899C892E81FC0176
:1043300021838E81882F90E083309105F9F08430BD
:1043400091053CF48130910579F18230910509F1B4
:104350004CC08530910599F18530910524F0863067
:104360009105C1F142C08C819D81FC018081282F83
:1043700021508C819D81FC01208337C08C819D81DF
:10438000FC018081282F2F5F8C819D81FC0120837F
:104390002CC08C819D81FC018181282F21508C8132
:1043A0009D81FC01218321C08C819D81FC01818143
:1043B000282F2F5F8C819D81FC01218316C08C8169
:1043C0009D81FC018281282F21508C819D81FC01DF
:1043D00022830BC08C819D81FC018281282F2F5F5D
:1043E0008C819D81FC012283000064960FB6F894B5
:1043F000DEBF0FBECDBFCF91DF9108951F93DF9336
:10440000CF93CDB7DEB7A1970FB6F894DEBF0FBE3E
:10441000CDBF99A388A381EF90EFA0EFBCE38C837D
:104420009D83AE83BF8388A199A1FC0185A996A92C
:10443000A7A9B0ADBC01CD012CEA35EC47EA56E3A3
:104440000E940728DC01CB0128A139A1F90185AB25
:1044500096ABA7ABB0AF88A199A1FC0185A996A99D
:10446000A7A9B0AD11E0BC01CD0120E030E040E8EB
:104470005FE30E94B52988230CF410E0112359F062
:1044800028A139A180E090E0A0E0B0E0F90185AB7F
:1044900096ABA7ABB0AF88A199A1AC014E5F5F4FBF
:1044A00088A199A1FC018081882F90E09C01215076
:1044B0003040C901880F991F820F931F840F951FE9
:1044C0009A83898388A199A19C01235C3F4F80E056
:1044D00090E0A0E0B0E0F90180839183A283B383F0
:1044E0001B82A9C088A199A1CD96FC0180819181F0
:1044F000A281B381BC01CD012C813D814E815F81C0
:104500000E940728DC01CB0128A139A1235C3F4F81
:10451000F90180839183A283B38388A199A1CD9669
:10452000FC0180819181A281B38111E0BC01CD01A8
:1045300020E030E040E05FE30E94B52918160CF05F
:1045400010E0112351F488A199A19C012E5F3F4FE7
:1045500089819A812817390771F488A199A19C0152
:10456000235C3F4F80E090E0A0E0BFE3F90180834F
:104570009183A283B38388A199A1C5969E01285FE8
:104580003F4FB9010E946F0A89819A819E012C5E7A
:104590003F4FB9010E94F6088C899D89AE89BF8979
:1045A000BC01CD0120E030E040E050E00E946B28EB
:1045B0008823E1F4888D998DAA8DBB8DBC01CD0136
:1045C00020E030E040E050E00E946B28882371F446
:1045D0008C8D9D8DAE8DBF8DBC01CD0120E030E076
:1045E00040E050E00E946B288823A9F0CE01449659
:1045F0009E01285F3F4FB90120E030E040E05FE3DB
:104600000E94CA0B89819A819E012C5E3F4FB9019D
:104610000E94D20808C089819A819E01285F3F4F7D
:10462000B9010E94D20889819A8103979A8389836C
:104630008B818F5F8B8388A199A1FC0190818B81F5
:10464000891708F44FCFA1960FB6F894DEBF0FBEBE
:10465000CDBFCF91DF911F9108950F931F93DF93EB
:10466000CF93CDB7DEB762970FB6F894DEBF0FBE1B
:10467000CDBF85EF93E09A83898380E090E00E942C
:10468000A0051C821B8213C089819A810E94AF1FE2
:1046900089819A810E94FE2189819A818F5B9F4F37
:1046A0009A8389838B819C8101969C838B838B81E8
:1046B0009C818230910544F30E94CD0580E090E01A
:1046C000A4E3B2E48D839E83AF83B8876D817E813E
:1046D0008F81988520E030E44CE955E40E94B929A7
:1046E000DC01CB0189879A87AB87BC8711E069859C
:1046F0007A858B859C8520E030E040E85FE30E946E
:104700006B2888230CF010E0112329F081E090E061
:104710009E878D8746C011E069857A858B859C854B
:1047200020E03FEF4FE757E40E94B52918160CF040
:1047300010E0112361F16D817E818F81988520E0E9
:1047400030E040E251E40E94B929DC01CB01BC0118
:10475000CD010E94D728DC01CB019E878D8712C036
:1047600084EF91E0988B8F878F8598898C01C801A1
:104770000197F1F78C01188B0F878D859E85019726
:104780009E878D878D859E85009751F717C0698517
:104790007A858B859C850E94D728DC01CB019E877A
:1047A0008D878D859E859A8B898B89899A898C01C5
:1047B000C8010197F1F78C011A8B098B62960FB62D
:1047C000F894DEBF0FBECDBFCF91DF911F910F9147
:1047D0000895A8952F930F931F93AF93BF93BFB7DF
:1047E000BF93A0910E01B0910F0107E714E0A0174D
:1047F000B10711F4A7EFB5E007E100930D01209197
:1048000080002F7D20938000299A299800915501DE
:10481000003029F4439A459A4598439802C0459A36
:1048200045982091800020622093800003950031FC
:1048300008F00027009355011E911EBDA0930E01A4
:10484000B0930F01BF91BFBFBF91AF911F910F9167
:104850002F911895611571058105910521F4FA01D3
:1048600080E3819315C0DA019B012170307021151E
:10487000310511F021E301C020E32D93FD01969550
:10488000879577956795611571058105910561F7A4
:10489000CF010895A3E1B0E0E0E5F4E20C94562ADC
:1048A0005C017D876C87FC0117821682838181FD04
:1048B00003C0A5C3A10105C09E012F5F3F4F3B8BE5
:1048C0002A8BF5019381EC85FD8593FD859193FFFE
:1048D0008191FD87EC87882309F48DC3853241F4EB
:1048E00093FD859193FF8191FD87EC87853251F48B
:1048F00090E0B501488B598B0E94072C4889598953
:104900001A01D8CF10E0FF2400E00032B0F48B325F
:1049100069F08C3228F4803251F0833271F40BC08C
:104920008D3239F0803349F401602CC0026004609C
:1049300029C0086027C0006125C007FD2EC0282FB0
:1049400020532A3098F406FF08C0812F880F182FB3
:10495000110F110F180F120F15C08F2D880FF82E81
:10496000FF0CFF0CF80EF20E00620CC08E3221F428
:1049700006FD41C3006406C08C3611F4006802C015
:10498000883659F4EC85FD8593FD859193FF8191DF
:10499000FD87EC87882309F0B8CF982F9554933082
:1049A00018F40061805E06C0982F9556933008F089
:1049B000A5C10F7E06FF16E0EFE3EE2EE02285365E
:1049C00019F4F0E4EF2A07C0863619F420E8E22A49
:1049D00002C011111150E7FE06C01C3340F4912EA5
:1049E000939427E00BC0183030F4212F06C027E045
:1049F0007CE3972E03C027E017E0992464E0262E7D
:104A0000312C240E351EFA016081718182819381DF
:104A1000AE014F5F5F4F092D0E94032B6C0169802F
:104A2000262D30E03F872E8760FE03C03E8533FF92
:104A300006C0E1FC06C0E2FE06C000E205C00DE2D1
:104A400003C00BE201C000E08E859F858C709070E2
:104A50000097C1F1002311F084E001C083E08F15BD
:104A600058F4F81AE3FC09C080E290E0B5010E9416
:104A7000072CFA94C9F701C0FF24002329F0802FE6
:104A800090E0B5010E94072C8E8583FD03C00CE6E3
:104A900010E00EC008E610E00BC0C114D10409F00C
:104AA000805290E0B5010E94072C0F5F1F4F05C098
:104AB000CE2CDD2490E1C922DD24F80184918823E5
:104AC00061F796C2E7FE0EC09C0CFE85F4FF04C0A1
:104AD0008A81813309F49A94191454F5292D2930C7
:104AE00050F52DC0E6FC2BC0812F90E08C159D0564
:104AF0004CF03CEFC3163FEFD30624F080E8E82AE1
:104B000001C01150112349F0E2E0F0E0EC0FFD1F6D
:104B1000E10FF11D80818033A1F3E7FE10C0912EDB
:104B20009394812F90E0C816D90644F41C1907C04D
:104B30009924939404C038E0932E01C010E0E7FE5E
:104B400007C01C141D043CF496012F5F3F4F05C0A5
:104B500025E030E002C021E030E0002311F02F5FBB
:104B60003F4F112329F0812F90E00196280F391F24
:104B70008F2D90E02817390714F4F21A01C0FF2492
:104B80004E2C5524C20189709070009749F406C0DC
:104B900080E290E0B5010E94072CFA94FF20C1F753
:104BA000002329F0802F90E0B5010E94072C43FCE0
:104BB00009C006C080E390E0B5010E94072CFA947A
:104BC000FF20C1F7E7FE4AC03601D7FE02C06624C7
:104BD000772426010894411C511C46185708E1E02F
:104BE000F0E0EC0FFD1F4E0E5F1E960129193109F2
:104BF0004901812F90E000271127081B190B3FEF77
:104C000063163FEF730629F48EE290E0B5010E942F
:104C1000072CC614D70434F0861497041CF4F20150
:104C2000808101C080E30894610871080894411CE8
:104C3000511C601671062CF090E0B5010E94072C03
:104C4000DECF6C147D0441F49A81963320F49533C1
:104C500019F4FE85F4FF81E390E04CC08A81813332
:104C600011F02FEE622290E0B5010E94072C112373
:104C7000A1F08EE290E0B5010E94072C02E0E1E095
:104C8000F0E0EC0FFD1FE00FF11D0F5F808190E061
:104C9000B5010E94072C115091F744FE03C085E432
:104CA00090E002C085E690E0B5010E94072CD7FC99
:104CB00005C0C114D10441F464FE06C0D094C1946F
:104CC000D108D3948DE201C08BE290E0B5010E943F
:104CD000072C80E305C08F5FE6EFFFEFCE0EDF1EEF
:104CE000FAE0CF16D104BCF790E0B5010E94072C82
:104CF000C601C096B5010E94072C7AC1833631F0F7
:104D00008337A1F0833509F05CC025C022E0222E54
:104D1000312C240E351EFA01808189833E010894CE
:104D2000611C711C91E0C92ED12C13C082E0282E89
:104D3000312C240E351EFA016080718006FF03C0FD
:104D4000612F70E002C06FEF7FEFC3010E94FC2B68
:104D50006C010F7714C0B2E02B2E312C240E351EBF
:104D6000FA016080718006FF03C0612F70E002C00D
:104D70006FEF7FEFC3010E94DB2B6C01006803FD26
:104D80001CC006C080E290E0B5010E94072CFA9496
:104D90008F2D90E0C816D906A8F30FC0F30107FDC8
:104DA000859107FF81913F0190E0B5010E94072C9A
:104DB000F110FA940894C108D108C114D10471F714
:104DC00017C1843611F0893661F507FF0BC0A4E0E6
:104DD0002A2E312C240E351EFA01608171818281C8
:104DE00093810CC0F2E02F2E312C240E351EFA01D7
:104DF00060817181882777FD8095982F0F7697FFC6
:104E000008C090958095709561957F4F8F4F9F4F0B
:104E10000068AE014F5F5F4F2AE030E00E94332C04
:104E200065C0853721F40F7E2AE030E022C0097F7B
:104E30008F36B9F0803730F4883579F0823609F052
:104E4000DAC038C0803721F0883709F0D4C001C0FB
:104E5000006104FF09C0046007C004FF08C00660C9
:104E600006C028E030E005C020E130E002C020E1CB
:104E700032E007FF0BC0E4E02E2E312C240E351E4D
:104E8000FA0160817181828193810AC072E0272ECC
:104E9000312C240E351EFA016081718180E090E092
:104EA000AE014F5F5F4F0E94332C982EFA899F1AF4
:104EB0000F771FC007FF0BC064E0262E312C240E95
:104EC000351EFA0160817181828193810AC032E0CE
:104ED000232E312C240E351EFA016081718180E071
:104EE00090E0AE014F5F5F4F0E942A24982EFA890E
:104EF0009F1A06FF09C00E7F911630F404FF06C00A
:104F000002FD04C00F7E02C0E92C01C0E12E802FFB
:104F100090E004FF0CC0FE01E90DF11D208120335B
:104F200011F4097E09C0E39402FF06C004C086782C
:104F30009070009709F0E394C02EDD2403FD14C0A7
:104F400000FF0FC0EF1428F4192D1F0D1E19EF2CB0
:104F500008C0192D06C080E290E0B5010E94072C20
:104F6000E394EF14C0F304C0EF1410F4FE1801C072
:104F7000FF24C4FE0FC080E390E0B5010E94072C1F
:104F8000C2FE1FC0C1FE03C088E590E010C088E7E4
:104F900090E00DC0C60186789070009791F0C1FC3A
:104FA00002C080E201C08BE207FD8DE290E0B50116
:104FB0000E94072C06C080E390E0B5010E94072CF8
:104FC00011509116C0F39A94E1E0F0E0EC0FFD1F50
:104FD000E90DF11D808190E0B5010E94072C992018
:104FE00091F706C080E290E0B5010E94072CFA9488
:104FF000FF20C1F75FCCF5012681378102C02FEF7A
:105000003FEFC9016396E2E10C94722A5058BB2726
:10501000AA270ED070C161D130F066D120F031F4F2
:105020009F3F11F41EF456C10EF4E095E7FB4CC10E
:10503000E92F72D180F3BA176207730784079507C7
:1050400018F071F49EF58AC10EF4E0950B2EBA2F7C
:10505000A02D0B01B90190010C01CA01A00111247E
:10506000FF27591B99F0593F50F4503E68F11A162A
:10507000F040A22F232F342F4427585FF3CF4695BB
:1050800037952795A795F0405395C9F77EF41F16DD
:10509000BA0B620B730B840BBAF09150A1F0FF0FA7
:1050A000BB1F661F771F881FC2F70EC0BA0F621F93
:1050B000731F841F48F4879577956795B795F79583
:1050C0009E3F08F0B3CF9395880F08F09927EE0F15
:1050D000979587950895D4D008F481E008950CD071
:1050E0000AC102D140F0F9D030F021F45F3F19F04D
:1050F000EBC0511134C1EEC00FD198F39923C9F31D
:105100005523B1F3951B550BBB27AA2762177307CD
:10511000840738F09F5F5F4F220F331F441FAA1F81
:10512000A9F333D00E2E3AF0E0E830D09150504041
:10513000E695001CCAF729D0FE2F27D0660F771FEF
:10514000881FBB1F261737074807AB07B0E809F0D1
:10515000BB0B802DBF01FF2793585F4F2AF09E3F66
:10516000510568F0B1C0FBC05F3FECF3983EDCF343
:10517000869577956795B795F7959F5FC9F7880FDF
:10518000911D9695879597F90895E1E0660F771F31
:10519000881FBB1F621773078407BA0720F0621BC2
:1051A000730B840BBA0BEE1F88F7E0950895BCD003
:1051B00088F09F5790F0B92F9927B751A0F0D1F000
:1051C000660F771F881F991F1AF0BA95C9F712C08A
:1051D000B13081F0C3D0B1E00895C0C0672F782FFF
:1051E0008827B85F39F0B93FCCF3869577956795F6
:1051F000B395D9F73EF490958095709561957F4F62
:105200008F4F9F4F0895E89409C097FB3EF4909507
:105210008095709561957F4F8F4F9F4F9923A9F08F
:10522000F92F96E9BB279395F6958795779567951E
:10523000B795F111F8CFFAF4BB0F11F460FF1BC062
:105240006F5F7F4F8F4F9F4F16C0882311F096E9F5
:1052500011C0772321F09EE8872F762F05C06623A3
:1052600071F096E8862F70E060E02AF09A95660F5C
:10527000771F881FDAF7880F9695879597F9089515
:10528000990F0008550FAA0BE0E8FEEF1616170657
:10529000E807F907C0F012161306E407F50798F0BF
:1052A000621B730B840B950B39F40A2661F0232BD8
:1052B000242B252B21F408950A2609F4A140A69554
:1052C0008FEF811D811D089597F99F6780E870E039
:1052D00060E008959FEF80EC089500240A9416166C
:1052E000170618060906089500240A9412161306D4
:1052F000140605060895092E0394000C11F4882362
:1053000052F0BB0F40F4BF2B11F460FF04C06F5F7D
:105310007F4F8F4F9F4F089557FD9058440F551F53
:1053200059F05F3F71F04795880F97FB991F61F027
:105330009F3F79F087950895121613061406551F9E
:10534000F2CF4695F1DF08C0161617061806991F0A
:10535000F1CF86957105610508940895E894BB27FF
:1053600066277727CB0197F908958ADF08F48FEF36
:1053700008950BD0C0CFB1DF28F0B6DF18F0952329
:1053800009F0A2CFA7CF1124EACFC6DFA0F3959FE3
:10539000D1F3950F50E0551F629FF001729FBB271C
:1053A000F00DB11D639FAA27F00DB11DAA1F649FC8
:1053B0006627B00DA11D661F829F2227B00DA11D7B
:1053C000621F739FB00DA11D621F839FA00D611D01
:1053D000221F749F3327A00D611D231F849F600D22
:1053E000211D822F762F6A2F11249F5750408AF05B
:1053F000E1F088234AF0EE0FFF1FBB1F661F771FE7
:10540000881F91505040A9F79E3F510570F05CCF26
:10541000A6CF5F3FECF3983EDCF3869577956795D2
:10542000B795F795E7959F5FC1F7FE2B880F911D04
:105430009695879597F90895629FD001739FF00123
:10544000829FE00DF11D649FE00DF11D929FF00D14
:10545000839FF00D749FF00D659FF00D9927729F4B
:10546000B00DE11DF91F639FB00DE11DF91FBD01D6
:10547000CF011124089597FB092E05260ED057FD64
:1054800004D04BD00AD0001C38F45095409530958C
:1054900021953F4F4F4F5F4F0895F6F790958095B8
:1054A000709561957F4F8F4F9F4F08952F923F9238
:1054B0004F925F926F927F928F929F92AF92BF9224
:1054C000CF92DF92EF92FF920F931F93CF93DF93D0
:1054D000CDB7DEB7CA1BDB0B0FB6F894DEBF0FBE2D
:1054E000CDBF09942A88398848885F846E847D847A
:1054F0008C849B84AA84B984C884DF80EE80FD807C
:105500000C811B81AA81B981CE0FD11D0FB6F894F1
:10551000DEBF0FBECDBFED010895A1E21A2EAA1B7A
:10552000BB1BFD010DC0AA1FBB1FEE1FFF1FA21753
:10553000B307E407F50720F0A21BB30BE40BF50B50
:10554000661F771F881F991F1A9469F760957095D9
:10555000809590959B01AC01BD01CF010895A0E01D
:10556000B0E0E5EBFAE20C945E2AEC016881798107
:105570008A819B81611571058105910521F464E2A1
:1055800079ED8BE597E02DE133EF41E050E00E94AB
:105590003B2A79018A0127EA31E440E050E00E9489
:1055A0001C2A5B016C01C801B7012CEE34EF4FEFF0
:1055B0005FEF0E941C2A6A0D7B1D8C1D9D1D97FFAD
:1055C00004C06150704080409048688379838A832A
:1055D0009B837F77CB01CDB7DEB7EAE00C947A2AC4
:1055E0000E94AF2A08958CE491E00E94AF2A0895AA
:1055F000A0E0B0E080934C0190934D01A0934E0148
:10560000B0934F010895283008F027E03327DA01DE
:10561000990F311D87FD916000966105710539F480
:1056200032602E5F3D9330E32A95E1F708959F3F66
:1056300030F080387105610509F03C5F3C5F3D93B7
:10564000913008F08068911DDF93CF931F930F93E3
:10565000FF92EF92192F987F9695E92F9695969540
:10566000E90FFF27E653FF4F99273327EE24FF2446
:10567000A701E70105900894079428F4360FE71E68
:10568000F81E491F511D660F771F881F991F06942A
:10569000A1F70590079428F4E70EF81E491F561F3E
:1056A000C11D770F881F991F661F0694A1F70590EB
:1056B000079428F4F80E491F561FC71FD11D880FE5
:1056C000991F661F771F0694A1F70590079420F491
:1056D000490F561FC71FD81F990F661F771F881FB6
:1056E0000694A9F784911095177041F0D695C79547
:1056F00057954795F794E7941A95C1F7E0E7F0E0DE
:1057000068941590159135916591959105907FE27A
:105710007395E118F10A430B560BC90BD009C0F77A
:10572000E10CF11E431F561FC91FD01D7EF47033BC
:1057300011F48A95E6CFE894015030F0080F0AF48E
:105740000027021708F4202F2395022F7A3328F020
:1057500079E37D932A95E9F710C07D932A9589F620
:10576000069497956795379517951794E118F10A60
:10577000430B560BC90BD00998F023957E91739576
:105780007A3308F070E37C932013B8F77E91706150
:105790007D9330F0839571E37D9370E32A95E1F773
:1057A0001124EF90FF900F911F91CF91DF919927D6
:1057B00087FD90950895FC0105906150704001109F
:1057C000D8F7809590958E0F9F1F0895FB01DC01FF
:1057D00004C08D910190801921F441505040C8F7C8
:1057E000881B990B0895FB01DC0102C001900D920A
:1057F00041505040D8F70895FC016150704001902D
:105800000110D8F7809590958E0F9F1F08950F93E4
:105810001F93CF93DF938C01EB018B8181FF1BC022
:1058200082FF0DC02E813F818C819D812817390711
:1058300064F4E881F9810193F983E88306C0E8857F
:10584000F985802F0995009731F48E819F8101960B
:105850009F838E8302C00FEF1FEFC801DF91CF91AE
:105860001F910F910895FA01AA27283051F1203194
:1058700081F1E8946F936E7F6E5F7F4F8F4F9F4FE4
:10588000AF4FB1E03ED0B4E03CD0670F781F891F26
:105890009A1FA11D680F791F8A1F911DA11D6A0FF4
:1058A000711D811D911DA11D20D009F468943F91A7
:1058B0002AE0269F11243019305D3193DEF6CF01A6
:1058C0000895462F4770405D4193B3E00FD0C9F76C
:1058D000F6CF462F4F70405D4A3318F0495D31FDD9
:1058E0004052419302D0A9F7EACFB4E0A69597952C
:1058F000879577956795BA95C9F700976105710502
:1059000008959B01AC010A2E06945795479537954B
:105910002795BA95C9F7620F731F841F951FA01DA5
:105920000895DC01CB01FC01F999FECF06C0F2BD60
:10593000E1BDF89A319600B40D9241505040B8F74D
:105940000895DC01CB0103C02D910E94AC2C415085
:105950005040D0F70895262FF999FECF1FBA92BD77
:1059600081BD20BD0FB6F894FA9AF99A0FBE019640
:065970000895F894FFCF3A
:10597600000000000000803F0000003F0218DF0525
:1059860000007C4200004842000048420AD7A33E7D
:105996000000803F0000003F000000000000803F44
:1059A6000000003F0000803F0000803F0000803F75
:1059B600000000000000803F0000003F01000000E2
:00000001FF
