:100000000C94B5000C94D2000C94D2000C94D20045
:100010000C94D2000C94D2000C94D2000C94D20018
:100020000C94D2000C94D2000C94D2000C94D20008
:100030000C94D2000C945A1A0C94D2000C94D20056
:100040000C94D2000C94D2000C94D2000C94D200E8
:100050000C94D2000C94D2000C94D2000C94D200D8
:100060000C94D2000C94D2006E616E00696E660032
:1000700000407A10F35A00A0724E18090010A5D45F
:10008000E80000E87648170000E40B54020000CABC
:100090009A3B000000E1F505000080969800000002
:1000A00040420F000000A086010000001027000061
:1000B0000000E803000000006400000000000A00E7
:1000C000000000000100000000002C76D888DC67EA
:1000D0004F0823DFC1DFAE59E1B1B796E5E3E45342
:1000E000C63AE651997696E8E6C28426EB898C9B5F
:1000F00062ED407C6FFCEFBC9C9F40F2BAA56FA5FF
:10010000F490055A2AF75C936B6CF9676DC11BFC80
:10011000E0E40D47FEF520E6B500D0ED902E03009B
:10012000943577050080841E080000204E0A0000E8
:1001300000C80C333333330F986E12831141EF8DA7
:100140002114893BE65516CFFEE6DB18D1844B38E7
:100150001BF77C1D901DA4BBE424203284725E2218
:100160008100C9F124ECA1E53D2711241FBECFEF8A
:10017000D8E0DEBFCDBF11E0A0E0B1E0EAE9F6E4EF
:1001800002C005900D92AA32B107D9F715E0AAE294
:10019000B1E001C01D92AA34B107E1F70E94D4007A
:1001A0000C944B230C9400000F931F93DF93CF9379
:1001B000CDB7DEB728970FB6F894DEBF0FBECDBF20
:1001C0008E010B5F1F4FC80160E070E044E050E01B
:1001D0000E9423238D819E81AF81B8850E94932147
:1001E0008D819E81AF81B8850196A11DB11D8D8342
:1001F0009E83AF83B887C80160E070E044E050E0C0
:100200000E9433230E948E0680E090E00E94B30299
:100210000E949F0F19821A821B821C820E947415F1
:1002200089819A81AB81BC810196A11DB11D898311
:100230009A83AB83BC83F2CFEF92FF920F931F930D
:10024000DF93CF9300D000D0CDB7DEB780E0E82EAB
:1002500080E0F82E8E010F5F1F4FC801B70144E008
:1002600050E00E94232389819A81AB81BC810E9446
:10027000932189819A81AB81BC810196A11DB11D19
:1002800089839A83AB83BC83C801B70144E050E003
:100290000E9433230F900F900F900F90CF91DF911A
:1002A0001F910F91FF90EF9008958DE380937E0052
:1002B000089583E28093B00021E02093B40083E0AE
:1002C0008093B30089E08093B10080E28093800046
:1002D00081E090E0909389008093880082E090E034
:1002E00090938B0080938A0080E090E19093870048
:1002F0008093860081E18093810020936F00789441
:100300000895229A2A9A239A259A2D9880E58CBDE1
:100310008DB581608DBD08959CB5259A8CB58F7B78
:100320008CBD2D9A2D989CBD0895982F96959695E5
:10033000E92FEE0FE90FF0E0E455FD4FDF011196D4
:10034000990F990F891B8130C1F0813028F08230DC
:1003500021F1833039F008958081807C6F73862B82
:1003600080830895660F660F11968C9111978370A4
:10037000682B11966C931197089590819F73862F27
:100380008295880F880F807C892B8083669566957F
:100390008181807F682B61830895862F8295807F7D
:1003A00091819F70892B818362956F7011968C91DA
:1003B00011978C7F682B11966C93119708950F936A
:1003C0001F93582F082F0295000F000F007C182F45
:1003D00016951695782F7295707F682F62956F70BD
:1003E000550F550F20E030E08F7309C09081907C4D
:1003F000982B90832F5F3F4F2031310521F1422F01
:10040000922F96959695E92FEE0FE90FF0E0E455BF
:10041000FD4FDF011196990F990F491B413019F1DA
:10042000413020F3423091F0433021F711969C91F6
:1004300011979370952B11969C9311972F5F3F4FB7
:1004400020313105E1F61F910F91089591819F7040
:10045000972B918311969C9111979C7F962B1196C7
:100460009C931197C7CF90819F73902B908391811C
:10047000907F912B9183BECF0E9496198091B702F5
:1004800090E00E94DB198091B60290E00E94DB1997
:100490008091B50290E00E94DB198091B40290E057
:1004A0000E94DB198091B30290E00E94DB198091D9
:1004B000B20290E00E94DB198091B10290E00E94AC
:1004C000DB198091B00290E00E94DB198091AF02AD
:1004D00090E00E94DB198091AE0290E00E94DB194F
:1004E0008091AD0290E00E94DB198091AC0290E017
:1004F0000E94DB190E9498190E94271A9CB5259A20
:100500008CB58F7B8CBD2D9A2D989CBD0895982F0E
:100510009695E8E16E9FF0011124292F220F290FF3
:10052000E20FF11DE45DFE4FDF011196990F891B6B
:1005300031F440838181807F852B818308958130D0
:1005400009F00895842F8295807F91819F70892B77
:100550008183529542954F7045275F7045271196CC
:100560004C9311970895282F592F482F4295407F7B
:10057000929582958F7089279F708927382FECE29A
:10058000F1E080E090E0DC01A45DBE4F2083652FA8
:100590006F70642B11966C93119712963C93DC014B
:1005A000A15DBE4F2383652F6F70642B11966C93F2
:1005B000119712963C93DC01AE5CBE4F2683652FEB
:1005C0006F70642B11966C93119712963C93DC011B
:1005D000AB5CBE4F2187652F6F70642B11966C93B7
:1005E000119712963C93DC01A85CBE4F2487652FBF
:1005F0006F70642B11966C93119712963C93DC01EB
:10060000A55CBE4F2787652F6F70642B11966C9386
:10061000119712963C93DC01A25CBE4F228B652F92
:100620006F70642B11966C93119712963C93DC01BA
:10063000AF5BBE4F258B652F6F70642B11966C934B
:10064000119712963C9312974896789661E08038FD
:10065000960709F098CF0895F894AAECB3E0ECE27D
:10066000F1E080E891E001900D920197E1F7789434
:1006700008950F931F93CF93DF93EC016C817D81DD
:100680008E819F810E94721F162F688179818A81D5
:100690009B810E94721F6F73812F8295880F880F34
:1006A000807C862B8093AC02688579858A859B85C2
:1006B0000E94721F862F8295807F169516951F7057
:1006C000812B8093AD021091AE021C7F62956F70FA
:1006D000162B1093AE021370688179818A819B81F9
:1006E0000E94721F660F660F612B6093AE026885D1
:1006F00079858A859B850E94721F062F6C817D817A
:100700008E819F810E94721F6F73802F8295880F48
:10071000880F807C862B8093AF021091B002107FEF
:1007200006950695102B1093B002688179818A8115
:100730009B810E94721F862F8295807F1F70812B64
:100740008093B0021091B1021C7F62956F70162BDE
:100750001093B10213706C817D818E819F810E9404
:10076000721F660F660F612B6093B1021091B20287
:10077000107C688579858A859B850E94721F6F73BE
:10078000162B1093B202688179818A819B810E9425
:10079000721F1F73862F8295880F880F807C812B94
:1007A0008093B2021091B302107F66956695162B66
:1007B0001093B3026C817D818E819F810E94721F94
:1007C000862F8295807F1F70812B8093B3021091BA
:1007D000B4021C7F62956F70162B1093B4021370D5
:1007E000688579858A859B850E94721F660F660FD2
:1007F000612B6093B402DF91CF911F910F91089507
:100800002898209A2A9A229A539A219A83E28093CE
:10081000B00021E02093B40083E08093B30089E02E
:100820008093B10080E28093800081E090E090931B
:1008300089008093880082E090E090938B00809301
:100840008A0080E090E1909387008093860081E1A8
:100850008093810020936F007894229A2A9A239A99
:10086000259A2D9880E58CBD8DB581608DBDECE21B
:10087000F1E080E090E0DC01A45DBE4F10821196B3
:100880001C92119712961C92DC01A15DBE4F13823F
:1008900011961C92119712961C92DC01AE5CBE4F11
:1008A000168211961C92119712961C92DC01AB5C79
:1008B000BE4F118611961C92119712961C92DC0164
:1008C000A85CBE4F148611961C92119712961C922A
:1008D000DC01A55CBE4F178611961C9211971296EB
:1008E0001C92DC01A25CBE4F128A11961C921197D9
:1008F00012961C92DC01AF5BBE4F158A11961C92BA
:10090000119712961C9212974896789621E080389B
:10091000920709F0B0CFF894AAECB3E0ECE2F1E072
:1009200080E891E001900D920197E1F7789487EFCC
:100930008093AC028FEF8093AD029FED9093AE0257
:100940008093AF029FE79093B0028093B1028093AF
:10095000B2029DEF9093B3028093B4020E94961965
:100960008091B70290E00E94DB198091B60290E07E
:100970000E94DB198091B50290E00E94DB19809102
:10098000B40290E00E94DB198091B30290E00E94D3
:10099000DB198091B20290E00E94DB198091B102D4
:1009A00090E00E94DB198091B00290E00E94DB1978
:1009B0008091AF0290E00E94DB198091AE0290E03E
:1009C0000E94DB198091AD0290E00E94DB198091BA
:1009D000AC0290E00E94DB190E9498190E94271A2D
:1009E0009CB5259A8CB58F7B8CBD2D9A2D989CBD7E
:1009F000089544980895449A08953D9A3C9A3B9AE4
:100A0000459843984498449A0895EF92FF920F9323
:100A10001F93CF93DF93062FE42EE901182F110FB8
:100A2000180F688179818A819B8120E030EF4FE740
:100A300055E40E9454200E94721F812F8695EE0C6F
:100A4000EE0CE00E98E1E99E70011124982F990FA9
:100A5000980FF701E90FF11DE45DFE4FDF011196DC
:100A6000880F912F981B09F070C060838181807F6F
:100A7000872B8183012F0F5F6C817D818E819F8108
:100A800020E030EF42E055E40E9454200E94721FA3
:100A9000802F8695982F990F980FF701E90FF11D78
:100AA000E45DFE4FDF011196880F081BD9F56083C6
:100AB0008181807F872B81831E5F688579858A8508
:100AC0009B8520E030EF42E055E40E9454200E94D4
:100AD000721F812F8695982F990F980FF701E90FB4
:100AE000F11DE45DFE4FDF011196880F181B09F41C
:100AF00040C0113081F4862F8295807F91819F7054
:100B0000892B8183729562956F7067277F70672745
:100B100011966C931197DF91CF911F910F91FF90D8
:100B2000EF900895013041F6862F8295807F918164
:100B30009F70892B8183729562956F7067277F7094
:100B4000672711966C931197B7CF913009F092CF28
:100B5000862F8295807F91819F70892B81837295EA
:100B600062956F7067277F70672711966C93119756
:100B700081CF60838181807F872B8183DF91CF91BB
:100B80001F910F91FF90EF900895EF92FF920F93B6
:100B90001F93CF93DF93EC017B018881182F110FF6
:100BA000180FFB01608171818281938120E030EF19
:100BB0004FE755E40E9454200E94721F912F969592
:100BC0008A81880F880F2981820F28E1829FE001A6
:100BD0001124892F880F890FFE01E80FF11DE45DB4
:100BE000FE4FDF011196990F812F891B09F06EC00E
:100BF00060838181807F872B8183012F0F5FF701C5
:100C0000648175818681978120E030EF42E055E470
:100C10000E9454200E94721F802F8695982F990F52
:100C2000980FFE01E90FF11DE45DFE4FDF01119603
:100C3000880F081BC1F560838181807F872B8183AA
:100C40001E5FF701608571858285938520E030EF16
:100C500042E055E40E9454200E94721F812F869525
:100C6000982F990F980FC90FD11DC45DDE4FFE015B
:100C70003196880F181BF1F1113071F4862F82958F
:100C8000807F99819F70892B8983729562956F709F
:100C900067277F7067276183DF91CF911F910F9145
:100CA000FF90EF900895013059F6862F8295807F4E
:100CB00091819F70892B8183729562956F706727F0
:100CC0007F70672711966C931197BACF813009F026
:100CD00094CF862F8295807F91819F70892B81830D
:100CE000729562956F7067277F70672711966C9376
:100CF000119783CF68838981807F872B8983DF91D8
:100D0000CF911F910F91FF90EF900895E0E6F0E0F2
:100D100080818061808388E0808308953D9A3C9A39
:100D20003B9A459843984498449A0E940004E0E610
:100D3000F0E080818061808388E0808308956F92F5
:100D40007F928F929F92AF92BF92CF92DF92EF925B
:100D5000FF920F931F93D62EC72EB82EA92E922E38
:100D6000832E742E652EA6019501652F742F832F77
:100D7000922F20E030E040E050E00E94061F87FF05
:100D800010C0A6019501652F742F832F922F20E0AC
:100D900030E040E85FE30E94A21ED62EC72EB82E98
:100DA000A92EA6019501652F7C2D832F9A2D20E079
:100DB00030E040E85FE30E945020181684F4A6015A
:100DC0009501652F7C2D832F9A2D20E030E040E89F
:100DD0005FE30E94A11ED62EC72EB82EA92EA60113
:100DE0009501652F7C2D832F9A2D20E030E040EC7B
:100DF00050E40E94542020E030E040E85FE30E948D
:100E0000061F87FD6AC0A6019501652F7C2D832FE3
:100E10009A2DD601F5012B2F3C2D4F2F5A2D0E94D4
:100E2000A21E20E030E040E85FE30E94061F87FD3D
:100E300051C0A6019501652F7C2D832F9A2D20E0AE
:100E400030E040E450E40E94542020E030E040E0F4
:100E500050E40E94061F87FF59C06E2D7F2D802F02
:100E6000912FD401F3012B2F382D4F2F562D0E9497
:100E7000A11E7B018C016BEA7AEA8AE29FE3D6012C
:100E8000F5012B2F3C2D4F2F5A2D0E94A11E9B01A7
:100E9000AC01C801B7010E94542020E030E040ECD2
:100EA00050E40E945420D401F3012B2F382D4F2FF2
:100EB000562D0E94A21EF72E7F2D1F910F91FF909D
:100EC000EF90DF90CF90BF90AF909F908F907F90EA
:100ED0006F9008956E2DC801EFCF6E2D7F2D802F5E
:100EE000912FD401F3012B2F382D4F2F562D0E9417
:100EF000A11E20E030E040EC50E40E945420D601D6
:100F0000F5012B2F3C2D4F2F5A2DCBCF692DF82CCF
:100F1000872D962DD1CF2F923F924F925F926F9255
:100F20007F928F929F92AF92BF92CF92DF92EF9279
:100F3000FF920F931F93DF93CF93CDB7DEB72F9719
:100F40000FB6F894DEBF0FBECDBFFC017E876D8764
:100F5000E080F180028113816480758086809780B3
:100F6000A084B184C284D384C401B30120E030E002
:100F700040E050E00E94061F882309F420C1C6010A
:100F8000B50120E030E040E05FE30E94061F87FFEC
:100F9000F3C0C401B30120E030E040E85FE30E9409
:100FA000A21EA60195010E945420562E472E382ECF
:100FB000292EC601B501A60195010E94A21ED201EB
:100FC000F1012B2F342D4F2F522D0E94A11E69832A
:100FD0007A838B839C836E2D7F2D802F912F2BEA1C
:100FE0003AEA4AEA5EE30E94A21EA62ED72EC82E37
:100FF000B92E6E2D7F2D802F912F2BEA3AEA4AEAE7
:101000005EE30E94A11E6D837E838F839887962E58
:10101000672E882E792E6A2D7D2D8C2D9B2D20E01C
:1010200030E040E050E00E94061F87FF0EC06A2DAE
:101030007D2D8C2D9B2D20E030E040E85FE30E9469
:10104000A21EA62ED72EC82EB92E6A2D7D2D8C2D30
:101050009B2D20E030E040E85FE30E94502018160E
:1010600074F46A2D7D2D8C2D9B2D20E030E040E81E
:101070005FE30E94A11EA62ED72EC82EB92E6A2D80
:101080007D2D8C2D9B2D20E030E040EC50E40E9423
:10109000542020E030E040E85FE30E94061F87FD17
:1010A000B9C06A2D7D2D8C2D9B2D2A2D3D2D4C2DCB
:1010B0005B2D0E94A21E20E030E040E85FE30E942A
:1010C000061F87FDABC26A2D7D2D8C2D9B2D20E048
:1010D00030E040E450E40E94542020E030E040E062
:1010E00050E40E94061F87FF94C2A2019101652F60
:1010F000742D832F922DE981FA812B812987AC8170
:10110000AF879F0149855A2F0E94A11E69877A8760
:101110008B879C876BEA7AEA8AE29FE3EA2DFD2DB2
:10112000AC2DBB2D9F01AD010E94A11E9B01AC0106
:1011300069857A858B859C850E94542020E030E06B
:1011400040EC50E40E945420B62FA72F89879F8738
:1011500079816A819B818C81272F362F492F582FC7
:10116000CA01B9016D01B984AF842D2D3C2D4B2DE1
:101170005A2D0E94A21E7FC0C601B50120E030E0BA
:1011800040E05FE30E94502087FD13CFC601B50108
:10119000A40193010E94A21E1B012C01C601B501EE
:1011A000A40193010E9454209B01AC01C201B10132
:1011B0000E94A11E562E472E382E292EFACEAD851E
:1011C000BE85AD92BD92CD92DC921397FD01A482B3
:1011D000B582C682D7821896AD92BD92CD92DC922E
:1011E0001B972F960FB6F894DEBF0FBECDBFCF91E1
:1011F000DF911F910F91FF90EF90DF90CF90BF9004
:10120000AF909F908F907F906F905F904F903F90A6
:101210002F900895A2019101652F742D832F922D97
:10122000B981AA81EB81E987FC81FF872B2F3A2FB7
:10123000AF010E94A11E20E030E040EC50E40E948B
:1012400054209B01AC016A2D7D2D8C2D9B2D0E947D
:1012500054205B016C0179816A819B818C81272FED
:10126000362F492F582FCA01B9012A2D3B2D4C2D5D
:101270005D2D0E94A21E382F292F862F972FA32F76
:10128000B22FED85FE8580839183A283B3836E2D7B
:101290007F2D802F912F20E030E040E050E00E9431
:1012A000061F87FF0CC06E2D7F2D802F912F20E011
:1012B00030E040E85FE30E94A21E7B018C016E2DAE
:1012C0007F2D802F912F20E030E040E85FE30E94E7
:1012D0005020181664F46E2D7F2D802F912F20E062
:1012E00030E040E85FE30E94A11E7B018C016E2D7F
:1012F0007F2D802F912F20E030E040EC50E40E94C1
:10130000542020E030E040E85FE30E94061F87FDA4
:1013100061C06E2D7F2D802F912F2E2D3F2D402FC0
:10132000512F0E94A21E20E030E040E85FE30E94BF
:10133000061F87FD78C16E2D7F2D802F912F20E015
:1013400030E040E450E40E94542020E030E040E0EF
:1013500050E40E94061F87FF57C1A2019101652F2B
:10136000742D832F922DA981DA80CB80BC812A2F06
:101370003D2D4C2D5B2F0E94A11E5B016C016BEA81
:101380007AEA8AE29FE32E2D3F2D402F512F0E94B3
:10139000A11E9B01AC01C601B5010E94542020E0B2
:1013A00030E040EC50E40E945420F62E072F182F16
:1013B000B92F79816A819B818C81272F362F492F04
:1013C000582FCA01B9012F2D302F412F5B2F0E94BA
:1013D000A21E2FC0A2019101652F742D832F922D83
:1013E000B981AA81DB80CC802B2F3A2F4D2D5C2D2B
:1013F0000E94A11E20E030E040EC50E40E94542006
:101400009B01AC016E2D7F2D802F912F0E945420C7
:101410007B018C0179816A81C601272F362F492FE4
:10142000582FCA01B9012E2D3F2D402F512F0E9458
:10143000A21E382F292F862F972FA32FB22FED858D
:10144000FE8584839583A683B7835D814E813F812A
:101450002885652F742F832F922F20E030E040E005
:1014600050E00E94061F87FF12C05D814E813F81C0
:101470002885652F742F832F922F20E030E040E8DD
:101480005FE30E94A21E962E672E882E792E692D6C
:10149000762D882D972D20E030E040E85FE30E9414
:1014A0005020181674F4692D762D882D972D20E084
:1014B00030E040E85FE30E94A11E962E672E882E42
:1014C000792E692D762D882D972D20E030E040EC87
:1014D00050E40E94542020E030E040E85FE30E94A6
:1014E000061F87FD4BC0692D762D882D972D292D40
:1014F000362D482D572D0E94A21E20E030E040E8F6
:101500005FE30E94061F87FD6DC0692D762D882D33
:10151000972D20E030E040E450E40E94542020E089
:1015200030E040E050E40E94061F87FF68C0A2013F
:101530009101652F742D832F922DB981AA811B8172
:101540000C812B2F3A2F412F502F0E94A11E7B017F
:101550008C016BEA7AEA8AE29FE3292D362D482D29
:10156000572D0E94A11E9B01AC01C801B7010E942A
:10157000542020E030E040EC50E41CC0A201910176
:10158000652F742D832F922DB981AA811B810C8127
:101590002B2F3A2F412F502F0E94A11E20E030E028
:1015A00040EC50E40E9454209B01AC01692D762D43
:1015B000882D972D0E9454207B018C0179816A81AE
:1015C0009B818C81272F362F492F582FCA01B901B3
:1015D0002E2D3F2D402F512F0E94A21E562E472EFA
:1015E000382E292EA2019101852F942DA32FB22DE3
:1015F000ED85FE8580879187A287B387F2CD5980DC
:101600004A803B802C80EECF69817A818B819C81DE
:1016100010CF69817A818B819C812DCE652D742DAF
:10162000832D922D28CE652D742D832D922D01CFE3
:10163000EF92FF920F931F93CF93DF93EC018FEF05
:10164000E82E8FE7F82E012D112D0E948E219C018E
:10165000B901882777FD8095982F26E030E040E09B
:1016600050E00E94B720A80197010E94D6202230A6
:1016700081F1233070F42223F1F48981833028F73B
:101680008F5F8983DF91CF911F910F91FF90EF9032
:101690000895243061F1243018F12530B1F68A81A3
:1016A000833098F68F5F8A83DF91CF911F910F91DE
:1016B000FF90EF900895213041F68981882329F227
:1016C00081508983DF91CF911F910F91FF90EF900F
:1016D00008958881882309F4B8CF81508883D2CFB8
:1016E0008881833008F0B1CF8F5F8883CBCF8A8128
:1016F000882309F4AACF81508A83C4CFCF92DF9286
:10170000EF92FF920F931F93DF93CF93CDB7DEB786
:101710002C970FB6F894DEBF0FBECDBF6E010894B4
:10172000C11CD11CD601E1E0F1E08CE001900D92EA
:101730008150E1F7C60168EB72E00E948B070E94BE
:101740008E219C01B901882777FD8095982F660F1F
:10175000771F881F991F660F771F881F991FFFEF3C
:10176000EF2EFFE7FF2E012D112DA80197010E94FA
:10177000D6202093C4020E948E219C01B9018827A3
:1017800077FD8095982F660F771F881F991F660F2A
:10179000771F881F991FA80197010E94D6202093C8
:1017A000C5020E948E219C01B901882777FD809592
:1017B000982F660F771F881F991F660F771F881F46
:1017C000991FA80197010E94D6202093C6020E946B
:1017D0008E219C01B901882777FD8095982F0E9462
:1017E000A01F20E03EEF4FEF56E40E940A1F6983DE
:1017F0007A838B839C83C60167EC72E00E948B071F
:101800000E948E219C01B901882777FD8095982F31
:10181000660F771F881F991F660F771F881F991FF4
:10182000A80197010E94D6202093D3020E948E2106
:101830009C01B901882777FD8095982F660F771F47
:10184000881F991F660F771F881F991FA80197018E
:101850000E94D6202093D4020E948E219C01B901BF
:10186000882777FD8095982F660F771F881F991F0F
:10187000660F771F881F991FA80197010E94D62025
:101880002093D5020E948E219C01B901882777FD03
:101890008095982F0E94A01F20E03EEF4FEF56E466
:1018A0000E940A1F69837A838B839C83C60166ED3D
:1018B00072E00E948B070E948E219C01B90188274B
:1018C00077FD8095982F660F771F881F991F660FE9
:1018D000771F881F991FA80197010E94D620209387
:1018E000E2020E948E219C01B901882777FD809534
:1018F000982F660F771F881F991F660F771F881F05
:10190000991FA80197010E94D6202093E3020E940C
:101910008E219C01B901882777FD8095982F660F4D
:10192000771F881F991F660F771F881F991FA801AF
:1019300097010E94D6202093E4020E948E219C01F0
:10194000B901882777FD8095982F0E94A01F20E07D
:101950003EEF4FEF56E40E940A1F69837A838B8320
:101960009C83C60165EE72E00E948B070E948E2167
:101970009C01B901882777FD8095982F660F771F06
:10198000881F991F660F771F881F991FA80197014D
:101990000E94D6202093F1020E948E219C01B90161
:1019A000882777FD8095982F660F771F881F991FCE
:1019B000660F771F881F991FA80197010E94D620E4
:1019C0002093F2020E948E219C01B901882777FDA5
:1019D0008095982F660F771F881F991F660F771FB6
:1019E000881F991FA80197010E94D6202093F30217
:1019F0000E948E219C01B901882777FD8095982F40
:101A00000E94A01F20E03EEF4FEF56E40E940A1F05
:101A100069837A838B839C83C60164EF72E00E94A2
:101A20008B070E948E219C01B901882777FD809544
:101A3000982F660F771F881F991F660F771F881FC3
:101A4000991FA80197010E94D620209300030E94AD
:101A50008E219C01B901882777FD8095982F660F0C
:101A6000771F881F991F660F771F881F991FA8016E
:101A700097010E94D620209301030E948E219C0191
:101A8000B901882777FD8095982F660F771F881FEB
:101A9000991F660F771F881F991FA80197010E9441
:101AA000D620209302030E948E219C01B901882731
:101AB00077FD8095982F0E94A01F20E03EEF4FEF0A
:101AC00056E40E940A1F69837A838B839C83C60134
:101AD00063E073E00E948B070E948E219C01B90194
:101AE000882777FD8095982F660F771F881F991F8D
:101AF000660F771F881F991FA80197010E94D620A3
:101B000020930F030E948E219C01B901882777FD45
:101B10008095982F660F771F881F991F660F771F74
:101B2000881F991FA80197010E94D62020931003B7
:101B30000E948E219C01B901882777FD8095982FFE
:101B4000660F771F881F991F660F771F881F991FC1
:101B5000A80197010E94D620209311030E948E2194
:101B60009C01B901882777FD8095982F0E94A01FBE
:101B700020E03EEF4FEF56E40E940A1F69837A830C
:101B80008B839C83C60162E173E00E948B070E94F5
:101B90008E219C01B901882777FD8095982F660FCB
:101BA000771F881F991F660F771F881F991FA8012D
:101BB00097010E94D62020931E030E948E219C0133
:101BC000B901882777FD8095982F660F771F881FAA
:101BD000991F660F771F881F991FA80197010E9400
:101BE000D62020931F030E948E219C01B9018827D3
:101BF00077FD8095982F660F771F881F991F660FB6
:101C0000771F881F991FA80197010E94D620209353
:101C100020030E948E219C01B901882777FD8095C1
:101C2000982F0E94A01F20E03EEF4FEF56E40E9445
:101C30000A1F69837A838B839C83C60161E273E008
:101C40000E948B070E948E219C01B901882777FD95
:101C50008095982F660F771F881F991F660F771F33
:101C6000881F991FA80197010E94D62020932D0359
:101C70000E948E219C01B901882777FD8095982FBD
:101C8000660F771F881F991F660F771F881F991F80
:101C9000A80197010E94D62020932E030E948E2136
:101CA0009C01B901882777FD8095982F660F771FD3
:101CB000881F991F660F771F881F991FA80197011A
:101CC0000E94D62020932F030E948E219C01B901EF
:101CD000882777FD8095982F0E94A01F20E03EEF77
:101CE0004FEF56E40E940A1F69837A838B839C839B
:101CF000C60160E373E00E948B070E948E219C0165
:101D0000B901882777FD8095982F660F771F881F68
:101D1000991F660F771F881F991FA80197010E94BE
:101D2000D62020933C030E948E219C01B901882774
:101D300077FD8095982F660F771F881F991F660F74
:101D4000771F881F991FA80197010E94D620209312
:101D50003D030E948E219C01B901882777FD809563
:101D6000982F660F771F881F991F660F771F881F90
:101D7000991FA80197010E94D62020933E030E943C
:101D80008E219C01B901882777FD8095982F0E94AC
:101D9000A01F20E03EEF4FEF56E40E940A1F698328
:101DA0007A838B839C83C6016FE373E00E948B0769
:101DB0000E948E219C01B901882777FD8095982F7C
:101DC000660F771F881F991F660F771F881F991F3F
:101DD000A80197010E94D62020934B030E948E21D8
:101DE0009C01B901882777FD8095982F660F771F92
:101DF000881F991F660F771F881F991FA8019701D9
:101E00000E94D62020934C030E948E219C01B90190
:101E1000882777FD8095982F660F771F881F991F59
:101E2000660F771F881F991FA80197010E94D6206F
:101E300020934D030E948E212C960FB6F894DEBF9E
:101E40000FBECDBFCF91DF911F910F91FF90EF900B
:101E5000DF90CF90089580E090E00E94B30284EC80
:101E600092E00E94180B84EC92E068EB72E00E9412
:101E7000C50583ED92E00E94180B83ED92E067ECBC
:101E800072E00E94C50582EE92E00E94180B82EE7D
:101E900092E066ED72E00E94C50581EF92E00E943B
:101EA000180B81EF92E065EE72E00E94C50580E0BC
:101EB00093E00E94180B80E093E064EF72E00E94D0
:101EC000C5058FE093E00E94180B8FE093E063E07C
:101ED00073E00E94C5058EE193E00E94180B8EE12D
:101EE00093E062E173E00E94C5058DE293E00E94F9
:101EF000180B8DE293E061E273E00E94C5058CE36C
:101F000093E00E94180B8CE393E060E373E00E947F
:101F1000C5058BE493E00E94180B8BE493E06FE31C
:101F200073E00E94C5050E942C0388EE93E024EF25
:101F300031E0F9013197F1F70197D9F708950F933F
:101F40001F93DF93CF93CDB7DEB72C970FB6F894DE
:101F5000DEBF0FBECDBF8E010F5F1F4FD801EDE07A
:101F6000F1E08CE001900D928150E1F780914E03F9
:101F7000882309F4BCC0C80161E573E00E948B07A7
:101F800069817A818B819C8120E030E040E05EE3D2
:101F90000E94A21E69837A838B839C8380914E0367
:101FA000882309F419C1C80160E673E00E948B0719
:101FB00069817A818B819C8120E030E040E05EE3A2
:101FC0000E94A21E69837A838B839C8380914E0337
:101FD000882309F4DAC0C8016FE673E00E948B071A
:101FE00069817A818B819C8120E030E040E05EE372
:101FF0000E94A21E69837A838B839C8380914E0307
:10200000882309F49BC0C8016EE773E00E948B0728
:1020100069817A818B819C8120E030E040E05EE341
:102020000E94A21E69837A838B839C8380914E03D6
:10203000813029F480914F03882309F469C1C801D4
:102040006DE873E00E948B0769817A818B819C81A6
:1020500020E030E040E05EE30E94A21E69837A83C4
:102060008B839C8380914E03813009F42AC1C8017F
:102070006CE973E00E948B0769817A818B819C8176
:1020800020E030E040E05EE30E94A21E69837A8394
:102090008B839C8380914E03813009F4EBC0C8018F
:1020A0006BEA73E00E948B0769817A818B819C8146
:1020B00020E030E040E05EE30E94A21E69837A8364
:1020C0008B839C8380914E03813009F4ACC0C8019E
:1020D0006AEB73E00E948B072C960FB6F894DEBF74
:1020E0000FBECDBFCF91DF911F910F9108958091C9
:1020F0004F03882309F03FCF80915003882309F0D4
:102100003ACF80E090E0A0E0B0E08093510390935C
:102110005203A0935303B0935403809355039093B9
:102120005603A0935703B093580380935903909399
:102130005A03A0935B03B0935C0353C080914F0399
:10214000813009F060CF80915003813009F05BCF7E
:1021500080E090E0A0E0B0E080937E0390937F0366
:10216000A0938003B09381038093820390938303B1
:10217000A0938403B0938503809386039093870391
:10218000A0938803B09389035ACF80914F03813085
:1021900009F021CF80915003882309F01CCF80E003
:1021A00090E0A0E0B0E080936F0390937003A09361
:1021B0007103B09372038093730390937403A0939D
:1021C0007503B09376038093770390937803A0937D
:1021D0007903B0937A03B7CF80914F03882309F036
:1021E000E2CE80915003813009F0DDCE80E090E0B6
:1021F000A0E0B0E08093600390936103A09362033A
:10220000B09363038093640390936503A093660384
:10221000B09367038093680390936903A0936A0364
:10222000B0936B03D8CE80914F03813009F04FCF2C
:1022300080915003813009F04ACF80E090E0A0E027
:10224000B0E08093BA039093BB03A093BC03B09318
:10225000BD038093BE039093BF03A093C003B093CC
:10226000C1038093C2039093C303A093C403B093AC
:10227000C50332CF80914F03813009F010CF809198
:102280005003882309F00BCF80E090E0A0E0B0E09D
:102290008093AB039093AC03A093AD03B093AE03D4
:1022A0008093AF039093B003A093B103B093B203B4
:1022B0008093B3039093B403A093B503B093B60394
:1022C000B7CF80914F03882309F0D1CE809150037E
:1022D000813009F0CCCE80E090E0A0E0B0E08093C7
:1022E0009C0390939D03A0939E03B0939F038093C0
:1022F000A0039093A103A093A203B093A3038093A0
:10230000A4039093A503A093A603B093A703C7CEFD
:1023100080915003882309F092CE80E090E0A0E005
:10232000B0E080938D0390938E03A0938F03B093BE
:1023300090038093910390939203A0939303B0939F
:1023400094038093950390939603A0939703B0937F
:102350009803BCCFDF92EF92FF920F931F93CF931E
:10236000DF93EC018B014881D42E4430B8F55981BC
:10237000543040F54A81E52E4430B8F4F42E03C0C1
:102380008F2D843088F48D2D6E2D4F2D98010E9455
:102390000505F3944A81242F30E02F5F3F4F8F2DA6
:1023A00090E02817390764F75981E394852F90E06E
:1023B00001962E2D30E0821793071CF08E2D84306D
:1023C000D8F24881D394842F90E001962D2D30E0EF
:1023D000821793071CF08D2D843050F2DF91CF913E
:1023E0001F910F91FF90EF90DF9008952F923F92F1
:1023F0004F925F926F927F928F929F92AF92BF9215
:10240000CF92DF92EF92FF920F931F93DF93CF93C0
:10241000CDB7DEB728970FB6F894DEBF0FBECDBF9D
:1024200021E533E03C832B8322243324822C3101A9
:102430000894611C711CEB81FC81FE83ED834424B4
:102440005524942C82010F5F1F4F8D819E819A83AA
:102450008983E1E0F0E0F887EF83AA24C980BA809D
:10246000382D343070F5D82C992D943008F5E92C9E
:102470003A2D3430A0F4FA2C03C0FF2DF43078F458
:102480008D2D6E2D4F2D2C2D3B2D0E940505F39487
:102490008F2D90E0EF81F885E817F90774F7E39442
:1024A0008E2D90E0081719071CF02E2D243000F314
:1024B000D3948D2D90E0681679061CF08D2D843014
:1024C00098F2E2E0AE0E29813A81215F3F4F3A83D4
:1024D00029838F819885029698878F839A2D9430CF
:1024E00009F0BCCFED81FE817E96FE83ED8322E074
:1024F00030E0420E531E34E04316510409F0A1CFE0
:1025000022E030E0220E331E8B819C81CC969C838E
:102510008B8394E02916310409F088CF28960FB6F2
:10252000F894DEBF0FBECDBFCF91DF911F910F9109
:10253000FF90EF90DF90CF90BF90AF909F908F90E3
:102540007F906F905F904F903F902F9008950F93E2
:102550001F93DF93CF930F92CDB7DEB78C016983C2
:102560000E948E21AA2797FDA095BA2F6981262F58
:1025700030E040E050E0BC01CD010E94B7202FEFD9
:102580003FE740E050E00E94D620F801E20FF11D45
:1025900080810F90CF91DF911F910F9108952F921D
:1025A0003F924F925F926F927F928F929F92AF92E3
:1025B000BF92CF92DF92EF92FF920F931F93DF9320
:1025C000CF93CDB7DEB7AF970FB6F894DEBF0FBE8F
:1025D000CDBF80914E03882309F455C22091C903D1
:1025E000243009F46BC283E08F83CE010996FE018B
:1025F0003896CC24C3948E01095F1F4F30914F034E
:10260000332309F436C2213031F0C39422E0208311
:10261000FC012091C90380915003882309F422C250
:10262000253019F0C39486E080830E948E21DD243A
:10263000EE24FF249C01442737FD4095542FC70109
:10264000B6010E94B7202FEF3FE740E050E00E9424
:10265000D620F801E20FF11D80818093C9036091BB
:102660004E0350914F0340915003833009F420C230
:10267000843008F0EDC1813009F430C2823009F4B1
:1026800027C24C8F5B8F6D8F3D8D232F30E03BA792
:102690002AA79C8D892F90E09BA38AA3829592956F
:1026A000907F9827807F98279DA78CA77C01EAA11F
:1026B000FBA1EE1AFF0A8B8D90E09C01220F331FC5
:1026C000880F991F82959295907F9827807F9827F1
:1026D000821B930BE80EF91E2CE330E0EAA5FBA564
:1026E000E29FC001E39F900DF29F900D1124E80E30
:1026F000F91E21E533E0E20EF31E80E090E0A0E059
:10270000B0E08D879E87AF87B88B898B9A8BAB8B18
:10271000BC8B8D8B9E8BAF8BB88F2D8D220F298319
:102720009B8D990F9A838C8D880F8B83660F6C839A
:10273000550F5D83440F4E83261708F484C162173A
:1027400008F47CC11F8E1E8E951708F472C15917AC
:1027500008F46AC119A218A2841708F451C14817D5
:1027600008F43BC11DA21CA28DE0C82ED12CCC0EBA
:10277000DD1EAE014C5F5F4F59A748A7CE01019601
:102780009FA38EA3B4EF4B2EB1E05B2E4701F980DF
:102790006F2C77240894611C711C3F2D343008F095
:1027A00095C1AF2C2A811401F98EE22E822E992434
:1027B0000894811C911C243018F5BB800B2D10E06F
:1027C0000F5F1F4F4B2D443088F4FB2C03C05F2D4F
:1027D000543060F48A2D6E2D4F2D96010E94050510
:1027E000F3948F2D90E0081719078CF7E3948E2D42
:1027F00090E0881699061CF08E2D843018F32A81FB
:10280000A3948A2D90E0681679061CF09A2D9430D6
:1028100060F24101F98CAE8CAF0CA982F8A0F20EE7
:10282000FA826B80ECA16E0E6B822A2D30E02F5F56
:102830003F4F3A8F298F3A2D3430D0F52F2C332447
:102840000894211C311C062D10E00F5F1F4FDFA6DE
:10285000CEA6CF2C2C2D2430F0F4EC2C862D8430F9
:1028600088F4F62C03C04F2D443060F48A2D6E2D71
:102870004F2D94010E940505F3948F2D90E00817C9
:1028800019078CF7E3948E2D90E0281639061CF07A
:102890005E2D543018F3A3948A2D90E0E98DFA8DC3
:1028A000E817F9071CF0FA2DF430A0F2CEA4DFA44B
:1028B0000E942C0384EF91E0F2013197F1F7019728
:1028C000D9F78EA19FA168A579A543E050E00E94A9
:1028D0008122009709F05BCF74018091500390E052
:1028E000FC01E295F295F07FFE27E07FFE27E81BD2
:1028F000F90B80914F0390E09C01220F331F880F4A
:10290000991F82959295907F9827807F9827821BA8
:10291000930BE80FF91F40914E0350E02CE330E099
:10292000429FC001439F900D529F900D1124E80FCC
:10293000F91FACA5BDA54AA15BA1A41BB50B4AA577
:102940005BA5429FC001439F900D529F900D1124A3
:10295000A80FB91F8B8D90E09C01220F331F880FA9
:10296000991F82959295907F9827807F9827821B48
:10297000930BA80FB91FEF5AFC4FAF5ABC4F8CE016
:102980000D9001928150E1F7D701F6018CE00190A2
:102990000D928150E1F75D8D50934E038B8D8093A6
:1029A0004F039C8D90935003AF960FB6F894DEBF03
:1029B0000FBECDBFCF91DF911F910F91FF90EF9090
:1029C000DF90CF90BF90AF909F908F907F906F904F
:1029D0005F904F903F902F9008958FEF9FEF9DA3B2
:1029E0008CA31DE0C12ED12CCC0EDD1EFE01349631
:1029F000F9A7E8A79E012F5F3F4F3FA32EA3C2CEAA
:102A0000E1E0F0E0FDA3ECA30DE0C02ED12CCC0E54
:102A1000DD1E9E012C5F3F4F39A728A7AE014F5FF7
:102A20005F4F5FA34EA3AECE2FEF3FEF39A328A396
:102A300093CEE1E0F0E0F9A3E8A38ECE2FEF3FEFD5
:102A40003F8F2E8F81CEE1E0F0E0FF8FEE8F7CCEC6
:102A5000853041F18530E8F4962F9F5F9D8F4C8F34
:102A60005B8F12CE263009F4E0CDC39485E08083DD
:102A7000DCCD223009F4CFCDC39421E02083FC01CA
:102A80002091C903C8CD2091C9032330B9F084E057
:102A9000ABCD863009F0F5CDF42FF150FC8F5B8F74
:102AA0006D8FF2CDE42FEF5FEC8F5B8F6D8FECCDF0
:102AB000862F81508D8F4C8F5B8FE6CD8E01095F05
:102AC0001F4FCE010896F801CC2498CD2A81A3CEC1
:102AD000352F31503B8F4C8F6D8FD6CD252F2F5FEB
:102AE0002B8F4C8F6D8FD0CD2F923F924F925F9254
:102AF0006F927F928F929F92AF92BF92CF92DF920E
:102B0000EF92FF920F931F93DF93CF93CDB7DEB772
:102B100028970FB6F894DEBF0FBECDBF21E533E096
:102B20003C832B8322243324822C31010894611CA2
:102B3000711CEB81FC81FE83ED8344245524942C8D
:102B400082010F5F1F4F8D819E819A838983E1E00F
:102B5000F0E0F887EF83AA24C980BA80382D34309A
:102B600070F5D82C992D943008F5E92C3A2D343095
:102B7000A0F4FA2C03C0FF2DF43078F48D2D6E2DC7
:102B80004F2D2C2D3B2D0E940505F3948F2D90E0A9
:102B9000EF81F885E817F90774F7E3948E2D90E03C
:102BA000081719071CF02E2D243000F3D3948D2D17
:102BB00090E0681679061CF08D2D843098F2E2E0E2
:102BC000AE0E29813A81215F3F4F3A8329838F815D
:102BD0009885029698878F839A2D943009F0BCCF00
:102BE000ED81FE817E96FE83ED8322E030E0420E91
:102BF000531E34E04316510409F0A1CF22E030E027
:102C0000220E331E8B819C81CC969C838B8394E017
:102C10002916310409F088CF0E942C0380E293E04A
:102C200024EF31E0F9013197F1F70197D9F70E94CC
:102C3000CF1228960FB6F894DEBF0FBECDBFCF914E
:102C4000DF911F910F91FF90EF90DF90CF90BF9099
:102C5000AF909F908F907F906F905F904F903F903C
:102C60002F9008952F923F924F925F926F927F9292
:102C70008F929F92AF92BF92CF92DF92EF92FF928C
:102C80000F931F93DF93CF93CDB7DEB72C970FB67B
:102C9000F894DEBF0FBECDBF83E0682E5E010894BE
:102CA000A11CB11C04EF11E00F2EF0E0CF2EF0E0DC
:102CB000DF2EF0E0EF2EF0E0FF2EF02D0F2EF0E0F3
:102CC0002F2EF0E03F2EF0E84F2EFFE35F2EF02D89
:102CD00077248824CD82DE82EF82F886C986DA8660
:102CE000EB86FC86992429823A824B825C82892D6C
:102CF000672D482D95010E9405050E942C0388EE42
:102D000093E0F8013197F1F70197D9F7C982DA8298
:102D1000EB82FC822D823E824F825886892D672D60
:102D2000482D95010E9405050E942C0388EE93E032
:102D3000F8013197F1F70197D9F7CD82DE82EF8262
:102D4000F88629863A864B865C86892D672D482D24
:102D500095010E9405050E942C0388EE93E0F8017E
:102D60003197F1F70197D9F7C986DA86EB86FC86A9
:102D7000892D672D482D95010E9405059394892D75
:102D8000843009F0B0CF8394882D843009F0A2CF2D
:102D90007394872D843009F09CCF6A9409F098CF02
:102DA0002C960FB6F894DEBF0FBECDBFCF91DF914A
:102DB0001F910F91FF90EF90DF90CF90BF90AF9059
:102DC0009F908F907F906F905F904F903F902F904B
:102DD0000895FF920F931F93DF93CF93CDB7DEB784
:102DE0002C970FB6F894DEBF0FBECDBF93E0F92E3F
:102DF0008E010F5F1F4FD801E9E1F1E08CE00190F7
:102E00000D928150E1F760E040E098010E940505D5
:102E100081E060E040E098010E94050582E060E00A
:102E200040E098010E94050583E060E040E09801E1
:102E30000E940505D801E9E1F1E08CE001900D92D6
:102E40008150E1F760E041E098010E94050581E0D2
:102E500060E041E098010E94050582E060E041E009
:102E600098010E94050583E060E041E098010E941E
:102E70000505D801E9E1F1E08CE001900D92815067
:102E8000E1F760E042E098010E94050581E060E022
:102E900042E098010E94050582E060E042E098016E
:102EA0000E94050583E060E042E098010E9405056C
:102EB000D801E9E1F1E08CE001900D928150E1F759
:102EC00060E043E098010E94050581E060E043E096
:102ED00098010E94050582E060E043E098010E94AD
:102EE000050583E060E043E098010E940505D801F4
:102EF000E9E1F1E08CE001900D928150E1F761E0B1
:102F000040E098010E94050581E061E040E0980101
:102F10000E94050582E061E040E098010E940505FD
:102F200083E061E040E098010E940505D801E9E1F5
:102F3000F1E08CE001900D928150E1F761E041E019
:102F400098010E94050581E061E041E098010E943E
:102F5000050582E061E041E098010E94050583E0FB
:102F600061E041E098010E940505D801E9E1F1E046
:102F70008CE001900D928150E1F761E042E0980110
:102F80000E94050581E061E042E098010E9405058C
:102F900082E061E042E098010E94050583E061E083
:102FA00042E098010E940505D801E9E1F1E08CE0DA
:102FB00001900D928150E1F761E043E098010E9499
:102FC000050581E061E043E098010E94050582E08B
:102FD00061E043E098010E94050583E061E043E081
:102FE00098010E940505D801E9E1F1E08CE001902B
:102FF0000D928150E1F762E040E098010E940505E2
:1030000081E062E040E098010E94050582E062E014
:1030100040E098010E94050583E062E040E09801ED
:103020000E940505D801E9E1F1E08CE001900D92E4
:103030008150E1F762E041E098010E94050581E0DE
:1030400062E041E098010E94050582E062E041E013
:1030500098010E94050583E062E041E098010E942A
:103060000505D801E9E1F1E08CE001900D92815075
:10307000E1F762E042E098010E94050581E062E02C
:1030800042E098010E94050582E062E042E098017A
:103090000E94050583E062E042E098010E94050578
:1030A000D801E9E1F1E08CE001900D928150E1F767
:1030B00062E043E098010E94050581E062E043E0A0
:1030C00098010E94050582E062E043E098010E94B9
:1030D000050583E062E043E098010E940505D80100
:1030E000E9E1F1E08CE001900D928150E1F763E0BD
:1030F00040E098010E94050581E063E040E098010E
:103100000E94050582E063E040E098010E94050509
:1031100083E063E040E098010E940505D801E9E101
:10312000F1E08CE001900D928150E1F763E041E025
:1031300098010E94050581E063E041E098010E944A
:10314000050582E063E041E098010E94050583E007
:1031500063E041E098010E940505D801E9E1F1E052
:103160008CE001900D928150E1F763E042E098011C
:103170000E94050581E063E042E098010E94050598
:1031800082E063E042E098010E94050583E063E08D
:1031900042E098010E940505D801E9E1F1E08CE0E8
:1031A00001900D928150E1F763E043E098010E94A5
:1031B000050581E063E043E098010E94050582E097
:1031C00063E043E098010E94050583E063E043E08B
:1031D00098010E940505FA9409F00DCE0E942C0377
:1031E0002C960FB6F894DEBF0FBECDBFCF91DF9106
:1031F0001F910F91FF9008952F923F924F925F92EF
:103200006F927F928F929F92AF92BF92CF92DF92F6
:10321000EF92FF920F931F93DF93CF93CDB7DEB75B
:103220002C970FB6F894DEBF0FBECDBF22247E01CF
:103230000894E11CF11C04EF11E00F2EF0E08F2E3A
:10324000F0E09F2EF0E0AF2EF0E0BF2EF02D0F2E1D
:10325000F0E04F2EF0E05F2EF0E86F2EFFE37F2EC0
:10326000F02D3324DD2489829A82AB82BC828D8248
:103270009E82AF82B88689869A86AB86BC86822D6E
:10328000813009F44AC0823009F442C049825A822E
:103290006B827C8282E390E00E94B302CC248C2D6E
:1032A000632D4D2D97010E9405050E942C0388EB8C
:1032B0009BE0F8013197F1F70197D9F7C3948C2D72
:1032C000843069F7D3948D2D843069F63394832D3F
:1032D000843041F62394822D833009F0C2CF2C969E
:1032E0000FB6F894DEBF0FBECDBFCF91DF911F9117
:1032F0000F91FF90EF90DF90CF90BF90AF909F9095
:103300008F907F906F905F904F903F902F90089597
:1033100049865A866B867C86BDCF4D825E826F82DF
:103320007886B8CF2A9A089528980895289A0895FB
:10333000299A29980895FF93F0918000F068F093FE
:103340008000FF910895FF93F0918000FF77F09344
:103350008000FF910895FF93F0918000F062F09358
:103360008000FF910895FF93F0918000FF7DF0931E
:103370008000FF910895FF93F0918100FE7FF0930C
:103380008100FF910895FF93F0918100F160F09327
:103390008100FF910895FF93F091B100F160F093E7
:1033A000B100FF910895FF93F091B100FE7FF0937B
:1033B000B100FF9108958F9380934E00F0914D00DE
:1033C000F7FFFCCF8F910895459A45980895009195
:1033D0002A01003029F4439A459A4598439802C03F
:1033E000459A4598089500912A010395003108F007
:1033F000002700932A0108952A9800918000006216
:103400000093800000913600016000933600F09137
:10341000B100F160F093B100F0918100F160F093A0
:103420008100089512E0109300010895009180003A
:103430000F7D009380002A9AF091B100FE7FF093F7
:10344000B100F0918100FE7FF09381000895AF9369
:10345000BF93289808E110E0A2EEB3E040912A0162
:1034600050912B016627409F402C512C519F202CBE
:10347000312C419F300C411C561E509F300C410C8A
:10348000561E442D552DA40FB51F2E9120934E008E
:10349000A89530914D0037FFFCCF01501040A9F79F
:1034A000299A2998F0918000F068F0938000BF91EC
:1034B000AF9108950F921F922F923F924F925F9279
:1034C0000F931F932F933F934F935F936F938F931C
:1034D000FF930FB70F93F0918000FF77F093800078
:1034E000109100011A9510930001E9F500918000F8
:1034F0000F7D009380002A9AF091B100FE7FF09337
:10350000B100F0918100FE7FF093810000912A01CB
:10351000003029F4439A459A4598439802C0459A49
:1035200045980E94271A00912A010395003108F05E
:10353000002700932A0112E0109300012A980091BD
:1035400080000062009380000091360001600093CB
:103550003600F091B100F160F093B100F09181007C
:10356000F160F09381000F910FBFFF918F916F91E8
:103570005F914F913F912F911F910F915F904F90CD
:103580003F902F901F900F90189561157105810540
:10359000910521F4FA0180E3819315C0DA019B01C2
:1035A000217030702115310511F021E301C020E3B5
:1035B0002D93FD0196958795779567956115710512
:1035C0008105910561F7CF010895A3E1B0E0EBEE2D
:1035D000FAE10C94F1205C017D876C87FC01178275
:1035E0001682838181FD03C0A5C3A10105C09E0190
:1035F0002F5F3F4F3B8B2A8BF5019381EC85FD8537
:1036000093FD859193FF8191FD87EC87882309F4D1
:103610008DC3853241F493FD859193FF8191FD87A0
:10362000EC87853251F490E0B501488B598B0E94AC
:103630009922488959891A01D8CF10E0FF2400E067
:103640000032B0F48B3269F08C3228F4803251F0C1
:10365000833271F40BC08D3239F0803349F401604C
:103660002CC00260046029C0086027C0006125C02A
:1036700007FD2EC0282F20532A3098F406FF08C0DB
:10368000812F880F182F110F110F180F120F15C04F
:103690008F2D880FF82EFF0CFF0CF80EF20E006233
:1036A0000CC08E3221F406FD41C3006406C08C3686
:1036B00011F4006802C0883659F4EC85FD8593FD4D
:1036C000859193FF8191FD87EC87882309F0B8CF1E
:1036D000982F9554933018F40061805E06C0982F9F
:1036E0009556933008F0A5C10F7E06FF16E0EFE374
:1036F000EE2EE022853619F4F0E4EF2A07C0863674
:1037000019F420E8E22A02C011111150E7FE06C0A8
:103710001C3340F4912E939427E00BC0183030F402
:10372000212F06C027E07CE3972E03C027E017E097
:10373000992464E0262E312C240E351EFA01608176
:10374000718182819381AE014F5F5F4F092D0E948D
:103750009E216C016980262D30E03F872E8760FE18
:1037600003C03E8533FF06C0E1FC06C0E2FE06C092
:1037700000E205C00DE203C00BE201C000E08E854F
:103780009F858C7090700097C1F1002311F084E048
:1037900001C083E08F1558F4F81AE3FC09C080E2F9
:1037A00090E0B5010E949922FA94C9F701C0FF2464
:1037B000002329F0802F90E0B5010E9499228E8588
:1037C00083FD03C00CE610E00EC008E610E00BC05D
:1037D000C114D10409F0805290E0B5010E949922F1
:1037E0000F5F1F4F05C0CE2CDD2490E1C922DD24E0
:1037F000F8018491882361F796C2E7FE0EC09C0C05
:10380000FE85F4FF04C08A81813309F49A94191467
:1038100054F5292D293050F52DC0E6FC2BC0812F01
:1038200090E08C159D054CF03CEFC3163FEFD3069E
:1038300024F080E8E82A01C01150112349F0E2E0A9
:10384000F0E0EC0FFD1FE10FF11D80818033A1F34B
:10385000E7FE10C0912E9394812F90E0C816D906F0
:1038600044F41C1907C09924939404C038E0932EA3
:1038700001C010E0E7FE07C01C141D043CF49601D3
:103880002F5F3F4F05C025E030E002C021E030E06F
:10389000002311F02F5F3F4F112329F0812F90E07B
:1038A0000196280F391F8F2D90E02817390714F43F
:1038B000F21A01C0FF244E2C5524C2018970907069
:1038C000009749F406C080E290E0B5010E94992279
:1038D000FA94FF20C1F7002329F0802F90E0B50172
:1038E0000E94992243FC09C006C080E390E0B50124
:1038F0000E949922FA94FF20C1F7E7FE4AC03601E0
:10390000D7FE02C06624772426010894411C511C6E
:1039100046185708E1E0F0E0EC0FFD1F4E0E5F1E69
:103920009601291931094901812F90E000271127BB
:10393000081B190B3FEF63163FEF730629F48EE265
:1039400090E0B5010E949922C614D70434F0861481
:1039500097041CF4F201808101C080E3089461089F
:1039600071080894411C511C601671062CF090E0FF
:10397000B5010E949922DECF6C147D0441F49A8136
:10398000963320F4953319F4FE85F4FF81E390E03B
:103990004CC08A81813311F02FEE622290E0B50194
:1039A0000E9499221123A1F08EE290E0B5010E94BD
:1039B000992202E0E1E0F0E0EC0FFD1FE00FF11DC5
:1039C0000F5F808190E0B5010E949922115091F71C
:1039D00044FE03C085E490E002C085E690E0B501B6
:1039E0000E949922D7FC05C0C114D10441F464FEA1
:1039F00006C0D094C194D108D3948DE201C08BE26B
:103A000090E0B5010E94992280E305C08F5FE6EF48
:103A1000FFEFCE0EDF1EFAE0CF16D104BCF790E028
:103A2000B5010E949922C601C096B5010E94992253
:103A30007AC1833631F08337A1F0833509F05CC059
:103A400025C022E0222E312C240E351EFA01808161
:103A500089833E010894611C711C91E0C92ED12C10
:103A600013C082E0282E312C240E351EFA0160800E
:103A7000718006FF03C0612F70E002C06FEF7FEF1F
:103A8000C3010E948E226C010F7714C0B2E02B2E6E
:103A9000312C240E351EFA016080718006FF03C0B0
:103AA000612F70E002C06FEF7FEFC3010E947622AA
:103AB0006C01006803FD1CC006C080E290E0B50107
:103AC0000E949922FA948F2D90E0C816D906A8F387
:103AD0000FC0F30107FD859107FF81913F0190E041
:103AE000B5010E949922F110FA940894C108D108F6
:103AF000C114D10471F717C1843611F0893661F50C
:103B000007FF0BC0A4E02A2E312C240E351EFA012B
:103B100060817181828193810CC0F2E02F2E312C63
:103B2000240E351EFA0160817181882777FD80950A
:103B3000982F0F7697FF08C09095809570956195A6
:103B40007F4F8F4F9F4F0068AE014F5F5F4F2AE05E
:103B500030E00E94C52265C0853721F40F7E2AE03F
:103B600030E022C0097F8F36B9F0803730F48835D5
:103B700079F0823609F0DAC038C0803721F0883712
:103B800009F0D4C001C0006104FF09C0046007C08F
:103B900004FF08C0066006C028E030E005C020E150
:103BA00030E002C020E132E007FF0BC0E4E02E2E3F
:103BB000312C240E351EFA0160817181828193813E
:103BC0000AC072E0272E312C240E351EFA016081C6
:103BD000718180E090E0AE014F5F5F4F0E94C5228F
:103BE000982EFA899F1A0F771FC007FF0BC064E059
:103BF000262E312C240E351EFA01608171818281BE
:103C000093810AC032E0232E312C240E351EFA0196
:103C10006081718180E090E0AE014F5F5F4F0E9454
:103C2000C51A982EFA899F1A06FF09C00E7F9116B1
:103C300030F404FF06C002FD04C00F7E02C0E92C70
:103C400001C0E12E802F90E004FF0CC0FE01E90DC1
:103C5000F11D2081203311F4097E09C0E39402FF95
:103C600006C004C086789070009709F0E394C02ED7
:103C7000DD2403FD14C000FF0FC0EF1428F4192D3C
:103C80001F0D1E19EF2C08C0192D06C080E290E010
:103C9000B5010E949922E394EF14C0F304C0EF141D
:103CA00010F4FE1801C0FF24C4FE0FC080E390E0B2
:103CB000B5010E949922C2FE1FC0C1FE03C088E563
:103CC00090E010C088E790E00DC0C6018678907043
:103CD000009791F0C1FC02C080E201C08BE207FDB9
:103CE0008DE290E0B5010E94992206C080E390E049
:103CF000B5010E94992211509116C0F39A94E1E007
:103D0000F0E0EC0FFD1FE90DF11D808190E0B501A1
:103D10000E949922992091F706C080E290E0B501B7
:103D20000E949922FA94FF20C1F75FCCF501268109
:103D3000378102C02FEF3FEFC9016396E2E10C9497
:103D40000D215058BB27AA270ED070C161D130F089
:103D500066D120F031F49F3F11F41EF456C10EF4E9
:103D6000E095E7FB4CC1E92F72D180F3BA176207E7
:103D700073078407950718F071F49EF58AC10EF455
:103D8000E0950B2EBA2FA02D0B01B90190010C016B
:103D9000CA01A0011124FF27591B99F0593F50F483
:103DA000503E68F11A16F040A22F232F342F4427DB
:103DB000585FF3CF469537952795A795F0405395D3
:103DC000C9F77EF41F16BA0B620B730B840BBAF0A3
:103DD0009150A1F0FF0FBB1F661F771F881FC2F70E
:103DE0000EC0BA0F621F731F841F48F48795779522
:103DF0006795B795F7959E3F08F0B3CF9395880FD9
:103E000008F09927EE0F979587950895D4D008F478
:103E100081E008950CD00AC102D140F0F9D030F011
:103E200021F45F3F19F0EBC0511134C1EEC00FD146
:103E300098F39923C9F35523B1F3951B550BBB2771
:103E4000AA2762177307840738F09F5F5F4F220F1E
:103E5000331F441FAA1FA9F333D00E2E3AF0E0E817
:103E600030D091505040E695001CCAF729D0FE2F63
:103E700027D0660F771F881FBB1F261737074807F5
:103E8000AB07B0E809F0BB0B802DBF01FF279358AB
:103E90005F4F2AF09E3F510568F0B1C0FBC05F3F05
:103EA000ECF3983EDCF3869577956795B795F79593
:103EB0009F5FC9F7880F911D9695879597F908958B
:103EC000E1E0660F771F881FBB1F62177307840727
:103ED000BA0720F0621B730B840BBA0BEE1F88F736
:103EE000E0950895BCD088F09F5790F0B92F99279E
:103EF000B751A0F0D1F0660F771F881F991F1AF0F5
:103F0000BA95C9F712C0B13081F0C3D0B1E00895BD
:103F1000C0C0672F782F8827B85F39F0B93FCCF33E
:103F2000869577956795B395D9F73EF490958095EA
:103F3000709561957F4F8F4F9F4F0895E89409C00A
:103F400097FB3EF490958095709561957F4F8F4FCC
:103F50009F4F9923A9F0F92F96E9BB279395F695E2
:103F6000879577956795B795F111F8CFFAF4BB0F60
:103F700011F460FF1BC06F5F7F4F8F4F9F4F16C0C4
:103F8000882311F096E911C0772321F09EE8872F4E
:103F9000762F05C0662371F096E8862F70E060E00A
:103FA0002AF09A95660F771F881FDAF7880F969583
:103FB000879597F90895990F0008550FAA0BE0E827
:103FC000FEEF16161706E807F907C0F012161306DB
:103FD000E407F50798F0621B730B840B950B39F41B
:103FE0000A2661F0232B242B252B21F408950A2681
:103FF00009F4A140A6958FEF811D811D089597F9C1
:104000009F6780E870E060E008959FEF80EC08957E
:1040100000240A94161617061806090608950024A7
:104020000A9412161306140605060895092E039421
:10403000000C11F4882352F0BB0F40F4BF2B11F495
:1040400060FF04C06F5F7F4F8F4F9F4F089557FDF4
:104050009058440F551F59F05F3F71F04795880FF6
:1040600097FB991F61F09F3F79F08795089512168D
:1040700013061406551FF2CF4695F1DF08C0161639
:1040800017061806991FF1CF8695710561050894EA
:104090000895E894BB2766277727CB0197F9089501
:1040A0008ADF08F48FEF08950BD0C0CFB1DF28F07E
:1040B000B6DF18F0952309F0A2CFA7CF1124EACFDD
:1040C000C6DFA0F3959FD1F3950F50E0551F629F77
:1040D000F001729FBB27F00DB11D639FAA27F00D61
:1040E000B11DAA1F649F6627B00DA11D661F829F88
:1040F0002227B00DA11D621F739FB00DA11D621F6D
:10410000839FA00D611D221F749F3327A00D611D89
:10411000231F849F600D211D822F762F6A2F11246B
:104120009F5750408AF0E1F088234AF0EE0FFF1FBE
:10413000BB1F661F771F881F91505040A9F79E3FF5
:10414000510570F05CCFA6CF5F3FECF3983EDCF3F7
:10415000869577956795B795F795E7959F5FC1F732
:10416000FE2B880F911D9695879597F90895629F6C
:10417000D001739FF001829FE00DF11D649FE00D5F
:10418000F11D929FF00D839FF00D749FF00D659FC0
:10419000F00D9927729FB00DE11DF91F639FB00DBF
:1041A000E11DF91FBD01CF011124089597FB092ED0
:1041B00005260ED057FD04D04BD00AD0001C38F491
:1041C00050954095309521953F4F4F4F5F4F089543
:1041D000F6F790958095709561957F4F8F4F9F4F23
:1041E00008952F923F924F925F926F927F928F929B
:1041F0009F92AF92BF92CF92DF92EF92FF920F9376
:104200001F93CF93DF93CDB7DEB7CA1BDB0B0FB67F
:10421000F894DEBF0FBECDBF09942A88398848883C
:104220005F846E847D848C849B84AA84B984C884D2
:10423000DF80EE80FD800C811B81AA81B981CE0FC9
:10424000D11D0FB6F894DEBF0FBECDBFED010895AE
:10425000A1E21A2EAA1BBB1BFD010DC0AA1FBB1F8A
:10426000EE1FFF1FA217B307E407F50720F0A21BFC
:10427000B30BE40BF50B661F771F881F991F1A9469
:1042800069F760957095809590959B01AC01BD0193
:10429000CF010895A0E0B0E0E0E5F1E20C94F92050
:1042A000EC01688179818A819B81611571058105A5
:1042B000910521F464E279ED8BE597E02DE133EF90
:1042C00041E050E00E94D62079018A0127EA31E4DA
:1042D00040E050E00E94B7205B016C01C801B701CB
:1042E0002CEE34EF4FEF5FEF0E94B7206A0D7B1D7D
:1042F0008C1D9D1D97FF04C0615070408040904808
:10430000688379838A839B837F77CB01CDB7DEB7C0
:10431000EAE00C9415210E944A21089585E291E07B
:104320000E944A210895A0E0B0E080932501909377
:104330002601A0932701B09328010895283008F0A2
:1043400027E03327DA01990F311D87FD9160009630
:104350006105710539F432602E5F3D9330E32A9593
:10436000E1F708959F3F30F080387105610509F04D
:104370003C5F3C5F3D93913008F08068911DDF9376
:10438000CF931F930F93FF92EF92192F987F9695DB
:10439000E92F96959695E90FFF27E653FF4F99274A
:1043A0003327EE24FF24A701E70105900894079422
:1043B00028F4360FE71EF81E491F511D660F771FA0
:1043C000881F991F0694A1F70590079428F4E70E1B
:1043D000F81E491F561FC11D770F881F991F661FA2
:1043E0000694A1F70590079428F4F80E491F561F6C
:1043F000C71FD11D880F991F661F771F0694A1F74D
:104400000590079420F4490F561FC71FD81F990F16
:10441000661F771F881F0694A9F78491109517705F
:1044200041F0D695C79557954795F794E7941A9517
:10443000C1F7E0E7F0E0689415901591359165912A
:10444000959105907FE27395E118F10A430B560BA5
:10445000C90BD009C0F7E10CF11E431F561FC91F3D
:10446000D01D7EF4703311F48A95E6CFE8940150A4
:1044700030F0080F0AF40027021708F4202F2395C4
:10448000022F7A3328F079E37D932A95E9F710C05B
:104490007D932A9589F60694979567953795179594
:1044A0001794E118F10A430B560BC90BD00998F089
:1044B00023957E9173957A3308F070E37C932013F3
:1044C000B8F77E9170617D9330F0839571E37D93B1
:1044D00070E32A95E1F71124EF90FF900F911F915F
:1044E000CF91DF91992787FD90950895FC01059064
:1044F000615070400110D8F7809590958E0F9F1FE6
:104500000895FB01DC0104C08D910190801921F414
:1045100041505040C8F7881B990B0895FC01615029
:10452000704001900110D8F7809590958E0F9F1FD5
:1045300008950F931F93CF93DF938C01EB018B8131
:1045400081FF1BC082FF0DC02E813F818C819D8128
:104550002817390764F4E881F9810193F983E88326
:1045600006C0E885F985802F0995009731F48E8182
:104570009F8101969F838E8302C00FEF1FEFC801BA
:10458000DF91CF911F910F910895FA01AA2728304A
:1045900051F1203181F1E8946F936E7F6E5F7F4F10
:1045A0008F4F9F4FAF4FB1E03ED0B4E03CD0670F8C
:1045B000781F891F9A1FA11D680F791F8A1F911DDF
:1045C000A11D6A0F711D811D911DA11D20D009F42F
:1045D00068943F912AE0269F11243019305D319371
:1045E000DEF6CF010895462F4770405D4193B3E05A
:1045F0000FD0C9F7F6CF462F4F70405D4A3318F001
:10460000495D31FD4052419302D0A9F7EACFB4E0B1
:10461000A6959795879577956795BA95C9F7009769
:104620006105710508959B01AC010A2E069457950A
:10463000479537952795BA95C9F7620F731F841F61
:10464000951FA01D0895DC01CB01FC01F999FECF57
:1046500006C0F2BDE1BDF89A319600B40D9241500A
:104660005040B8F70895DC01CB0103C02D910E94A2
:104670003E2341505040D0F70895262FF999FECFA0
:104680001FBA92BD81BD20BD0FB6F894FA9AF99A6F
:0A4690000FBE01960895F894FFCFC5
:10469A00020AD7A33E0000803F0000003F0000004E
:1046AA00000000803F0000003F0000803F000080C3
:0A46BA003F0000803F0100000000F7
:00000001FF
