:100000000C94B5000C94D2000C94D2000C94D20045
:100010000C94D2000C94D2000C94D2000C94D20018
:100020000C94D2000C94D2000C94D2000C94D20008
:100030000C94D2000C9474340C94D2000C94D20022
:100040000C94D2000C9457340C94D2000C94D2002F
:100050000C94D2000C9431340C94D2000C94D20045
:100060000C94D2000C94D2006E616E00696E660032
:1000700000407A10F35A00A0724E18090010A5D45F
:10008000E80000E87648170000E40B54020000CABC
:100090009A3B000000E1F505000080969800000002
:1000A00040420F000000A086010000001027000061
:1000B0000000E803000000006400000000000A00E7
:1000C000000000000100000000002C76D888DC67EA
:1000D0004F0823DFC1DFAE59E1B1B796E5E3E45342
:1000E000C63AE651997696E8E6C28426EB898C9B5F
:1000F00062ED407C6FFCEFBC9C9F40F2BAA56FA5FF
:10010000F490055A2AF75C936B6CF9676DC11BFC80
:10011000E0E40D47FEF520E6B500D0ED902E03009B
:10012000943577050080841E080000204E0A0000E8
:1001300000C80C333333330F986E12831141EF8DA7
:100140002114893BE65516CFFEE6DB18D1844B38E7
:100150001BF77C1D901DA4BBE424203284725E2218
:100160008100C9F124ECA1E53D2711241FBECFEF8A
:10017000D8E0DEBFCDBF11E0A0E0B1E0EEEDFEE7DC
:1001800002C005900D92A037B107D9F718E0A0E79B
:10019000B1E001C01D92AC31B107E1F70E94D4007B
:1001A0000C946D3F0C9400000F931F93DF93CF933B
:1001B00000D000D0CDB7DEB70E94E12E8E010F5FD8
:1001C0001F4FC80160E070E044E050E00E94453FEE
:1001D00089819A81AB81BC810E94B53D89819A81D8
:1001E000AB81BC810196A11DB11D89839A83AB832C
:1001F000BC83C80160E070E044E050E00E94553FDD
:1002000080E090E00E94B9020E9432030E940D0833
:100210000E94852A0E94FF2DFDCFEF92FF920F933F
:100220001F93DF93CF9300D000D0CDB7DEB780E02F
:10023000E82E80E0F82E8E010F5F1F4FC801B70136
:1002400044E050E00E94453F89819A81AB81BC81A6
:100250000E94B53D89819A81AB81BC810196A11D27
:10026000B11D89839A83AB83BC83C801B70144E085
:1002700050E00E94553F0F900F900F900F90CF913C
:10028000DF911F910F91FF90EF90089583E280938B
:10029000B00021E02093B40083E08093B30089E0B4
:1002A0008093B10080E28093800081E090E09093A1
:1002B00089008093880082E090E090938B00809387
:1002C0008A0084E290E2909387008093860081E127
:1002D0008093810020936F0078940895229A2A9A3F
:1002E000239A259A2D9880E58CBD8DB581608DBDB2
:1002F00008959CB5259A8CB58F7B8CBD2D9A2D9831
:100300009CBD0895982F96959695E92FEE0FE90FCD
:10031000F0E0EC50FD4FDF011196990F990F891B0A
:100320008130C1F0813028F0823021F1833039F002
:1003300008958081807C6F73862B80830895660F7B
:10034000660F11968C9111978370682B11966C93A0
:100350001197089590819F73862F8295880F880F3B
:10036000807C892B8083669566958181807F682B50
:1003700061830895862F8295807F91819F70892B5C
:10038000818362956F7011968C9111978C7F682B89
:1003900011966C93119708950F931F93582F082F60
:1003A0000295000F000F007C182F16951695782FD8
:1003B0007295707F682F62956F70550F550F20E012
:1003C00030E08F7309C09081907C982B90832F5FD1
:1003D0003F4F2031310521F1422F922F969596956E
:1003E000E92FEE0FE90FF0E0EC50FD4FDF01119621
:1003F000990F990F491B413019F1413020F34230D8
:1004000091F0433021F711969C9111979370952BA1
:1004100011969C9311972F5F3F4F20313105E1F6E4
:100420001F910F91089591819F70972B9183119641
:100430009C9111979C7F962B11969C931197C7CFF7
:1004400090819F73902B90839181907F912B9183CA
:10045000BECF8EBD0DB407FEFDCF0895289AE0E013
:10046000F3E082918EBD0DB407FEFDCF82E0E43F44
:10047000F807B9F7299A299888E11EBC0DB407FE40
:10048000FDCF8150D1F79CB5259A8CB58F7B8CBD63
:100490002D9A2D989CBD0895982F9695E8E16E9F12
:1004A000F0011124292F220F290FE20FF11DEC5822
:1004B000FE4FDF011196990F891B31F44083818132
:1004C000807F852B81830895813009F00895842FE2
:1004D0008295807F91819F70892B8183529542956F
:1004E0004F7045275F70452711964C9311970895DB
:1004F000CF93DF93DA01982F9695E8E16E9FF00194
:100500001124292F220F290FE20FF11DEC58FE4F65
:10051000EF012196990F891B99F4208130E0119603
:100520003C932E93818190E08F709070982F882754
:10053000822B932B11969C938E93DF91CF910895EC
:100540008130D9F7898190E082959295907F9827A4
:10055000807F982711969C938E93218122952F70EE
:1005600030E0282B392B11963C932E93DF91CF91BD
:100570000895282F592F482F4295407F92958295B4
:100580008F7089279F708927382FE4E7F1E080E09A
:1005900090E0DC01AC58BE4F2083652F6F70642B58
:1005A00011966C93119712963C93DC01A958BE4F9B
:1005B0002383652F6F70642B11966C93119712969D
:1005C0003C93DC01A658BE4F2683652F6F70642BC9
:1005D00011966C93119712963C93DC01A358BE4F71
:1005E0002187652F6F70642B11966C93119712966B
:1005F0003C93DC01A058BE4F2487652F6F70642B9D
:1006000011966C93119712963C93DC01AD57BE4F37
:100610002787652F6F70642B11966C931197129634
:100620003C93DC01AA57BE4F228B652F6F70642B61
:1006300011966C93119712963C93DC01A757BE4F0D
:10064000258B652F6F70642B11966C931197129602
:100650003C9312974896789661E08038960709F0A7
:1006600098CF0895ACE1B6E0E4E7F1E080E891E0EE
:1006700001900D920197E1F708950F931F93CF9387
:10068000DF93EC016C817D818E819F810E94943B80
:10069000162F688179818A819B810E94943B6F73B8
:1006A000812F8295880F880F807C862B8093F4029F
:1006B000688579858A859B850E94943B862F8295E3
:1006C000807F169516951F70812B8093F5021091EF
:1006D000F6021C7F62956F70162B1093F602137052
:1006E000688179818A819B810E94943B660F660FA5
:1006F000612B6093F602688579858A859B850E94C7
:10070000943B062F6C817D818E819F810E94943B5A
:100710006F73802F8295880F880F807C862B809343
:10072000F7021091F802107F06950695102B109392
:10073000F802688179818A819B810E94943B862F8F
:100740008295807F1F70812B8093F8021091F902AF
:100750001C7F62956F70162B1093F90213706C81D9
:100760007D818E819F810E94943B660F660F612B75
:100770006093F9021091FA02107C688579858A8568
:100780009B850E94943B6F73162B1093FA0268812D
:1007900079818A819B810E94943B1F73862F829569
:1007A000880F880F807C812B8093FA021091FB02C6
:1007B000107F66956695162B1093FB026C817D81E8
:1007C0008E819F810E94943B862F8295807F1F702F
:1007D000812B8093FB021091FC021C7F62956F704D
:1007E000162B1093FC021370688579858A859B858A
:1007F0000E94943B660F660F612B6093FC02DF91B1
:10080000CF911F910F9108952898209A2A9A229AA1
:10081000539A219A80EF8093F4028FEF8093F50230
:1008200093EC9093F6028093F7029FE09093F80286
:100830008093F9029FE39093FA029CEF9093FB025E
:100840008093FC02229A2A9A239A259A2D9880E571
:100850008CBD8DB581608DBD289AE0E0F3E082917A
:100860008EBD0DB407FEFDCF22E0E43FF207B9F7DD
:10087000299A299888E11EBC0DB407FEFDCF81504E
:10088000D1F79CB5259A8CB58F7B8CBD2D9A2D9870
:100890009CBD21E02093710128988DB580688DBDA5
:1008A0008CB580688CBD83E28093B0002093B40047
:1008B00083E08093B30089E08093B10080E280936D
:1008C000800081E090E0909389008093880082E02E
:1008D00090E090938B0080938A0084E290E2909362
:1008E00087008093860081E18093810020936F00D0
:1008F0007894E4E7F1E080E090E0DC01AC58BE4F92
:10090000108211961C92119712961C92DC01A95824
:10091000BE4F138211961C92119712961C92DC0105
:10092000A658BE4F168211961C92119712961C92D1
:10093000DC01A358BE4F118611961C921197129696
:100940001C92DC01A058BE4F148611961C92119780
:1009500012961C92DC01AD57BE4F178611961C9261
:10096000119712961C92DC01AA57BE4F128A11965B
:100970001C92119712961C92DC01A757BE4F158A44
:1009800011961C92119712961C921297489678967F
:1009900021E08038920709F0B0CFACE1B6E0E4E79F
:1009A000F1E080E891E001900D920197E1F7089560
:1009B000569A579A5E985F980895EF92FF920F9318
:1009C0001F93CF93DF93982F990F980F892F8695B8
:1009D000440F440F460FE8E14E9FF0011124482FC9
:1009E000440F480FDF01A40FB11DAC58BE4FED01FD
:1009F0002196880F492F481B09F060C02C9311964F
:100A00008C911197807F832B11968C93392F3F5FA8
:100A1000832F8695282F220F280FDF01A20FB11DEB
:100A2000AC58BE4FED012196880F381B91F50C9301
:100A300011968C911197807F812B11968C939E5FDC
:100A4000892F8695282F220F280FE20FF11DEC58D1
:100A5000FE4FDF011196880F981B09F445C09130B5
:100A600089F48E2D8295807F91819F70892B81835F
:100A7000F294E2947FE0E722EF24F722EF2411962C
:100A8000EC921197DF91CF911F910F91FF90EF9012
:100A900008953130A1F6802F8295807F11962C9198
:100AA00011972F70822B11968C93119712950295A6
:100AB0000F7001271F7001270983C1CF413009F052
:100AC000A5CF822F8295807F11964C9111974F7000
:100AD000842B11968C931197329522952F70232792
:100AE0003F702327298392CFE0828181807F8F29E5
:100AF0008183DF91CF911F910F91FF90EF90089527
:100B0000AF92BF92CF92DF92FF920F931F93CF933A
:100B1000DF93F62E042FE901182F110F180F6881AB
:100B200079818A819B8120E030EF4FE755E40E9474
:100B3000763C0E94943B6B016C817D818E819F810C
:100B400020E030EF4FE755E40E94763C0E94943B52
:100B50005B01688579858A859B8520E030EF4FE7CA
:100B600055E40E94763C0E94943B812F8695000FAD
:100B7000000F0F0DE8E10E9FF0011124982F990F3F
:100B8000980FDF01A90FB11DAC58BE4FED012196A2
:100B9000880F912F981B09F063C0CC9211968C910D
:100BA0001197807F8D2911968C93212F2F5F822F93
:100BB0008695982F990F980FDF01A90FB11DAC589A
:100BC000BE4FED012196880F281BA1F5AC9211961E
:100BD0008C911197807F8B2911968C931E5F812FAA
:100BE0008695982F990F980FE90FF11DEC58FE4F3D
:100BF000DF011196880F181B09F449C0113081F4E8
:100C0000862F8295807F91819F70892B8183729539
:100C100062956F7067277F70672711966C931197A5
:100C2000DF91CF911F910F91FF90DF90CF90BF90F8
:100C3000AF900895213091F68A2D8295807F11968C
:100C40009C9111979F70892B11968C931197B29458
:100C5000A2940FE0A022AB24B022AB24A982BECF85
:100C6000913009F0A2CF8C2D8295807F11969C91B6
:100C700011979F70892B11968C931197D294C294DF
:100C80008FE0C822CD24D822CD24C9828ECF6083A4
:100C90008181807F872B8183C3CFCF92DF92EF92B8
:100CA000FF920F931F93CF93DF93E901982F990F32
:100CB000980F892F8695440F440F460FA8E14A9F4D
:100CC000D0011124282F220F280FAD01420F511DF2
:100CD0009A012C583E4FA9014F5F5F4F880F692F33
:100CE000681B09F098C0F901C080DD24218130E043
:100CF0002F703070322F2227C22AD32A692F6F5FBC
:100D0000862F8695282F220F280FAD01420F511DE7
:100D10009A012C583E4FA9014F5F5F4F880F681B07
:100D200009F065C0F901008110E0218130E02F70E9
:100D30003070322F2227022B132B9E5F892F86952E
:100D4000282F220F280FA20FB11DAC58BE4F9D01B6
:100D50002F5F3F4F880F981B09F472C0913089F4C0
:100D6000F901E180FF24E294F29490EFF922FE244D
:100D7000E922FE2411968C9182958F7090E0E82AEA
:100D8000F92AB60180E090E00E94C03B20E030EFFD
:100D90004FE755E40E942C3B688379838A839B83C9
:100DA000B80180E090E00E94C03B20E030EF4FE7C8
:100DB00055E40E942C3B6C837D838E839F83B70117
:100DC00080E090E00E94C03B20E030EF4FE755E428
:100DD0000E942C3B688779878A879B87DF91CF9118
:100DE0001F910F91FF90EF90DF90CF9008956130A9
:100DF00009F0A3CFFA01018110E002951295107F4E
:100E00001027007F1027F901218122952F7030E0F3
:100E1000022B132B92CF613009F070CFFA01C18001
:100E2000DD24C294D29460EFD622DC24C622DC24D6
:100E3000F901218122952F7030E0C22AD32A5ECF9A
:100E4000EC90FF2411968C91119790E08F70907028
:100E5000982F8827E82AF92A94CFAF92BF92CF9291
:100E6000DF92EF92FF921F93CF93DF937C01EB0110
:100E7000FC018081182F110F180F688179818A81F8
:100E80009B8120E030EF4FE755E40E94763C0E94C2
:100E9000943B6B016C817D818E819F8120E030EFDE
:100EA0004FE755E40E94763C0E94943B5B016885C5
:100EB00079858A859B8520E030EF4FE755E40E94D5
:100EC000763C0E94943B912F9695F7018281880F82
:100ED000880F2181820FE8E18E9FF0011124892F74
:100EE000880F890FDF01A80FB11DAC58BE4FED016F
:100EF0002196990F812F891B09F063C0CC9211961E
:100F00008C911197807F8D2911968C93212F2F5FC3
:100F1000822F8695982F990F980FDF01A90FB11D89
:100F2000AC58BE4FED012196880F281BA1F5AC925D
:100F300011968C911197807F8B2911968C931E5F4F
:100F4000812F8695982F990F980FE90FF11DEC5876
:100F5000FE4FDF011196880F181B09F449C01130AC
:100F600081F4862F8295807F91819F70892B818368
:100F7000729562956F7067277F70672711966C93E3
:100F80001197DF91CF911F91FF90EF90DF90CF905D
:100F9000BF90AF900895213091F68A2D8295807F81
:100FA00011969C9111979F70892B11968C93119794
:100FB000B294A294AFE0AA22AB24BA22AB24A982B5
:100FC000BECF813009F0A2CF8C2D8295807F119603
:100FD0009C9111979F70892B11968C931197D294A5
:100FE000C294BFE0CB22CD24DB22CD24C9828ECF98
:100FF00060838181807F872B8183C3CFFC019B012C
:101000008081618142810E944D060895E0E6F0E012
:1010100080818061808310820895569A579A5E98E5
:101020005F980E940404E0E6F0E0808180618083A4
:10103000108208956F927F928F929F92AF92BF928B
:10104000CF92DF92EF92FF920F931F93D62EC72E6F
:10105000B82EA92E922E832E742E652EA6019501F0
:10106000652F742F832F922F20E030E040E050E076
:101070000E94283B87FF10C0A6019501652F742FA1
:10108000832F922F20E030E040E85FE30E94C43AD3
:10109000D62EC72EB82EA92EA6019501652F7C2D20
:1010A000832F9A2D20E030E040E85FE30E94723CFD
:1010B000181684F4A6019501652F7C2D832F9A2D97
:1010C00020E030E040E85FE30E94C33AD62EC72E0E
:1010D000B82EA92EA6019501652F7C2D832F9A2D60
:1010E00020E030E040EC50E40E94763C20E030E02C
:1010F00040E85FE30E94283B87FD6AC0A601950196
:10110000652F7C2D832F9A2DD601F5012B2F3C2D99
:101110004F2F5A2D0E94C43A20E030E040E85FE3B0
:101120000E94283B87FD51C0A6019501652F7C2DAB
:10113000832F9A2D20E030E040E450E40E94763C7A
:1011400020E030E040E050E40E94283B87FF59C097
:101150006E2D7F2D802F912FD401F3012B2F382D51
:101160004F2F562D0E94C33A7B018C016BEA7AEA1D
:101170008AE29FE3D601F5012B2F3C2D4F2F5A2DEC
:101180000E94C33A9B01AC01C801B7010E94763CA2
:1011900020E030E040EC50E40E94763CD401F301C2
:1011A0002B2F382D4F2F562D0E94C43AF72E7F2D0E
:1011B0001F910F91FF90EF90DF90CF90BF90AF9075
:1011C0009F908F907F906F9008956E2DC801EFCF04
:1011D0006E2D7F2D802F912FD401F3012B2F382DD1
:1011E0004F2F562D0E94C33A20E030E040EC50E4EF
:1011F0000E94763CD601F5012B2F3C2D4F2F5A2D06
:10120000CBCF692DF82C872D962DD1CF2F923F92E1
:101210004F925F926F927F928F929F92AF92BF9206
:10122000CF92DF92EF92FF920F931F93DF93CF93B2
:10123000CDB7DEB72F970FB6F894DEBF0FBECDBF88
:10124000FC017E876D87E080F180028113816480DC
:10125000758086809780A084B184C284D384C401C1
:10126000B30120E030E040E050E00E94283B8823BA
:1012700009F420C1C601B50120E030E040E05FE3A1
:101280000E94283B87FFF3C0C401B30120E030E097
:1012900040E85FE30E94C43AA60195010E94763CB3
:1012A000562E472E382E292EC601B501A6019501CE
:1012B0000E94C43AD201F1012B2F342D4F2F522D11
:1012C0000E94C33A69837A838B839C836E2D7F2D22
:1012D000802F912F2BEA3AEA4AEA5EE30E94C43A51
:1012E000A62ED72EC82EB92E6E2D7F2D802F912F92
:1012F0002BEA3AEA4AEA5EE30E94C33A6D837E83B0
:101300008F839887962E672E882E792E6A2D7D2DB5
:101310008C2D9B2D20E030E040E050E00E94283BE7
:1013200087FF0EC06A2D7D2D8C2D9B2D20E030E097
:1013300040E85FE30E94C43AA62ED72EC82EB92EED
:101340006A2D7D2D8C2D9B2D20E030E040E85FE361
:101350000E94723C181674F46A2D7D2D8C2D9B2DE5
:1013600020E030E040E85FE30E94C33AA62ED72E8B
:10137000C82EB92E6A2D7D2D8C2D9B2D20E030E0BE
:1013800040EC50E40E94763C20E030E040E85FE32F
:101390000E94283B87FDB9C06A2D7D2D8C2D9B2D89
:1013A0002A2D3D2D4C2D5B2D0E94C43A20E030E0CB
:1013B00040E85FE30E94283B87FDABC26A2D7D2D8C
:1013C0008C2D9B2D20E030E040E450E40E94763CE0
:1013D00020E030E040E050E40E94283B87FF94C2C8
:1013E000A2019101652F742D832F922DE981FA813D
:1013F0002B812987AC81AF879F0149855A2F0E9495
:10140000C33A69877A878B879C876BEA7AEA8AE294
:101410009FE3EA2DFD2DAC2DBB2D9F01AD010E9458
:10142000C33A9B01AC0169857A858B859C850E94B6
:10143000763C20E030E040EC50E40E94763CB62F51
:10144000A72F89879F8779816A819B818C81272F2C
:10145000362F492F582FCA01B9016D01B984AF84C5
:101460002D2D3C2D4B2D5A2D0E94C43A7FC0C60114
:10147000B50120E030E040E05FE30E94723C87FD70
:1014800013CFC601B501A40193010E94C43A1B0108
:101490002C01C601B501A40193010E94763C9B0179
:1014A000AC01C201B1010E94C33A562E472E382E1C
:1014B000292EFACEAD85BE85AD92BD92CD92DC923D
:1014C0001397FD01A482B582C682D7821896AD9289
:1014D000BD92CD92DC921B972F960FB6F894DEBF8B
:1014E0000FBECDBFCF91DF911F910F91FF90EF9075
:1014F000DF90CF90BF90AF909F908F907F906F9034
:101500005F904F903F902F900895A2019101652F19
:10151000742D832F922DB981AA81EB81E987FC81FB
:10152000FF872B2F3A2FAF010E94C33A20E030E013
:1015300040EC50E40E94763C9B01AC016A2D7D2D6D
:101540008C2D9B2D0E94763C5B016C0179816A8118
:101550009B818C81272F362F492F582FCA01B90123
:101560002A2D3B2D4C2D5D2D0E94C43A382F292F5A
:10157000862F972FA32FB22FED85FE858083918331
:10158000A283B3836E2D7F2D802F912F20E030E03A
:1015900040E050E00E94283B87FF0CC06E2D7F2D5D
:1015A000802F912F20E030E040E85FE30E94C43AB2
:1015B0007B018C016E2D7F2D802F912F20E030E05C
:1015C00040E85FE30E94723C181664F46E2D7F2D94
:1015D000802F912F20E030E040E85FE30E94C33A83
:1015E0007B018C016E2D7F2D802F912F20E030E02C
:1015F00040EC50E40E94763C20E030E040E85FE3BD
:101600000E94283B87FD61C06E2D7F2D802F912F7A
:101610002E2D3F2D402F512F0E94C43A20E030E064
:1016200040E85FE30E94283B87FD78C16E2D7F2D47
:10163000802F912F20E030E040E450E40E94763C7F
:1016400020E030E040E050E40E94283B87FF57C193
:10165000A2019101652F742D832F922DA981DA802B
:10166000CB80BC812A2F3D2D4C2D5B2F0E94C33A8D
:101670005B016C016BEA7AEA8AE29FE32E2D3F2D33
:10168000402F512F0E94C33A9B01AC01C601B50106
:101690000E94763C20E030E040EC50E40E94763C32
:1016A000F62E072F182FB92F79816A819B818C81A3
:1016B000272F362F492F582FCA01B9012F2D302F30
:1016C000412F5B2F0E94C43A2FC0A2019101652FC8
:1016D000742D832F922DB981AA81DB80CC802B2F92
:1016E0003A2F4D2D5C2D0E94C33A20E030E040ECB3
:1016F00050E40E94763C9B01AC016E2D7F2D802F23
:10170000912F0E94763C7B018C0179816A81C60110
:10171000272F362F492F582FCA01B9012E2D3F2DC3
:10172000402F512F0E94C43A382F292F862F972FF0
:10173000A32FB22FED85FE8584839583A683B7837F
:101740005D814E813F812885652F742F832F922FD5
:1017500020E030E040E050E00E94283B87FF12C0CC
:101760005D814E813F812885652F742F832F922FB5
:1017700020E030E040E85FE30E94C43A962E672EF6
:10178000882E792E692D762D882D972D20E030E03A
:1017900040E85FE30E94723C181674F4692D762DC0
:1017A000882D972D20E030E040E85FE30E94C33AA7
:1017B000962E672E882E792E692D762D882D972DC1
:1017C00020E030E040EC50E40E94763C20E030E045
:1017D00040E85FE30E94283B87FD4BC0692D762DD2
:1017E000882D972D292D362D482D572D0E94C43A2E
:1017F00020E030E040E85FE30E94283B87FD6DC0B9
:10180000692D762D882D972D20E030E040E450E4BE
:101810000E94763C20E030E040E050E40E94283B0B
:1018200087FF68C0A2019101652F742D832F922D2F
:10183000B981AA811B810C812B2F3A2F412F502F68
:101840000E94C33A7B018C016BEA7AEA8AE29FE349
:10185000292D362D482D572D0E94C33A9B01AC01EE
:10186000C801B7010E94763C20E030E040EC50E433
:101870001CC0A2019101652F742D832F922DB98177
:10188000AA811B810C812B2F3A2F412F502F0E94B0
:10189000C33A20E030E040EC50E40E94763C9B01EB
:1018A000AC01692D762D882D972D0E94763C7B0109
:1018B0008C0179816A819B818C81272F362F492F5A
:1018C000582FCA01B9012E2D3F2D402F512F0E94B4
:1018D000C43A562E472E382E292EA2019101852F6B
:1018E000942DA32FB22DED85FE8580879187A28749
:1018F000B387F2CD59804A803B802C80EECF69813E
:101900007A818B819C8110CF69817A818B819C81C6
:101910002DCE652D742D832D922D28CE652D742D01
:10192000832D922D01CF2F923F924F925F926F9213
:101930007F928F929F92AF92BF92CF92DF92EF925F
:10194000FF920F931F93DF93CF9300D000D0CDB7BA
:10195000DEB79C838B832B0179018A0160E070E004
:1019600080E89FE30E94C33AD62EC72EB82EA92E38
:10197000C801B701D601F5012B2F3A2F4F2F5E2F4B
:101980000E94C43A362E272E89839A83C801B70154
:10199000F20120813181428153810E94763C3B01DA
:1019A0004C01A6019501652F742F832F922FEB8197
:1019B000FC8120813181428153810E94763C9B01D0
:1019C000AC01C401B3010E94C43AD10169809A807C
:1019D0002B2F3A2F462D592D0E942C3BEB81FC8159
:1019E0006083718382839383C801B701F2012481EC
:1019F0003581468157810E94763C3B014C01A6010E
:101A00009501652F742F832F922FEB81FC81248108
:101A10003581468157810E94763C9B01AC01C4010F
:101A2000B3010E94C43AD10199806A802B2F3A2FCA
:101A3000492D562D0E942C3BEB81FC8164837583DC
:101A400086839783C801B701F201208531854285DD
:101A500053850E94763C7B018C01A6019501652F80
:101A6000742F832F922FEB81FC8120853185428555
:101A700053850E94763C9B01AC01C801B7010E94CE
:101A8000C43AD1012B2F3A2F492D562D0E942C3BC1
:101A9000EB81FC8160877187828793870F900F901D
:101AA0000F900F90CF91DF911F910F91FF90EF90CA
:101AB000DF90CF90BF90AF909F908F907F906F906E
:101AC0005F904F903F902F900895EF92FF920F9369
:101AD0001F93CF93DF93EC018FEFE82E8FE7F82E63
:101AE000012D112D0E94B03D9C01B901882777FD81
:101AF0008095982F26E030E040E050E00E94D93CED
:101B0000A80197010E94F83C223081F1233070F443
:101B10002223F1F48981833028F78F5F8983DF9155
:101B2000CF911F910F91FF90EF900895243061F1B4
:101B3000243018F12530B1F68A81833098F68F5F12
:101B40008A83DF91CF911F910F91FF90EF900895BD
:101B5000213041F68981882329F281508983DF91E0
:101B6000CF911F910F91FF90EF9008958881882366
:101B700009F4B8CF81508883D2CF8881833008F0B0
:101B8000B1CF8F5F8883CBCF8A81882309F4AACF16
:101B900081508A83C4CFCF92DF92EF92FF920F934E
:101BA0001F93DF93CF93CDB7DEB72C970FB6F89482
:101BB000DEBF0FBECDBF6E010894C11CD11CD60183
:101BC000E0E1F1E08CE001900D928150E1F7C60177
:101BD00060E073E00E9406090E94B03D9C01B901DB
:101BE000882777FD8095982F660F771F881F991F8C
:101BF000660F771F881F991FFFEFEF2EFFE7FF2E5D
:101C0000012D112DA80197010E94F83C20930C038F
:101C10000E94B03D9C01B901882777FD8095982FDF
:101C2000660F771F881F991F660F771F881F991FE0
:101C3000A80197010E94F83C20930D030E94B03D3B
:101C40009C01B901882777FD8095982F660F771F33
:101C5000881F991F660F771F881F991FA80197017A
:101C60000E94F83C20930E030E94B03D9C01B901F4
:101C7000882777FD8095982F0E94C23B20E03EEF99
:101C80004FEF56E40E942C3B69837A838B839C83BD
:101C9000C6016FE073E00E9406090E94B03D9C01FE
:101CA000B901882777FD8095982F660F771F881FC9
:101CB000991F660F771F881F991FA80197010E941F
:101CC000F83C20931B030E94B03D9C01B90188277A
:101CD00077FD8095982F660F771F881F991F660FD5
:101CE000771F881F991FA80197010E94F83C209335
:101CF0001C030E94B03D9C01B901882777FD8095A7
:101D0000982F660F771F881F991F660F771F881FF0
:101D1000991FA80197010E94F83C20931D030E947F
:101D2000B03D9C01B901882777FD8095982F0E94CE
:101D3000C23B20E03EEF4FEF56E40E942C3B69830C
:101D40007A838B839C83C6016EE173E00E9406094F
:101D50000E94B03D9C01B901882777FD8095982F9E
:101D6000660F771F881F991F660F771F881F991F9F
:101D7000A80197010E94F83C20932A030E94B03DDD
:101D80009C01B901882777FD8095982F660F771FF2
:101D9000881F991F660F771F881F991FA801970139
:101DA0000E94F83C20932B030E94B03D9C01B90196
:101DB000882777FD8095982F660F771F881F991FBA
:101DC000660F771F881F991FA80197010E94F83C92
:101DD00020932C030E94B03D9C01B901882777FD18
:101DE0008095982F0E94C23B20E03EEF4FEF56E4D3
:101DF0000E942C3B69837A838B839C83C6016DE2AE
:101E000073E00E9406090E94B03D9C01B901882739
:101E100077FD8095982F660F771F881F991F660F93
:101E2000771F881F991FA80197010E94F83C2093F3
:101E300039030E94B03D9C01B901882777FD809548
:101E4000982F660F771F881F991F660F771F881FAF
:101E5000991FA80197010E94F83C20933A030E9421
:101E6000B03D9C01B901882777FD8095982F660FBA
:101E7000771F881F991F660F771F881F991FA8015A
:101E800097010E94F83C20933B030E94B03D9C01C7
:101E9000B901882777FD8095982F0E94C23B20E0EA
:101EA0003EEF4FEF56E40E942C3B69837A838B838D
:101EB0009C83C6016CE373E00E9406090E94B03D5A
:101EC0009C01B901882777FD8095982F660F771FB1
:101ED000881F991F660F771F881F991FA8019701F8
:101EE0000E94F83C209348030E94B03D9C01B90138
:101EF000882777FD8095982F660F771F881F991F79
:101F0000660F771F881F991FA80197010E94F83C50
:101F1000209349030E94B03D9C01B901882777FDB9
:101F20008095982F660F771F881F991F660F771F60
:101F3000881F991FA80197010E94F83C20934A032B
:101F40000E94B03D9C01B901882777FD8095982FAC
:101F50000E94C23B20E03EEF4FEF56E40E942C3B34
:101F600069837A838B839C83C6016BE473E00E9450
:101F700006090E94B03D9C01B901882777FD809534
:101F8000982F660F771F881F991F660F771F881F6E
:101F9000991FA80197010E94F83C209357030E94C3
:101FA000B03D9C01B901882777FD8095982F660F79
:101FB000771F881F991F660F771F881F991FA80119
:101FC00097010E94F83C209358030E94B03D9C0169
:101FD000B901882777FD8095982F660F771F881F96
:101FE000991F660F771F881F991FA80197010E94EC
:101FF000F83C209359030E94B03D9C01B901882709
:1020000077FD8095982F0E94C23B20E03EEF4FEF76
:1020100056E40E942C3B69837A838B839C83C601A0
:102020006AE573E00E9406090E94B03D9C01B90177
:10203000882777FD8095982F660F771F881F991F37
:10204000660F771F881F991FA80197010E94F83C0F
:10205000209366030E94B03D9C01B901882777FD5B
:102060008095982F660F771F881F991F660F771F1F
:10207000881F991FA80197010E94F83C20936703CD
:102080000E94B03D9C01B901882777FD8095982F6B
:10209000660F771F881F991F660F771F881F991F6C
:1020A000A80197010E94F83C209368030E94B03D6C
:1020B0009C01B901882777FD8095982F0E94C23B2B
:1020C00020E03EEF4FEF56E40E942C3B69837A8379
:1020D0008B839C83C60169E673E00E9406090E9417
:1020E000B03D9C01B901882777FD8095982F660F38
:1020F000771F881F991F660F771F881F991FA801D8
:1021000097010E94F83C209375030E94B03D9C010A
:10211000B901882777FD8095982F660F771F881F54
:10212000991F660F771F881F991FA80197010E94AA
:10213000F83C209376030E94B03D9C01B9018827AA
:1021400077FD8095982F660F771F881F991F660F60
:10215000771F881F991FA80197010E94F83C2093C0
:1021600077030E94B03D9C01B901882777FD8095D7
:10217000982F0E94C23B20E03EEF4FEF56E40E94B2
:102180002C3B69837A838B839C83C60168E773E069
:102190000E9406090E94B03D9C01B901882777FD85
:1021A0008095982F660F771F881F991F660F771FDE
:1021B000881F991FA80197010E94F83C209384036F
:1021C0000E94B03D9C01B901882777FD8095982F2A
:1021D000660F771F881F991F660F771F881F991F2B
:1021E000A80197010E94F83C209385030E94B03D0E
:1021F0009C01B901882777FD8095982F660F771F7E
:10220000881F991F660F771F881F991FA8019701C4
:102210000E94F83C209386030E94B03D9C01B901C6
:10222000882777FD8095982F0E94C23B20E03EEFE3
:102230004FEF56E40E942C3B69837A838B839C8307
:10224000C60167E873E00E9406090E94B03D9C0148
:10225000B901882777FD8095982F660F771F881F13
:10226000991F660F771F881F991FA80197010E9469
:10227000F83C209393030E94B03D9C01B90188274C
:1022800077FD8095982F660F771F881F991F660F1F
:10229000771F881F991FA80197010E94F83C20937F
:1022A00094030E94B03D9C01B901882777FD809579
:1022B000982F660F771F881F991F660F771F881F3B
:1022C000991FA80197010E94F83C209395030E9452
:1022D000B03D2C960FB6F894DEBF0FBECDBFCF91A8
:1022E000DF911F910F91FF90EF90DF90CF900895B5
:1022F00080E090E00E94B9028CE093E00E94650DBE
:102300008CE093E060E073E00E942D078BE193E0A6
:102310000E94650D8BE193E06FE073E00E942D0752
:102320008AE293E00E94650D8AE293E06EE173E039
:102330000E942D0789E393E00E94650D89E393E0F5
:102340006DE273E00E942D0788E493E00E94650D22
:1023500088E493E06CE373E00E942D0787E593E047
:102360000E94650D87E593E06BE473E00E942D0702
:1023700086E693E00E94650D86E693E06AE573E0E9
:102380000E942D0785E793E00E94650D85E793E0A5
:1023900069E673E00E942D0784E893E00E94650DD2
:1023A00084E893E068E773E00E942D0783E993E0F7
:1023B0000E94650D83E993E067E873E00E942D07B2
:1023C0000E94320388EE93E024EF31E0F901319767
:1023D000F1F70197D9F708950F931F93DF93CF93E8
:1023E000CDB7DEB72C970FB6F894DEBF0FBECDBFCA
:1023F0008E010F5F1F4FD801ECE1F1E08CE00190FE
:102400000D928150E1F780919603882309F4E8C08A
:10241000C80169E973E00E9406090E94B03D9C0171
:10242000B901882777FD8095982F0E94C23B20E054
:102430003EEF4FEF56E40E942C3B69837A838B83F7
:102440009C8380919603882309F43FC1C80168EA00
:1024500073E00E9406090E94B03D9C01B9018827E3
:1024600077FD8095982F0E94C23B20E03EEF4FEF12
:1024700056E40E942C3B69837A838B839C838091F2
:102480009603882309F4FAC0C80167EB73E00E9441
:1024900006090E94B03D9C01B901882777FD80950F
:1024A000982F0E94C23B20E03EEF4FEF56E40E947F
:1024B0002C3B69837A838B839C838091960388234A
:1024C00009F4B5C0C80166EC73E00E9406090E94D9
:1024D000B03D9C01B901882777FD8095982F0E9417
:1024E000C23B20E03EEF4FEF56E40E942C3B698355
:1024F0007A838B839C8380919603813029F4809129
:102500009703882309F47DC1C80165ED73E00E943B
:1025100006090E94B03D9C01B901882777FD80958E
:10252000982F0E94C23B20E03EEF4FEF56E40E94FE
:102530002C3B69837A838B839C83809196038130C3
:1025400009F438C1C80164EE73E00E9406090E94D4
:10255000B03D9C01B901882777FD8095982F0E9496
:10256000C23B20E03EEF4FEF56E40E942C3B6983D4
:102570007A838B839C8380919603813009F4F3C026
:10258000C80163EF73E00E9406090E94B03D9C0100
:10259000B901882777FD8095982F0E94C23B20E0E3
:1025A0003EEF4FEF56E40E942C3B69837A838B8386
:1025B0009C8380919603813009F4AEC0C80162E02B
:1025C00074E00E9406090E94B03D2C960FB6F89464
:1025D000DEBF0FBECDBFCF91DF911F910F91089548
:1025E00080919703882309F013CF80919803882363
:1025F00009F00ECF80E090E0A0E0B0E08093990376
:1026000090939A03A0939B03B0939C0380939D03A4
:1026100090939E03A0939F03B093A0038093A10384
:102620009093A203A093A303B093A40353C08091FB
:102630009703813009F046CF80919803813009F0EB
:1026400041CF80E090E0A0E0B0E08093C60390939B
:10265000C703A093C803B093C9038093CA039093A0
:10266000CB03A093CC03B093CD038093CE03909380
:10267000CF03A093D003B093D10346CF80919703AB
:10268000813009F001CF80919803882309F0FCCEB6
:1026900080E090E0A0E0B0E08093B7039093B803AF
:1026A000A093B903B093BA038093BB039093BC0388
:1026B000A093BD03B093BE038093BF039093C00368
:1026C000A093C103B093C203B7CF8091970388232F
:1026D00009F0BCCE80919803813009F0B7CE80E03C
:1026E00090E0A0E0B0E08093A8039093A903A093AA
:1026F000AA03B093AB038093AC039093AD03A09374
:10270000AE03B093AF038093B0039093B103A09353
:10271000B203B093B303B8CE80919703813009F030
:102720004DCF80919803813009F048CF80E090E050
:10273000A0E0B0E08093020490930304A09304040B
:10274000B09305048093060490930704A0930804B3
:10275000B093090480930A0490930B04A0930C0493
:10276000B0930D0432CF80919703813009F008CFE8
:1027700080919803882309F003CF80E090E0A0E0E7
:10278000B0E08093F3039093F403A093F503B09328
:10279000F6038093F7039093F803A093F903B093A3
:1027A000FA038093FB039093FC03A093FD03B09383
:1027B000FE03B7CF80919703882309F0C3CE8091A1
:1027C0009803813009F0BECE80E090E0A0E0B0E058
:1027D0008093E4039093E503A093E603B093E703AB
:1027E0008093E8039093E903A093EA03B093EB038B
:1027F0008093EC039093ED03A093EE03B093EF036B
:10280000BFCE80919803882309F07ECE80E090E0CF
:10281000A0E0B0E08093D5039093D603A093D703B4
:10282000B093D8038093D9039093DA03A093DB038A
:10283000B093DC038093DD039093DE03A093DF036A
:10284000B093E003BCCFDF92EF92FF920F931F9300
:10285000CF93DF93EC018B014881D42E4430B8F53F
:102860005981543040F54A81E52E4430B8F4F42EB5
:1028700003C08F2D843088F48D2D6E2D4F2D98013F
:102880000E948005F3944A81242F30E02F5F3F4F50
:102890008F2D90E02817390764F75981E394852F2D
:1028A00090E001962E2D30E0821793071CF08E2DBC
:1028B0008430D8F24881D394842F90E001962D2D56
:1028C00030E0821793071CF08D2D843050F2DF9199
:1028D000CF911F910F91FF90EF90DF9008952F926D
:1028E0003F924F925F926F927F928F929F92AF92A0
:1028F000BF92CF92DF92EF92FF920F931F93DF93DD
:10290000CF93CDB7DEB72C970FB6F894DEBF0FBECE
:10291000CDBF1C821B821E821D828B806B807C80BF
:102920000894611C711C1A821982442455244D811B
:102930005E818CE390E0489F9001499F300D589F45
:10294000300D11243A8729879980E980FA8008940C
:10295000E11CF11C01E010E0AA2422243324C2016E
:10296000880F991FA201440F551F42955295507F21
:102970005427407F5427481B590B58874F83910198
:1029800022953295307F3227207F32272219330952
:102990004F815885240F351F89859A85280F391F47
:1029A00027563C4F982D943080F5B82C892D8430D3
:1029B00018F5C92C4A2D4430B0F4DA2C3C872B870B
:1029C00003C0ED2DE43068F48B2D6C2D4D2D2B853F
:1029D0003C850E948005D3948D2D90E0081719073F
:1029E00084F72B853C85C3948C2D90E0E816F9067E
:1029F0001CF0FC2DF430F0F2B3948B2D90E06816AF
:102A000079061CF05B2D543088F20894211C311C8F
:102A100092E0A90E0E5F1F4FEA2DE43009F0AFCF10
:102A20000894411C511C29813A812E5F3F4F3A8303
:102A3000298332E04316510409F086CF8D819E81AF
:102A400001969E838D83EB81FC813296FC83EB8320
:102A50008230910509F061CF2C960FB6F894DEBF55
:102A60000FBECDBFCF91DF911F910F91FF90EF90DF
:102A7000DF90CF90BF90AF909F908F907F906F909E
:102A80005F904F903F902F9008950F931F93DF9387
:102A9000CF930F92CDB7DEB78C0169830E94B03D12
:102AA000AA2797FDA095BA2F6981262F30E040E034
:102AB00050E0BC01CD010E94D93C2FEF3FE740E040
:102AC00050E00E94F83CF801E20FF11D80810F9068
:102AD000CF91DF911F910F9108952F923F924F92C6
:102AE0005F926F927F928F929F92AF92BF92CF929E
:102AF000DF92EF92FF920F931F93DF93CF93CDB7A7
:102B0000DEB7AF970FB6F894DEBF0FBECDBF809192
:102B10009603882309F455C220911104243009F446
:102B20006BC283E08F83CE010996FE013896CC24D8
:102B3000C3948E01095F1F4F30919703332309F42B
:102B400036C2213031F0C39422E02083FC01209171
:102B5000110480919803882309F422C2253019F0CA
:102B6000C39486E080830E94B03DDD24EE24FF24E0
:102B70009C01442737FD4095542FC701B6010E94A0
:102B8000D93C2FEF3FE740E050E00E94F83CF801CD
:102B9000E20FF11D808180931104609196035091A2
:102BA000970340919803833009F420C2843008F0E1
:102BB000EDC1813009F430C2823009F427C24C8F54
:102BC0005B8F6D8F3D8D232F30E03BA72AA79C8D17
:102BD000892F90E09BA38AA382959295907F982756
:102BE000807F98279DA78CA77C01EAA1FBA1EE1A04
:102BF000FF0A8B8D90E09C01220F331F880F991FD5
:102C000082959295907F9827807F9827821B930BBF
:102C1000E80EF91E2CE330E0EAA5FBA5E29FC00117
:102C2000E39F900DF29F900D1124E80EF91E29E903
:102C300033E0E20EF31E80E090E0A0E0B0E08D878C
:102C40009E87AF87B88B898B9A8BAB8BBC8B8D8B18
:102C50009E8BAF8BB88F2D8D220F29839B8D990F63
:102C60009A838C8D880F8B83660F6C83550F5D83E1
:102C7000440F4E83261708F484C1621708F47CC100
:102C80001F8E1E8E951708F472C1591708F46AC179
:102C900019A218A2841708F451C1481708F43BC1BF
:102CA0001DA21CA29DE0C92ED12CCC0EDD1EAE01B2
:102CB0004C5F5F4F59A748A7CE0101969FA38EA3F3
:102CC00014EF412E11E0512E4701F9806F2C77242B
:102CD0000894611C711C3F2D343008F095C1AF2C55
:102CE0002A811401F98EE22E822E99240894811CE7
:102CF000911C243018F5BB800B2D10E00F5F1F4F87
:102D00004B2D443088F4FB2C03C05F2D543060F40D
:102D10008A2D6E2D4F2D96010E948005F3948F2DE4
:102D200090E0081719078CF7E3948E2D90E0881631
:102D300099061CF08E2D843018F32A81A3948A2DD5
:102D400090E0681679061CF09A2D943060F24101EB
:102D5000F98CAE8CAF0CA982F8A0F20EFA826B80CF
:102D6000ECA16E0E6B822A2D30E02F5F3F4F3A8F21
:102D7000298F3A2D3430D0F52F2C33240894211C80
:102D8000311C062D10E00F5F1F4FDFA6CEA6CF2C03
:102D90002C2D2430F0F4EC2C862D843088F4F62C85
:102DA00003C04F2D443060F48A2D6E2D4F2D9401B9
:102DB0000E948005F3948F2D90E0081719078CF777
:102DC000E3948E2D90E0281639061CF05E2D5430C9
:102DD00018F3A3948A2D90E0E98DFA8DE817F9078E
:102DE0001CF0FA2DF430A0F2CEA4DFA40E9432032E
:102DF0008CE291E0F2013197F1F70197D9F78EA1BA
:102E00009FA168A579A543E050E00E94A33E0097EA
:102E100009F05BCF74018091980390E0FC01E2958A
:102E2000F295F07FFE27E07FFE27E81BF90B8091EB
:102E3000970390E09C01220F331F880F991F829502
:102E40009295907F9827807F9827821B930BE80F9D
:102E5000F91F4091960350E02CE330E0429FC001FF
:102E6000439F900D529F900D1124E80FF91FACA5C0
:102E7000BDA54AA15BA1A41BB50B4AA55BA5429FBA
:102E8000C001439F900D529F900D1124A80FB91FB0
:102E90008B8D90E09C01220F331F880F991F829524
:102EA0009295907F9827807F9827821B930BA80F7D
:102EB000B91FE756FC4FA756BC4F8CE00D9001920E
:102EC0008150E1F7D701F6018CE001900D9281501D
:102ED000E1F75D8D509396038B8D809397039C8DC6
:102EE00090939803AF960FB6F894DEBF0FBECDBF98
:102EF000CF91DF911F910F91FF90EF90DF90CF90D6
:102F0000BF90AF909F908F907F906F905F904F9009
:102F10003F902F9008958FEF9FEF9DA38CA30DE01E
:102F2000C02ED12CCC0EDD1EFE013496F9A7E8A7E9
:102F30009E012F5F3F4F3FA32EA3C2CEE1E0F0E002
:102F4000FDA3ECA38DE0C82ED12CCC0EDD1E9E017E
:102F50002C5F3F4F39A728A7AE014F5F5F4F5FA39C
:102F60004EA3AECE2FEF3FEF39A328A393CEE1E0DF
:102F7000F0E0F9A3E8A38ECE2FEF3FEF3F8F2E8F27
:102F800081CEE1E0F0E0FF8FEE8F7CCE853041F125
:102F90008530E8F4962F9F5F9D8F4C8F5B8F12CE0C
:102FA000263009F4E0CDC39485E08083DCCD223067
:102FB00009F4CFCDC39421E02083FC0120911104BA
:102FC000C8CD209111042330B9F084E0ABCD863018
:102FD00009F0F5CDF42FF150FC8F5B8F6D8FF2CDA2
:102FE000E42FEF5FEC8F5B8F6D8FECCD862F8150E0
:102FF0008D8F4C8F5B8FE6CD8E01095F1F4FCE0109
:103000000896F801CC2498CD2A81A3CE352F3150D3
:103010003B8F4C8F6D8FD6CD252F2F5F2B8F4C8FF5
:103020006D8FD0CD2F923F924F925F926F927F9291
:103030008F929F92AF92BF92CF92DF92EF92FF92C8
:103040000F931F93DF93CF93CDB7DEB72C970FB6B7
:10305000F894DEBF0FBECDBF1A8219821E821D8278
:10306000898069807A800894611C711C1C821B8293
:10307000442455244D815E818CE390E0489F90016B
:10308000499F300D589F300D11243A8729879B8026
:10309000EB80FC800894E11CF11C01E010E0AA2404
:1030A00022243324C201880F991FA201440F551F07
:1030B00042955295507F5427407F5427481B590B07
:1030C00058874F83910122953295307F3227207F98
:1030D0003227221933094F815885240F351F8985DE
:1030E0009A85280F391F27563C4F982D943080F52C
:1030F000B82C892D843018F5C92C4A2D4430B0F4F1
:10310000DA2C3C872B8703C0ED2DE43068F48B2D3F
:103110006C2D4D2D2B853C850E948005D3948D2DE3
:1031200090E00817190784F72B853C85C3948C2DF4
:1031300090E0E816F9061CF0FC2DF430F0F2B394A0
:103140008B2D90E0681679061CF05B2D543088F2C8
:103150000894211C311C92E0A90E0E5F1F4FEA2D2E
:10316000E43009F0AFCF0894411C511C2B813C8105
:103170002E5F3F4F3C832B8332E04316510409F00E
:1031800086CF8D819E8101969E838D83E981FA8110
:103190003296FA83E9838230910509F061CF0E946B
:1031A000320380ED97E024EF31E0F9013197F1F738
:1031B0000197D9F70E946D152C960FB6F894DEBFD3
:1031C0000FBECDBFCF91DF911F910F91FF90EF9078
:1031D000DF90CF90BF90AF909F908F907F906F9037
:1031E0005F904F903F902F9008952F923F924F9273
:1031F0005F926F927F928F929F92AF92BF92CF9287
:10320000DF92EF92FF920F931F93DF93CF93CDB78F
:10321000DEB72C970FB6F894DEBF0FBECDBF80E0AF
:1032200090E0A0E0B0E08D839E83AF83B88789876C
:103230009A87AB87BC8723E0622E7E010894E11C4D
:10324000F11C04EF11E00F2EF0E0AF2EF0E0BF2EE6
:10325000F0E8CF2EFFE3DF2EF02D1C012D017724A7
:1032600088249924A982BA82CB82DC82892D672D99
:10327000482D97010E9480050E94320388EE93E05A
:10328000F8013197F1F70197D9F729823A824B82F9
:103290005C82AD82BE82CF82D886892D672D482D73
:1032A00097010E9480050E94320388EE93E0F801A6
:1032B0003197F1F70197D9F72D823E824F825886D8
:1032C000A986BA86CB86DC86892D672D482D970185
:1032D0000E9480050E94320388EE93E0F801319746
:1032E000F1F70197D9F729863A864B865C86892DB6
:1032F000672D482D97010E9480059394892D843075
:1033000009F0B0CF8394882D843009F0AACF73944C
:10331000872D843009F0A4CF6A9409F0A0CF2C96B1
:103320000FB6F894DEBF0FBECDBFCF91DF911F91D6
:103330000F91FF90EF90DF90CF90BF90AF909F9054
:103340008F907F906F905F904F903F902F90089557
:10335000FF920F931F93DF93CF93CDB7DEB72C97D8
:103360000FB6F894DEBF0FBECDBF33E0F32E8E0153
:103370000F5F1F4FD801E8E2F1E08CE001900D9261
:103380008150E1F760E040E098010E94800581E013
:1033900060E040E098010E94800582E060E040E04B
:1033A00098010E94800583E060E040E098010E945F
:1033B0008005D801E8E2F1E08CE001900D928150A7
:1033C000E1F760E041E098010E94800581E060E063
:1033D00041E098010E94800582E060E041E09801B0
:1033E0000E94800583E060E041E098010E94800532
:1033F000D801E8E2F1E08CE001900D928150E1F714
:1034000060E042E098010E94800581E060E042E0D7
:1034100098010E94800582E060E042E098010E94ED
:10342000800583E060E042E098010E948005D801B9
:10343000E8E2F1E08CE001900D928150E1F760E06C
:1034400043E098010E94800581E060E043E098013C
:103450000E94800582E060E043E098010E948005C0
:1034600083E060E043E098010E948005D801E8E233
:10347000F1E08CE001900D928150E1F761E040E0D5
:1034800098010E94800581E061E040E098010E947F
:10349000800582E061E040E098010E94800583E0C1
:1034A00061E040E098010E948005D801E8E2F1E087
:1034B0008CE001900D928150E1F761E041E09801CC
:1034C0000E94800581E061E041E098010E94800552
:1034D00082E061E041E098010E94800583E061E0C4
:1034E00041E098010E948005D801E8E2F1E08CE01B
:1034F00001900D928150E1F761E042E098010E9455
:10350000800581E061E042E098010E94800582E050
:1035100061E042E098010E94800583E061E042E0C2
:1035200098010E948005D801E8E2F1E08CE001906A
:103530000D928150E1F761E043E098010E9480051F
:1035400081E061E043E098010E94800582E061E053
:1035500043E098010E94800583E061E043E0980128
:103560000E948005D801E8E2F1E08CE001900D9224
:103570008150E1F762E040E098010E94800581E01F
:1035800062E040E098010E94800582E062E040E055
:1035900098010E94800583E062E040E098010E946B
:1035A0008005D801E8E2F1E08CE001900D928150B5
:1035B000E1F762E041E098010E94800581E062E06D
:1035C00041E098010E94800582E062E041E09801BC
:1035D0000E94800583E062E041E098010E9480053E
:1035E000D801E8E2F1E08CE001900D928150E1F722
:1035F00062E042E098010E94800581E062E042E0E2
:1036000098010E94800582E062E042E098010E94F9
:10361000800583E062E042E098010E948005D801C5
:10362000E8E2F1E08CE001900D928150E1F762E078
:1036300043E098010E94800581E062E043E0980148
:103640000E94800582E062E043E098010E948005CC
:1036500083E062E043E098010E948005D801E8E23F
:10366000F1E08CE001900D928150E1F763E040E0E1
:1036700098010E94800581E063E040E098010E948B
:10368000800582E063E040E098010E94800583E0CD
:1036900063E040E098010E948005D801E8E2F1E093
:1036A0008CE001900D928150E1F763E041E09801D8
:1036B0000E94800581E063E041E098010E9480055E
:1036C00082E063E041E098010E94800583E063E0CE
:1036D00041E098010E948005D801E8E2F1E08CE029
:1036E00001900D928150E1F763E042E098010E9461
:1036F000800581E063E042E098010E94800582E05D
:1037000063E042E098010E94800583E063E042E0CC
:1037100098010E948005D801E8E2F1E08CE0019078
:103720000D928150E1F763E043E098010E9480052B
:1037300081E063E043E098010E94800582E063E05D
:1037400043E098010E94800583E063E043E0980134
:103750000E948005FA9409F00DCE0E9432032C9647
:103760000FB6F894DEBF0FBECDBFCF91DF911F9192
:103770000F91FF9008952F923F924F925F926F9218
:103780007F928F929F92AF92BF92CF92DF92EF92F1
:10379000FF920F931F93DF93CF93CDB7DEB72C9794
:1037A0000FB6F894DEBF0FBECDBF22247E01089471
:1037B000E11CF11C04EF11E00F2EF0E08F2EF0E081
:1037C0009F2EF0E0AF2EF0E0BF2EF02D0F2EF0E098
:1037D0004F2EF0E05F2EF0E86F2EFFE37F2EF02DEE
:1037E0003324DD2489829A82AB82BC828D829E82C0
:1037F000AF82B88689869A86AB86BC86822D813058
:1038000009F44AC0823009F442C049825A826B826C
:103810007C8282E390E00E94B902CC248C2D632D3F
:103820004D2D97010E9480050E94320388EB9BE09A
:10383000F8013197F1F70197D9F7C3948C2D8430B3
:1038400069F7D3948D2D843069F63394832D8430B9
:1038500041F62394822D833009F0C2CF2C960FB607
:10386000F894DEBF0FBECDBFCF91DF911F910F91B6
:10387000FF90EF90DF90CF90BF90AF909F908F9090
:103880007F906F905F904F903F902F900895498662
:103890005A866B867C86BDCF4D825E826F8278862B
:1038A000B8CF2F923F924F925F926F927F928F92FA
:1038B0009F92AF92BF92CF92DF92EF92FF920F93BF
:1038C0001F93DF93CF93CDB7DEB72C970FB6F89445
:1038D000DEBF0FBECDBF88243E010894611C711C61
:1038E00004EF11E00F2EF0E0CF2EF0E0DF2EF0E03D
:1038F000EF2EF0E0FF2EF02D0F2EF0E02F2EF0E057
:103900003F2EF0E84F2EFFE35F2EF02D9924AA24DE
:10391000BB24C982DA82EB82FC82CD82DE82EF8216
:10392000F886C986DA86EB86FC86882D813009F414
:1039300059C0823009F451C029823A824B825C829C
:10394000892D6A2D4B2D93010E9480050E94320320
:1039500080ED97E0F8013197F1F70197D9F7C98623
:10396000DA86EB86FC86CD82DE82EF82F886C9821B
:10397000DA82EB82FC82892D6A2D4B2D93010E9405
:103980008005B3948B2D843021F6A3948A2D843046
:1039900009F0BECF9394892D843009F0B8CF839479
:1039A000882D833009F0B2CF2C960FB6F894DEBF85
:1039B0000FBECDBFCF91DF911F910F91FF90EF9080
:1039C000DF90CF90BF90AF909F908F907F906F903F
:1039D0005F904F903F902F90089529863A864B86AE
:1039E0005C86AECF2D823E824F825886A9CF4F9201
:1039F0005F926F927F928F929F92AF92BF92CF927F
:103A0000DF92EF92FF920F931F93DF93CF93CDB787
:103A1000DEB72C970FB6F894DEBF0FBECDBF99244A
:103A20005E010894A11CB11C0F2EF0E04F2EF0E0B7
:103A30005F2EF0E06F2EF0E07F2EF02D0F2EF0E0E5
:103A4000CF2EF0E0DF2EF0E8EF2EFFE3FF2EF02D7B
:103A500004EF11E049825A826B827C824D825E8241
:103A60006F82788649865A866B867C868824892D63
:103A7000813009F4D1C1823009F433C1C982DA82BC
:103A8000EB82FC82882D60E040E095010E94800579
:103A9000892D813009F4CAC1823009F42CC1C98250
:103AA000DA82EB82FC82882D60E041E095010E9481
:103AB0008005892D813009F4C3C1823009F425C104
:103AC000C982DA82EB82FC82882D60E042E09501B7
:103AD0000E948005892D813009F4BCC1823009F42F
:103AE0001EC1C982DA82EB82FC82882D60E043E04D
:103AF00095010E948005892D813009F4B5C182307D
:103B000009F417C1C982DA82EB82FC82882D61E058
:103B100040E095010E948005892D813009F4AEC1F5
:103B2000823009F410C1C982DA82EB82FC82882DCE
:103B300061E041E095010E948005892D813009F402
:103B4000A7C1823009F409C1C982DA82EB82FC8202
:103B5000882D61E042E095010E948005892D813029
:103B600009F4A0C1823009F402C1C982DA82EB8271
:103B7000FC82882D61E043E095010E948005892D3B
:103B8000813009F499C1823009F4FBC0C982DA821C
:103B9000EB82FC82882D62E040E095010E94800566
:103BA000892D813009F492C1823009F4F4C0C982B0
:103BB000DA82EB82FC82882D62E041E095010E946E
:103BC0008005892D813009F48BC1823009F4EDC064
:103BD000C982DA82EB82FC82882D62E042E09501A4
:103BE0000E948005892D813009F484C1823009F456
:103BF000E6C0C982DA82EB82FC82882D62E043E073
:103C000095010E948005892D813009F47DC18230A3
:103C100009F4DFC0C982DA82EB82FC82882D63E07E
:103C200040E095010E948005892D813009F476C11C
:103C3000823009F4D8C0C982DA82EB82FC82882DF6
:103C400063E041E095010E948005892D813009F4EF
:103C50006FC1823009F4D1C0C982DA82EB82FC8262
:103C6000882D63E042E095010E948005892D813016
:103C700009F468C1823009F4CAC0C982DA82EB82D1
:103C8000FC82882D63E043E095010E9480058394C7
:103C9000882D843009F0EBCE0E94320388E99AE344
:103CA000F8013197F1F70197D9F79394892D833073
:103CB00009F0D0CE2C960FB6F894DEBF0FBECDBF64
:103CC000CF91DF911F910F91FF90EF90DF90CF90F8
:103CD000BF90AF909F908F907F906F905F904F902C
:103CE0000895C986DA86EB86FC86882D60E040E080
:103CF00095010E948005C986DA86EB86FC86882DB0
:103D000060E041E095010E948005C986DA86EB8675
:103D1000FC86882D60E042E095010E948005C986FE
:103D2000DA86EB86FC86882D60E043E095010E94F0
:103D30008005C986DA86EB86FC86882D61E040E046
:103D400095010E948005C986DA86EB86FC86882D5F
:103D500061E041E095010E948005C986DA86EB8624
:103D6000FC86882D61E042E095010E948005C986AD
:103D7000DA86EB86FC86882D61E043E095010E949F
:103D80008005C986DA86EB86FC86882D62E040E0F5
:103D900095010E948005C986DA86EB86FC86882D0F
:103DA00062E041E095010E948005C986DA86EB86D3
:103DB000FC86882D62E042E095010E948005C9865C
:103DC000DA86EB86FC86882D62E043E095010E944E
:103DD0008005C986DA86EB86FC86882D63E040E0A4
:103DE00095010E948005C986DA86EB86FC86882DBF
:103DF00063E041E095010E948005C986DA86EB8682
:103E0000FC86882D63E042E095010E948005C9860A
:103E1000DA86EB86FC8635CFCD82DE82EF82F886AD
:103E2000882D60E040E095010E948005CD82DE8211
:103E3000EF82F886882D60E041E095010E948005C0
:103E4000CD82DE82EF82F886882D60E042E0950127
:103E50000E948005CD82DE82EF82F886882D60E0A8
:103E600043E095010E948005CD82DE82EF82F886D4
:103E7000882D61E040E095010E948005CD82DE82C0
:103E8000EF82F886882D61E041E095010E9480056F
:103E9000CD82DE82EF82F886882D61E042E09501D6
:103EA0000E948005CD82DE82EF82F886882D61E057
:103EB00043E095010E948005CD82DE82EF82F88684
:103EC000882D62E040E095010E948005CD82DE826F
:103ED000EF82F886882D62E041E095010E9480051E
:103EE000CD82DE82EF82F886882D62E042E0950185
:103EF0000E948005CD82DE82EF82F886882D62E006
:103F000043E095010E948005CD82DE82EF82F88633
:103F1000882D63E040E095010E948005CD82DE821D
:103F2000EF82F886882D63E041E095010E948005CC
:103F3000CD82DE82EF82F886882D63E042E0950133
:103F40000E948005CD82DE82EF82F8869ACE80E0E4
:103F500090E00E94B9020E9432030895FF920F93ED
:103F60001F93DF93CF93CDB7DEB72C970FB6F8949E
:103F7000DEBF0FBECDBFFF248E010F5F1F4F0E941B
:103F8000B03D9C01B901882777FD8095982F0E944C
:103F9000C23B20E03EEF4FEF56E40E942C3B609383
:103FA0004C0170934D0180934E0190934F010E94FC
:103FB000B03D9C01B901882777FD8095982F0E941C
:103FC000C23B20E03EEF4FEF56E40E942C3B20E046
:103FD00030E040E05FE30E94763C609354017093D0
:103FE000550180935601909357010E94B03D9C016A
:103FF000B901882777FD8095982F0E94C23B20E069
:104000003EEF4FEF56E40E942C3B20E030E040E8CA
:104010005EE30E94763C20E030E040E85FE30E94EF
:10402000C43A20E030E040E85EE30E94C33A609387
:1040300050017093510180935201909353018CE48D
:1040400091E0B8010E9406098F2D60E040E09801E0
:104050000E9480050E94B03D9C01B901882777FD30
:104060008095982F0E94C23B20E03EEF4FEF56E430
:104070000E942C3B60934C0170934D0180934E0144
:1040800090934F010E94B03D9C01B901882777FDB4
:104090008095982F0E94C23B20E03EEF4FEF56E400
:1040A0000E942C3B20E030E040E05FE30E94763C41
:1040B000609354017093550180935601909357017A
:1040C0000E94B03D9C01B901882777FD8095982F0B
:1040D0000E94C23B20E03EEF4FEF56E40E942C3B93
:1040E00020E030E040E85EE30E94763C20E030E0F3
:1040F00040E85FE30E94C43A20E030E040E85EE33D
:104100000E94C33A60935001709351018093520111
:10411000909353018CE491E0B8010E9406098F2D21
:1041200060E041E098010E9480050E94B03D9C0142
:10413000B901882777FD8095982F0E94C23B20E027
:104140003EEF4FEF56E40E942C3B60934C0170937E
:104150004D0180934E0190934F010E94B03D9C0110
:10416000B901882777FD8095982F0E94C23B20E0F7
:104170003EEF4FEF56E40E942C3B20E030E040E061
:104180005FE30E94763C60935401709355018093E5
:104190005601909357010E94B03D9C01B9018827B8
:1041A00077FD8095982F0E94C23B20E03EEF4FEFB5
:1041B00056E40E942C3B20E030E040E85EE30E94A1
:1041C000763C20E030E040E85FE30E94C43A20E023
:1041D00030E040E85EE30E94C33A60935001709380
:1041E000510180935201909353018CE491E0B80106
:1041F0000E9406098F2D60E042E098010E94800530
:104200000E94B03D9C01B901882777FD8095982FC9
:104210000E94C23B20E03EEF4FEF56E40E942C3B51
:1042200060934C0170934D0180934E0190934F0128
:104230000E94B03D9C01B901882777FD8095982F99
:104240000E94C23B20E03EEF4FEF56E40E942C3B21
:1042500020E030E040E05FE30E94763C6093540150
:104260007093550180935601909357010E94B03D81
:104270009C01B901882777FD8095982F0E94C23B49
:1042800020E03EEF4FEF56E40E942C3B20E030E070
:1042900040E85EE30E94763C20E030E040E85FE3E7
:1042A0000E94C43A20E030E040E85EE30E94C33A56
:1042B0006093500170935101809352019093530188
:1042C0008CE491E0B8010E9406098F2D60E043E084
:1042D00098010E9480050E94B03D9C01B901882789
:1042E00077FD8095982F0E94C23B20E03EEF4FEF74
:1042F00056E40E942C3B60934C0170934D018093D7
:104300004E0190934F010E94B03D9C01B901882756
:1043100077FD8095982F0E94C23B20E03EEF4FEF43
:1043200056E40E942C3B20E030E040E05FE30E9436
:10433000763C60935401709355018093560190939D
:1043400057010E94B03D9C01B901882777FD8095F7
:10435000982F0E94C23B20E03EEF4FEF56E40E94B0
:104360002C3B20E030E040E85EE30E94763C20E019
:1043700030E040E85FE30E94C43A20E030E040E8EB
:104380005EE30E94C33A60935001709351018093A1
:104390005201909353018CE491E0B8010E94060908
:1043A0008F2D61E040E098010E9480050E94B03DA1
:1043B0009C01B901882777FD8095982F0E94C23B08
:1043C00020E03EEF4FEF56E40E942C3B60934C01FF
:1043D00070934D0180934E0190934F010E94B03D28
:1043E0009C01B901882777FD8095982F0E94C23BD8
:1043F00020E03EEF4FEF56E40E942C3B20E030E0FF
:1044000040E05FE30E94763C609354017093550155
:1044100080935601909357010E94B03D9C01B901D1
:10442000882777FD8095982F0E94C23B20E03EEFC1
:104430004FEF56E40E942C3B20E030E040E85EE382
:104440000E94763C20E030E040E85FE30E94C43AFE
:1044500020E030E040E85EE30E94C33A6093500100
:104460007093510180935201909353018CE491E039
:10447000B8010E9406098F2D61E041E098010E9479
:1044800080050E94B03D9C01B901882777FD809589
:10449000982F0E94C23B20E03EEF4FEF56E40E946F
:1044A0002C3B60934C0170934D0180934E0190938F
:1044B0004F010E94B03D9C01B901882777FD80958E
:1044C000982F0E94C23B20E03EEF4FEF56E40E943F
:1044D0002C3B20E030E040E05FE30E94763C6093BC
:1044E00054017093550180935601909357010E9497
:1044F000B03D9C01B901882777FD8095982F0E94D7
:10450000C23B20E03EEF4FEF56E40E942C3B20E000
:1045100030E040E85EE30E94763C20E030E040E896
:104520005FE30E94C43A20E030E040E85EE30E948E
:10453000C33A60935001709351018093520190935C
:1045400053018CE491E0B8010E9406098F2D61E0CF
:1045500042E098010E9480050E94B03D9C01B90193
:10456000882777FD8095982F0E94C23B20E03EEF80
:104570004FEF56E40E942C3B60934C0170934D0129
:1045800080934E0190934F010E94B03D9C01B90170
:10459000882777FD8095982F0E94C23B20E03EEF50
:1045A0004FEF56E40E942C3B20E030E040E05FE318
:1045B0000E94763C6093540170935501809356019C
:1045C000909357010E94B03D9C01B901882777FD67
:1045D0008095982F0E94C23B20E03EEF4FEF56E4BB
:1045E0000E942C3B20E030E040E85EE30E94763CF5
:1045F00020E030E040E85FE30E94C43A20E030E091
:1046000040E85EE30E94C33A609350017093510109
:1046100080935201909353018CE491E0B8010E9481
:1046200006098F2D61E043E098010E9480050E94F9
:10463000B03D9C01B901882777FD8095982F0E9495
:10464000C23B20E03EEF4FEF56E40E942C3B6093CC
:104650004C0170934D0180934E0190934F010E9445
:10466000B03D9C01B901882777FD8095982F0E9465
:10467000C23B20E03EEF4FEF56E40E942C3B20E08F
:1046800030E040E05FE30E94763C60935401709319
:10469000550180935601909357010E94B03D9C01B3
:1046A000B901882777FD8095982F0E94C23B20E0B2
:1046B0003EEF4FEF56E40E942C3B20E030E040E814
:1046C0005EE30E94763C20E030E040E85FE30E9439
:1046D000C43A20E030E040E85EE30E94C33A6093D1
:1046E00050017093510180935201909353018CE4D7
:1046F00091E0B8010E9406098F2D62E040E0980128
:104700000E9480050E94B03D9C01B901882777FD79
:104710008095982F0E94C23B20E03EEF4FEF56E479
:104720000E942C3B60934C0170934D0180934E018D
:1047300090934F010E94B03D9C01B901882777FDFD
:104740008095982F0E94C23B20E03EEF4FEF56E449
:104750000E942C3B20E030E040E05FE30E94763C8A
:1047600060935401709355018093560190935701C3
:104770000E94B03D9C01B901882777FD8095982F54
:104780000E94C23B20E03EEF4FEF56E40E942C3BDC
:1047900020E030E040E85EE30E94763C20E030E03C
:1047A00040E85FE30E94C43A20E030E040E85EE386
:1047B0000E94C33A6093500170935101809352015B
:1047C000909353018CE491E0B8010E9406098F2D6B
:1047D00062E041E098010E9480050E94B03D9C018A
:1047E000B901882777FD8095982F0E94C23B20E071
:1047F0003EEF4FEF56E40E942C3B60934C017093C8
:104800004D0180934E0190934F010E94B03D9C0159
:10481000B901882777FD8095982F0E94C23B20E040
:104820003EEF4FEF56E40E942C3B20E030E040E0AA
:104830005FE30E94763C609354017093550180932E
:104840005601909357010E94B03D9C01B901882701
:1048500077FD8095982F0E94C23B20E03EEF4FEFFE
:1048600056E40E942C3B20E030E040E85EE30E94EA
:10487000763C20E030E040E85FE30E94C43A20E06C
:1048800030E040E85EE30E94C33A609350017093C9
:10489000510180935201909353018CE491E0B8014F
:1048A0000E9406098F2D62E042E098010E94800577
:1048B0000E94B03D9C01B901882777FD8095982F13
:1048C0000E94C23B20E03EEF4FEF56E40E942C3B9B
:1048D00060934C0170934D0180934E0190934F0172
:1048E0000E94B03D9C01B901882777FD8095982FE3
:1048F0000E94C23B20E03EEF4FEF56E40E942C3B6B
:1049000020E030E040E05FE30E94763C6093540199
:104910007093550180935601909357010E94B03DCA
:104920009C01B901882777FD8095982F0E94C23B92
:1049300020E03EEF4FEF56E40E942C3B20E030E0B9
:1049400040E85EE30E94763C20E030E040E85FE330
:104950000E94C43A20E030E040E85EE30E94C33A9F
:1049600060935001709351018093520190935301D1
:104970008CE491E0B8010E9406098F2D62E043E0CB
:1049800098010E9480050E94B03D9C01B9018827D2
:1049900077FD8095982F0E94C23B20E03EEF4FEFBD
:1049A00056E40E942C3B60934C0170934D01809320
:1049B0004E0190934F010E94B03D9C01B9018827A0
:1049C00077FD8095982F0E94C23B20E03EEF4FEF8D
:1049D00056E40E942C3B20E030E040E05FE30E9480
:1049E000763C6093540170935501809356019093E7
:1049F00057010E94B03D9C01B901882777FD809541
:104A0000982F0E94C23B20E03EEF4FEF56E40E94F9
:104A10002C3B20E030E040E85EE30E94763C20E062
:104A200030E040E85FE30E94C43A20E030E040E834
:104A30005EE30E94C33A60935001709351018093EA
:104A40005201909353018CE491E0B8010E94060951
:104A50008F2D63E040E098010E9480050E94B03DE8
:104A60009C01B901882777FD8095982F0E94C23B51
:104A700020E03EEF4FEF56E40E942C3B60934C0148
:104A800070934D0180934E0190934F010E94B03D71
:104A90009C01B901882777FD8095982F0E94C23B21
:104AA00020E03EEF4FEF56E40E942C3B20E030E048
:104AB00040E05FE30E94763C60935401709355019F
:104AC00080935601909357010E94B03D9C01B9011B
:104AD000882777FD8095982F0E94C23B20E03EEF0B
:104AE0004FEF56E40E942C3B20E030E040E85EE3CC
:104AF0000E94763C20E030E040E85FE30E94C43A48
:104B000020E030E040E85EE30E94C33A6093500149
:104B10007093510180935201909353018CE491E082
:104B2000B8010E9406098F2D63E041E098010E94C0
:104B300080050E94B03D9C01B901882777FD8095D2
:104B4000982F0E94C23B20E03EEF4FEF56E40E94B8
:104B50002C3B60934C0170934D0180934E019093D8
:104B60004F010E94B03D9C01B901882777FD8095D7
:104B7000982F0E94C23B20E03EEF4FEF56E40E9488
:104B80002C3B20E030E040E05FE30E94763C609305
:104B900054017093550180935601909357010E94E0
:104BA000B03D9C01B901882777FD8095982F0E9420
:104BB000C23B20E03EEF4FEF56E40E942C3B20E04A
:104BC00030E040E85EE30E94763C20E030E040E8E0
:104BD0005FE30E94C43A20E030E040E85EE30E94D8
:104BE000C33A6093500170935101809352019093A6
:104BF00053018CE491E0B8010E9406098F2D63E017
:104C000042E098010E9480050E94B03D9C01B901DC
:104C1000882777FD8095982F0E94C23B20E03EEFC9
:104C20004FEF56E40E942C3B60934C0170934D0172
:104C300080934E0190934F010E94B03D9C01B901B9
:104C4000882777FD8095982F0E94C23B20E03EEF99
:104C50004FEF56E40E942C3B20E030E040E05FE361
:104C60000E94763C609354017093550180935601E5
:104C7000909357010E94B03D9C01B901882777FDB0
:104C80008095982F0E94C23B20E03EEF4FEF56E404
:104C90000E942C3B20E030E040E85EE30E94763C3E
:104CA00020E030E040E85FE30E94C43A20E030E0DA
:104CB00040E85EE30E94C33A609350017093510153
:104CC00080935201909353018CE491E0B8010E94CB
:104CD00006098F2D63E043E098010E948005F3945C
:104CE0003F2D343009F04BC90E94320388EE93E027
:104CF00024EF31E0F9013197F1F70197D9F72C96BC
:104D00000FB6F894DEBF0FBECDBFCF91DF911F91DC
:104D10000F91FF900895DF92EF92FF920F931F93F0
:104D2000DF93CF93CDB7DEB72C970FB6F894DEBFE5
:104D30000FBECDBF60914001709141018091420151
:104D4000909143012FE632E143E05BE30E94C43AD5
:104D5000F62E172FE82E092F862F912FAE2DB02F6C
:104D60008093400190934101A0934201B09343018D
:104D70006F2D712F8E2D902F20E030E040E85FE303
:104D80000E94723C87FD12C06F2D712F8E2D902FC7
:104D900020E030E040E85FE30E94C33A60934001C6
:104DA00070934101809342019093430180E491E02C
:104DB0007E010894E11CF11CB7010E940609DD2464
:104DC00004EF11E08D2D60E040E097010E94800526
:104DD0008D2D60E041E097010E9480058D2D60E0FF
:104DE00042E097010E9480058D2D60E043E097012D
:104DF0000E9480058D2D61E040E097010E948005B2
:104E00008D2D61E041E097010E9480058D2D61E0CC
:104E100042E097010E9480058D2D61E043E09701FB
:104E20000E9480058D2D62E040E097010E94800580
:104E30008D2D62E041E097010E9480058D2D62E09A
:104E400042E097010E9480058D2D62E043E09701CA
:104E50000E9480058D2D63E040E097010E9480054F
:104E60008D2D63E041E097010E9480058D2D63E068
:104E700042E097010E9480058D2D63E043E0970199
:104E80000E9480050E94320380E090E00E94B902F7
:104E900024EF31E0C8010197F1F721503040D1F7FC
:104EA000D3948D2D843009F08DCF83E0D82E04EF7C
:104EB00011E0DA948D2D60E040E097010E948005BA
:104EC0008D2D60E041E097010E9480058D2D60E00E
:104ED00042E097010E9480058D2D60E043E097013C
:104EE0000E9480058D2D61E040E097010E948005C1
:104EF0008D2D61E041E097010E9480058D2D61E0DC
:104F000042E097010E9480058D2D61E043E097010A
:104F10000E9480058D2D62E040E097010E9480058F
:104F20008D2D62E041E097010E9480058D2D62E0A9
:104F300042E097010E9480058D2D62E043E09701D9
:104F40000E9480058D2D63E040E097010E9480055E
:104F50008D2D63E041E097010E9480058D2D63E077
:104F600042E097010E9480058D2D63E043E09701A8
:104F70000E9480050E94320380E090E00E94B90206
:104F800024EF31E0C8010197F1F721503040D1F70B
:104F90008D2D813009F08DCF2C960FB6F894DEBFA1
:104FA0000FBECDBFCF91DF911F910F91FF90EF907A
:104FB000DF9008952F923F924F925F926F927F926F
:104FC0008F929F92AF92BF92CF92DF92EF92FF9219
:104FD0000F931F93DF93CF93CDB7DEB769970FB6CB
:104FE000F894DEBF0FBECDBF0E94B03D9C01B90159
:104FF000882777FD8095982F29E130E040E050E048
:105000000E94D93C2FEF3FE740E050E00E94F83C7F
:10501000DA01C9014496A11DB11D8A8B9B8BAC8B13
:10502000BD8B609134017091350180913601909172
:1050300037012AE037ED43EA5CE30E94C43A062FC9
:10504000F72EE82ED92E862F9F2DAE2DBD2D8093C5
:10505000340190933501A0933601B0933701602F4E
:105060007F2D8E2D9D2D20E030E040E85FE30E94F3
:10507000723C87FD12C0602F7F2D8E2D9D2D20E06C
:1050800030E040E85FE30E94C33A609334017093DC
:105090003501809336019093370199E09D87AAE905
:1050A000AE87B9E9BF8729E9288B3EEB398B8E01A2
:1050B0000F5F1F4F54EF252E51E0352EDA2ECB2EE9
:1050C000922E832E44E0F42E33E0E32EA6019401C9
:1050D000852F9C2DA32FB82D80933C0190933D01EB
:1050E000A0933E01B0933F01652F7C2D832F982D17
:1050F00020E030E040E05FE30E94723C18160CF0C4
:1051000055C080E090E0A0E0BFE380933C01909325
:105110003D01A0933E01B0933F0184E391E0B801CB
:105120000E940609FF2009F463C0AA24BB248E2D27
:105130006A2D4B2D98010E948005B394BF14B8F3DB
:10514000A394AF1498F3AA24BB248B2D6A2D4E2D63
:1051500098010E948005B394BF14B8F3A394AF14D0
:1051600098F3AA24BB248B2D6E2D4A2D98010E9402
:105170008005B394BF14B8F3A394AF1498F30E94BE
:105180003203EE20C1F1A6019401652F7C2D832FFF
:10519000982D2DEC3CEC4CEC5DE30E94C43AD62EED
:1051A000C72E982E892EEA94FA9490CFA6019401E6
:1051B000652F7C2D832F982D20E030E040E050E0DB
:1051C0000E94283B87FFA9CF80E090E0A0E0B0E0FC
:1051D00080933C0190933D01A0933E01B0933F0129
:1051E00084E391E0B8010E940609FF2009F09DCFF9
:1051F0000E943203C8CF0E9432036A897B898C895E
:105200009D890E94C23B2B013C0120E030E44CE927
:1052100055E40E94763CD62EE72EF82E892E81E0AA
:105220008E8B6D2D7E2D8F2D982D20E030E040E867
:105230005FE30E94283B87FD3CC01E8A6D2D7E2DBA
:105240008F2D982D20E03FEF4FE757E40E94723CEE
:105250001816A4F5C301B20120E030E040E251E4A9
:105260000E94763C0E94943B6115710531F0C101AA
:105270000197F1F761507040D1F75E854F8538890D
:105280002989652F742F832F922F2DEC3CEC4CEC49
:105290005DE30E94C43AAD85A150AD87AA23B1F069
:1052A0006E877F87888B998BD62EC72E982E892E56
:1052B00009CF81E090E00197F1F7DFCF6D2D7E2DD2
:1052C0008F2D982D0E94943BCB01F5CFDF8AE88E7D
:1052D000F98E2DEC3CEC4CEC5DE30E94C33AF62ECB
:1052E000E72ED82EC92EB1E0BA8B5F89488D398D53
:1052F000652F742F832F982D20E03FEF4FE757E461
:105300000E94723C18160CF0FEC0FE86EF86D88A0A
:10531000C98A29E02D8724EF222E21E0322EEF2C9E
:10532000DF84C888998893E0F92EAE2C8A2D9D2DB4
:10533000AC2DB92D80933C0190933D01A0933E018B
:10534000B0933F016A2D7D2D8C2D992D20E030E00A
:1053500040E05FE30E94723C18160CF056C080E0FB
:1053600090E0A0E0BFE380933C0190933D01A093C7
:105370003E01B0933F0184E391E0B8010E94060929
:10538000BF2CEF2C8F2D6B2D4E2D98010E94800588
:10539000E3943E2D3430B0F3B3948B2D843089F7F1
:1053A000BF2CEF2C8E2D6B2D4F2D98010E94800568
:1053B000E3949E2D9430B0F3B394AB2DA43088F3D6
:1053C000BF2CEF2C8E2D6F2D4B2D98010E94800548
:1053D000E394BE2DB430B0F3B3942B2D243088F376
:1053E0000E943203FA943F2D3F3F41F16A2D7D2DFB
:1053F0008C2D992D2DEC3CEC4CEC5DE30E94C33AD6
:10540000A62ED72EC82E992E91CF6A2D7D2D8C2DAC
:10541000992D20E030E040E050E00E94283B87FFDB
:10542000AACF80E090E0A0E0B0E080933C019093B0
:105430003D01A0933E01B0933F019DCF0E943203F6
:105440008E89882399F59A89992309F451C0C3015B
:10545000B20120E030E040E251E40E94763C0E943C
:10546000943B6115710531F0C1010197F1F761506D
:105470007040D1F7AD85A150AD87AA2301F15E85BB
:105480004F8538892989652F742F832F922F2DEC12
:105490003CEC4CEC5DE30E94C33A6E877F87888BBF
:1054A000998BE62ED72EC82E992E3DCF81E090E025
:1054B0000197F1F7AD85A150AD87AA2301F7699651
:1054C0000FB6F894DEBF0FBECDBFCF91DF911F9115
:1054D0000F91FF90EF90DF90CF90BF90AF909F9093
:1054E0008F907F906F905F904F903F902F90089596
:1054F0005F89488D398D652F742F832F982D0E94D9
:10550000943BCB01D5CF1A8A00CFAF92BF92CF92F6
:10551000DF92EF92FF920F931F930E94B03D9C0188
:10552000B901882777FD8095982F0E94C23B20E023
:105530003EEF4FEF56E40E942C3B10921204262FB0
:10554000372F482F592F20937D0430937E044093AA
:105550007F04509380040F2EF0E0EF2EF0E0FF2E3A
:10556000F0E80F2FFFE31F2FF02DE0928104F0925F
:10557000820400938304109384041092130420E0A7
:1055800030E040E05FE30E94C43AD62EC72EB82E2A
:10559000A92EA6019501652F742F832F922FA801A4
:1055A00097010E94723C87FF29C010928904A601CE
:1055B0009501852F942FA32FB22F8093F4049093FD
:1055C000F504A093F604B093F704E092F804F09287
:1055D000F9040093FA041093FB0410928A0480E00B
:1055E00090E00E94B9020E9432031F910F91FF9038
:1055F000EF90DF90CF90BF90AF9008951092890404
:1056000080E090E0A0E0B0E08093F4049093F50493
:10561000A093F604B093F704E092F804F092F90432
:105620000093FA041093FB0410928A04D8CF26E664
:1056300030E0AC014E5F5F4FC9010397DA01A20F62
:10564000B31FFA01E80FF91F23E001900D922150DA
:10565000E1F79C01009781F708950F931F93DF9363
:10566000CF930F92CDB7DEB78C0169830E94B03D16
:10567000AA2797FDA095BA2F6981262F30E040E038
:1056800050E0BC01CD010E94D93C2FEF3FE740E044
:1056900050E00E94F83CF801E20FF11D80810F906C
:1056A000CF91DF911F910F9108958F929F92AF92AA
:1056B000BF92CF92DF92EF92FF920F931F93DF93EF
:1056C000CF93CDB7DEB72C970FB6F894DEBF0FBEE1
:1056D000CDBF8C01DC018C91833210F48F5F8C93F1
:1056E000A6E6B0E098012E5F3F4FCD010397A20FD1
:1056F000B31FF901E80FF91F43E001900D924150EB
:10570000E1F7DC01009789F7F8018081813009F425
:1057100009C1F8014281442309F07BC09E012B5F3F
:105720003F4FCE010496FE01339642E0842E912C29
:105730008C0E9D1E5E010894A11CB11CA501CC24F9
:10574000D8011196FC90BF2DB43009F4E0C0C39489
:1057500063E0DA016C93D80113964C9113974423BC
:1057600009F488C0BF2DB13009F4D8C0C39452E009
:10577000D4015C93433008F47AC0D80114962C917C
:105780001497222309F46BC0BF2DB63009F4C4C0AE
:10579000C39435E03083233008F460C00E94B03DEC
:1057A000DD24EE24FF249C01442737FD4095542F2F
:1057B000C701B6010E94D93C2FEF3FE740E050E01F
:1057C0000E94F83CF501E20FF11D8081D80111968D
:1057D0008C931197833009F46FC0843008F052C065
:1057E000813009F472C0823009F461C02C960FB682
:1057F000F894DEBF0FBECDBFCF91DF911F910F9107
:10580000FF90EF90DF90CF90BF90AF909F908F90E0
:105810000895F180FF2DF33009F468C084E0898396
:10582000BE016A5F7F4F9E012B5F3F4FCE01049602
:10583000FE01339652E0852E912C8C0E9D1ECC24B9
:10584000C3945E010894A11CB11C433008F083CFBF
:10585000A4014F01FC01C9019B0175CFFC012F2D53
:10586000253009F49BCFC39486E0808397CF4F0106
:10587000FC01C901BF2DB230B1F1C39421E0D401C4
:105880002C937BCF853051F1853028F4F80182814B
:1058900081508283ABCF863009F0A8CFD80114960F
:1058A0008C9114978F5F14968C9314979FCFF80167
:1058B0008381815083839ACFD80112968C9112975D
:1058C0008F5F12968C93129791CFD80113968C917B
:1058D00013978F5F13968C93139788CFF801848169
:1058E0008150848383CFCF01F40147CFBE016B5F2A
:1058F0007F4F9E012C5F3F4FCE010396FE013296F3
:105900005E010894A11CB11C4501CC249ECF9C01D2
:10591000CF01F4014A011FCFCF013DCF9C01CF0140
:10592000F40128CF0E94B03D9C01B901882777FD82
:105930008095982F660F771F881F991F660F771F16
:10594000881F991FAFEFCA2EAFE7DA2EE12CF12C9A
:10595000A70196010E94F83CD80112962C930E9450
:10596000B03DFC01BF01882777FD8095982F660F19
:10597000771F881F991F660F771F881F991FA70120
:1059800096010E94F83CD80113962C930E94B03DDA
:10599000FC01BF01882777FD8095982F660F771F40
:1059A000881F991F660F771F881F991FA7019601EF
:1059B0000E94F83CD80114962C93149717CF2F927D
:1059C0003F924F925F926F927F928F929F92AF928F
:1059D000BF92CF92DF92EF92FF920F931F93DF93CC
:1059E000CF93CDB7DEB7A5970FB6F894DEBF0FBE45
:1059F000CDBF4C01FC01E0806E2D70E080E090E0B6
:105A00000E94C03B9B01AC016DEC7CEC8CEC9EE3F6
:105A10000E942C3B6DA3272E382EC92E84010559D8
:105A20001F4FF80160817181828193812FE632E1FD
:105A300043E85AE30E94C43A262F372F482F592FA4
:105A4000F801208331834283538320E030E040E833
:105A50005FE30E94723C87FD09C080E090E0A0E017
:105A6000B0E0F80180839183A283B383F401ED5801
:105A7000FF4F80E090E0A0E0B0E080839183A283BC
:105A8000B3833DE0632E712C6C0E7D1EF301D801B3
:105A90008CE00D9001928150E1F7EE2009F496C060
:105AA000FF240894E108F1088701000F111F0E0D73
:105AB0001F1D0E5F1F4F080D191DDD2492E0492E9A
:105AC000512C480C591C5E010894A11CB11C89E1A1
:105AD000E82EF12CEC0EFD1E40C0C301B5010E9462
