:100000000C94B5000C94D2000C94D2000C94D20045
:100010000C94D2000C94D2000C94D2000C94D20018
:100020000C94D2000C94D2000C94D2000C94D20008
:100030000C94D2000C940F120C94D2000C94D200A9
:100040000C94D2000C94D2000C94D2000C94D200E8
:100050000C94D2000C94D2000C94D2000C94D200D8
:100060000C94D2000C94D2006E616E00696E660032
:1000700000407A10F35A00A0724E18090010A5D45F
:10008000E80000E87648170000E40B54020000CABC
:100090009A3B000000E1F505000080969800000002
:1000A00040420F000000A086010000001027000061
:1000B0000000E803000000006400000000000A00E7
:1000C000000000000100000000002C76D888DC67EA
:1000D0004F0823DFC1DFAE59E1B1B796E5E3E45342
:1000E000C63AE651997696E8E6C28426EB898C9B5F
:1000F00062ED407C6FFCEFBC9C9F40F2BAA56FA5FF
:10010000F490055A2AF75C936B6CF9676DC11BFC80
:10011000E0E40D47FEF520E6B500D0ED902E03009B
:10012000943577050080841E080000204E0A0000E8
:1001300000C80C333333330F986E12831141EF8DA7
:100140002114893BE65516CFFEE6DB18D1844B38E7
:100150001BF77C1D901DA4BBE424203284725E2218
:100160008100C9F124ECA1E53D2711241FBECFEF8A
:10017000D8E0DEBFCDBF11E0A0E0B1E0EAEEF5E3EC
:1001800002C005900D92A234B107D9F715E0A2E4A0
:10019000B1E001C01D92A43EB107E1F70E940D013C
:1001A0000C94F31A0C940000EF92FF920F931F939C
:1001B000DF93CF9300D000D0CDB7DEB780E0E82E3C
:1001C00080E0F82E8E010F5F1F4FC801B70144E099
:1001D00050E00E94CB1A89819A81AB81BC810E9438
:1001E0003B1989819A81AB81BC810196A11DB11D0A
:1001F00089839A83AB83BC83C801B70144E050E094
:100200000E94DB1A0F900F900F900F90CF91DF910B
:100210001F910F91FF90EF900895559A9AE097BD26
:1002200087B5869588BD83E284BD95BD0E94D400C4
:100230000E94DE0380E090E00E9444020E94FE0ED5
:100240000E94B711FDCF8DE380937E00089583E275
:100250008093B00021E02093B40083E08093B3004A
:1002600089E08093B10080E28093800081E090E09B
:10027000909389008093880082E090E090938B00B7
:1002800080938A0080E098E19093870080938600B5
:1002900081E18093810020936F0078940895229AE1
:1002A0002A9A239A259A2D9880E58CBD8DB5816078
:1002B0008DBD08959CB5259A8CB58F7B8CBD2D9AEC
:1002C0002D989CBD0895982F96959695E92FEE0F41
:1002D000E90FF0E0EC53FD4FDF011196990F990FF4
:1002E000891B813069F0813028F08230C9F0833079
:1002F00099F528C08081807C6F73862B8083089558
:1003000090819F73862F8295880F880F807C892B20
:100310008083669566958181807F682B61830895CF
:10032000862F8295807F91819F70892B8183629532
:100330006F7011968C9111978C7F682B11966C932E
:1003400011970895660F660F11968C91119783701F
:10035000682B11966C93119708951F93CF93DF9399
:10036000182FC0E0D0E08C2F612F0E9463012196EE
:10037000C031D105C1F7DF91CF911F9108958EBD96
:100380000DB407FEFDCF0895CF93DF93289AC0EDFB
:10039000D2E003C08A910E94BF0182E0C43CD8072A
:1003A000C9F7299A29980E94D7110E945A01DF9112
:1003B000CF910895982F9695E8E16E9FF001112452
:1003C000292F220F290FE20FF11DEC5BFE4FDF01F9
:1003D0001196990F891B19F08130B1F406C0408342
:1003E0008181807F852B81830895842F8295807FF2
:1003F00091819F70892B818384E0569547958A95DA
:10040000E1F711964C9311970895CF93DF93DA019A
:10041000982F9695E8E16E9FF0011124292F220F65
:10042000290FE20FF11DEC5BFE4FEF012196990FB2
:10043000891B19F0813029F511C0208130E0119617
:100440003C932E93818190E08F709070982F882735
:10045000822B932B11969C938E9313C0898190E0ED
:1004600024E0880F991F2A95E1F711969C938E93AB
:10047000218122952F7030E0282B392B11963C9347
:100480002E93DF91CF910895FF920F931F93CF93F7
:10049000DF938C01FF240DC08C2F6F2DA8010E94CB
:1004A000DA012196C031D105B9F7F3943F2D3031EF
:1004B00019F0C0E0D0E0F0CFDF91CF911F910F9104
:1004C000FF900895F894A4E6B4E0E4E4F1E080E855
:1004D00091E001900D920197E1F7789408950F93C0
:1004E0001F93CF93DF93EC0110E0688179818A81BB
:1004F0009B810E941A17812F0E946301012F0F5FB9
:100500006C817D818E819F810E941A17802F0E94AD
:1005100063010F5F688579858A859B850E941A171C
:10052000802F0E9463011D5F1C30F9F6DF91CF918F
:100530001F910F910895DF93CF93CDB7DEB72C971E
:100540000FB6F894DEBF0FBECDBF2898209A2A9A26
:10055000229A539A219A0E9427010E944F0180E01B
:1005600090E00E9444020E946202DE011196E1E0E6
:10057000F1E08CE001900D928150E1F7CE010196FF
:100580000E946F020E94C4012C960FB6F894DEBF41
:100590000FBECDBFCF91DF91089544980895449A3E
:1005A00008953D9A3C9A3B9A459843980E94CD0203
:1005B0000E94CF020895CF92DF92EF92FF920F93A5
:1005C0001F93D42EA901DD0CDD0CD60EC82ECC0C49
:1005D000C80E8C2D6D2D0E94DA018C2D8F5F6D2D34
:1005E000A8010E94DA018C2D8E5F6D2DA7010E945B
:1005F000DA011F910F91FF90EF90DF90CF90089557
:100600008F929F92AF92BF92CF92DF92EF92FF9222
:100610000F931F93CF93DF93142FE901110F110F45
:10062000160F082F000F080F6C817D818E819F812E
:1006300020E030E04AE754E40E94FC170E941A17B9
:100640006B017C01688579858A859B8520E030E097
:100650004AE754E40E94FC170E941A174B015C0100
:10066000688179818A819B8120E030EF4FE755E4F2
:100670000E94FC170E941A179B01AC01802F612F6A
:10068000A9010E94DA01802F8F5F612FA6010E94CD
:10069000DA01802F8E5F612FA4010E94DA01DF91C1
:1006A000CF911F910F91FF90EF90DF90CF90BF906F
:1006B000AF909F908F900895EF92FF920F931F93AA
:1006C000DF93CF9300D000D000D0CDB7DEB7F42EAB
:1006D0008901FF0CFF0CF60EE82EEE0CE80E8E2DB5
:1006E0006F2DAE014F5F5F4F0E9405028E2D8F5F11
:1006F0006F2DAE014D5F5F4F0E9405028E2D8E5F04
:100700006F2DAE014B5F5F4F0E94050269817A81B8
:1007100080E090E00E94461720E030EF4FE755E47C
:100720000E94B216F80160837183828393836B8188
:100730007C8180E090E00E94461720E030E04AE7AC
:1007400054E40E94B216F80164837583868397830C
:100750006D817E8180E090E00E94461720E030E0CD
:100760004AE754E40E94B216F801608771878287D5
:10077000938726960FB6F894DEBF0FBECDBFCF91FC
:10078000DF911F910F91FF90EF900895FC019B0165
:100790008081618142810E9400030895FC019B01D8
:1007A0008081618142810E945C030895E0E6F0E06F
:1007B00080818061808388E0808308950E94D102D7
:1007C0000E949B020E94D60308956F927F928F929F
:1007D0009F92AF92BF92CF92DF92EF92FF920F93D0
:1007E0001F93D62EC72EB82EA92E922E832E742E8E
:1007F000652EA6019501652F742F832F922F20E07F
:1008000030E040E050E00E94AE1687FF10C0A60125
:100810009501652F742F832F922F20E030E040E860
:100820005FE30E944A16D62EC72EB82EA92EA60127
:100830009501652F7C2D832F9A2D20E030E040E834
:100840005FE30E94F817181684F4A6019501652F3E
:100850007C2D832F9A2D20E030E040E85FE30E945A
:100860004916D62EC72EB82EA92EA6019501652FA2
:100870007C2D832F9A2D20E030E040EC50E40E9444
:10088000FC1720E030E040E85FE30E94AE1687FFEF
:1008900019C06E2D7F2D802F912FD401F3012B2FA6
:1008A000382D4F2F562D0E94491620E030E040ECA5
:1008B00050E40E94FC17D601F5012B2F3C2D4F2F41
:1008C0005A2D4EC0A6019501652F7C2D832F9A2DA0
:1008D000D601F5012B2F3C2D4F2F5A2D0E944A1681
:1008E00020E030E040E85FE30E94AE1687FD46C09E
:1008F000A6019501652F7C2D832F9A2D20E030E0F5
:1009000040E450E40E94FC1720E030E040E050E476
:100910000E94AE1687FF35C06E2D7F2D802F912F40
:10092000D401F3012B2F382D4F2F562D0E9449163D
:100930007B018C016BEA7AEA8AE29FE3D601F5013A
:100940002B2F3C2D4F2F5A2D0E9449169B01AC0195
:10095000C801B7010E94FC1720E030E040EC50E4F1
:100960000E94FC179B01AC01D401F3016B2F782D81
:100970008F2F962D0E944A16F72E07C06E2DC801A4
:1009800004C0692DF82C872D962D7F2D1F910F9176
:10099000FF90EF90DF90CF90BF90AF909F908F909F
:1009A0007F906F9008952F923F924F925F926F9237
:1009B0007F928F929F92AF92BF92CF92DF92EF92EF
:1009C000FF920F931F93CF93DF93FC01EB012080E5
:1009D000318042805380A480B580C680D780E08477
:1009E000F18402851385C601B50120E030E040E0C6
:1009F00050E00E94AE16882369F4E882F9820A83E7
:100A00001B83EC82FD820E831F83E886F9860A87AA
:100A10001B878FC0C801B70120E030E040E05FE3F2
:100A20000E94AE1687FF0FC0C601B50120E030E07E
:100A300040E85FE30E944A169B01AC01C801B70180
:100A40000E94FC171EC0C801B70120E030E040E062
:100A50005FE30E94F81787FD18C0C801B701A6011F
:100A600095010E944A163B014C01C801B701A6013D
:100A700095010E94FC179B01AC01C401B3010E94C7
:100A80004916962E872E782E692EC801B701A80127
:100A900097010E944A16D401F3012B2F382D4F2FB6
:100AA000562D0E944916A62ED72EC82EB92EC20149
:100AB000B1012BEA3AEA4AEA5EE30E944A162A2D7D
:100AC0003D2D4C2D5B2DE92DF82DA72DB62D7F0149
:100AD0008D010E94E503688379838A839B83C20129
:100AE000B1012A2D3D2D4C2D5B2DE92DF82DA72D83
:100AF000B62D7F018D010E94E5036C837D838E837B
:100B00009F83C201B1012BEA3AEA4AEA5EE30E94FE
:100B100049162A2D3D2D4C2D5B2DF401A72DB62D08
:100B2000EF2EF82C8D010E94E503688779878A876C
:100B30009B87DF91CF911F910F91FF90EF90DF90F6
:100B4000CF90BF90AF909F908F907F906F905F906D
:100B50004F903F902F9008952F923F924F925F9227
:100B60006F927F928F929F92AF92BF92CF92DF92BD
:100B7000EF92FF920F931F93DF93CF9300D000D09B
:100B8000CDB7DEB79C838B832B0179018A0160E0AE
:100B900070E080E89FE30E944916D62EC72EB82E3B
:100BA000A92EC801B701D601F5012B2F3A2F4F2FDF
:100BB0005E2F0E944A16362E272E89839A83C801FB
:100BC000B701F20120813181428153810E94FC17DB
:100BD0003B014C01A6019501652F742F832F922FA5
:100BE000EB81FC8120813181428153810E94FC177D
:100BF0009B01AC01C401B3010E944A16D101698076
:100C00009A802B2F3A2F462D592D0E94B216EB8138
:100C1000FC816083718382839383C801B701F201F1
:100C200024813581468157810E94FC173B014C018C
:100C3000A6019501652F742F832F922FEB81FC81E4
:100C400024813581468157810E94FC179B01AC01AC
:100C5000C401B3010E944A16D10199806A802B2FEA
:100C60003A2F492D562D0E94B216EB81FC816483E8
:100C7000758386839783C801B701F201208531858A
:100C8000428553850E94FC177B018C01A6019501CA
:100C9000652F742F832F922FEB81FC812085318566
:100CA000428553850E94FC179B01AC01C801B70126
:100CB0000E944A16D1012B2F3A2F492D562D0E9402
:100CC000B216EB81FC8160877187828793870F90D2
:100CD0000F900F900F90CF91DF911F910F91FF9088
:100CE000EF90DF90CF90BF90AF909F908F907F90CC
:100CF0006F905F904F903F902F900895EF92FF92EA
:100D00000F931F93CF93DF93EC018FEFE82E8FE7C4
:100D1000F82E012D112D0E9436199C01B90188274A
:100D200077FD8095982F26E030E040E050E00E946B
:100D30005F18A80197010E947E182230F1F023303D
:100D400028F4222351F0213031F70CC0243001F176
:100D5000243070F02530F9F616C089818330D8F63A
:100D60008F5F04C089818823B1F28150898316C0C6
:100D70008881833080F68F5F04C08881882359F290
:100D8000815088830BC08A81833028F68F5F05C02D
:100D90008A81882309F4BFCF81508A83DF91CF9164
:100DA0001F910F91FF90EF9008958F929F92AF92B5
:100DB000BF92CF92DF92EF92FF920F931F93DF9338
:100DC000CF93CDB7DEB72C970FB6F894DEBF0FBE2A
:100DD000CDBFDE011196EDE0F1E08CE001900D92C7
:100DE0008150E1F70CED12E0EE24FF244E0108944F
:100DF000811C911C6FEFA62E6FE7B62EC12CD12C53
:100E0000B70154E0660F771F5A95E1F76E197F0915
:100E100060537D4FC4010E94D3040E9436199C0187
:100E2000B901882777FD8095982F42E0660F771FDC
:100E3000881F991F4A95D1F7A60195010E947E1837
:100E4000F80120830E9436199C01B901882777FD9B
:100E50008095982F32E0660F771F881F991F3A956B
:100E6000D1F7A60195010E947E18F80121830E9406
:100E700036199C01B901882777FD8095982F22E0CB
:100E8000660F771F881F991F2A95D1F7A601950134
:100E90000E947E18F80122830E9436199C01B90134
:100EA000882777FD8095982F0E94481720E03EEF15
:100EB0004FEF56E40E94B21669837A838B839C833A
:100EC0000894E11CF11C015F1F4F3AE0E316F104A6
:100ED00009F096CF2C960FB6F894DEBF0FBECDBFAB
:100EE000CF91DF911F910F91FF90EF90DF90CF9006
:100EF000BF90AF909F908F900895EF92FF920F93C5
:100F00001F93CF93DF9380E090E00E944402C0E003
:100F1000D0E08E01E4E0000F111FEA95E1F70C1B11
:100F20001D0B7CEDE72E72E0F72EE00EF11EC701DF
:100F30000E947E06B80160537D4FC7010E94C60320
:100F40002196CA30D10529F70E94620288EE93E00B
:100F500024EF31E0F9013197F1F70197D9F7DF91EB
:100F6000CF911F910F91FF90EF9008952F923F9294
:100F70004F925F926F927F928F929F92AF92BF92A9
:100F8000CF92DF92EF92FF920F931F93DF93CF9355
:100F9000CDB7DEB72E970FB6F894DEBF0FBECDBF2C
:100FA000DE011196E9E1F1E08CE001900D928150B3
:100FB000E1F7CC24DD241E010894211C311C0F2EE6
:100FC000F0E06F2EF0E07F2EF0E08F2EF0E09F2E0D
:100FD000F02DA3C0909166032E85921709F055C09D
:100FE000909167033D85931709F04FC020916803E6
:100FF0002E1509F04AC030E0C90174E0880F991F2E
:101000007A95E1F7821B930BFC01EA0DFB1D980119
:10101000A801440F551FB5E0220F331FBA95E1F721
:10102000241B350BE20FF31FE759FC4F60827182DE
:1010300082829382F8019801220F331F75E0EE0F30
:10104000FF1F7A95E1F7E21BF30BE80FF91FEA0D9A
:10105000FB1DE759FC4F6482758286829782F801F6
:101060009801220F331F55E0EE0FFF1F5A95E1F74D
:10107000E21BF30BE80FF91FEA0DFB1DE759FC4FCC
:10108000608671868286938625C0B70144E0660F2C
:10109000771F4A95E1F76E197F09640D751D6A0D7A
:1010A0007B1D67597C4FC1010E94D3040E943619F1
:1010B0009C01B901882777FD8095982F0E944817D9
:1010C00020E03EEF4FEF56E40E94B21669837A8328
:1010D0008B839C830894E11CF11C32E0E316F1043D
:1010E00009F078CF0F5F1F4F0230110579F00D879F
:1010F000EE24FF24C801880F991F280125E0440C25
:10110000551C2A95E1F7481A590A64CF0894C11C66
:10111000D11C82E0C816D10469F0CE8600E010E050
:101120002CE330E0C29E5001C39EB00CD29EB00CA6
:101130001124DDCF2E960FB6F894DEBF0FBECDBFC3
:10114000CF91DF911F910F91FF90EF90DF90CF90A3
:10115000BF90AF909F908F907F906F905F904F90D7
:101160003F902F900895DF92EF92FF920F931F937D
:10117000CF93DF93EC018B01F88024C0E98015C088
:10118000DA8007C08F2D6E2D4D2D98010E9400032F
:10119000D3948A8190E001962D2D30E08217930739
:1011A0001CF08D2D843070F3E394298130E02F5FA3
:1011B0003F4F8E2D90E0281739071CF08E2D84307C
:1011C000F8F2F394288130E02F5F3F4F8F2D90E0AD
:1011D000281739071CF08F2D843080F2DF91CF91D2
:1011E0001F910F91FF90EF90DF900895DF92EF92A3
:1011F000FF920F931F93DF93CF9300D00F92CDB741
:10120000DEB719821A821B82F9E6EF2EF3E0FF2E79
:101210008E010F5F1F4FC801B7010E94B3081982EA
:101220001A82E2E0DE2EDB82B701615F7F4FC801E8
:101230000E94B3081982DA821B82B701625E7F4F77
:10124000C8010E94B3081982DA82DB82B701635DAC
:101250007F4FC8010E94B308D9821A821B82B7014E
:10126000645C7F4FC8010E94B308D9821A82DB8276
:10127000C80164EB73E00E94B308D982DA821B8252
:10128000C80163EC73E00E94B308D982DA82DB8282
:10129000C80162ED73E00E94B3080F900F900F90A9
:1012A000CF91DF911F910F91FF90EF90DF90089504
:1012B0000F931F93DF93CF930F92CDB7DEB78C01BF
:1012C00069830E943619AA2797FDA095BA2F6981D4
:1012D000262F30E040E050E0BC01CD010E945F18B5
:1012E0002FEF3FE740E050E00E947E18F801E20F48
:1012F000F11D80810F90CF91DF911F910F91089583
:101300002F923F924F925F926F927F928F929F9215
:10131000BF92CF92DF92EF92FF920F931F93DF93D2
:10132000CF93CDB7DEB76A970FB6F894DEBF0FBE86
:10133000CDBF909166038091E103992321F0843021
:1013400051F083E003C0833031F084E08F83FE01ED
:10135000389661E003C0FE01379660E09091670324
:101360008091E103992329F0813041F06F5F82E0A1
:1013700004C0823019F06F5F81E08193909168031F
:101380008091E103992329F0853041F06F5F86E079
:1013900004C0863019F06F5F85E08083CE01079628
:1013A0000E9458098093E10360916603509167039E
:1013B000409168038330A9F0843028F4813051F0E3
:1013C0008230E1F40AC0853099F0853068F08630CB
:1013D000A9F411C0D52ED39402C0D52EDA94C42E10
:1013E0000FC0B62EBA9402C0B62EB3946A0109C0DB
:1013F000C42EC39404C0C42ECA9401C0C42ED52EDA
:10140000B62E8B2D90E09A8F898FEC2CFF248701CC
:10141000F4E0000F111FFA95E1F70E191F098D2D49
:1014200090E09C01220F331F75E0880F991F7A9579
:10143000E1F7821B930B080F191F2CE330E0E98DB5
:10144000FA8DE29FC001E39F900DF29F900D112451
:10145000080F191F07591C4F80E090E0A0E0B0E092
:101460008D879E87AF87B88B898B9A8BAB8BBC8B14
:101470008D8B9E8BAF8BB88F2B2D220F29839D2DAB
:10148000990F9A838C2D880F8B83660F6C83550F71
:101490005D83440F4E83261728F0621738F022240C
:1014A000332407C021E0222E312C03C022242A94A9
:1014B000322C951728F0591738F04424552407C0CA
:1014C00091E0492E512C03C044244A94542C841793
:1014D00028F0481738F06624772407C081E0682E8A
:1014E000712C03C066246A94762C4E010894811CEA
:1014F000911CC401BE01635F7F4F0E94B3088981C4
:10150000820D89838A81840D8A838B81860D8B83EA
:10151000C401B8010E94B3080E94620284EF91E006
:10152000E4EFF1E03197F1F70197D1F7C401BE0183
:101530006C5F7F4F43E050E00E94291A0097C9F684
:101540008091680390E0FC01B4E0EE0FFF1FBA95B4
:10155000E1F7E81BF90B8091670390E09C01220FF3
:10156000331F75E0880F991F7A95E1F7821B930B63
:10157000E80FF91F4091660350E08CE390E0489F2C
:101580009001499F300D589F300D1124E20FF31F39
:10159000D70164E0AA0FBB1F6A95E1F7AE19BF0936
:1015A000498D5A8D489F9001499F300D589F300DAD
:1015B0001124A20FB31F8D2D90E09C01220F331F29
:1015C00045E0880F991F4A95E1F7821B930BA80FFE
:1015D000B91FE759FC4FA759BC4F8CE00D90019201
:1015E0008150E1F7D801FE013D968CE001900D920B
:1015F0008150E1F7B0926603D0926703C09268030E
:101600006A960FB6F894DEBF0FBECDBFCF91DF91C3
:101610001F910F91FF90EF90DF90CF90BF909F9020
:101620008F907F906F905F904F903F902F90089594
:10163000AF92BF92CF92DF92EF92FF920F931F93E0
:101640000E94F6080E9462020E9436199C01B901AC
:10165000882777FD8095982F24EF31E040E050E017
:101660000E945F182FEF3FE740E050E00E947E1895
:10167000285D3F4F4F4F5F4FCA01B9010E94481785
:101680005B016C0120E030E44CE955E40E94FC175A
:101690007B018C017F2D912F20E030E040E85FE35B
:1016A0000E94AE1687FD29C06E2D7F2D802F912FB1
:1016B00020E03FEF4FE757E40E94F8171816B4F404
:1016C000C601B50120E030E040E251E40E94FC1781
:1016D0000E941A1724EF31E005C0C9010197F1F704
:1016E0006150704061157105C1F70CC06E2D7F2DE2
:1016F000802F912F0E941A1702C061E070E0CB0189
:101700000197F1F70E9480091F910F91FF90EF90D0
:10171000DF90CF90BF90AF9008952F923F924F925D
:101720005F926F927F928F929F92AF92BF92CF9271
:10173000DF92EF92FF920F931F93DF93CF93CDB77A
:10174000DEB72C970FB6F894DEBF0FBECDBF93E087
:10175000892E6E010894C11CD11C84EF282E81E0D3
:10176000382E0F2EF0E0EF2EF0E0FF2EF0E00F2FDE
:10177000F0E01F2FF02D0F2EF0E04F2EF0E05F2E47
:10178000F0E86F2EFFE37F2EF02D66C0ED82FE8223
:101790000F831887E986FA860B871C87992449826C
:1017A0005A826B827C82892D6B2D4A2D96010E9474
:1017B00000030E94620288EE93E0F1013197F1F795
:1017C0000197D9F7E982FA820B831C834D825E82EE
:1017D0006F827886892D6B2D4A2D96010E94000319
:1017E0000E94620288EE93E0F1013197F1F70197D0
:1017F000D9F7ED82FE820F83188749865A866B8659
:101800007C86892D6B2D4A2D96010E9400030E9433
:10181000620288EE93E0F1013197F1F70197D9F771
:10182000E986FA860B871C87892D6B2D4A2D960138
:101830000E9400039394892D843009F0B0CFA394C3
:101840008A2D843009F0A2CFB3948B2D843011F00F
:10185000AA249CCF8A9411F0BB24FACF2C960FB601
:10186000F894DEBF0FBECDBFCF91DF911F910F91D6
:10187000FF90EF90DF90CF90BF90AF909F908F90B0
:101880007F906F905F904F903F902F900895CF92F0
:10189000DF92EF92FF920F931F93DF93CF93CDB719
:1018A000DEB72C970FB6F894DEBF0FBECDBF23E096
:1018B000C22E8E010F5F1F4F1FC0D801E5E2F1E07D
:1018C0008CE001900D928150E1F7DD248D2D6F2D7C
:1018D0004E2D98010E940003D3948D2D8430B1F7D2
:1018E000E3948E2D843049F7F3948F2D843011F0DA
:1018F000EE24E3CFCA9411F0FF24FACF0E946202D3
:101900002C960FB6F894DEBF0FBECDBFCF91DF91FE
:101910001F910F91FF90EF90DF90CF9008952F923D
:101920003F924F925F926F927F928F929F92AF926F
:10193000BF92CF92DF92EF92FF920F931F93DF93AC
:10194000CF93CDB7DEB72C970FB6F894DEBF0FBE9E
:10195000CDBFDD242E010894411C511C34EF232EF1
:1019600031E0332E0F2EF0E0EF2EF0E0FF2EF0E00E
:101970000F2FF0E01F2FF02D0F2EF0E06F2EF0E074
:101980007F2EF0E88F2EFFE39F2EF02D47C0E982D7
:10199000FA820B831C83ED82FE820F831887E9860F
:1019A000FA860B871C878D2D813039F0823051F0FB
:1019B00069827A828B829C8209C06D827E828F824C
:1019C000988604C069867A868B869C8682E390E03E
:1019D0000E944402AA248A2D6C2D4B2D92010E9454
:1019E00000030E94620228EB3BE0C1010197F1F77E
:1019F00021503040D1F7A3948A2D843061F7B394FD
:101A00008B2D843009F0C3CFC3948C2D843011F01A
:101A1000BB24BDCFD3948D2D833011F0CC24F8CFCF
:101A20002C960FB6F894DEBF0FBECDBFCF91DF91DD
:101A30001F910F91FF90EF90DF90CF90BF90AF90EC
:101A40009F908F907F906F905F904F903F902F90DE
:101A5000089580E090E00E9444020E94620208958E
:101A60002F923F924F925F926F927F928F929F92AE
:101A7000AF92BF92CF92DF92EF92FF920F931F939C
:101A8000DF93CF93CDB7DEB72C970FB6F894DEBFB8
:101A90000FBECDBF0E9436196091310170913201A5
:101AA00080913301909134012AE037ED43EA5CE301
:101AB0000E944A167B018C01862F9F2DA02FB12FEB
:101AC0008093310190933201A0933301B09334019C
:101AD0006E2D7F2D802F912F20E030E040E85FE3D6
:101AE0000E94F81787FD12C06E2D7F2D802F912F39
:101AF00020E030E040E85FE30E9449166093310146
:101B000070933201809333019093340169E0762E13
:101B10005AE9652E49E9542E39E9432E2EEB322E2F
:101B20005E010894A11CB11C9AC096016E2D7F2DF8
:101B3000832F9C2D2DEC3CEC4CEC5DE30E944A166F
:101B40007B01D82EC92E012F0F5F96018E2D9F2D60
:101B5000A32FBC2D8093390190933A01A0933B01B0
:101B6000B0933C016E2D7F2D832F9C2D20E030E023
:101B700040E05FE30E94F81718162CF480E090E034
:101B8000A0E0BFE311C096016E2D7F2D832F9C2D09
:101B900020E030E040E050E00E94AE1687FF0CC02D
:101BA00080E090E0A0E0B0E08093390190933A01AA
:101BB000A0933B01B0933C0181E391E0B5010E9409
:101BC000D30499240BC08824812F692D482D9501B9
:101BD0000E94000383948016B8F39394901698F3B0
:101BE00099240AC0882D692D412F95010E94000378
:101BF00083948016B8F39394901610F48824F9CF48
:101C000099240AC0882D612F492D95010E94000357
:101C100083948016B8F39394901610F48824F9CF27
:101C20000E946202115008F080CF0E94620280E997
:101C300091E0E4EFF1E03197F1F70197D1F7662DEC
:101C4000752D842D932D2DEC3CEC4CEC5DE30E9426
:101C50004A167A9451F0662E572E482E392EE62CCD
:101C6000F52CD42CC32C13E06ECF2DEC3CEC4CECBB
:101C70005DE30E944916C62E772E682E592E99E0F4
:101C8000492E5E010894A11CB11C84EF282E81E02E
:101C9000382E95C06E2D7F2D802F9D2D2DEC3CEC88
:101CA0004CEC5DE30E9449167B01082FD92E8E2D46
:101CB0009F2DA02FBD2D8093390190933A01A093C1
:101CC0003B01B0933C016E2D7F2D802F9D2D20E098
:101CD00030E040E05FE30E94F81718162CF480E033
:101CE00090E0A0E0BFE310C06E2D7F2D802F9D2DD2
:101CF00020E030E040E050E00E94AE1687FF0CC0CC
:101D000080E090E0A0E0B0E08093390190933A0148
:101D1000A0933B01B0933C0181E391E0B5010E94A7
:101D2000D304912E812E812F692D482D95010E947B
:101D300000038394882D8430B0F39394892D8430EC
:101D400089F7912E812E882D692D412F95010E94B2
:101D500000038394882D8430B0F39394892D8430CC
:101D600088F3912E812E882D612F492D95010E9497
:101D700000038394882D8430B0F39394892D8430AC
:101D800088F30E946202115008F084CF0E94620220
:101D900080E991E0F1013197F1F70197D9F74A9481
:101DA000A1F06C2D772D862D952D2DEC3CEC4CEC77
:101DB0005DE30E944916C62E772E682E592EEC2C14
:101DC000F72C062DD52C13E072CF2C960FB6F89475
:101DD000DEBF0FBECDBFCF91DF911F910F91FF905E
:101DE000EF90DF90CF90BF90AF909F908F907F90BB
:101DF0006F905F904F903F902F900895EF92FF92D9
:101E00000F931F930E9436199C01B901882777FD13
:101E10008095982F0E94481720E03EEF4FEF56E440
:101E20000E94B2161092E203262F372F482F592F07
:101E300020931704309318044093190450931A0404
:101E400020E030E040E85FE320931B0430931C0463
:101E500040931D0450931E041092E30320E030E0F1
:101E600040E05FE30E944A167B018C017F2D912F99
:101E700020E030E040E85FE30E94F81787FD04C0EF
:101E8000EE24FF2400E010E0109223048E2D9F2DFD
:101E9000A02FB12F8093580490935904A0935A0413
:101EA000B0935B0480E090E0A0E8BFE380935C0423
:101EB00090935D04A0935E04B0935F041092240499
:101EC00080E090E00E9444020E9462021F910F9104
:101ED000FF90EF90089520E330E00296F9013397E8
:101EE000DC01A20FB31FE80FF91F43E001900D9230
:101EF0004150E1F72350304089F708950F931F9325
:101F0000DF93CF930F92CDB7DEB78C0169830E9428
:101F10003619AA2797FDA095BA2F6981262F30E0A0
:101F200040E050E0BC01CD010E945F182FEF3FE779
:101F300040E050E00E947E18F801E20FF11D808120
:101F40000F90CF91DF911F910F910895CF92DF9263
:101F5000EF92FF920F931F93DF93CF93CDB7DEB72E
:101F60002C970FB6F894DEBF0FBECDBF8C01DC01FD
:101F70008C91813110F48F5F8C93C8010E946B0F9C
:101F8000F8018081813009F04AC00E9436199C0115
:101F9000B901882777FD8095982F52E0660F771F4B
:101FA000881F991F5A95D1F74FEFC42E4FE7D42EB3
:101FB000E12CF12CA70196010E947E18D8011296FF
:101FC0002C930E943619FC01BF01882777FD80956C
:101FD000982F32E0660F771F881F991F3A95D1F727
:101FE000A70196010E947E18D80113962C930E9497
:101FF0003619FC01BF01882777FD8095982F22E0D4
:10200000660F771F881F991F2A95D1F7A7019601A0
:102010000E947E18D80114962C931497ABC0F80137
:1020200092819923B1F08181833049F024E02983A2
:10203000843049F48A83FE01339662E007C0FE01D2
:10204000319660E003C0FE01329661E0933088F47F
:1020500003C0FE01319660E0D80111968C91119772
:10206000843039F06F5F93E09193833011F46F5FA8
:102070008193D80113969C911397992371F011962F
:102080008C911197813039F06F5F22E0219382307B
:1020900011F46F5F8193933068F4D80111968C919D
:1020A0001197823039F06F5F91E09193813011F494
:1020B0006F5F8193D80114969C911497992371F0C6
:1020C00011968C911197863039F06F5F25E021933E
:1020D000853011F46F5F8193933068F4D8011196C5
:1020E0008C911197853039F06F5F96E09083863040
:1020F00011F46F5F8183CE0101960E947E0FF8017B
:1021000081838330B9F0843028F4813009F1823042
:1021100089F515C0853009F1853018F0863051F504
:1021200025C0D80112968C911297815012968C93EB
:10213000129720C0F80182818F5F82831BC0D80173
:1021400013968C911397815013968C93139712C00A
:10215000F80183818F5F83830DC0D80114968C9121
:102160001497815014968C93149704C0F8018481BD
:102170008F5F84832C960FB6F894DEBF0FBECDBF61
:10218000CF91DF911F910F91FF90EF90DF90CF9053
:1021900008952F923F924F925F927F928F929F92DB
:1021A000AF92BF92CF92DF92EF92FF920F931F9365
:1021B000DF93CF93CDB7DEB768970FB6F894DEBF45
:1021C0000FBECDBF7C01FC0165A976A987A990ADA2
:1021D00027E137EB41E55AE30E944A16262F372FB5
:1021E000482F592FF70125AB36AB47AB50AF20E056
:1021F00030E040E85FE30E94F81787FD09C080E007
:1022000090E0A0E0B0E0F70185AB96ABA7ABB0AF34
:10221000F701808190E001978C01000F111F080FDA
:10222000191F0E5F1F4F0E0D1F1DFD9680E090E0E1
:10223000A0E0B0E080839183A283B38377245F0121
:10224000E2E04E2E512C4E0C5F1C75E3272E312CF4
:102250002E0C3F1C6E010894C11CD11C6DE0862E13
:10226000912C8C0E9D1E66C0F5016081718182816A
:10227000938121EC30EC40E45CE30E944A16262F67
:10228000372F482F592FF501208331834283538301
:1022900020E030E040E05FE30E94F81718161CF0E1
:1022A0000415150549F480E090E0A0E0BFE3F501D6
:1022B00080839183A283B383C101B6010E94D304BA
:1022C000C801B4010E94CE036D857E858F859889F3
:1022D00020E030E040E050E00E94AE168823C1F4D8
:1022E00069897A898B899C8920E030E040E050E060
:1022F0000E94AE16882361F46D897E898F89988D3E
:1023000020E030E040E050E00E94AE16882359F013
:10231000C401B60120E030E040E05FE30E94AC057C
:10232000C801B40102C0C801B6010E94C60303502F
:1023300010407394F7018081781608F495CF689661
:102340000FB6F894DEBF0FBECDBFCF91DF911F91C6
:102350000F91FF90EF90DF90CF90BF90AF909F9044
:102360008F907F905F904F903F902F90089580E0E6
:1023700090E00E94440282EE93E00E94A60F82EE5B
:1023800093E00E94C91083E294E00E94A60F83E2CA
:1023900094E00E94C9100E94620280E991E024EF5B
:1023A00031E0F9013197F1F70197D9F70895A89530
:1023B000289808E110E0ACE7B4E040914201509168
:1023C00043016F930F921F922F923F924F925F9211
:1023D0006627409F402C512C519F202C312C419F2F
:1023E000300C411C561E509F300C410C561E442D83
:1023F000552D5F904F903F902F901F900F906F91B1
:10240000A40FB51F2E9120934E0030914D0037FF41
:10241000FCCF01501040B1F7299A299808950F93E5
:102420001F932F933F934F935F93FF93AF93BF936C
:102430000FB70F93109100011A951093000109F046
:1024400040C0009180000F7D009380002A9AF09197
:10245000B100FE7FF093B100F0918100FE7FF09318
:10246000810000914201003029F4439A459A459831
:10247000439802C0459A45980E94D71100914201A5
:102480000395003108F000270093420112E01093F9
:1024900000012A9800918000006200938000009162
:1024A0003600016000933600F091B100F160F093C6
:1024B000B100002700938400F0918100F160F09357
:1024C00081000F910FBFBF91AF91FF915F914F912D
:1024D0003F912F911F910F911895611571058105FD
:1024E000910521F4FA0180E3819315C0DA019B0183
:1024F000217030702115310511F021E301C020E376
:102500002D93FD01969587957795679561157105D2
:102510008105910561F7CF010895A3E1B0E0E3E9FA
:10252000F2E10C9499185C017D876C87FC0117829D
:102530001682838181FD03C0A5C3A10105C09E0150
:102540002F5F3F4F3B8B2A8BF5019381EC85FD85F7
:1025500093FD859193FF8191FD87EC87882309F492
:102560008DC3853241F493FD859193FF8191FD8761
:10257000EC87853251F490E0B501488B598B0E946D
:10258000411A488959891A01D8CF10E0FF2400E088
:102590000032B0F48B3269F08C3228F4803251F082
:1025A000833271F40BC08D3239F0803349F401600D
:1025B0002CC00260046029C0086027C0006125C0EB
:1025C00007FD2EC0282F20532A3098F406FF08C09C
:1025D000812F880F182F110F110F180F120F15C010
:1025E0008F2D880FF82EFF0CFF0CF80EF20E0062F4
:1025F0000CC08E3221F406FD41C3006406C08C3647
:1026000011F4006802C0883659F4EC85FD8593FD0D
:10261000859193FF8191FD87EC87882309F0B8CFDE
:10262000982F9554933018F40061805E06C0982F5F
:102630009556933008F0A5C10F7E06FF16E0EFE334
:10264000EE2EE022853619F4F0E4EF2A07C0863634
:1026500019F420E8E22A02C011111150E7FE06C069
:102660001C3340F4912E939427E00BC0183030F4C3
:10267000212F06C027E07CE3972E03C027E017E058
:10268000992464E0262E312C240E351EFA01608137
:10269000718182819381AE014F5F5F4F092D0E944E
:1026A00046196C016980262D30E03F872E8760FE39
:1026B00003C03E8533FF06C0E1FC06C0E2FE06C053
:1026C00000E205C00DE203C00BE201C000E08E8510
:1026D0009F858C7090700097C1F1002311F084E009
:1026E00001C083E08F1558F4F81AE3FC09C080E2BA
:1026F00090E0B5010E94411AFA94C9F701C0FF2485
:10270000002329F0802F90E0B5010E94411A8E85A8
:1027100083FD03C00CE610E00EC008E610E00BC01D
:10272000C114D10409F0805290E0B5010E94411A11
:102730000F5F1F4F05C0CE2CDD2490E1C922DD24A0
:10274000F8018491882361F796C2E7FE0EC09C0CC5
:10275000FE85F4FF04C08A81813309F49A94191428
:1027600054F5292D293050F52DC0E6FC2BC0812FC2
:1027700090E08C159D054CF03CEFC3163FEFD3065F
:1027800024F080E8E82A01C01150112349F0E2E06A
:10279000F0E0EC0FFD1FE10FF11D80818033A1F30C
:1027A000E7FE10C0912E9394812F90E0C816D906B1
:1027B00044F41C1907C09924939404C038E0932E64
:1027C00001C010E0E7FE07C01C141D043CF4960194
:1027D0002F5F3F4F05C025E030E002C021E030E030
:1027E000002311F02F5F3F4F112329F0812F90E03C
:1027F0000196280F391F8F2D90E02817390714F400
:10280000F21A01C0FF244E2C5524C2018970907029
:10281000009749F406C080E290E0B5010E94411A99
:10282000FA94FF20C1F7002329F0802F90E0B50132
:102830000E94411A43FC09C006C080E390E0B50144
:102840000E94411AFA94FF20C1F7E7FE4AC0360100
:10285000D7FE02C06624772426010894411C511C2F
:1028600046185708E1E0F0E0EC0FFD1F4E0E5F1E2A
:102870009601291931094901812F90E0002711277C
:10288000081B190B3FEF63163FEF730629F48EE226
:1028900090E0B5010E94411AC614D70434F08614A2
:1028A00097041CF4F201808101C080E30894610860
:1028B00071080894411C511C601671062CF090E0C0
:1028C000B5010E94411ADECF6C147D0441F49A8157
:1028D000963320F4953319F4FE85F4FF81E390E0FC
:1028E0004CC08A81813311F02FEE622290E0B50155
:1028F0000E94411A1123A1F08EE290E0B5010E94DE
:10290000411A02E0E1E0F0E0EC0FFD1FE00FF11DE5
:102910000F5F808190E0B5010E94411A115091F73C
:1029200044FE03C085E490E002C085E690E0B50176
:102930000E94411AD7FC05C0C114D10441F464FEC1
:1029400006C0D094C194D108D3948DE201C08BE22B
:1029500090E0B5010E94411A80E305C08F5FE6EF69
:10296000FFEFCE0EDF1EFAE0CF16D104BCF790E0E9
:10297000B5010E94411AC601C096B5010E94411AD4
:102980007AC1833631F08337A1F0833509F05CC01A
:1029900025C022E0222E312C240E351EFA01808122
:1029A00089833E010894611C711C91E0C92ED12CD1
:1029B00013C082E0282E312C240E351EFA016080CF
:1029C000718006FF03C0612F70E002C06FEF7FEFE0
:1029D000C3010E94361A6C010F7714C0B2E02B2E8F
:1029E000312C240E351EFA016080718006FF03C071
:1029F000612F70E002C06FEF7FEFC3010E941E1ACB
:102A00006C01006803FD1CC006C080E290E0B501C7
:102A10000E94411AFA948F2D90E0C816D906A8F3A7
:102A20000FC0F30107FD859107FF81913F0190E001
:102A3000B5010E94411AF110FA940894C108D10816
:102A4000C114D10471F717C1843611F0893661F5CC
:102A500007FF0BC0A4E02A2E312C240E351EFA01EC
:102A600060817181828193810CC0F2E02F2E312C24
:102A7000240E351EFA0160817181882777FD8095CB
:102A8000982F0F7697FF08C0909580957095619567
:102A90007F4F8F4F9F4F0068AE014F5F5F4F2AE01F
:102AA00030E00E946D1A65C0853721F40F7E2AE060
:102AB00030E022C0097F8F36B9F0803730F4883596
:102AC00079F0823609F0DAC038C0803721F08837D3
:102AD00009F0D4C001C0006104FF09C0046007C050
:102AE00004FF08C0066006C028E030E005C020E111
:102AF00030E002C020E132E007FF0BC0E4E02E2E00
:102B0000312C240E351EFA016081718182819381FE
:102B10000AC072E0272E312C240E351EFA01608186
:102B2000718180E090E0AE014F5F5F4F0E946D1AAF
:102B3000982EFA899F1A0F771FC007FF0BC064E019
:102B4000262E312C240E351EFA016081718182817E
:102B500093810AC032E0232E312C240E351EFA0157
:102B60006081718180E090E0AE014F5F5F4F0E9415
:102B70006D12982EFA899F1A06FF09C00E7F9116D2
:102B800030F404FF06C002FD04C00F7E02C0E92C31
:102B900001C0E12E802F90E004FF0CC0FE01E90D82
:102BA000F11D2081203311F4097E09C0E39402FF56
:102BB00006C004C086789070009709F0E394C02E98
:102BC000DD2403FD14C000FF0FC0EF1428F4192DFD
:102BD0001F0D1E19EF2C08C0192D06C080E290E0D1
:102BE000B5010E94411AE394EF14C0F304C0EF143E
:102BF00010F4FE1801C0FF24C4FE0FC080E390E073
:102C0000B5010E94411AC2FE1FC0C1FE03C088E583
:102C100090E010C088E790E00DC0C6018678907003
:102C2000009791F0C1FC02C080E201C08BE207FD79
:102C30008DE290E0B5010E94411A06C080E390E069
:102C4000B5010E94411A11509116C0F39A94E1E027
:102C5000F0E0EC0FFD1FE90DF11D808190E0B50162
:102C60000E94411A992091F706C080E290E0B501D8
:102C70000E94411AFA94FF20C1F75FCCF50126812A
:102C8000378102C02FEF3FEFC9016396E2E10C9458
:102C9000B5185058BB27AA270ED070C161D130F0AB
:102CA00066D120F031F49F3F11F41EF456C10EF4AA
:102CB000E095E7FB4CC1E92F72D180F3BA176207A8
:102CC00073078407950718F071F49EF58AC10EF416
:102CD000E0950B2EBA2FA02D0B01B90190010C012C
:102CE000CA01A0011124FF27591B99F0593F50F444
:102CF000503E68F11A16F040A22F232F342F44279C
:102D0000585FF3CF469537952795A795F040539593
:102D1000C9F77EF41F16BA0B620B730B840BBAF063
:102D20009150A1F0FF0FBB1F661F771F881FC2F7CE
:102D30000EC0BA0F621F731F841F48F487957795E2
:102D40006795B795F7959E3F08F0B3CF9395880F99
:102D500008F09927EE0F979587950895D4D008F439
:102D600081E008950CD00AC102D140F0F9D030F0D2
:102D700021F45F3F19F0EBC0511134C1EEC00FD107
:102D800098F39923C9F35523B1F3951B550BBB2732
:102D9000AA2762177307840738F09F5F5F4F220FDF
:102DA000331F441FAA1FA9F333D00E2E3AF0E0E8D8
:102DB00030D091505040E695001CCAF729D0FE2F24
:102DC00027D0660F771F881FBB1F261737074807B6
:102DD000AB07B0E809F0BB0B802DBF01FF2793586C
:102DE0005F4F2AF09E3F510568F0B1C0FBC05F3FC6
:102DF000ECF3983EDCF3869577956795B795F79554
:102E00009F5FC9F7880F911D9695879597F908954B
:102E1000E1E0660F771F881FBB1F621773078407E7
:102E2000BA0720F0621B730B840BBA0BEE1F88F7F6
:102E3000E0950895BCD088F09F5790F0B92F99275E
:102E4000B751A0F0D1F0660F771F881F991F1AF0B5
:102E5000BA95C9F712C0B13081F0C3D0B1E008957E
:102E6000C0C0672F782F8827B85F39F0B93FCCF3FF
:102E7000869577956795B395D9F73EF490958095AB
:102E8000709561957F4F8F4F9F4F0895E89409C0CB
:102E900097FB3EF490958095709561957F4F8F4F8D
:102EA0009F4F9923A9F0F92F96E9BB279395F695A3
:102EB000879577956795B795F111F8CFFAF4BB0F21
:102EC00011F460FF1BC06F5F7F4F8F4F9F4F16C085
:102ED000882311F096E911C0772321F09EE8872F0F
:102EE000762F05C0662371F096E8862F70E060E0CB
:102EF0002AF09A95660F771F881FDAF7880F969544
:102F0000879597F90895990F0008550FAA0BE0E8E7
:102F1000FEEF16161706E807F907C0F0121613069B
:102F2000E407F50798F0621B730B840B950B39F4DB
:102F30000A2661F0232B242B252B21F408950A2641
:102F400009F4A140A6958FEF811D811D089597F981
:102F50009F6780E870E060E008959FEF80EC08953F
:102F600000240A9416161706180609060895002468
:102F70000A9412161306140605060895092E0394E2
:102F8000000C11F4882352F0BB0F40F4BF2B11F456
:102F900060FF04C06F5F7F4F8F4F9F4F089557FDB5
:102FA0009058440F551F59F05F3F71F04795880FB7
:102FB00097FB991F61F09F3F79F08795089512164E
:102FC00013061406551FF2CF4695F1DF08C01616FA
:102FD00017061806991FF1CF8695710561050894AB
:102FE0000895E894BB2766277727CB0197F90895C2
:102FF0008ADF08F48FEF08950BD0C0CFB1DF28F03F
:10300000B6DF18F0952309F0A2CFA7CF1124EACF9D
:10301000C6DFA0F3959FD1F3950F50E0551F629F37
:10302000F001729FBB27F00DB11D639FAA27F00D21
:10303000B11DAA1F649F6627B00DA11D661F829F48
:103040002227B00DA11D621F739FB00DA11D621F2D
:10305000839FA00D611D221F749F3327A00D611D4A
:10306000231F849F600D211D822F762F6A2F11242C
:103070009F5750408AF0E1F088234AF0EE0FFF1F7F
:10308000BB1F661F771F881F91505040A9F79E3FB6
:10309000510570F05CCFA6CF5F3FECF3983EDCF3B8
:1030A000869577956795B795F795E7959F5FC1F7F3
:1030B000FE2B880F911D9695879597F90895629F2D
:1030C000D001739FF001829FE00DF11D649FE00D20
:1030D000F11D929FF00D839FF00D749FF00D659F81
:1030E000F00D9927729FB00DE11DF91F639FB00D80
:1030F000E11DF91FBD01CF011124089597FB092E91
:1031000005260ED057FD04D04BD00AD0001C38F451
:1031100050954095309521953F4F4F4F5F4F089503
:10312000F6F790958095709561957F4F8F4F9F4FE3
:1031300008952F923F924F925F926F927F928F925B
:103140009F92AF92BF92CF92DF92EF92FF920F9336
:103150001F93CF93DF93CDB7DEB7CA1BDB0B0FB640
:10316000F894DEBF0FBECDBF09942A8839884888FD
:103170005F846E847D848C849B84AA84B984C88493
:10318000DF80EE80FD800C811B81AA81B981CE0F8A
:10319000D11D0FB6F894DEBF0FBECDBFED0108956F
:1031A000A1E21A2EAA1BBB1BFD010DC0AA1FBB1F4B
:1031B000EE1FFF1FA217B307E407F50720F0A21BBD
:1031C000B30BE40BF50B661F771F881F991F1A942A
:1031D00069F760957095809590959B01AC01BD0154
:1031E000CF010895A0E0B0E0E8EFF8E10C94A11859
:1031F000EC01688179818A819B8161157105810566
:10320000910521F464E279ED8BE597E02DE133EF50
:1032100041E050E00E947E1879018A0127EA31E4FA
:1032200040E050E00E945F185B016C01C801B701EB
:103230002CEE34EF4FEF5FEF0E945F186A0D7B1D9D
:103240008C1D9D1D97FF04C06150704080409048C8
:10325000688379838A839B837F77CB01CDB7DEB781
:10326000EAE00C94BD180E94F21808958DE391E0F5
:103270000E94F2180895A0E0B0E080933D01909381
:103280003E01A0933F01B09340010895283008F01B
:1032900027E03327DA01990F311D87FD91600096F1
:1032A0006105710539F432602E5F3D9330E32A9554
:1032B000E1F708959F3F30F080387105610509F00E
:1032C0003C5F3C5F3D93913008F08068911DDF9337
:1032D000CF931F930F93FF92EF92192F987F96959C
:1032E000E92F96959695E90FFF27E653FF4F99270B
:1032F0003327EE24FF24A701E701059008940794E3
:1033000028F4360FE71EF81E491F511D660F771F60
:10331000881F991F0694A1F70590079428F4E70EDB
:10332000F81E491F561FC11D770F881F991F661F62
:103330000694A1F70590079428F4F80E491F561F2C
:10334000C71FD11D880F991F661F771F0694A1F70D
:103350000590079420F4490F561FC71FD81F990FD7
:10336000661F771F881F0694A9F784911095177020
:1033700041F0D695C79557954795F794E7941A95D8
:10338000C1F7E0E7F0E068941590159135916591EB
:10339000959105907FE27395E118F10A430B560B66
:1033A000C90BD009C0F7E10CF11E431F561FC91FFE
:1033B000D01D7EF4703311F48A95E6CFE894015065
:1033C00030F0080F0AF40027021708F4202F239585
:1033D000022F7A3328F079E37D932A95E9F710C01C
:1033E0007D932A9589F60694979567953795179555
:1033F0001794E118F10A430B560BC90BD00998F04A
:1034000023957E9173957A3308F070E37C932013B3
:10341000B8F77E9170617D9330F0839571E37D9371
:1034200070E32A95E1F71124EF90FF900F911F911F
:10343000CF91DF91992787FD90950895FC01059024
:10344000615070400110D8F7809590958E0F9F1FA6
:103450000895FB01DC0104C08D910190801921F4D5
:1034600041505040C8F7881B990B0895FC016150EA
:10347000704001900110D8F7809590958E0F9F1F96
:1034800008950F931F93CF93DF938C01EB018B81F2
:1034900081FF1BC082FF0DC02E813F818C819D81E9
:1034A0002817390764F4E881F9810193F983E883E7
:1034B00006C0E885F985802F0995009731F48E8143
:1034C0009F8101969F838E8302C00FEF1FEFC8017B
:1034D000DF91CF911F910F910895FA01AA2728300B
:1034E00051F1203181F1E8946F936E7F6E5F7F4FD1
:1034F0008F4F9F4FAF4FB1E03ED0B4E03CD0670F4D
:10350000781F891F9A1FA11D680F791F8A1F911D9F
:10351000A11D6A0F711D811D911DA11D20D009F4EF
:1035200068943F912AE0269F11243019305D319331
:10353000DEF6CF010895462F4770405D4193B3E01A
:103540000FD0C9F7F6CF462F4F70405D4A3318F0C1
:10355000495D31FD4052419302D0A9F7EACFB4E072
:10356000A6959795879577956795BA95C9F700972A
:103570006105710508959B01AC010A2E06945795CB
:10358000479537952795BA95C9F7620F731F841F22
:10359000951FA01D0895DC01CB01FC01F999FECF18
:1035A00006C0F2BDE1BDF89A319600B40D924150CB
:1035B0005040B8F70895DC01CB0103C02D910E9463
:1035C000E61A41505040D0F70895262FF999FECFC2
:1035D0001FBA92BD81BD20BD0FB6F894FA9AF99A30
:0A35E0000FBE01960895F894FFCF86
:1035EA00020000304200007C4200007C420AD7A35D
:1035FA003E0000803F0000003F0000000000008005
:10360A003F0000003F0000803F0000803F00008034
:10361A003F000000000000803F0000003F01000062
:02362A0000009E
:00000001FF
