:100000000C94B5000C94D2000C94D2000C94D20045
:100010000C94D2000C94D2000C94D2000C94D20018
:100020000C94D2000C94D2000C94D2000C94D20008
:100030000C94D2000C94362B0C94D2000C94D20069
:100040000C94D2000C94192B0C94D2000C94D20076
:100050000C94D2000C94F32A0C94D2000C94D2008D
:100060000C94D2000C94D2006E616E00696E660032
:1000700000407A10F35A00A0724E18090010A5D45F
:10008000E80000E87648170000E40B54020000CABC
:100090009A3B000000E1F505000080969800000002
:1000A00040420F000000A086010000001027000061
:1000B0000000E803000000006400000000000A00E7
:1000C000000000000100000000002C76D888DC67EA
:1000D0004F0823DFC1DFAE59E1B1B796E5E3E45342
:1000E000C63AE651997696E8E6C28426EB898C9B5F
:1000F00062ED407C6FFCEFBC9C9F40F2BAA56FA5FF
:10010000F490055A2AF75C936B6CF9676DC11BFC80
:10011000E0E40D47FEF520E6B500D0ED902E03009B
:10012000943577050080841E080000204E0A0000E8
:1001300000C80C333333330F986E12831141EF8DA7
:100140002114893BE65516CFFEE6DB18D1844B38E7
:100150001BF77C1D901DA4BBE424203284725E2218
:100160008100C9F124ECA1E53D2711241FBECFEF8A
:10017000D8E0DEBFCDBF11E0A0E0B1E0E8E0FDE6F1
:1001800002C005900D92A436B107D9F718E0A4E695
:10019000B1E001C01D92AB33B107E1F70E94D4007A
:1001A0000C9482360C9400000F931F93DF93CF932F
:1001B00000D000D0CDB7DEB78E010F5F1F4FC80152
:1001C00060E070E044E050E00E945A3689819A81F4
:1001D000AB81BC810E94CA3489819A81AB81BC8188
:1001E0000196A11DB11D89839A83AB83BC83C8018D
:1001F00060E070E044E050E00E946A3680E090E009
:100200000E94B7020E9430030E940B080E94AD2694
:100210000E941A2AFDCFEF92FF920F931F93DF9354
:10022000CF9300D000D0CDB7DEB780E0E82E80E0DD
:10023000F82E8E010F5F1F4FC801B70144E050E058
:100240000E945A3689819A81AB81BC810E94CA344E
:1002500089819A81AB81BC810196A11DB11D8983E1
:100260009A83AB83BC83C801B70144E050E00E948D
:100270006A360F900F900F900F90CF91DF911F91E2
:100280000F91FF90EF90089583E28093B00021E0FA
:100290002093B40083E08093B30089E08093B100A1
:1002A00080E28093800081E090E0909389008093C9
:1002B000880082E090E090938B0080938A0084E233
:1002C00090E2909387008093860081E18093810083
:1002D00020936F0078940895229A2A9A239A259A57
:1002E0002D9880E58CBD8DB581608DBD08959CB540
:1002F000259A8CB58F7B8CBD2D9A2D989CBD089529
:10030000982F96959695E92FEE0FE90FF0E0E851BA
:10031000FD4FDF011196990F990F891B8130C1F0B4
:10032000813028F0823021F1833039F008958081C6
:10033000807C6F73862B80830895660F660F1196FD
:100340008C9111978370682B11966C931197089577
:1003500090819F73862F8295880F880F807C892BD0
:100360008083669566958181807F682B618308957F
:10037000862F8295807F91819F70892B81836295E2
:100380006F7011968C9111978C7F682B11966C93DE
:10039000119708950F931F93582F082F0295000F60
:1003A000000F007C182F16951695782F7295707F88
:1003B000682F62956F70550F550F20E030E08F73F6
:1003C00009C09081907C982B90832F5F3F4F203104
:1003D000310521F1422F922F96959695E92FEE0F38
:1003E000E90FF0E0E851FD4FDF011196990F990FE9
:1003F000491B413019F1413020F3423091F0433034
:1004000021F711969C9111979370952B11969C93BF
:1004100011972F5F3F4F20313105E1F61F910F916A
:10042000089591819F70972B918311969C911197BC
:100430009C7F962B11969C931197C7CF90819F73A9
:10044000902B90839181907F912B9183BECF8EBD15
:100450000DB407FEFDCF0895289AE4EFF2E08291F3
:100460008EBD0DB407FEFDCF82E0E83EF807B9F778
:10047000299A299888E11EBC0DB407FEFDCF815052
:10048000D1F79CB5259A8CB58F7B8CBD2D9A2D9874
:100490009CBD0895982F9695E8E16E9FF001112478
:1004A000292F220F290FE20FF11DE859FE4FDF011E
:1004B0001196990F891B31F440838181807F852BB0
:1004C00081830895813009F00895842F8295807F7B
:1004D00091819F70892B8183529542954F7045275A
:1004E0005F70452711964C9311970895CF93DF9332
:1004F000DA01982F9695E8E16E9FF0011124292FDB
:10050000220F290FE20FF11DE859FE4FEF0121964E
:10051000990F891B99F4208130E011963C932E931A
:10052000818190E08F709070982F8827822B932B79
:1005300011969C938E93DF91CF9108958130D9F7D6
:10054000898190E082959295907F9827807F982767
:1005500011969C938E93218122952F7030E0282B49
:10056000392B11963C932E93DF91CF910895282F2C
:10057000592F482F4295407F929582958F708927F9
:100580009F708927382FE8E6F1E080E090E0DC01F9
:10059000A859BE4F2083652F6F70642B11966C9302
:1005A000119712963C93DC01A559BE4F2383652F0A
:1005B0006F70642B11966C93119712963C93DC012B
:1005C000A259BE4F2683652F6F70642B11966C93D2
:1005D000119712963C93DC01AF58BE4F2187652FCF
:1005E0006F70642B11966C93119712963C93DC01FB
:1005F000AC58BE4F2487652F6F70642B11966C9397
:10060000119712963C93DC01A958BE4F2787652F9E
:100610006F70642B11966C93119712963C93DC01CA
:10062000A658BE4F228B652F6F70642B11966C936A
:10063000119712963C93DC01A358BE4F258B652F72
:100640006F70642B11966C93119712963C931297CE
:100650004896789661E08038960709F098CF08951B
:10066000ABE3B6E0E8E6F1E080E891E001900D92BE
:100670000197E1F708950F931F93CF93DF93EC0158
:100680006C817D818E819F810E945632162F6881F8
:1006900079818A819B810E9456326F73812F829566
:1006A000880F880F807C862B8093E8026885798587
:1006B0008A859B850E945632862F8295807F16956B
:1006C00016951F70812B8093E9021091EA021C7F1E
:1006D00062956F70162B1093EA021370688179810E
:1006E0008A819B810E945632660F660F612B609350
:1006F000EA02688579858A859B850E945632062F95
:100700006C817D818E819F810E9456326F73802F14
:100710008295880F880F807C862B8093EB02109146
:10072000EC02107F06950695102B1093EC02688161
:1007300079818A819B810E945632862F8295807FA3
:100740001F70812B8093EC021091ED021C7F62954B
:100750006F70162B1093ED0213706C817D818E816A
:100760009F810E945632660F660F612B6093ED02E7
:100770001091EE02107C688579858A859B850E94A0
:1007800056326F73162B1093EE02688179818A813D
:100790009B810E9456321F73862F8295880F880F87
:1007A000807C812B8093EE021091EF02107F669582
:1007B0006695162B1093EF026C817D818E819F814F
:1007C0000E945632862F8295807F1F70812B8093E6
:1007D000EF021091F0021C7F62956F70162B109340
:1007E000F0021370688579858A859B850E94563250
:1007F000660F660F612B6093F002DF91CF911F911E
:100800000F9108952898209A2A9A229A539A219A09
:1008100080EF8093E8028FEF8093E90293EC90934E
:10082000EA028093EB029FE09093EC028093ED024A
:100830009FE39093EE029CEF9093EF028093F0027F
:10084000229A2A9A239A259A2D9880E58CBD8DB5F7
:1008500081608DBD289AE4EFF2E082918EBD0DB4E7
:1008600007FEFDCF22E0E83EF207B9F7299A299862
:1008700088E11EBC0DB407FEFDCF8150D1F79CB5B9
:10088000259A8CB58F7B8CBD2D9A2D989CBD21E02F
:100890002093650128988DB580688DBD8CB58068E2
:1008A0008CBD83E28093B0002093B40083E08093FA
:1008B000B30089E08093B10080E28093800081E002
:1008C00090E0909389008093880082E090E090937C
:1008D0008B0080938A0084E290E29093870080935B
:1008E000860081E18093810020936F007894E8E690
:1008F000F1E080E090E0DC01A859BE4F1082119633
:100900001C92119712961C92DC01A559BE4F1382BE
:1009100011961C92119712961C92DC01A259BE4F9F
:10092000168211961C92119712961C92DC01AF58F8
:10093000BE4F118611961C92119712961C92DC01E3
:10094000AC58BE4F148611961C92119712961C92A9
:10095000DC01A958BE4F178611961C92119712966A
:100960001C92DC01A658BE4F128A11961C92119758
:1009700012961C92DC01A358BE4F158A11961C9248
:10098000119712961C9212974896789621E080381B
:10099000920709F0B0CFABE3B6E0E8E6F1E080E81B
:1009A00091E001900D920197E1F70895569A579AB8
:1009B0005E985F980895EF92FF920F931F93CF93E5
:1009C000DF93982F990F980F892F8695440F440F26
:1009D000460FE8E14E9FF0011124482F440F480FC5
:1009E000DF01A40FB11DA859BE4FED012196880F5C
:1009F000492F481B09F060C02C9311968C911197D8
:100A0000807F832B11968C93392F3F5F832F8695A0
:100A1000282F220F280FDF01A20FB11DA859BE4FAA
:100A2000ED012196880F381B91F50C9311968C914E
:100A30001197807F812B11968C939E5F892F8695CD
:100A4000282F220F280FE20FF11DE859FE4FDF017A
:100A50001196880F981B09F445C0913089F48E2DAA
:100A60008295807F91819F70892B8183F294E2949B
:100A70007FE0E722EF24F722EF241196EC92119702
:100A8000DF91CF911F910F91FF90EF90089531303A
:100A9000A1F6802F8295807F11962C9111972F704F
:100AA000822B11968C931197129502950F70012746
:100AB0001F7001270983C1CF413009F0A5CF822FD4
:100AC0008295807F11964C9111974F70842B1196CF
:100AD0008C931197329522952F7023273F702327EF
:100AE000298392CFE0828181807F8F298183DF916A
:100AF000CF911F910F91FF90EF900895AF92BF9209
:100B0000CF92DF92FF920F931F93CF93DF93F62E36
:100B1000042FE901182F110F180F688179818A813C
:100B20009B8120E030EF4FE755E40E948B330E9419
:100B300056326B016C817D818E819F8120E030EF88
:100B40004FE755E40E948B330E9456325B01688563
:100B500079858A859B8520E030EF4FE755E40E9438
:100B60008B330E945632812F8695000F000F0F0D98
:100B7000E8E10E9FF0011124982F990F980FDF01E3
:100B8000A90FB11DA859BE4FED012196880F912FD5
:100B9000981B09F063C0CC9211968C911197807FBD
:100BA0008D2911968C93212F2F5F822F8695982F58
:100BB000990F980FDF01A90FB11DA859BE4FED0184
:100BC0002196880F281BA1F5AC9211968C91119754
:100BD000807F8B2911968C931E5F812F8695982F8D
:100BE000990F980FE90FF11DE859FE4FDF0111969B
:100BF000880F181B09F449C0113081F4862F8295A3
:100C0000807F91819F70892B8183729562956F702F
:100C100067277F70672711966C931197DF91CF91AB
:100C20001F910F91FF90DF90CF90BF90AF900895EC
:100C3000213091F68A2D8295807F11969C91119793
:100C40009F70892B11968C931197B294A2940FE008
:100C5000A022AB24B022AB24A982BECF913009F0F0
:100C6000A2CF8C2D8295807F11969C9111979F70B9
:100C7000892B11968C931197D294C2948FE0C8223D
:100C8000CD24D822CD24C9828ECF60838181807FFC
:100C9000872B8183C3CFCF92DF92EF92FF920F9386
:100CA0001F93CF93DF93E901982F990F980F892F06
:100CB0008695440F440F460FA8E14A9FD0011124A6
:100CC000282F220F280FAD01420F511D9A012859DC
:100CD0003E4FA9014F5F5F4F880F692F681B09F0D6
:100CE00098C0F901C080DD24218130E02F70307080
:100CF000322F2227C22AD32A692F6F5F862F86952B
:100D0000282F220F280FAD01420F511D9A0128599B
:100D10003E4FA9014F5F5F4F880F681B09F065C008
:100D2000F901008110E0218130E02F703070322F06
:100D30002227022B132B9E5F892F8695282F220FA7
:100D4000280FA20FB11DA859BE4F9D012F5F3F4F25
:100D5000880F981B09F472C0913089F4F901E18081
:100D6000FF24E294F29490EFF922FE24E922FE247B
:100D700011968C9182958F7090E0E82AF92AB6013D
:100D800080E090E00E94823220E030EF4FE755E4AF
:100D90000E94EE31688379838A839B83B80180E067
:100DA00090E00E94823220E030EF4FE755E40E944D
:100DB000EE316C837D838E839F83B70180E090E06A
:100DC0000E94823220E030EF4FE755E40E94EE317E
:100DD000688779878A879B87DF91CF911F910F91D1
:100DE000FF90EF90DF90CF900895613009F0A3CF8E
:100DF000FA01018110E002951295107F1027007F03
:100E00001027F901218122952F7030E0022B132B3E
:100E100092CF613009F070CFFA01C180DD24C29415
:100E2000D29460EFD622DC24C622DC24F901218191
:100E300022952F7030E0C22AD32A5ECFEC90FF2497
:100E400011968C91119790E08F709070982F882751
:100E5000E82AF92A94CFAF92BF92CF92DF92EF9215
:100E6000FF921F93CF93DF937C01EB01FC01808104
:100E7000182F110F180F688179818A819B8120E0DA
:100E800030EF4FE755E40E948B330E9456326B01DE
:100E90006C817D818E819F8120E030EF4FE755E4AA
:100EA0000E948B330E9456325B01688579858A8562
:100EB0009B8520E030EF4FE755E40E948B330E9482
:100EC0005632912F9695F7018281880F880F2181E4
:100ED000820FE8E18E9FF0011124892F880F890F7E
:100EE000DF01A80FB11DA859BE4FED012196990F42
:100EF000812F891B09F063C0CC9211968C911197B8
:100F0000807F8D2911968C93212F2F5F822F8695BC
:100F1000982F990F980FDF01A90FB11DA859BE4F47
:100F2000ED012196880F281BA1F5AC9211968C91AA
:100F30001197807F8B2911968C931E5F812F869548
:100F4000982F990F980FE90FF11DE859FE4FDF0117
:100F50001196880F181B09F449C0113081F4862FAF
:100F60008295807F91819F70892B81837295629594
:100F70006F7067277F70672711966C931197DF91C9
:100F8000CF911F91FF90EF90DF90CF90BF90AF90E7
:100F90000895213091F68A2D8295807F11969C913B
:100FA00011979F70892B11968C931197B294A294EC
:100FB000AFE0AA22AB24BA22AB24A982BECF8130F3
:100FC00009F0A2CF8C2D8295807F11969C9111976C
:100FD0009F70892B11968C931197D294C294BFE085
:100FE000CB22CD24DB22CD24C9828ECF60838181A8
:100FF000807F872B8183C3CFFC019B01808161812E
:1010000042810E944B060895E0E6F0E08081806115
:10101000808310820895569A579A5E985F980E942E
:101020000204E0E6F0E08081806180831082089510
:10103000559A84E187BD87B5869588BD83E284BDD6
:101040008AE085BD80E480937C00EAE7F0E08FEAE7
:10105000808310927B0078948081806480830895DF
:10106000AF92BF92CF92DF92EF92FF920F931F93B6
:10107000DF93CF93CDB7DEB7A0970FB6F894DEBF5E
:101080000FBECDBF8BEB97E06CEF72E00E94192C86
:101090008CEF92E00E945E2C8CEF92E0BE016F5FBD
:1010A0007F4F0E94282D6A8170E0882777FD809508
:1010B000982F0E94843220E030E040E050E00E940F
:1010C00086317B018C016B8170E0882777FD8095EC
:1010D000982F0E9484329B01AC016E2D7F2D802FB2
:1010E000912F0E9486317B018C016C8170E08827F2
:1010F00077FD8095982F0E9484329B01AC016E2D64
:101100007F2D802F912F0E9486317B018C016D8174
:1011100070E0882777FD8095982F0E9484322E2DCD
:101120003F2D402F512F0E9486317B018C017F2D56
:10113000912F20E030E048E452E40E94EA3187FD3C
:1011400024C16E2D7F2D802F912F25E239E442E1BD
:101150005EE30E948B337B018C016091FC037091F4
:10116000FD038091FE039091FF0320E030E040EC0E
:1011700050E40E948B3320E030E040EE50E40E94C7
:10118000EE312E2D3F2D402F512F0E948631162FEC
:10119000072FF82EE92EA8019701652F742F832FB2
:1011A000922F20E030E040E05BE30E948B332DEC97
:1011B0003CEC4CEC5DE30E9487331816BCF5809143
:1011C000F8029091F902A091FA02B091FB02009707
:1011D000A105B10509F4EAC00196A11DB11D8093D6
:1011E000F8029093F902A093FA02B093FB02A801CF
:1011F0009701852F902FA32FBE2D8093FC039093F2
:10120000FD03A093FE03B093FF03A0960FB6F894DE
:10121000DEBF0FBECDBFCF91DF911F910F91FF9029
:10122000EF90DF90CF90BF90AF9008958091F4023F
:101230009091F502A091F602B091F7020097A105F6
:10124000B10509F0A7C06091F8027091F902809190
:10125000FA029091FB020E948432DD24D39420E0B4
:1012600030E040E05FEB0E94873318160CF0A7C017
:101270001092F8021092F9021092FA021092FB02F8
:1012800081E090E0A0E0B0E08093F4029093F5025A
:10129000A093F602B093F702DD2009F4A8CF81E015
:1012A00080936401609100017091010180910201BD
:1012B000909103012AE939E949E95EE30E94863108
:1012C000D62EC72EB82EA92EA6019501852F942FB4
:1012D000A32FB22F8093000190930101A0930201EC
:1012E000B09303010E94C5349C01B901882777FDA2
:1012F0008095982F0E94843220E03EEF4FEF56E415
:101300000E94EE3120E030E040E05FE30E948B334A
:101310009B01AC01D601F5016B2F7A2F8F2F9E2FE9
:101320000E948631D62EC72EB82EA92EA601950171
:10133000852F942FA32FB22F80930001909301014A
:10134000A0930201B0930301652F742F832F922F76
:1013500020E030E040E85FE30E94873387FD47CF1D
:10136000A6019501652F742F832F922F20E030E086
:1013700040E85FE30E9485316093000170930101B2
:10138000809302019093030132CFEE24FF2400E00A
:1013900010E0E3CE0196A11DB11D8093F40290935D
:1013A000F502A093F602B093F70221CF1092F40257
:1013B0001092F5021092F6021092F7020DCFDD2482
:1013C00057CF6F927F928F929F92AF92BF92CF92A0
:1013D000DF92EF92FF920F931F93D62EC72EB82E57
:1013E000A92E922E832E742E652EA6019501652FAF
:1013F000742F832F922F20E030E040E050E00E94D5
:10140000EA3187FF10C0A6019501652F742F832F45
:10141000922F20E030E040E85FE30E948631D62E34
:10142000C72EB82EA92EA6019501652F7C2D832FDE
:101430009A2D20E030E040E85FE30E9487331816E1
:1014400084F4A6019501652F7C2D832F9A2D20E031
:1014500030E040E85FE30E948531D62EC72EB82EDB
:10146000A92EA6019501652F7C2D832F9A2D20E0B2
:1014700030E040EC50E40E948B3320E030E040E864
:101480005FE30E94EA3187FD6AC0A6019501652FDE
:101490007C2D832F9A2DD601F5012B2F3C2D4F2F1C
:1014A0005A2D0E94863120E030E040E85FE30E9440
:1014B000EA3187FD51C0A6019501652F7C2D832F50
:1014C0009A2D20E030E040E450E40E948B3320E08D
:1014D00030E040E050E40E94EA3187FF59C06E2DB1
:1014E0007F2D802F912FD401F3012B2F382D4F2FDB
:1014F000562D0E9485317B018C016BEA7AEA8AE2E3
:101500009FE3D601F5012B2F3C2D4F2F5A2D0E9422
:1015100085319B01AC01C801B7010E948B3320E0EB
:1015200030E040EC50E40E948B33D401F3012B2FC8
:10153000382D4F2F562D0E948631F72E7F2D1F916B
:101540000F91FF90EF90DF90CF90BF90AF909F9062
:101550008F907F906F9008956E2DC801EFCF6E2D04
:101560007F2D802F912FD401F3012B2F382D4F2F5A
:10157000562D0E94853120E030E040EC50E40E947E
:101580008B33D601F5012B2F3C2D4F2F5A2DCBCF6E
:10159000692DF82C872D962DD1CF2F923F924F9207
:1015A0005F926F927F928F929F92AF92BF92CF92F3
:1015B000DF92EF92FF920F931F93DF93CF93CDB7FC
:1015C000DEB72F970FB6F894DEBF0FBECDBFFC017C
:1015D0007E876D87E080F180028113816480758051
:1015E00086809780A084B184C284D384C401B3016F
:1015F00020E030E040E050E00E94EA31882309F426
:1016000020C1C601B50120E030E040E05FE30E9468
:10161000EA3187FFF3C0C401B30120E030E040E8C5
:101620005FE30E948631A60195010E948B33562EFE
:10163000472E382E292EC601B501A60195010E941C
:101640008631D201F1012B2F342D4F2F522D0E94C4
:10165000853169837A838B839C836E2D7F2D802FC8
:10166000912F2BEA3AEA4AEA5EE30E948631A62EDF
:10167000D72EC82EB92E6E2D7F2D802F912F2BEABD
:101680003AEA4AEA5EE30E9485316D837E838F8366
:101690009887962E672E882E792E6A2D7D2D8C2D7B
:1016A0009B2D20E030E040E050E00E94EA3187FFCF
:1016B0000EC06A2D7D2D8C2D9B2D20E030E040E862
:1016C0005FE30E948631A62ED72EC82EB92E6A2D32
:1016D0007D2D8C2D9B2D20E030E040E85FE30E94C3
:1016E0008733181674F46A2D7D2D8C2D9B2D20E0E8
:1016F00030E040E85FE30E948531A62ED72EC82E49
:10170000B92E6A2D7D2D8C2D9B2D20E030E040ECF4
:1017100050E40E948B3320E030E040E85FE30E9419
:10172000EA3187FDB9C06A2D7D2D8C2D9B2D2A2D88
:101730003D2D4C2D5B2D0E94863120E030E040E8AD
:101740005FE30E94EA3187FDABC26A2D7D2D8C2DAF
:101750009B2D20E030E040E450E40E948B3320E0F9
:1017600030E040E050E40E94EA3187FF94C2A201D9
:101770009101652F742D832F922DE981FA812B81A0
:101780002987AC81AF879F0149855A2F0E948531F7
:1017900069877A878B879C876BEA7AEA8AE29FE37C
:1017A000EA2DFD2DAC2DBB2D9F01AD010E94853191
:1017B0009B01AC0169857A858B859C850E948B3362
:1017C00020E030E040EC50E40E948B33B62FA72F8E
:1017D00089879F8779816A819B818C81272F362F0A
:1017E000492F582FCA01B9016D01B984AF842D2D3D
:1017F0003C2D4B2D5A2D0E9486317FC0C601B5016C
:1018000020E030E040E05FE30E94873387FD13CFA4
:10181000C601B501A40193010E9486311B012C0170
:10182000C601B501A40193010E948B339B01AC0159
:10183000C201B1010E948531562E472E382E292E25
:10184000FACEAD85BE85AD92BD92CD92DC92139756
:10185000FD01A482B582C682D7821896AD92BD9250
:10186000CD92DC921B972F960FB6F894DEBF0FBE79
:10187000CDBFCF91DF911F910F91FF90EF90DF903F
:10188000CF90BF90AF909F908F907F906F905F9020
:101890004F903F902F900895A2019101652F742DD4
:1018A000832F922DB981AA81EB81E987FC81FF8783
:1018B0002B2F3A2FAF010E94853120E030E040EC21
:1018C00050E40E948B339B01AC016A2D7D2D8C2D41
:1018D0009B2D0E948B335B016C0179816A819B8116
:1018E0008C81272F362F492F582FCA01B9012A2D55
:1018F0003B2D4C2D5D2D0E948631382F292F862FB0
:10190000972FA32FB22FED85FE8580839183A2832D
:10191000B3836E2D7F2D802F912F20E030E040E0AB
:1019200050E00E94EA3187FF0CC06E2D7F2D802F82
:10193000912F20E030E040E85FE30E9486317B0198
:101940008C016E2D7F2D802F912F20E030E040E81C
:101950005FE30E948733181664F46E2D7F2D802F6D
:10196000912F20E030E040E85FE30E9485317B0169
:101970008C016E2D7F2D802F912F20E030E040ECE8
:1019800050E40E948B3320E030E040E85FE30E94A7
:10199000EA3187FD61C06E2D7F2D802F912F2E2D76
:1019A0003F2D402F512F0E94863120E030E040E84B
:1019B0005FE30E94EA3187FD78C16E2D7F2D802F75
:1019C000912F20E030E040E450E40E948B3320E08F
:1019D00030E040E050E40E94EA3187FF57C1A201A5
:1019E0009101652F742D832F922DA981DA80CB80F0
:1019F000BC812A2F3D2D4C2D5B2F0E9485315B0130
:101A00006C016BEA7AEA8AE29FE32E2D3F2D402F8C
:101A1000512F0E9485319B01AC01C601B5010E9486
:101A20008B3320E030E040EC50E40E948B33F62E04
:101A3000072F182FB92F79816A819B818C81272FDD
:101A4000362F492F582FCA01B9012F2D302F412F82
:101A50005B2F0E9486312FC0A2019101652F742D4A
:101A6000832F922DB981AA81DB80CC802B2F3A2F36
:101A70004D2D5C2D0E94853120E030E040EC50E49B
:101A80000E948B339B01AC016E2D7F2D802F912FF7
:101A90000E948B337B018C0179816A81C601272FDB
:101AA000362F492F582FCA01B9012E2D3F2D402F17
:101AB000512F0E948631382F292F862F972FA32F41
:101AC000B22FED85FE8584839583A683B7835D81E0
:101AD0004E813F812885652F742F832F922F20E020
:101AE00030E040E050E00E94EA3187FF12C05D81A3
:101AF0004E813F812885652F742F832F922F20E000
:101B000030E040E85FE30E948631962E672E882EF3
:101B1000792E692D762D882D972D20E030E040E834
:101B20005FE30E948733181674F4692D762D882D93
:101B3000972D20E030E040E85FE30E948531962E4B
:101B4000672E882E792E692D762D882D972D20E0F1
:101B500030E040EC50E40E948B3320E030E040E87D
:101B60005FE30E94EA3187FD4BC0692D762D882DF9
:101B7000972D292D362D482D572D0E94863120E096
:101B800030E040E85FE30E94EA3187FD6DC0692DD7
:101B9000762D882D972D20E030E040E450E40E941F
:101BA0008B3320E030E040E050E40E94EA3187FFD0
:101BB00068C0A2019101652F742D832F922DB981E8
:101BC000AA811B810C812B2F3A2F412F502F0E946D
:101BD00085317B018C016BEA7AEA8AE29FE3292D49
:101BE000362D482D572D0E9485319B01AC01C8012F
:101BF000B7010E948B3320E030E040EC50E41CC081
:101C0000A2019101652F742D832F922DB981AA8194
:101C10001B810C812B2F3A2F412F502F0E94853191
:101C200020E030E040EC50E40E948B339B01AC019B
:101C3000692D762D882D972D0E948B337B018C0189
:101C400079816A819B818C81272F362F492F582FCC
:101C5000CA01B9012E2D3F2D402F512F0E948631F0
:101C6000562E472E382E292EA2019101852F942D14
:101C7000A32FB22DED85FE8580879187A287B3873C
:101C8000F2CD59804A803B802C80EECF69817A81E9
:101C90008B819C8110CF69817A818B819C812DCE33
:101CA000652D742D832D922D28CE652D742D832DB9
:101CB000922D01CF2F923F924F925F926F927F921F
:101CC0008F929F92AF92BF92CF92DF92EF92FF924C
:101CD0000F931F93DF93CF9300D000D0CDB7DEB723
:101CE0009C838B832B0179018A0160E070E080E89E
:101CF0009FE30E948531D62EC72EB82EA92EC8018B
:101D0000B701D601F5012B2F3A2F4F2F5E2F0E94DE
:101D10008631362E272E89839A83C801B701F201B6
:101D200020813181428153810E948B333B014C01E0
:101D3000A6019501652F742F832F922FEB81FC81D3
:101D400020813181428153810E948B339B01AC0100
:101D5000C401B3010E948631D10169809A802B2F82
:101D60003A2F462D592D0E94EE31EB81FC81608384
:101D7000718382839383C801B701F2012481358185
:101D8000468157810E948B333B014C01A60195018E
:101D9000652F742F832F922FEB81FC812481358155
:101DA000468157810E948B339B01AC01C401B30172
:101DB0000E948631D10199806A802B2F3A2F492DBC
:101DC000562D0E94EE31EB81FC81648375838683FE
:101DD0009783C801B701F20120853185428553857B
:101DE0000E948B337B018C01A6019501652F742F16
:101DF000832F922FEB81FC8120853185428553858D
:101E00000E948B339B01AC01C801B7010E9486314F
:101E1000D1012B2F3A2F492D562D0E94EE31EB8107
:101E2000FC8160877187828793870F900F900F9056
:101E30000F90CF91DF911F910F91FF90EF90DF9066
:101E4000CF90BF90AF909F908F907F906F905F905A
:101E50004F903F902F900895FA01282F392FD901E4
:101E600083E00D9001928150E1F7DA011396862FFD
:101E7000972FFC0183E001900D928150E1F70895C6
:101E80002F923F924F925F926F927F928F929F928A
:101E9000AF92BF92CF92DF92EF92FF920F931F9378
:101EA000DF93CF93CDB7DEB72D970FB6F894DEBF93
:101EB0000FBECDBF8C017D876C87FC01D080718007
:101EC000F480F7186280E580E61863816D19772742
:101ED00067FD7095872F972F0E9484321B012C017C
:101EE00020E030E040E050E00E948B3320E030E022
:101EF00040E05FE30E9486310E94BF324B015C01EB
:101F00006D2D70E0882777FD8095982F0E94843290
:101F10009B01AC01C501B4010E9486310E9456327A
:101F200069836F2D772767FD7095872F972F0E9404
:101F300084326C837D838E839F8320E030E040E099
:101F400050E00E948B3320E030E040E05FE30E94ED
:101F500086310E94BF325B016C01672D70E08827DB
:101F600077FD8095982F0E9484329B01AC01C601B9
:101F7000B5010E9486310E9456326A836E2D772702
:101F800067FD7095872F972F0E9484326887798725
:101F90008A879B8720E030E040E050E00E948B334E
:101FA00020E030E040E05FE30E9486310E94BF32D3
:101FB0006B017C017724B301882777FD8095982FEA
:101FC0000E9484329B01AC01C701B6010E94863198
:101FD0000E9456326B833E010894611C711CC30140
:101FE0006C857D850E942B07F801A1808280C2014B
:101FF000B1012DEC3CEC4CE45EE30E948B3320E01D
:1020000030E040E05FE30E9486310E94BF326B0106
:102010007C01F801608170E0882777FD8095982F1A
:102020000E9484329B01AC01C701B6010E94863137
:102030000E94563269836C817D818E819F812DEC57
:102040003CEC4CE45EE30E948B3320E030E040E067
:102050005FE30E9486310E94BF326B017C01BB248A
:10206000B501882777FD8095982F0E9484329B01C7
:10207000AC01C701B6010E9486310E9456326A83C4
:10208000688579858A859B852DEC3CEC4CE45EE384
:102090000E948B3320E030E040E05FE30E94863115
:1020A0000E94BF326B017C019924B401882777FD1F
:1020B0008095982F0E9484329B01AC01C701B60124
:1020C0000E9486310E9456326B83C3016C857D85E8
:1020D0000E942B07F801A1808280C201B1012DEC82
:1020E0003CEC4CEC5EE30E948B3320E030E040E0BF
:1020F0005FE30E9486310E94BF326B017C01F801D0
:10210000608170E0882777FD8095982F0E94843247
:102110009B01AC01C701B6010E9486310E94563274
:1021200069836C817D818E819F812DEC3CEC4CEC30
:102130005EE30E948B3320E030E040E05FE30E94EA
:1021400086310E94BF326B017C01BB24B501882718
:1021500077FD8095982F0E9484329B01AC01C701C6
:10216000B6010E9486310E9456326A83688579855D
:102170008A859B852DEC3CEC4CEC5EE30E948B3316
:1021800020E030E040E05FE30E9486310E94BF32F1
:102190006B017C019924B401882777FD8095982FE5
:1021A0000E9484329B01AC01C701B6010E948631B6
:1021B0000E9456326B83C3016C857D850E942B077C
:1021C000F801A1808280C201B1012AE939E949E11F
:1021D0005FE30E948B3320E030E040E05FE30E9449
:1021E00086310E94BF326B017C01F801608170E092
:1021F000882777FD8095982F0E9484329B01AC013F
:10220000C701B6010E9486310E94563269836C81F3
:102210007D818E819F812AE939E949E15FE30E944E
:102220008B3320E030E040E05FE30E9486310E9483
:10223000BF326B017C01BB24B501882777FD8095F7
:10224000982F0E9484329B01AC01C701B6010E9405
:1022500086310E9456326A83688579858A859B8596
:102260002AE939E949E15FE30E948B3320E030E05D
:1022700040E05FE30E9486310E94BF326B017C0127
:102280009924B401882777FD8095982F0E94843285
:102290009B01AC01C701B6010E9486310E945632F3
:1022A0006B83C3016C857D850E942B07F801A1809B
:1022B0008280C201B1012DEC3CEC4CE45FE30E9452
:1022C0008B3320E030E040E05FE30E9486310E94E3
:1022D000BF326B017C01F801608170E0882777FDD7
:1022E0008095982F0E9484329B01AC01C701B601F2
:1022F0000E9486310E94563269836C817D818E8175
:102300009F812DEC3CEC4CE45FE30E948B3320E09A
:1023100030E040E05FE30E9486310E94BF326B01F3
:102320007C01BB24B501882777FD8095982F0E94FA
:1023300084329B01AC01C701B6010E9486310E9424
:1023400056326A83688579858A859B852DEC3CECBD
:102350004CE45FE30E948B3320E030E040E05FE339
:102360000E9486310E94BF326B017C019924B40126
:10237000882777FD8095982F0E9484329B01AC01BD
:10238000C701B6010E9486310E9456326B83C30199
:102390006C857D850E942B07F801A1808280C20197
:1023A000B10120E030E040E05FE30E9486310E940E
:1023B000BF326B017C01F801608170E0882777FDF6
:1023C0008095982F0E9484329B01AC01C701B60111
:1023D0000E9486310E94563269836C817D818E8194
:1023E0009F8120E030E040E05FE30E9486310E9460
:1023F000BF327B018C01BB24B501882777FD809516
:10240000982F0E9484329B01AC01C801B7010E9441
:1024100086310E9456326A83688579858A859B85D4
:1024200020E030E040E05FE30E9486310E94BF324E
:102430007B018C019924B401882777FD8095982F22
:102440000E9484329B01AC01C801B7010E94863111
:102450000E9456326B83C3016C857D850E942B07D9
:102460002D960FB6F894DEBF0FBECDBFCF91DF9192
:102470001F910F91FF90EF90DF90CF90BF90AF90A2
:102480009F908F907F906F905F904F903F902F9094
:102490000895EF92FF920F931F93CF93DF93EC0178
:1024A0008FEFE82E8FE7F82E012D112D0E94C534F5
:1024B0009C01B901882777FD8095982F26E030E0B0
:1024C00040E050E00E94EE33A80197010E940D34D5
:1024D000223081F1233070F42223F1F4898183309A
:1024E00028F78F5F8983DF91CF911F910F91FF9024
:1024F000EF900895243061F1243018F12530B1F6C1
:102500008A81833098F68F5F8A83DF91CF911F9104
:102510000F91FF90EF900895213041F68981882333
:1025200029F281508983DF91CF911F910F91FF9004
:10253000EF9008958881882309F4B8CF815088836B
:10254000D2CF8881833008F0B1CF8F5F8883CBCF23
:102550008A81882309F4AACF81508A83C4CF8F92BD
:102560009F92AF92BF92CF92DF92EF92FF920F9322
:102570001F93DF93CF93CDB7DEB72C970FB6F894A8
:10258000DEBF0FBECDBF4E010894811C911CD4014B
:10259000E3E1F1E08CE001900D928150E1F70CE075
:1025A00014E0EE24FF247FEFA72E7FE7B72EC12C87
:1025B000D12CC701880F991F8E0D9F1DBC01660F7E
:1025C000771F660F771F680F791F60507C4FC4011B
:1025D0000E94CD0A0E94C5349C01B901882777FD6D
:1025E0008095982F660F771F881F991F660F771F9A
:1025F000881F991FA60195010E940D34F8012083C0
:102600000E94C5349C01B901882777FD8095982FD9
:10261000660F771F881F991F660F771F881F991FE6
:10262000A60195010E940D34F80121830E94C53452
:102630009C01B901882777FD8095982F660F771F39
:10264000881F991F660F771F881F991FA601950184
:102650000E940D34F80122830E94C5349C01B90107
:10266000882777FD8095982F0E94843220E03EEFE6
:102670004FEF56E40E94EE3169837A838B839C830B
:102680000894E11CF11C015F1F4F34E1E316F104D3
:1026900009F08FCF2C960FB6F894DEBF0FBECDBFDA
:1026A000CF91DF911F910F91FF90EF90DF90CF902E
:1026B000BF90AF909F908F900895EF92FF920F93ED
:1026C0001F93CF93DF9380E090E00E94B702C0E0B9
:1026D000D0E0CE01880F991F8C0F9D1F8C01000F39
:1026E000111F000F111F080F191FECE0EE2EE4E080
:1026F000FE2EE00EF11EC7010E944912B801605083
:102700007C4FC7010E942B072196C431D10509F7E0
:102710000E94300384EF91E024EF31E0F90131971A
:10272000F1F70197D9F7DF91CF911F910F91FF90AA
:10273000EF9008950F931F93DF93CF93CDB7DEB73C
:102740002C970FB6F894DEBF0FBECDBF8E010F5F82
:102750001F4FD801EFE1F1E08CE001900D92815024
:10276000E1F780912C05882309F4E8C0C8016FE2E5
:1027700075E00E94CD0A0E94C5349C01B9018827EA
:1027800077FD8095982F0E94843220E03EEF4FEF36
:1027900056E40E94EE3169837A838B839C83809117
:1027A0002C05882309F43FC1C8016EE375E00E943F
:1027B000CD0A0E94C5349C01B901882777FD809518
:1027C000982F0E94843220E03EEF4FEF56E40E94A3
:1027D000EE3169837A838B839C8380912C058823D7
:1027E00009F4FAC0C8016DE475E00E94CD0A0E94A8
:1027F000C5349C01B901882777FD8095982F0E94E8
:10280000843220E03EEF4FEF56E40E94EE316983C0
:102810007A838B839C8380912C05882309F4B5C02F
:10282000C8016CE575E00E94CD0A0E94C5349C0188
:10283000B901882777FD8095982F0E94843220E087
:102840003EEF4FEF56E40E94EE3169837A838B832B
:102850009C8380912C05813029F480912D0588235B
:1028600009F47DC1C8016BE675E00E94CD0A0E94A3
:10287000C5349C01B901882777FD8095982F0E9467
:10288000843220E03EEF4FEF56E40E94EE31698340
:102890007A838B839C8380912C05813009F438C125
:1028A000C8016AE775E00E94CD0A0E94C5349C0108
:1028B000B901882777FD8095982F0E94843220E007
:1028C0003EEF4FEF56E40E94EE3169837A838B83AB
:1028D0009C8380912C05813009F4F3C0C80169E81C
:1028E00075E00E94CD0A0E94C5349C01B901882779
:1028F00077FD8095982F0E94843220E03EEF4FEFC5
:1029000056E40E94EE3169837A838B839C838091A5
:102910002C05813009F4AEC0C80168E975E00E9459
:10292000CD0A0E94C5342C960FB6F894DEBF0FBEB8
:10293000CDBFCF91DF911F910F91089580912D050B
:10294000882309F013CF80912E05882309F00ECF3C
:1029500080E090E0A0E0B0E080932F0590933005F8
:10296000A0933105B09332058093330590933405DD
:10297000A0933505B09336058093370590933805BD
:10298000A0933905B0933A0553C080912D0581304D
:1029900009F046CF80912E05813009F041CF80E0CB
:1029A00090E0A0E0B0E080935C0590935D05A0937B
:1029B0005E05B0935F058093600590936105A093D9
:1029C0006205B09363058093640590936505A093B9
:1029D0006605B093670546CF80912D05813009F0DB
:1029E00001CF80912E05882309F0FCCE80E090E095
:1029F000A0E0B0E080934D0590934E05A0934F0565
:102A0000B09350058093510590935205A0935305C0
:102A1000B09354058093550590935605A0935705A0
:102A2000B0935805B7CF80912D05882309F0BCCE0F
:102A300080912E05813009F0B7CE80E090E0A0E0D3
:102A4000B0E080933E0590933F05A0934005B0937E
:102A500041058093420590934305A0934405B093AC
:102A600045058093460590934705A0934805B0938C
:102A70004905B8CE80912D05813009F04DCF809168
:102A80002E05813009F048CF80E090E0A0E0B0E072
:102A90008093980590939905A0939A05B0939B0510
:102AA00080939C0590939D05A0939E05B0939F05F0
:102AB0008093A0059093A105A093A205B093A305D0
:102AC00032CF80912D05813009F008CF80912E05FD
:102AD000882309F003CF80E090E0A0E0B0E080938D
:102AE000890590938A05A0938B05B0938C058093FC
:102AF0008D0590938E05A0938F05B09390058093DC
:102B0000910590939205A0939305B0939405B7CF48
:102B100080912D05882309F0C3CE80912E05813048
:102B200009F0BECE80E090E0A0E0B0E080937A05AE
:102B300090937B05A0937C05B0937D0580937E05E3
:102B400090937F05A0938005B093810580938205C3
:102B500090938305A0938405B0938505BFCE8091A3
:102B60002E05882309F07ECE80E090E0A0E0B0E062
:102B700080936B0590936C05A0936D05B0936E05E3
:102B800080936F0590937005A0937105B0937205C3
:102B90008093730590937405A0937505B0937605A3
:102BA000BCCFDF92EF92FF920F931F93CF93DF93EF
:102BB000EC018B014881D42E4430B8F55981543052
:102BC00040F54A81E52E4430B8F4F42E03C08F2D31
:102BD000843088F48D2D6E2D4F2D98010E947E0536
:102BE000F3944A81242F30E02F5F3F4F8F2D90E0E8
:102BF0002817390764F75981E394852F90E00196EF
:102C00002E2D30E0821793071CF08E2D8430D8F2E1
:102C10004881D394842F90E001962D2D30E08217C7
:102C200093071CF08D2D843050F2DF91CF911F91CE
:102C30000F91FF90EF90DF9008952F923F924F9267
:102C40005F926F927F928F929F92AF92BF92CF923C
:102C5000DF92EF92FF920F931F93DF93CF93CDB745
:102C6000DEB72C970FB6F894DEBF0FBECDBF1C8227
:102C70001B821E821D828B806B807C800894611C6D
:102C8000711C1A821982442455244D815E818CE383
:102C900090E0489F9001499F300D589F300D1124BE
:102CA0003A8729879980E980FA800894E11CF11C11
:102CB00001E010E0AA2422243324C201880F991FC6
:102CC000A201440F551F42955295507F5427407FD3
:102CD0005427481B590B58874F83910122953295F1
:102CE000307F3227207F3227221933094F815885C0
:102CF000240F351F89859A85280F391F215D3A4F8A
:102D0000982D943080F5B82C892D843018F5C92C75
:102D10004A2D4430B0F4DA2C3C872B8703C0ED2DCC
:102D2000E43068F48B2D6C2D4D2D2B853C850E9455
:102D30007E05D3948D2D90E00817190784F72B8515
:102D40003C85C3948C2D90E0E816F9061CF0FC2D10
:102D5000F430F0F2B3948B2D90E0681679061CF0F5
:102D60005B2D543088F20894211C311C92E0A90E8E
:102D70000E5F1F4FEA2DE43009F0AFCF0894411CDD
:102D8000511C29813A812E5F3F4F3A83298332E0DB
:102D90004316510409F086CF8D819E8101969E8352
:102DA0008D83EB81FC813296FC83EB83823091052D
:102DB00009F061CF2C960FB6F894DEBF0FBECDBFE1
:102DC000CF91DF911F910F91FF90EF90DF90CF9007
:102DD000BF90AF909F908F907F906F905F904F903B
:102DE0003F902F9008950F931F93DF93CF930F92EF
:102DF000CDB7DEB78C0169830E94C534AA2797FD41
:102E0000A095BA2F6981262F30E040E050E0BC0148
:102E1000CD010E94EE332FEF3FE740E050E00E94EB
:102E20000D34F801E20FF11D80810F90CF91DF91F9
:102E30001F910F9108952F923F924F925F926F9240
:102E40007F928F929F92AF92BF92CF92DF92EF923A
:102E5000FF920F931F93DF93CF93CDB7DEB7AF975A
:102E60000FB6F894DEBF0FBECDBF80912C0588232E
:102E700009F455C22091A705243009F46BC283E000
:102E80008F83CE010996FE013896CC24C3948E011F
:102E9000095F1F4F30912D05332309F436C22130CD
:102EA00031F0C39422E02083FC012091A70580919A
:102EB0002E05882309F422C2253019F0C39486E038
:102EC00080830E94C534DD24EE24FF249C01442726
:102ED00037FD4095542FC701B6010E94EE332FEF06
:102EE0003FE740E050E00E940D34F801E20FF11D91
:102EF00080818093A70560912C0550912D0540910C
:102F00002E05833009F420C2843008F0EDC18130F1
:102F100009F430C2823009F427C24C8F5B8F6D8F69
:102F20003D8D232F30E03BA72AA79C8D892F90E071
:102F30009BA38AA382959295907F9827807F98275C
:102F40009DA78CA77C01EAA1FBA1EE1AFF0A8B8D3D
:102F500090E09C01220F331F880F991F8295929554
:102F6000907F9827807F9827821B930BE80EF91E8D
:102F70002CE330E0EAA5FBA5E29FC001E39F900DA2
:102F8000F29F900D1124E80EF91E2FE235E0E20EBB
:102F9000F31E80E090E0A0E0B0E08D879E87AF87D1
:102FA000B88B898B9A8BAB8BBC8B8D8B9E8BAF8BAD
:102FB000B88F2D8D220F29839B8D990F9A838C8D2D
:102FC000880F8B83660F6C83550F5D83440F4E8390
:102FD000261708F484C1621708F47CC11F8E1E8E68
:102FE000951708F472C1591708F46AC119A218A2FA
:102FF000841708F451C1481708F43BC11DA21CA254
:103000009DE0C92ED12CCC0EDD1EAE014C5F5F4F72
:1030100059A748A7CE0101969FA38EA314EF412E76
:1030200011E0512E4701F9806F2C77240894611C20
:10303000711C3F2D343008F095C1AF2C2A8114014A
:10304000F98EE22E822E99240894811C911C243042
:1030500018F5BB800B2D10E00F5F1F4F4B2D443038
:1030600088F4FB2C03C05F2D543060F48A2D6E2D44
:103070004F2D96010E947E05F3948F2D90E0081746
:1030800019078CF7E3948E2D90E0881699061CF0B2
:103090008E2D843018F32A81A3948A2D90E068162F
:1030A00079061CF09A2D943060F24101F98CAE8CB7
:1030B000AF0CA982F8A0F20EFA826B80ECA16E0E22
:1030C0006B822A2D30E02F5F3F4F3A8F298F3A2DA8
:1030D0003430D0F52F2C33240894211C311C062DBC
:1030E00010E00F5F1F4FDFA6CEA6CF2C2C2D243073
:1030F000F0F4EC2C862D843088F4F62C03C04F2D90
:10310000443060F48A2D6E2D4F2D94010E947E056F
:10311000F3948F2D90E0081719078CF7E3948E2D08
:1031200090E0281639061CF05E2D543018F3A39455
:103130008A2D90E0E98DFA8DE817F9071CF0FA2D39
:10314000F430A0F2CEA4DFA40E9430038CE291E020
:10315000F2013197F1F70197D9F78EA19FA168A5E8
:1031600079A543E050E00E94B835009709F05BCFA5
:10317000740180912E0590E0FC01E295F295F07FBC
:10318000FE27E07FFE27E81BF90B80912D0590E0DC
:103190009C01220F331F880F991F82959295907F73
:1031A0009827807F9827821B930BE80FF91F409187
:1031B0002C0550E02CE330E0429FC001439F900D6E
:1031C000529F900D1124E80FF91FACA5BDA54AA18F
:1031D0005BA1A41BB50B4AA55BA5429FC001439F01
:1031E000900D529F900D1124A80FB91F8B8D90E068
:1031F0009C01220F331F880F991F82959295907F13
:103200009827807F9827821B930BA80FB91FE15D39
:10321000FA4FA15DBA4F8CE00D9001928150E1F719
:10322000D701F6018CE001900D928150E1F75D8DA0
:1032300050932C058B8D80932D059C8D90932E059E
:10324000AF960FB6F894DEBF0FBECDBFCF91DF9122
:103250001F910F91FF90EF90DF90CF90BF90AF90B4
:103260009F908F907F906F905F904F903F902F90A6
:1032700008958FEF9FEF9DA38CA30DE0C02ED12C5E
:10328000CC0EDD1EFE013496F9A7E8A79E012F5F44
:103290003F4F3FA32EA3C2CEE1E0F0E0FDA3ECA39D
:1032A0008DE0C82ED12CCC0EDD1E9E012C5F3F4F31
:1032B00039A728A7AE014F5F5F4F5FA34EA3AECEE5
:1032C0002FEF3FEF39A328A393CEE1E0F0E0F9A37D
:1032D000E8A38ECE2FEF3FEF3F8F2E8F81CEE1E020
:1032E000F0E0FF8FEE8F7CCE853041F18530E8F441
:1032F000962F9F5F9D8F4C8F5B8F12CE263009F4E7
:10330000E0CDC39485E08083DCCD223009F4CFCDBD
:10331000C39421E02083FC012091A705C8CD209112
:10332000A7052330B9F084E0ABCD863009F0F5CDA8
:10333000F42FF150FC8F5B8F6D8FF2CDE42FEF5F98
:10334000EC8F5B8F6D8FECCD862F81508D8F4C8FE6
:103350005B8FE6CD8E01095F1F4FCE010896F80105
:10336000CC2498CD2A81A3CE352F31503B8F4C8F62
:103370006D8FD6CD252F2F5F2B8F4C8F6D8FD0CD9E
:103380002F923F924F925F926F927F928F929F9275
:10339000AF92BF92CF92DF92EF92FF920F931F9363
:1033A000DF93CF93CDB7DEB72C970FB6F894DEBF7F
:1033B0000FBECDBF1A8219821E821D82898069804C
:1033C0007A800894611C711C1C821B824424552441
:1033D0004D815E818CE390E0489F9001499F300DC4
:1033E000589F300D11243A8729879B80EB80FC8001
:1033F0000894E11CF11C01E010E0AA2422243324EB
:10340000C201880F991FA201440F551F4295529582
:10341000507F5427407F5427481B590B58874F83B0
:10342000910122953295307F3227207F3227221951
:1034300033094F815885240F351F89859A85280FB8
:10344000391F215D3A4F982D943080F5B82C892D85
:10345000843018F5C92C4A2D4430B0F4DA2C3C875E
:103460002B8703C0ED2DE43068F48B2D6C2D4D2D92
:103470002B853C850E947E05D3948D2D90E0081706
:10348000190784F72B853C85C3948C2D90E0E816B2
:10349000F9061CF0FC2DF430F0F2B3948B2D90E083
:1034A000681679061CF05B2D543088F20894211CB4
:1034B000311C92E0A90E0E5F1F4FEA2DE43009F097
:1034C000AFCF0894411C511C2B813C812E5F3F4F94
:1034D0003C832B8332E04316510409F086CF8D8163
:1034E0009E8101969E838D83E981FA813296FA83CB
:1034F000E9838230910509F061CF0E94300380EDAD
:1035000097E024EF31E0F9013197F1F70197D9F70E
:103510000E941B172C960FB6F894DEBF0FBECDBFCE
:10352000CF91DF911F910F91FF90EF90DF90CF909F
:10353000BF90AF909F908F907F906F905F904F90D3
:103540003F902F90089580E090E00E94B7020E9483
:1035500030030895FF920F931F93DF93CF93CDB75E
:10356000DEB72C970FB6F894DEBF0FBECDBFFF2499
:103570008E010F5F1F4F0E94C5349C01B90188273F
:1035800077FD8095982F0E94843220E03EEF4FEF28
:1035900056E40E94EE31609343017093440180939E
:1035A0004501909346010E94C5349C01B9018827CA
:1035B00077FD8095982F0E94843220E03EEF4FEFF8
:1035C00056E40E94EE3120E030E040E05FE30E94EC
:1035D0008B3360934B0170934C0180934D0190931A
:1035E0004E010E94C5349C01B901882777FD809562
:1035F000982F0E94843220E03EEF4FEF56E40E9465
:10360000EE3120E030E040E85EE30E948B3320E0C2
:1036100030E040E85FE30E94863120E030E040E89F
:103620005EE30E9485316093470170934801809367
:10363000490190934A0183E491E0B8010E94CD0AC8
:103640008F2D60E040E098010E947E050E94C53405
:103650009C01B901882777FD8095982F0E948432BC
:1036600020E03EEF4FEF56E40E94EE3160934301BD
:103670007093440180934501909346010E94C534A4
:103680009C01B901882777FD8095982F0E9484328C
:1036900020E03EEF4FEF56E40E94EE3120E030E0B4
:1036A00040E05FE30E948B3360934B0170934C01C9
:1036B00080934D0190934E010E94C5349C01B90145
:1036C000882777FD8095982F0E94843220E03EEF76
:1036D0004FEF56E40E94EE3120E030E040E85EE338
:1036E0000E948B3320E030E040E85FE30E948631A7
:1036F00020E030E040E85EE30E94853160934701BE
:10370000709348018093490190934A0183E491E0CA
:10371000B8010E94CD0A8F2D60E041E098010E941F
:103720007E050E94C5349C01B901882777FD8095EC
:10373000982F0E94843220E03EEF4FEF56E40E9423
:10374000EE3160934301709344018093450190935F
:1037500046010E94C5349C01B901882777FD8095F8
:10376000982F0E94843220E03EEF4FEF56E40E94F3
:10377000EE3120E030E040E05FE30E948B33609365
:103780004B0170934C0180934D0190934E010E9428
:10379000C5349C01B901882777FD8095982F0E9438
:1037A000843220E03EEF4FEF56E40E94EE3120E0FD
:1037B00030E040E85EE30E948B3320E030E040E8F8
:1037C0005FE30E94863120E030E040E85EE30E9443
:1037D000853160934701709348018093490190932C
:1037E0004A0183E491E0B8010E94CD0A8F2D60E088
:1037F00042E098010E947E050E94C5349C01B901F7
:10380000882777FD8095982F0E94843220E03EEF34
:103810004FEF56E40E94EE316093430170934401F0
:1038200080934501909346010E94C5349C01B901E3
:10383000882777FD8095982F0E94843220E03EEF04
:103840004FEF56E40E94EE3120E030E040E05FE3CD
:103850000E948B3360934B0170934C0180934D0118
:1038600090934E010E94C5349C01B901882777FDD1
:103870008095982F0E94843220E03EEF4FEF56E46F
:103880000E94EE3120E030E040E85EE30E948B339E
:1038900020E030E040E85FE30E94863120E030E045
:1038A00040E85EE30E9485316093470170934801D0
:1038B0008093490190934A0183E491E0B8010E940A
:1038C000CD0A8F2D60E043E098010E947E050E94A2
:1038D000C5349C01B901882777FD8095982F0E94F7
:1038E000843220E03EEF4FEF56E40E94EE316093C9
:1038F00043017093440180934501909346010E94D7
:10390000C5349C01B901882777FD8095982F0E94C6
:10391000843220E03EEF4FEF56E40E94EE3120E08B
:1039200030E040E05FE30E948B3360934B01709383
:103930004C0180934D0190934E010E94C5349C012F
:10394000B901882777FD8095982F0E94843220E066
:103950003EEF4FEF56E40E94EE3120E030E040E8C9
:103960005EE30E948B3320E030E040E85FE30E949A
:10397000863120E030E040E85EE30E9485316093CC
:103980004701709348018093490190934A0183E471
:1039900091E0B8010E94CD0A8F2D61E040E09801CE
:1039A0000E947E050E94C5349C01B901882777FDDD
:1039B0008095982F0E94843220E03EEF4FEF56E42E
:1039C0000E94EE316093430170934401809345015E
:1039D000909346010E94C5349C01B901882777FD68
:1039E0008095982F0E94843220E03EEF4FEF56E4FE
:1039F0000E94EE3120E030E040E05FE30E948B3334
:103A000060934B0170934C0180934D0190934E0154
:103A10000E94C5349C01B901882777FD8095982FB5
:103A20000E94843220E03EEF4FEF56E40E94EE31D8
:103A300020E030E040E85EE30E948B3320E030E09D
:103A400040E85FE30E94863120E030E040E85EE33A
:103A50000E9485316093470170934801809349012A
:103A600090934A0183E491E0B8010E94CD0A8F2D22
:103A700061E041E098010E947E050E94C5349C01EE
:103A8000B901882777FD8095982F0E94843220E025
:103A90003EEF4FEF56E40E94EE3160934301709386
:103AA000440180934501909346010E94C5349C01D6
:103AB000B901882777FD8095982F0E94843220E0F5
:103AC0003EEF4FEF56E40E94EE3120E030E040E060
:103AD0005FE30E948B3360934B0170934C018093A2
:103AE0004D0190934E010E94C5349C01B901882775
:103AF00077FD8095982F0E94843220E03EEF4FEFB3
:103B000056E40E94EE3120E030E040E85EE30E949F
:103B10008B3320E030E040E85FE30E94863120E014
:103B200030E040E85EE30E94853160934701709386
:103B300048018093490190934A0183E491E0B801E0
:103B40000E94CD0A8F2D61E042E098010E947E051F
:103B50000E94C5349C01B901882777FD8095982F74
:103B60000E94843220E03EEF4FEF56E40E94EE3197
:103B70006093430170934401809345019093460103
:103B80000E94C5349C01B901882777FD8095982F44
:103B90000E94843220E03EEF4FEF56E40E94EE3167
:103BA00020E030E040E05FE30E948B3360934B0104
:103BB00070934C0180934D0190934E010E94C53447
:103BC0009C01B901882777FD8095982F0E94843247
:103BD00020E03EEF4FEF56E40E94EE3120E030E06F
:103BE00040E85EE30E948B3320E030E040E85FE392
:103BF0000E94863120E030E040E85EE30E9485319B
:103C000060934701709348018093490190934A0162
:103C100083E491E0B8010E94CD0A8F2D61E043E07A
:103C200098010E947E050E94C5349C01B901882735
:103C300077FD8095982F0E94843220E03EEF4FEF71
:103C400056E40E94EE3160934301709344018093E7
:103C50004501909346010E94C5349C01B901882713
:103C600077FD8095982F0E94843220E03EEF4FEF41
:103C700056E40E94EE3120E030E040E05FE30E9435
:103C80008B3360934B0170934C0180934D01909363
:103C90004E010E94C5349C01B901882777FD8095AB
:103CA000982F0E94843220E03EEF4FEF56E40E94AE
:103CB000EE3120E030E040E85EE30E948B3320E00C
:103CC00030E040E85FE30E94863120E030E040E8E9
:103CD0005EE30E94853160934701709348018093B1
:103CE000490190934A0183E491E0B8010E94CD0A12
:103CF0008F2D62E040E098010E947E050E94C5344D
:103D00009C01B901882777FD8095982F0E94843205
:103D100020E03EEF4FEF56E40E94EE316093430106
:103D20007093440180934501909346010E94C534ED
:103D30009C01B901882777FD8095982F0E948432D5
:103D400020E03EEF4FEF56E40E94EE3120E030E0FD
:103D500040E05FE30E948B3360934B0170934C0112
:103D600080934D0190934E010E94C5349C01B9018E
:103D7000882777FD8095982F0E94843220E03EEFBF
:103D80004FEF56E40E94EE3120E030E040E85EE381
:103D90000E948B3320E030E040E85FE30E948631F0
:103DA00020E030E040E85EE30E9485316093470107
:103DB000709348018093490190934A0183E491E014
:103DC000B8010E94CD0A8F2D62E041E098010E9467
:103DD0007E050E94C5349C01B901882777FD809536
:103DE000982F0E94843220E03EEF4FEF56E40E946D
:103DF000EE316093430170934401809345019093A9
:103E000046010E94C5349C01B901882777FD809541
:103E1000982F0E94843220E03EEF4FEF56E40E943C
:103E2000EE3120E030E040E05FE30E948B336093AE
:103E30004B0170934C0180934D0190934E010E9471
:103E4000C5349C01B901882777FD8095982F0E9481
:103E5000843220E03EEF4FEF56E40E94EE3120E046
:103E600030E040E85EE30E948B3320E030E040E841
:103E70005FE30E94863120E030E040E85EE30E948C
:103E80008531609347017093480180934901909375
:103E90004A0183E491E0B8010E94CD0A8F2D62E0CF
:103EA00042E098010E947E050E94C5349C01B90140
:103EB000882777FD8095982F0E94843220E03EEF7E
:103EC0004FEF56E40E94EE3160934301709344013A
:103ED00080934501909346010E94C5349C01B9012D
:103EE000882777FD8095982F0E94843220E03EEF4E
:103EF0004FEF56E40E94EE3120E030E040E05FE317
:103F00000E948B3360934B0170934C0180934D0161
:103F100090934E010E94C5349C01B901882777FD1A
:103F20008095982F0E94843220E03EEF4FEF56E4B8
:103F30000E94EE3120E030E040E85EE30E948B33E7
:103F400020E030E040E85FE30E94863120E030E08E
:103F500040E85EE30E948531609347017093480119
:103F60008093490190934A0183E491E0B8010E9453
:103F7000CD0A8F2D62E043E098010E947E050E94E9
:103F8000C5349C01B901882777FD8095982F0E9440
:103F9000843220E03EEF4FEF56E40E94EE31609312
:103FA00043017093440180934501909346010E9420
:103FB000C5349C01B901882777FD8095982F0E9410
:103FC000843220E03EEF4FEF56E40E94EE3120E0D5
:103FD00030E040E05FE30E948B3360934B017093CD
:103FE0004C0180934D0190934E010E94C5349C0179
:103FF000B901882777FD8095982F0E94843220E0B0
:104000003EEF4FEF56E40E94EE3120E030E040E812
:104010005EE30E948B3320E030E040E85FE30E94E3
:10402000863120E030E040E85EE30E948531609315
:104030004701709348018093490190934A0183E4BA
:1040400091E0B8010E94CD0A8F2D63E040E0980115
:104050000E947E050E94C5349C01B901882777FD26
:104060008095982F0E94843220E03EEF4FEF56E477
:104070000E94EE31609343017093440180934501A7
:10408000909346010E94C5349C01B901882777FDB1
:104090008095982F0E94843220E03EEF4FEF56E447
:1040A0000E94EE3120E030E040E05FE30E948B337D
:1040B00060934B0170934C0180934D0190934E019E
:1040C0000E94C5349C01B901882777FD8095982FFF
:1040D0000E94843220E03EEF4FEF56E40E94EE3122
:1040E00020E030E040E85EE30E948B3320E030E0E7
:1040F00040E85FE30E94863120E030E040E85EE384
:104100000E94853160934701709348018093490173
:1041100090934A0183E491E0B8010E94CD0A8F2D6B
:1041200063E041E098010E947E050E94C5349C0135
:10413000B901882777FD8095982F0E94843220E06E
:104140003EEF4FEF56E40E94EE31609343017093CF
:10415000440180934501909346010E94C5349C011F
:10416000B901882777FD8095982F0E94843220E03E
:104170003EEF4FEF56E40E94EE3120E030E040E0A9
:104180005FE30E948B3360934B0170934C018093EB
:104190004D0190934E010E94C5349C01B9018827BE
:1041A00077FD8095982F0E94843220E03EEF4FEFFC
:1041B00056E40E94EE3120E030E040E85EE30E94E9
:1041C0008B3320E030E040E85FE30E94863120E05E
:1041D00030E040E85EE30E948531609347017093D0
:1041E00048018093490190934A0183E491E0B8012A
:1041F0000E94CD0A8F2D63E042E098010E947E0567
:104200000E94C5349C01B901882777FD8095982FBD
:104210000E94843220E03EEF4FEF56E40E94EE31E0
:10422000609343017093440180934501909346014C
:104230000E94C5349C01B901882777FD8095982F8D
:104240000E94843220E03EEF4FEF56E40E94EE31B0
:1042500020E030E040E05FE30E948B3360934B014D
:1042600070934C0180934D0190934E010E94C53490
:104270009C01B901882777FD8095982F0E94843290
:1042800020E03EEF4FEF56E40E94EE3120E030E0B8
:1042900040E85EE30E948B3320E030E040E85FE3DB
:1042A0000E94863120E030E040E85EE30E948531E4
:1042B00060934701709348018093490190934A01AC
:1042C00083E491E0B8010E94CD0A8F2D63E043E0C2
:1042D00098010E947E05F3943F2D343009F04BC9BC
:1042E0000E94300388EE93E024EF31E0F90131972A
:1042F000F1F70197D9F72C960FB6F894DEBF0FBEF1
:10430000CDBFCF91DF911F910F91FF900895DF9264
:10431000EF92FF920F931F93DF93CF93CDB7DEB74A
:104320002C970FB6F894DEBF0FBECDBF609137015A
:10433000709138018091390190913A012FE632E174
:1043400043E05BE30E948631F62E172FE82E092FFB
:10435000862F912FAE2DB02F809337019093380187
:10436000A0933901B0933A016F2D712F8E2D902FAC
:1043700020E030E040E85FE30E94873387FD12C011
:104380006F2D712F8E2D902F20E030E040E85FE3FD
:104390000E94853160933701709338018093390111
:1043A00090933A0187E391E07E010894E11CF11CAF
:1043B000B7010E94CD0ADD2404EF11E08D2D60E0ED
:1043C00040E097010E947E058D2D60E041E097015D
:1043D0000E947E058D2D60E042E097010E947E05DF
:1043E0008D2D60E043E097010E947E058D2D61E0F8
:1043F00040E097010E947E058D2D61E041E097012C
:104400000E947E058D2D61E042E097010E947E05AD
:104410008D2D61E043E097010E947E058D2D62E0C5
:1044200040E097010E947E058D2D62E041E09701FA
:104430000E947E058D2D62E042E097010E947E057C
:104440008D2D62E043E097010E947E058D2D63E093
:1044500040E097010E947E058D2D63E041E09701C9
:104460000E947E058D2D63E042E097010E947E054B
:104470008D2D63E043E097010E947E050E9430038A
:1044800080E090E00E94B70224EF31E0C80101977C
:10449000F1F721503040D1F7D3948D2D843009F0BD
:1044A0008DCF83E0D82E04EF11E0DA948D2D60E0FB
:1044B00040E097010E947E058D2D60E041E097016C
:1044C0000E947E058D2D60E042E097010E947E05EE
:1044D0008D2D60E043E097010E947E058D2D61E007
:1044E00040E097010E947E058D2D61E041E097013B
:1044F0000E947E058D2D61E042E097010E947E05BD
:104500008D2D61E043E097010E947E058D2D62E0D4
:1045100040E097010E947E058D2D62E041E0970109
:104520000E947E058D2D62E042E097010E947E058B
:104530008D2D62E043E097010E947E058D2D63E0A2
:1045400040E097010E947E058D2D63E041E09701D8
:104550000E947E058D2D63E042E097010E947E055A
:104560008D2D63E043E097010E947E050E94300399
:1045700080E090E00E94B70224EF31E0C80101978B
:10458000F1F721503040D1F78D2D813009F08DCFDA
:104590002C960FB6F894DEBF0FBECDBFCF91DF9142
:1045A0001F910F91FF90EF90DF9008952F923F920F
:1045B0004F925F926F927F928F929F92AF92BF9233
:1045C000CF92DF92EF92FF920F931F93DF93CF93DF
:1045D000CDB7DEB769970FB6F894DEBF0FBECDBF7B
:1045E0000E94C5349C01B901882777FD8095982FDA
:1045F00029E130E040E050E00E94EE332FEF3FE74A
:1046000040E050E00E940D34DA01C9014496A11D3A
:10461000B11D8A8B9B8BAC8BBD8B60912B017091F4
:104620002C0180912D0190912E012AE037ED43EA73
:104630005CE30E948631062FF72EE82ED92E862FB6
:104640009F2DAE2DBD2D80932B0190932C01A09317
:104650002D01B0932E01602F7F2D8E2D9D2D20E0FA
:1046600030E040E85FE30E94873387FD12C0602F8F
:104670007F2D8E2D9D2D20E030E040E85FE30E94ED
:10468000853160932B0170932C0180932D019093C1
:104690002E0199E09D87AAE9AE87B9E9BF8729E98C
:1046A000288B3EEB398B8E010F5F1F4F54EF252E69
:1046B00051E0352EDA2ECB2E922E832E44E0F42EAE
:1046C00033E0E32EA6019401852F9C2DA32FB82D56
:1046D0008093330190933401A0933501B093360158
:1046E000652F7C2D832F982D20E030E040E05FE3A4
:1046F0000E94873318160CF055C080E090E0A0E0CF
:10470000BFE38093330190933401A0933501B093BC
:1047100036018BE291E0B8010E94CD0AFF2009F436
:1047200063C0AA24BB248E2D6A2D4B2D98010E94B4
:104730007E05B394BF14B8F3A394AF1498F3AA24DE
:10474000BB248B2D6A2D4E2D98010E947E05B394BB
:10475000BF14B8F3A394AF1498F3AA24BB248B2DF1
:104760006E2D4A2D98010E947E05B394BF14B8F3B4
:10477000A394AF1498F30E943003EE20C1F1A60178
:104780009401652F7C2D832F982D2DEC3CEC4CEC67
:104790005DE30E948631D62EC72E982E892EEA948C
:1047A000FA9490CFA6019401652F7C2D832F982D2C
:1047B00020E030E040E050E00E94EA3187FFA9CFDE
:1047C00080E090E0A0E0B0E080933301909334016A
:1047D000A0933501B09336018BE291E0B8010E94BD
:1047E000CD0AFF2009F09DCF0E943003C8CF0E9460
:1047F00030036A897B898C899D890E9484322B01D0
:104800003C0120E030E44CE955E40E948B33D62E85
:10481000E72EF82E892E81E08E8B6D2D7E2D8F2D2B
:10482000982D20E030E040E85FE30E94EA3187FD08
:104830003CC01E8A6D2D7E2D8F2D982D20E03FEFE0
:104840004FE757E40E9487331816A4F5C301B2015D
:1048500020E030E040E251E40E948B330E94563267
:104860006115710531F0C1010197F1F76150704098
:10487000D1F75E854F8538892989652F742F832F5D
:10488000922F2DEC3CEC4CEC5DE30E948631AD8523
:10489000A150AD87AA23B1F06E877F87888B998B53
:1048A000D62EC72E982E892E09CF81E090E0019751
:1048B000F1F7DFCF6D2D7E2D8F2D982D0E94563272
:1048C000CB01F5CFDF8AE88EF98E2DEC3CEC4CEC79
:1048D0005DE30E948531F62EE72ED82EC92EB1E079
:1048E000BA8B5F89488D398D652F742F832F982D52
:1048F00020E03FEF4FE757E40E94873318160CF093
:10490000FEC0FE86EF86D88AC98A29E02D8724EF6B
:10491000222E21E0322EEF2CDF84C888998893E084
:10492000F92EAE2C8A2D9D2DAC2DB92D80933301FF
:1049300090933401A0933501B09336016A2D7D2DFB
:104940008C2D992D20E030E040E05FE30E9487331A
:1049500018160CF056C080E090E0A0E0BFE3809312
:10496000330190933401A0933501B09336018BE26B
:1049700091E0B8010E94CD0ABF2CEF2C8F2D6B2D3A
:104980004E2D98010E947E05E3943E2D3430B0F305
:10499000B3948B2D843089F7BF2CEF2C8E2D6B2D8B
:1049A0004F2D98010E947E05E3949E2D9430B0F324
:1049B000B394AB2DA43088F3BF2CEF2C8E2D6F2D2C
:1049C0004B2D98010E947E05E394BE2DB430B0F3C8
:1049D000B3942B2D243088F30E943003FA943F2D9A
:1049E0003F3F41F16A2D7D2D8C2D992D2DEC3CEC16
:1049F0004CEC5DE30E948531A62ED72EC82E992E51
:104A000091CF6A2D7D2D8C2D992D20E030E040E056
:104A100050E00E94EA3187FFAACF80E090E0A0E05A
:104A2000B0E08093330190933401A0933501B093AB
:104A300036019DCF0E9430038E89882399F59A898B
:104A4000992309F451C0C301B20120E030E040E2F3
:104A500051E40E948B330E9456326115710531F08A
:104A6000C1010197F1F761507040D1F7AD85A150B8
:104A7000AD87AA2301F15E854F8538892989652F85
:104A8000742F832F922F2DEC3CEC4CEC5DE30E94B5
:104A900085316E877F87888B998BE62ED72EC82E1F
:104AA000992E3DCF81E090E00197F1F7AD85A150BF
:104AB000AD87AA2301F769960FB6F894DEBF0FBE43
:104AC000CDBFCF91DF911F910F91FF90EF90DF90BD
:104AD000CF90BF90AF909F908F907F906F905F909E
:104AE0004F903F902F9008955F89488D398D652FA5
:104AF000742F832F982D0E945632CB01D5CF1A8A5E
:104B000000CF80E090E00E94B7020E943003089539
:104B10008F929F92AF92BF92CF92DF92EF92FF92CD
:104B20000F931F93DF93CF93CDB7DEB72C970FB6BC
:104B3000F894DEBF0FBECDBFB82EA62E6A01198233
:104B40008A831B8294E0E92EF12CEC0EFD1ED70126
:104B50008E010F5F1F4FF80183E001900D9281508D
:104B6000E1F780E090E00E94B70283E08C83AD82A1
:104B700087E0882E912C8C0E9D1EC801B701A401E0
:104B80000E942C0FC401B6010E94400FD801F7010A
:104B900083E001900D928150E1F783E08C83BD8228
:104BA0008E83C801B701A4010E942C0FC401B60175
:104BB0000E94400FD801F70183E001900D928150CF
:104BC000E1F783E08E83AD821C82C801B701A401A6
:104BD0000E942C0FC401B6010E94400FD801F701BA
:104BE00083E001900D928150E1F71E82BD821C820C
:104BF000C801B701A4010E942C0FC401B6010E9494
:104C0000400F2C960FB6F894DEBF0FBECDBFCF91EC
:104C1000DF911F910F91FF90EF90DF90CF90BF90A9
:104C2000AF909F908F900895CF92DF92EF92FF9276
:104C30000F931F93DF93CF93CDB7DEB72C970FB6AB
:104C4000F894DEBF0FBECDBF8FE491E07E010894E3
:104C5000E11CF11CB7010E94CD0A60914F017091D7
:104C60005001809151019091520127E137EB41EDC4
:104C700058E30E948631162F072FD82EC92EA8017F
:104C80009601852F942FA32FB22F80934F019093DD
:104C90005001A0935101B0935201652F742F832FBF
:104CA000922F20E030E040E85FE30E94873387FDE9
:104CB00014C0A8019601652F742F832F922F20E036
:104CC00030E040E85FE30E94853160934F017093CC
:104CD00050018093510190935201DD2443E0C42E92
:104CE00004EF11E06C2D6D198D2DA7010E94882510
:104CF0000E94300328EE33E0F8013197F1F721509C
:104D00003040D1F7D3948D2D843061F732E0D32E2B
:104D100023E0C22E04EF11E06C2D6D198D2DA7013B
:104D20000E9488250E94300328EE33E0F801319775
:104D3000F1F721503040D1F7DA9471F72C960FB685
:104D4000F894DEBF0FBECDBFCF91DF911F910F91C1
:104D5000FF90EF90DF90CF9008950E94C53410929D
:104D6000A8059C01B901882777FD8095982F0E949E
:104D7000843220E03EEF4FEF56E40E94EE31609324
:104D80002B0670932C0680932D0690932E0680E0C0
:104D900090E0A0E8BFE380932F0690933006A093A5
:104DA0003106B09332061092A90580E090E00E948F
:104DB000B7020E94300308952EE730E0AC014E5F49
:104DC0005F4FC9010397DA01A20FB31FFA01E80F81
:104DD000F91F23E001900D922150E1F79C0100970B
:104DE00081F708950F931F93DF93CF930F92CDB761
:104DF000DEB78C0169830E94C534AA2797FDA09570
:104E0000BA2F6981262F30E040E050E0BC01CD018F
:104E10000E94EE332FEF3FE740E050E00E940D3458
:104E2000F801E20FF11D80810F90CF91DF911F916A
:104E30000F9108958F929F92AF92BF92CF92DF927F
:104E4000EF92FF920F931F93DF93CF93CDB7DEB70F
:104E50002C970FB6F894DEBF0FBECDBF8C01DC01DE
:104E60008C918B3210F48F5F8C93AEE7B0E0980199
:104E70002E5F3F4FCD010397A20FB31FF901E80F3B
:104E8000F91F43E001900D924150E1F7DC010097DA
:104E900089F7F8018081813009F40AC1F801428163
:104EA000442309F07BC09E012B5F3F4FCE01049647
:104EB000FE01339642E0842E912C8C0E9D1E5E01E5
:104EC0000894A11CB11CA501CC24D8011196FC901A
:104ED000BF2DB43009F4E1C0C39463E0DA016C93F0
:104EE000D80113964C911397442309F488C0BF2D21
:104EF000B13009F4D9C0C39452E0D4015C9343307B
:104F000008F47AC0D80114962C911497222309F43E
:104F10006BC0BF2DB63009F4C5C0C39435E03083F3
:104F2000233008F460C00E94C534DD24EE24FF2441
:104F30009C01442737FD4095542FC701B6010E94BC
:104F4000EE332FEF3FE740E050E00E940D34F501D3
:104F5000E20FF11D8081D80111968C931197833057
:104F600009F470C0843008F053C0813009F473C074
:104F7000823009F462C02C960FB6F894DEBF0FBEE3
:104F8000CDBFCF91DF911F910F91FF90EF90DF90F8
:104F9000CF90BF90AF909F908F900895F180FF2D9C
:104FA000F33009F461C084E08983BE016A5F7F4FFA
:104FB0009E012B5F3F4FCE010496FE01339652E0D7
:104FC000852E912C8C0E9D1ECC24C3945E010894DA
:104FD000A11CB11C433008F083CFA4014F01FC0198
:104FE000C9019B0175CFFC012F2D253009F49BCF02
:104FF000C39486E0808397CF4F01FC01C901BF2D88
:10500000B23009F447C0C39421E0D4012C937ACF85
:105010008530D9F1853028F4F8018281815082836E
:10502000AACF863009F0A7CFD80114968C91149797
:105030008F5F14968C9314979ECFF80183818150D3
:10504000838399CFD80112968C9112978F5F129615
:105050008C93129790CFD80113968C9113978F5FF2
:1050600013968C93139787CFBE016B5F7F4F9E0182
:105070002C5F3F4FCE010396FE0132965E010894ED
:10508000A11CB11C4501CC24A5CFF801848181501D
:10509000848371CFCF01F40135CF9C01CF01F4019E
:1050A0004A011ECFCF013CCF9C01CF01F40127CF95
:1050B0000E94C5349C01B901882777FD8095982FFF
:1050C000660F771F881F991F660F771F881F991F0C
:1050D000AFEFCA2EAFE7DA2EE12CF12CA701960133
:1050E0000E940D34D80112962C930E94C534FC0105
:1050F000BF01882777FD8095982F660F771F881F3F
:10510000991F660F771F881F991FA70196010E949C
:105110000D34D80113962C930E94C534FC01BF01B5
:10512000882777FD8095982F660F771F881F991F16
:10513000660F771F881F991FA70196010E940D34E3
:10514000D80114962C93149716CF2F923F924F921A
:105150005F926F927F928F929F92AF92BF92CF9207
:10516000DF92EF92FF920F931F93DF93CF93CDB710
:10517000DEB7AF970FB6F894DEBF0FBECDBF9EA3CC
:105180008DA3FC01F0806F2D70E080E090E00E9424
:1051900082325B016C016DEC7CEC8CEC9EE3A60131
:1051A00095010E94EE316FA378A789A7492E0DA122
:1051B0001EA10D571F4FF80160817181828193817B
:1051C0002FE632E143E85AE30E948631262F372F3B
:1051D000482F592FF801208331834283538320E0E5
:1051E00030E040E85FE30E94873387FD09C080E03C
:1051F00090E0A0E0B0E0F80180839183A283B383C4
:10520000EDA1FEA1E557FF4F80E090E0A0E0B0E007
:1052100080839183A283B383FE013D96D8018CE005
:105220000D9001928150E1F76DEC7CEC8CE49EE3F3
:10523000A60195010E94EE316CA77DA78EA79FA7BE
:10524000FF2009F4DEC08F2D90E001978C01000F44
:10525000111F080F191F0E5F1F4F8DA19EA1080F70
:10526000191F992402969BA78AA71E010894211C46
:10527000311C89E1A82EB12CAC0EBD1E43C0CE015D
:105280000D96B1010E94CD0AC801B5010E94FC072C
:10529000698D7A8D8B8D9C8D20E030E040E050E070
:1052A0000E94EA318823C9F46D8D7E8D8F8D98A17F
:1052B00020E030E040E050E00E94EA31882369F4C9
:1052C00069A17AA18BA19CA120E030E040E050E0F0
:1052D0000E94EA31882309F489C0C501B10120E0A8
:1052E00030E040E05FE30E945A0EC801B5010E9421
:1052F0002B079394EDA1FEA18081981608F081C040
:10530000035010405FA148A539A5652F742F832F46
:10531000942D2D893E894F89588D0E948631862E85
:10532000772E682E592E862F972DA62DB52D8D8B75
:105330009E8BAF8BB88F5CA54DA53EA52FA5652F85
:10534000742F832F922F2D853E854F8558890E947B
:105350008631F62EE72ED82EC92EA7019601852F6D
:10536000942FA32FB22F8D879E87AF87B88B652F81
:10537000742F832F922F20E030E040E85FE30E94FB
:10538000873387FD10C0A7019601652F742F832FE7
:10539000922F20E030E040E85FE30E9485316D8786
:1053A0007E878F87988B682D772D862D952D20E011
:1053B00030E040E05FE30E948733181644F480E059
:1053C00090E0A0E0BFE38D8B9E8BAF8BB88FEAA5FA
:1053D000FBA50E171F0709F052CF80E090E0A0E078
:1053E000BFE38D8B9E8BAF8BB88F49CFC801B101C6
:1053F0000E942B079394EDA1FEA18081981608F4DA
:105400007FCFAF960FB6F894DEBF0FBECDBFCF9162
:10541000DF911F910F91FF90EF90DF90CF90BF90A1
:10542000AF909F908F907F906F905F904F903F9044
:105430002F900895AF92BF92CF92DF92EF92FF929A
:105440000F931F93CF93DF930E94C534EC01E0903C
:105450005B01F0905C0100915D0110915E01C8015B
:10546000B70120E030E040EC50E40E948B3320E0B4
:1054700030E040EE50E40E94EE315B016C01BE0171
:10548000882777FD8095982F0E94843220E03EEF98
:105490004FEF56E40E94EE3120E030E040E05FE361
:1054A0000E94853120E030E040EA50E40E948B33D6
:1054B000A80197010E94863120E030E040EE50E4E0
:1054C0000E94EE319B01AC01C601B5010E948631FC
:1054D000A62EE72E8C01862F9E2DA02FB12F809314
:1054E0005B0190935C01A0935D01B0935E016A2D16
:1054F0007E2D802F912F20E030E040E85FE30E9476
:10550000EA3187FF52C080E090E0A0E8BFE38093DB
:105510005B0190935C01A0935D01B0935E01AA24AE
:10552000EE2400E81FE36091370670913806809101
:10553000390690913A069B01AC012F5F3F4F4F4FC8
:105540005F4F2093370630933806409339065093C7
:105550003A060E9482322A2D3E2D402F512F0E9462
:10556000EA3187FD17C01092370610923806109264
:10557000390610923A0680E090E00E94B70288EA6D
:1055800095E00E941A2788EA95E060E00E94A5282D
:105590000E943003DF91CF911F910F91FF90EF9008
:1055A000DF90CF90BF90AF9008956A2D7E2D802F11
:1055B000912F20E030E048E452E40E94873318162F
:1055C0000CF0B1CF80E090E0A8E4B2E480935B01FE
:1055D00090935C01A0935D01B0935E01AA24EE2438
:1055E00008E412E4A0CF0F930FB70F931F93AF936C
:1055F000BF93009178001091790000501240A09163
:105600001001B09111010D931D93009112010A95A3
:1056100019F400E4ABEBB7E000931201A093100182
:10562000B0931101BF91AF911F910F910FBF0F91D7
:105630001895A895AF93AFB7AF93BF930F93009111
:105640000D01003069F00A9500930D01A0910E0143
:10565000B0910F010E910EBDA0930E01B0930F01FA
:105660000F91BF91AF91AFBFAF911895A8952F93B0
:105670000F931F93AF93BF93BFB7BF93A0910E013A
:10568000B0910F010BE316E0A017B10711F4ABEBDB
:10569000B7E007E100930D01209180002F7D20935A
:1056A0008000299A299800916601003039F45F98AA
:1056B0005E9A5E985F9AA3EAB7E002C05E9A5E982F
:1056C000209180002062209380000395003108F033
:1056D0000027009366011E911EBDA0930E01B0939A
:1056E0000F01BF91BFBFBF91AF911F910F912F913C
:1056F00018953D0A880A680BDB0CDC0E68117814DB
:105700000318011C68202C25412A9B2F2C35E53AD3
:10571000B8409646704C3852DF57555D8E627D67B3
:10572000146C47700D745C772A7A727C2D7E577FDB
:10573000EC7FEC7F577F2D7E727C2A7A5C770D742C
:105740004770146C7D678E62555DDF573852704C20
:105750009646B840E53A2C359B2F412A2C256820E7
:10576000011C031878146811DC0EDB0C680B880A26
:105770003D0AFF7F0000617F8B0C897DF8187C7AE1
:1057800027254076FB30E170563C6C6A1C47F1627D
:105790003351815A815A3351F1621C476C6A563C2D
:1057A000E170FB30407627257C7AF818897D8B0CD8
:1057B000617F0000FE7F75F3617F08E7897DD9DA9C
:1057C0007C7A05CF4076AAC3E170E4B86C6ACDAEAE
:1057D000F1627FA5815A0F9D335194951C471F8F0D
:1057E000563CC089FB30848527257782F8189F8036
:1057F0008B0C000080004000C0002000A000600072
:10580000E000100090005000D0003000B0007000A8
:10581000F000080088004800C8002800A8006800C0
:10582000E800180098005800D8003800B800780048
:10583000F8003F922F921F930F93DF93CF93DC01D9
:10584000EB019927E2EFF6E500E410E025913591B0
:105850004D915D91B503B0012C031001691FBC038C
:10586000790B300C611D791FDA03790B300C611D47
:10587000791F69937993699379930150104031F7B7
:10588000CF91DF910F911F912F903F901124089598
:105890001F930F93DF93CF93DC01EB0100E410E043
:1058A0004D915D91499359934993599301501040FB
:1058B000B9F7CF91DF910F911F9108953F922F92E9
:1058C0005F924F927F926F929F928F92BF92AF9210
:1058D000DF92CF92FF92EF921F930F93DF93CF93BC
:1058E000FC0181E090E0A0E2B0E004E0809F600174
:1058F000909FD00C7C019F938F93EF01A09FC00DD0
:10590000D11DB09FD00DFF93EF93BB24AA249927FC
:105910000081118115950795688179817595679545
:10592000A801061B170B460F571F41935193208167
:105930003181359527956A817B8175956795A90198
:10594000261B370B460F571F419351930F01E2E778
:10595000F7E5EA0DFB1D4591559165917591F001B3
:10596000950320010C031001491E9C03590A300CB9
:10597000411C591ED803590A300C411C591EB7034B
:1059800040012E033001891EBE03990A700C811C50
:10599000991EFA03990A700C811C991E260C371C5B
:1059A000481C591C49925992B50320012C0310013F
:1059B000491EBC03590A300C411C591EDA03590A0E
:1059C000300C411C591E970340010E033001891E03
:1059D0009E03990A700C811C991EF803990A700C99
:1059E000811C991E2618370848085908499259926F
:1059F000AC0CBD1CA7FE8CCF04E0A09FC00DD11D38
:105A0000E00DF11DB09FD00DF00D81E0E81AF90A0C
:105A100009F07BCFEF91FF918F919F91880F991F94
:105A2000B695A795109609F060CFCF91DF910F91B1
:105A30001F91EF90FF90CF90DF90AF90BF908F902D
:105A40009F906F907F904F905F902F903F90089520
:105A50003F922F925F924F927F926F929F928F927E
:105A6000BF92AF921F930F93DF93CF935C01EB0133
:105A7000E2EFF7E5992700E210E0A591B591AA0DB4
:105A8000BB1D2D913D914D915D91B30320012A03E2
:105A90001001491EBA03590A300C411C591EBA03A1
:105AA000590A300C411C591ED50340014C033001EA
:105AB000891EDC03990A700C811C991EDC03990A6B
:105AC000700C811C991E260C371C481C591C50EC6C
:105AD000442730E4221B18F04216530620F0421AE5
