:100000000C94B5000C94D2000C94D2000C94D20045
:100010000C94D2000C94D2000C94D2000C94D20018
:100020000C94D2000C94D2000C94D2000C94D20008
:100030000C94D2000C94D7290C94D2000C94D200CA
:100040000C94D2000C94BA290C94D2000C94D200D7
:100050000C94D2000C9494290C94D2000C94D200ED
:100060000C94D2000C94D2006E616E00696E660032
:1000700000407A10F35A00A0724E18090010A5D45F
:10008000E80000E87648170000E40B54020000CABC
:100090009A3B000000E1F505000080969800000002
:1000A00040420F000000A086010000001027000061
:1000B0000000E803000000006400000000000A00E7
:1000C000000000000100000000002C76D888DC67EA
:1000D0004F0823DFC1DFAE59E1B1B796E5E3E45342
:1000E000C63AE651997696E8E6C28426EB898C9B5F
:1000F00062ED407C6FFCEFBC9C9F40F2BAA56FA5FF
:10010000F490055A2AF75C936B6CF9676DC11BFC80
:10011000E0E40D47FEF520E6B500D0ED902E03009B
:10012000943577050080841E080000204E0A0000E8
:1001300000C80C333333330F986E12831141EF8DA7
:100140002114893BE65516CFFEE6DB18D1844B38E7
:100150001BF77C1D901DA4BBE424203284725E2218
:100160008100C9F124ECA1E53D2711241FBECFEF8A
:10017000D8E0DEBFCDBF11E0A0E0B1E0E4EAF9E6EF
:1001800002C005900D92A834B107D9F717E0A8E492
:10019000B1E001C01D92A236B107E1F70E94D40080
:1001A0000C94D0340C9400000F931F93DF93CF93E3
:1001B00000D000D0CDB7DEB70E94CB278E010F5FF5
:1001C0001F4FC80160E070E044E050E00E94A83496
:1001D00089819A81AB81BC810E94183389819A817F
:1001E000AB81BC810196A11DB11D89839A83AB832C
:1001F000BC83C80160E070E044E050E00E94B83485
:1002000080E090E00E94CC020E9445030E942908F1
:100210000E94D3218091490190914A01A0914B0104
:10022000B0914C010196A11DB11D8093490190939D
:100230004A01A0934B01B0934C010E94161DEACFD6
:10024000EF92FF920F931F93DF93CF9300D000D0D4
:10025000CDB7DEB780E0E82E80E0F82E8E010F5F8C
:100260001F4FC801B70144E050E00E94A8348981C3
:100270009A81AB81BC810E94183389819A81AB81BC
:10028000BC810196A11DB11D89839A83AB83BC8378
:10029000C801B70144E050E00E94B8340F900F90BD
:1002A0000F900F90CF91DF911F910F91FF90EF90E2
:1002B000089583E28093B00021E02093B40083E0AE
:1002C0008093B30089E08093B10080E28093800046
:1002D00081E090E0909389008093880082E090E034
:1002E00090938B0080938A0084E290E29093870041
:1002F0008093860081E18093810020936F00789441
:100300000895229A2A9A239A259A2D9880E58CBDE1
:100310008DB581608DBD08959CB5259A8CB58F7B78
:100320008CBD2D9A2D989CBD0895982F96959695E5
:10033000E92FEE0FE90FF0E0E053FD4FDF011196DA
:10034000990F990F891B8130C1F0813028F08230DC
:1003500021F1833039F008958081807C6F73862B82
:1003600080830895660F660F11968C9111978370A4
:10037000682B11966C931197089590819F73862F27
:100380008295880F880F807C892B8083669566957F
:100390008181807F682B61830895862F8295807F7D
:1003A00091819F70892B818362956F7011968C91DA
:1003B00011978C7F682B11966C93119708950F936A
:1003C0001F93582F082F0295000F000F007C182F45
:1003D00016951695782F7295707F682F62956F70BD
:1003E000550F550F20E030E08F7309C09081907C4D
:1003F000982B90832F5F3F4F2031310521F1422F01
:10040000922F96959695E92FEE0FE90FF0E0E053C5
:10041000FD4FDF011196990F990F491B413019F1DA
:10042000413020F3423091F0433021F711969C91F6
:1004300011979370952B11969C9311972F5F3F4FB7
:1004400020313105E1F61F910F91089591819F7040
:10045000972B918311969C9111979C7F962B1196C7
:100460009C931197C7CF90819F73902B908391811C
:10047000907F912B9183BECF8EBD0DB407FEFDCF33
:100480000895289AECEDF2E082918EBD0DB407FE3E
:10049000FDCF82E0E03DF807B9F7299A299888E175
:1004A0001EBC0DB407FEFDCF8150D1F79CB5259A37
:1004B0008CB58F7B8CBD2D9A2D989CBD0895982F5F
:1004C0009695E8E16E9FF0011124292F220F290F44
:1004D000E20FF11DE05BFE4FDF011196990F891BC2
:1004E00031F440838181807F852B81830895813021
:1004F00009F00895842F8295807F91819F70892BC8
:100500008183529542954F7045275F70452711961C
:100510004C9311970895CF93DF93DA01982F969516
:10052000E8E16E9FF0011124292F220F290FE20F1D
:10053000F11DE05BFE4FEF012196990F891B99F4A5
:10054000208130E011963C932E93818190E08F7052
:100550009070982F8827822B932B11969C938E93C3
:10056000DF91CF9108958130D9F7898190E082950C
:100570009295907F9827807F982711969C938E93D1
:10058000218122952F7030E0282B392B11963C9336
:100590002E93DF91CF910895282F592F482F429500
:1005A000407F929582958F7089279F708927382F79
:1005B000E0E5F1E080E090E0DC01A05BBE4F20834D
:1005C000652F6F70642B11966C93119712963C9364
:1005D000DC01AD5ABE4F2383652F6F70642B1196DB
:1005E0006C93119712963C93DC01AA5ABE4F268356
:1005F000652F6F70642B11966C93119712963C9334
:10060000DC01A75ABE4F2187652F6F70642B1196AE
:100610006C93119712963C93DC01A45ABE4F248729
:10062000652F6F70642B11966C93119712963C9303
:10063000DC01A15ABE4F2787652F6F70642B11967E
:100640006C93119712963C93DC01AE59BE4F228BEE
:10065000652F6F70642B11966C93119712963C93D3
:10066000DC01AB59BE4F258B652F6F70642B119643
:100670006C93119712963C9312974896789661E086
:100680008038960709F098CF0895A2E6B5E0E0E536
:10069000F1E080E891E001900D920197E1F7089573
:1006A0000F931F93CF93DF93EC016C817D818E813B
:1006B0009F810E94F730162F688179818A819B8102
:1006C0000E94F7306F73812F8295880F880F807C8E
:1006D000862B8093D002688579858A859B850E94C8
:1006E000F730862F8295807F169516951F70812B87
:1006F0008093D1021091D2021C7F62956F70162BED
:100700001093D2021370688179818A819B810E9443
:10071000F730660F660F612B6093D202688579858A
:100720008A859B850E94F730062F6C817D818E81A2
:100730009F810E94F7306F73802F8295880F880FFA
:10074000807C862B8093D3021091D402107F069573
:100750000695102B1093D402688179818A819B8140
:100760000E94F730862F8295807F1F70812B8093A7
:10077000D4021091D5021C7F62956F70162B1093D6
:10078000D50213706C817D818E819F810E94F7302C
:10079000660F660F612B6093D5021091D602107C14
:1007A000688579858A859B850E94F7306F73162B43
:1007B0001093D602688179818A819B810E94F730EB
:1007C0001F73862F8295880F880F807C812B8093E2
:1007D000D6021091D702107F66956695162B10935E
:1007E000D7026C817D818E819F810E94F730862F98
:1007F0008295807F1F70812B8093D7021091D80241
:100800001C7F62956F70162B1093D8021370688549
:1008100079858A859B850E94F730660F660F612B6C
:100820006093D802DF91CF911F910F91089528987E
:10083000209A2A9A229A539A219A8FEB8093D00277
:100840008CE28093D1028FEF8093D20282EB80936F
:10085000D3028CEF8093D4028BEC8093D50292EF7D
:100860009093D6029FE29093D7028093D802229A67
:100870002A9A239A259A2D9880E58CBD8DB58160A2
:100880008DBD289AECEDF2E082918EBD0DB407FE8D
:10089000FDCF22E0E03DF207B9F7299A299888E1D7
:1008A0001EBC0DB407FEFDCF8150D1F79CB5259A33
:1008B0008CB58F7B8CBD2D9A2D989CBD21E020930B
:1008C0004D0128988DB580688DBD8CB580688CBD34
:1008D00083E28093B0002093B40083E08093B30060
:1008E00089E08093B10080E28093800081E090E015
:1008F000909389008093880082E090E090938B0031
:1009000080938A0084E290E290938700809386002F
:1009100081E18093810020936F007894E0E5F1E01D
:1009200080E090E0DC01A05BBE4F108211961C922B
:10093000119712961C92DC01AD5ABE4F138211968C
:100940001C92119712961C92DC01AA5ABE4F168275
:1009500011961C92119712961C92DC01A75ABE4F59
:10096000118611961C92119712961C92DC01A45AC2
:10097000BE4F148611961C92119712961C92DC01A0
:10098000A15ABE4F178611961C92119712961C926F
:10099000DC01AE59BE4F128A11961C921197129625
:1009A0001C92DC01AB59BE4F158A11961C9211970F
:1009B00012961C9212974896789621E080389207FA
:1009C00009F0B0CFA2E6B5E0E0E5F1E080E891E023
:1009D00001900D920197E1F7089544980895449A83
:1009E00008953D9A3C9A3B9A459843984498449A76
:1009F0000895EF92FF920F931F93CF93DF93982F59
:100A0000990F980F892F8695440F440F460FE8E100
:100A10004E9FF0011124482F440F480FDF01A40F0F
:100A2000B11DA05BBE4FED012196880F492F481BD9
:100A300009F060C02C9311968C911197807F832BC5
:100A400011968C93392F3F5F832F8695282F220F85
:100A5000280FDF01A20FB11DA05BBE4FED01219653
:100A6000880F381B91F50C9311968C911197807F0C
:100A7000812B11968C939E5F892F8695282F220FAC
:100A8000280FE20FF11DE05BFE4FDF011196880F8A
:100A9000981B09F445C0913089F48E2D8295807F92
:100AA00091819F70892B8183F294E2947FE0E72209
:100AB000EF24F722EF241196EC921197DF91CF915A
:100AC0001F910F91FF90EF9008953130A1F6802F84
:100AD0008295807F11962C9111972F70822B119601
:100AE0008C931197129502950F7001271F700127A3
:100AF0000983C1CF413009F0A5CF822F8295807F35
:100B000011964C9111974F70842B11968C931197DD
:100B1000329522952F7023273F702327298392CF68
:100B2000E0828181807F8F298183DF91CF911F9126
:100B30000F91FF90EF900895AF92BF92CF92DF9206
:100B4000FF920F931F93CF93DF93F62E042FE901AB
:100B5000182F110F180F688179818A819B8120E0FD
:100B600030EF4FE755E40E94D9310E94F7306B0116
:100B70006C817D818E819F8120E030EF4FE755E4CD
:100B80000E94D9310E94F7305B01688579858A859A
:100B90009B8520E030EF4FE755E40E94D9310E9459
:100BA000F730812F8695000F000F0F0DE8E10E9FA3
:100BB000F0011124982F990F980FDF01A90FB11D93
:100BC000A05BBE4FED012196880F912F981B09F075
:100BD00063C0CC9211968C911197807F8D291196CC
:100BE0008C93212F2F5F822F8695982F990F980F26
:100BF000DF01A90FB11DA05BBE4FED012196880F4B
:100C0000281BA1F5AC9211968C911197807F8B29AE
:100C100011968C931E5F812F8695982F990F980FB0
:100C2000E90FF11DE05BFE4FDF011196880F181BE5
:100C300009F449C0113081F4862F8295807F91811B
:100C40009F70892B8183729562956F7067277F7083
:100C5000672711966C931197DF91CF911F910F9198
:100C6000FF90DF90CF90BF90AF900895213091F624
:100C70008A2D8295807F11969C9111979F70892B68
:100C800011968C931197B294A2940FE0A022AB24FA
:100C9000B022AB24A982BECF913009F0A2CF8C2D17
:100CA0008295807F11969C9111979F70892B119648
:100CB0008C931197D294C2948FE0C822CD24D8226D
:100CC000CD24C9828ECF60838181807F872B8183F1
:100CD000C3CFCF92DF92EF92FF920F931F93CF93E8
:100CE000DF93E901982F990F980F892F8695440F6C
:100CF000440F460FA8E14A9FD0011124282F220F4C
:100D0000280FAD01420F511D9A01205B3E4FA901F2
:100D10004F5F5F4F880F692F681B09F098C0F9017A
:100D2000C080DD24218130E02F703070322F2227E7
:100D3000C22AD32A692F6F5F862F8695282F220F0C
:100D4000280FAD01420F511D9A01205B3E4FA901B2
:100D50004F5F5F4F880F681B09F065C0F901008184
:100D600010E0218130E02F703070322F2227022BCB
:100D7000132B9E5F892F8695282F220F280FA20FF5
:100D8000B11DA05BBE4F9D012F5F3F4F880F981B89
:100D900009F472C0913089F4F901E180FF24E294F2
:100DA000F29490EFF922FE24E922FE2411968C9110
:100DB00082958F7090E0E82AF92AB60180E090E0F1
:100DC0000E94233120E030EF4FE755E40E948F303E
:100DD000688379838A839B83B80180E090E00E94D6
:100DE000233120E030EF4FE755E40E948F306C83D1
:100DF0007D838E839F83B70180E090E00E94233142
:100E000020E030EF4FE755E40E948F306887798704
:100E10008A879B87DF91CF911F910F91FF90EF9071
:100E2000DF90CF900895613009F0A3CFFA010181DE
:100E300010E002951295107F1027007F1027F9010E
:100E4000218122952F7030E0022B132B92CF61303D
:100E500009F070CFFA01C180DD24C294D29460EF12
:100E6000D622DC24C622DC24F901218122952F70B0
:100E700030E0C22AD32A5ECFEC90FF2411968C91E9
:100E8000119790E08F709070982F8827E82AF92AA0
:100E900094CFAF92BF92CF92DF92EF92FF921F93C7
:100EA000CF93DF937C01EB01FC018081182F110FA0
:100EB000180F688179818A819B8120E030EF4FE7AC
:100EC00055E40E94D9310E94F7306B016C817D811D
:100ED0008E819F8120E030EF4FE755E40E94D931A9
:100EE0000E94F7305B01688579858A859B8520E0C3
:100EF00030EF4FE755E40E94D9310E94F730912F2F
:100F00009695F7018281880F880F2181820FE8E191
:100F10008E9FF0011124892F880F890FDF01A80F00
:100F2000B11DA05BBE4FED012196990F812F891B4A
:100F300009F063C0CC9211968C911197807F8D2916
:100F400011968C93212F2F5F822F8695982F990FC2
:100F5000980FDF01A90FB11DA05BBE4FED012196D7
:100F6000880F281BA1F5AC9211968C911197807F68
:100F70008B2911968C931E5F812F8695982F990F40
:100F8000980FE90FF11DE05BFE4FDF011196880F0E
:100F9000181B09F449C0113081F4862F8295807F97
:100FA00091819F70892B8183729562956F706727FD
:100FB0007F70672711966C931197DF91CF911F91E6
:100FC000FF90EF90DF90CF90BF90AF9008952130C9
:100FD00091F68A2D8295807F11969C9111979F7032
:100FE000892B11968C931197B294A294AFE0AA2208
:100FF000AB24BA22AB24A982BECF813009F0A2CFA4
:101000008C2D8295807F11969C9111979F70892BD2
:1010100011968C931197D294C294BFE0CB22CD2429
:10102000DB22CD24C9828ECF60838181807F872B94
:101030008183C3CFFC019B018081618142810E9439
:1010400069060895E0E6F0E0808180618083108287
:1010500008953D9A3C9A3B9A459843984498449AFF
:101060000E941704E0E6F0E08081806180831082B6
:1010700008956F927F928F929F92AF92BF92CF927C
:10108000DF92EF92FF920F931F93D62EC72EB82EAA
:10109000A92E922E832E742E652EA6019501652F02
:1010A000742F832F922F20E030E040E050E00E9428
:1010B0008B3087FF10C0A6019501652F742F832FF9
:1010C000922F20E030E040E85FE30E942730D62EE8
:1010D000C72EB82EA92EA6019501652F7C2D832F32
:1010E0009A2D20E030E040E85FE30E94D5311816E9
:1010F00084F4A6019501652F7C2D832F9A2D20E085
:1011000030E040E85FE30E942630D62EC72EB82E8E
:10111000A92EA6019501652F7C2D832F9A2D20E005
:1011200030E040EC50E40E94D93120E030E040E86B
:101130005FE30E948B3087FD6AC0A6019501652F91
:101140007C2D832F9A2DD601F5012B2F3C2D4F2F6F
:101150005A2D0E94273020E030E040E85FE30E94F3
:101160008B3087FD51C0A6019501652F7C2D832F03
:101170009A2D20E030E040E450E40E94D93120E094
:1011800030E040E050E40E948B3087FF59C06E2D64
:101190007F2D802F912FD401F3012B2F382D4F2F2E
:1011A000562D0E9426307B018C016BEA7AEA8AE296
:1011B0009FE3D601F5012B2F3C2D4F2F5A2D0E9476
:1011C00026309B01AC01C801B7010E94D93120E053
:1011D00030E040EC50E40E94D931D401F3012B2FD0
:1011E000382D4F2F562D0E942730F72E7F2D1F911F
:1011F0000F91FF90EF90DF90CF90BF90AF909F90B6
:101200008F907F906F9008956E2DC801EFCF6E2D57
:101210007F2D802F912FD401F3012B2F382D4F2FAD
:10122000562D0E94263020E030E040EC50E40E9431
:10123000D931D601F5012B2F3C2D4F2F5A2DCBCF75
:10124000692DF82C872D962DD1CF2F923F924F925A
:101250005F926F927F928F929F92AF92BF92CF9246
:10126000DF92EF92FF920F931F93DF93CF93CDB74F
:10127000DEB72F970FB6F894DEBF0FBECDBFFC01CF
:101280007E876D87E080F1800281138164807580A4
:1012900086809780A084B184C284D384C401B301C2
:1012A00020E030E040E050E00E948B30882309F4D9
:1012B00020C1C601B50120E030E040E05FE30E94BC
:1012C0008B3087FFF3C0C401B30120E030E040E879
:1012D0005FE30E942730A60195010E94D931562E66
:1012E000472E382E292EC601B501A60195010E9470
:1012F0002730D201F1012B2F342D4F2F522D0E9478
:10130000263069837A838B839C836E2D7F2D802F7B
:10131000912F2BEA3AEA4AEA5EE30E942730A62E92
:10132000D72EC82EB92E6E2D7F2D802F912F2BEA10
:101330003AEA4AEA5EE30E9426306D837E838F8319
:101340009887962E672E882E792E6A2D7D2D8C2DCE
:101350009B2D20E030E040E050E00E948B3087FF82
:101360000EC06A2D7D2D8C2D9B2D20E030E040E8B5
:101370005FE30E942730A62ED72EC82EB92E6A2DE5
:101380007D2D8C2D9B2D20E030E040E85FE30E9416
:10139000D531181674F46A2D7D2D8C2D9B2D20E0EF
:1013A00030E040E85FE30E942630A62ED72EC82EFC
:1013B000B92E6A2D7D2D8C2D9B2D20E030E040EC48
:1013C00050E40E94D93120E030E040E85FE30E9421
:1013D0008B3087FDB9C06A2D7D2D8C2D9B2D2A2D3C
:1013E0003D2D4C2D5B2D0E94273020E030E040E861
:1013F0005FE30E948B3087FDABC26A2D7D2D8C2D63
:101400009B2D20E030E040E450E40E94D93120E000
:1014100030E040E050E40E948B3087FF94C2A2018C
:101420009101652F742D832F922DE981FA812B81F3
:101430002987AC81AF879F0149855A2F0E942630AA
:1014400069877A878B879C876BEA7AEA8AE29FE3CF
:10145000EA2DFD2DAC2DBB2D9F01AD010E94263044
:101460009B01AC0169857A858B859C850E94D93169
:1014700020E030E040EC50E40E94D931B62FA72F95
:1014800089879F8779816A819B818C81272F362F5D
:10149000492F582FCA01B9016D01B984AF842D2D90
:1014A0003C2D4B2D5A2D0E9427307FC0C601B5011F
:1014B00020E030E040E05FE30E94D53187FD13CFAC
:1014C000C601B501A40193010E9427301B012C0124
:1014D000C601B501A40193010E94D9319B01AC0161
:1014E000C201B1010E942630562E472E382E292ED9
:1014F000FACEAD85BE85AD92BD92CD92DC921397AA
:10150000FD01A482B582C682D7821896AD92BD92A3
:10151000CD92DC921B972F960FB6F894DEBF0FBECC
:10152000CDBFCF91DF911F910F91FF90EF90DF9092
:10153000CF90BF90AF909F908F907F906F905F9073
:101540004F903F902F900895A2019101652F742D27
:10155000832F922DB981AA81EB81E987FC81FF87D6
:101560002B2F3A2FAF010E94263020E030E040ECD4
:1015700050E40E94D9319B01AC016A2D7D2D8C2D48
:101580009B2D0E94D9315B016C0179816A819B811D
:101590008C81272F362F492F582FCA01B9012A2DA8
:1015A0003B2D4C2D5D2D0E942730382F292F862F63
:1015B000972FA32FB22FED85FE8580839183A28381
:1015C000B3836E2D7F2D802F912F20E030E040E0FF
:1015D00050E00E948B3087FF0CC06E2D7F2D802F36
:1015E000912F20E030E040E85FE30E9427307B014C
:1015F0008C016E2D7F2D802F912F20E030E040E870
:101600005FE30E94D531181664F46E2D7F2D802F74
:10161000912F20E030E040E85FE30E9426307B011C
:101620008C016E2D7F2D802F912F20E030E040EC3B
:1016300050E40E94D93120E030E040E85FE30E94AE
:101640008B3087FD61C06E2D7F2D802F912F2E2D29
:101650003F2D402F512F0E94273020E030E040E8FE
:101660005FE30E948B3087FD78C16E2D7F2D802F28
:10167000912F20E030E040E450E40E94D93120E096
:1016800030E040E050E40E948B3087FF57C1A20158
:101690009101652F742D832F922DA981DA80CB8043
:1016A000BC812A2F3D2D4C2D5B2F0E9426305B01E3
:1016B0006C016BEA7AEA8AE29FE32E2D3F2D402FE0
:1016C000512F0E9426309B01AC01C601B5010E943A
:1016D000D93120E030E040EC50E40E94D931F62EC0
:1016E000072F182FB92F79816A819B818C81272F31
:1016F000362F492F582FCA01B9012F2D302F412FD6
:101700005B2F0E9427302FC0A2019101652F742DFD
:10171000832F922DB981AA81DB80CC802B2F3A2F89
:101720004D2D5C2D0E94263020E030E040EC50E44E
:101730000E94D9319B01AC016E2D7F2D802F912FFE
:101740000E94D9317B018C0179816A81C601272FE2
:10175000362F492F582FCA01B9012E2D3F2D402F6A
:10176000512F0E942730382F292F862F972FA32FF4
:10177000B22FED85FE8584839583A683B7835D8133
:101780004E813F812885652F742F832F922F20E073
:1017900030E040E050E00E948B3087FF12C05D8156
:1017A0004E813F812885652F742F832F922F20E053
:1017B00030E040E85FE30E942730962E672E882EA7
:1017C000792E692D762D882D972D20E030E040E888
:1017D0005FE30E94D531181674F4692D762D882D9B
:1017E000972D20E030E040E85FE30E942630962EFF
:1017F000672E882E792E692D762D882D972D20E045
:1018000030E040EC50E40E94D93120E030E040E884
:101810005FE30E948B3087FD4BC0692D762D882DAC
:10182000972D292D362D482D572D0E94273020E049
:1018300030E040E85FE30E948B3087FD6DC0692D8A
:10184000762D882D972D20E030E040E450E40E9472
:10185000D93120E030E040E050E40E948B3087FF37
:1018600068C0A2019101652F742D832F922DB9813B
:10187000AA811B810C812B2F3A2F412F502F0E94C0
:1018800026307B018C016BEA7AEA8AE29FE3292DFC
:10189000362D482D572D0E9426309B01AC01C801E2
:1018A000B7010E94D93120E030E040EC50E41CC088
:1018B000A2019101652F742D832F922DB981AA81E8
:1018C0001B810C812B2F3A2F412F502F0E94263045
:1018D00020E030E040EC50E40E94D9319B01AC01A3
:1018E000692D762D882D972D0E94D9317B018C0191
:1018F00079816A819B818C81272F362F492F582F20
:10190000CA01B9012E2D3F2D402F512F0E942730A3
:10191000562E472E382E292EA2019101852F942D67
:10192000A32FB22DED85FE8580879187A287B3878F
:10193000F2CD59804A803B802C80EECF69817A813C
:101940008B819C8110CF69817A818B819C812DCE86
:10195000652D742D832D922D28CE652D742D832D0C
:10196000922D01CF2F923F924F925F926F927F9272
:101970008F929F92AF92BF92CF92DF92EF92FF929F
:101980000F931F93DF93CF9300D000D0CDB7DEB776
:101990009C838B832B0179018A0160E070E080E8F1
:1019A0009FE30E942630D62EC72EB82EA92EC8013E
:1019B000B701D601F5012B2F3A2F4F2F5E2F0E9432
:1019C0002730362E272E89839A83C801B701F2016A
:1019D00020813181428153810E94D9313B014C01E8
:1019E000A6019501652F742F832F922FEB81FC8127
:1019F00020813181428153810E94D9319B01AC0108
:101A0000C401B3010E942730D10169809A802B2F35
:101A10003A2F462D592D0E948F30EB81FC81608337
:101A2000718382839383C801B701F20124813581D8
:101A3000468157810E94D9313B014C01A601950195
:101A4000652F742F832F922FEB81FC8124813581A8
:101A5000468157810E94D9319B01AC01C401B30179
:101A60000E942730D10199806A802B2F3A2F492D6F
:101A7000562D0E948F30EB81FC81648375838683B1
:101A80009783C801B701F2012085318542855385CE
:101A90000E94D9317B018C01A6019501652F742F1D
:101AA000832F922FEB81FC812085318542855385E0
:101AB0000E94D9319B01AC01C801B7010E942730B7
:101AC000D1012B2F3A2F492D562D0E948F30EB81BB
:101AD000FC8160877187828793870F900F900F90AA
:101AE0000F90CF91DF911F910F91FF90EF90DF90BA
:101AF000CF90BF90AF909F908F907F906F905F90AE
:101B00004F903F902F900895EF92FF920F931F9365
:101B1000CF93DF93EC018FEFE82E8FE7F82E012DA6
:101B2000112D0E9413339C01B901882777FD809500
:101B3000982F26E030E040E050E00E943C32A801BF
:101B400097010E945B32223081F1233070F422230E
:101B5000F1F48981833028F78F5F8983DF91CF91FA
:101B60001F910F91FF90EF900895243061F1243080
:101B700018F12530B1F68A81833098F68F5F8A8319
:101B8000DF91CF911F910F91FF90EF900895213039
:101B900041F68981882329F281508983DF91CF9191
:101BA0001F910F91FF90EF9008958881882309F489
:101BB000B8CF81508883D2CF8881833008F0B1CFED
:101BC0008F5F8883CBCF8A81882309F4AACF815085
:101BD0008A83C4CFCF92DF92EF92FF920F931F932D
:101BE000DF93CF93CDB7DEB72C970FB6F894DEBF57
:101BF0000FBECDBF6E010894C11CD11CD601E0E11F
:101C0000F1E08CE001900D928150E1F7C6016CED9E
:101C100072E00E9425090E9413339C01B9018827B4
:101C200077FD8095982F660F771F881F991F660F85
:101C3000771F881F991FFFEFEF2EFFE7FF2E012D63
:101C4000112DA80197010E945B322093E8020E94A7
:101C500013339C01B901882777FD8095982F660F73
:101C6000771F881F991F660F771F881F991FA8016C
:101C700097010E945B322093E9020E9413339C017A
:101C8000B901882777FD8095982F660F771F881FE9
:101C9000991F660F771F881F991FA80197010E943F
:101CA0005B322093EA020E9413339C01B90188271A
:101CB00077FD8095982F0E94253120E03EEF4FEF71
:101CC00056E40E948F3069837A838B839C83C6019C
:101CD0006BEE72E00E9425090E9413339C01B9014A
:101CE000882777FD8095982F660F771F881F991F8B
:101CF000660F771F881F991FA80197010E945B320A
:101D00002093F7020E9413339C01B901882777FDC5
:101D10008095982F660F771F881F991F660F771F72
:101D2000881F991FA80197010E945B322093F80237
:101D30000E9413339C01B901882777FD8095982F65
:101D4000660F771F881F991F660F771F881F991FBF
:101D5000A80197010E945B322093F9020E9413337D
:101D60009C01B901882777FD8095982F0E94253125
:101D700020E03EEF4FEF56E40E948F3069837A8374
:101D80008B839C83C6016AEF72E00E9425090E9442
:101D900013339C01B901882777FD8095982F660F32
:101DA000771F881F991F660F771F881F991FA8012B
:101DB00097010E945B32209306030E9413339C011B
:101DC000B901882777FD8095982F660F771F881FA8
:101DD000991F660F771F881F991FA80197010E94FE
:101DE0005B32209307030E9413339C01B9018827BB
:101DF00077FD8095982F660F771F881F991F660FB4
:101E0000771F881F991FA80197010E945B322093BA
:101E100008030E9413339C01B901882777FD809540
:101E2000982F0E94253120E03EEF4FEF56E40E94AC
:101E30008F3069837A838B839C83C60169E073E06A
:101E40000E9425090E9413339C01B901882777FD60
:101E50008095982F660F771F881F991F660F771F31
:101E6000881F991FA80197010E945B3220931503D8
:101E70000E9413339C01B901882777FD8095982F24
:101E8000660F771F881F991F660F771F881F991F7E
:101E9000A80197010E945B32209316030E9413331E
:101EA0009C01B901882777FD8095982F660F771FD1
:101EB000881F991F660F771F881F991FA801970118
:101EC0000E945B32209317030E9413339C01B901D7
:101ED000882777FD8095982F0E94253120E03EEFDE
:101EE0004FEF56E40E948F3069837A838B839C8303
:101EF000C60168E173E00E9425090E9413339C012A
:101F0000B901882777FD8095982F660F771F881F66
:101F1000991F660F771F881F991FA80197010E94BC
:101F20005B32209324030E9413339C01B90188275C
:101F300077FD8095982F660F771F881F991F660F72
:101F4000771F881F991FA80197010E945B32209379
:101F500025030E9413339C01B901882777FD8095E2
:101F6000982F660F771F881F991F660F771F881F8E
:101F7000991FA80197010E945B32209326030E94BB
:101F800013339C01B901882777FD8095982F0E9413
:101F9000253120E03EEF4FEF56E40E948F306983F9
:101FA0007A838B839C83C60167E273E00E942509D4
:101FB0000E9413339C01B901882777FD8095982FE3
:101FC000660F771F881F991F660F771F881F991F3D
:101FD000A80197010E945B32209333030E941333C0
:101FE0009C01B901882777FD8095982F660F771F90
:101FF000881F991F660F771F881F991FA8019701D7
:102000000E945B32209334030E9413339C01B90178
:10201000882777FD8095982F660F771F881F991F57
:10202000660F771F881F991FA80197010E945B32D6
:10203000209335030E9413339C01B901882777FD53
:102040008095982F0E94253120E03EEF4FEF56E417
:102050000E948F3069837A838B839C83C60166E3F9
:1020600073E00E9425090E9413339C01B90188275F
:1020700077FD8095982F660F771F881F991F660F31
:10208000771F881F991FA80197010E945B32209338
:1020900042030E9413339C01B901882777FD809584
:1020A000982F660F771F881F991F660F771F881F4D
:1020B000991FA80197010E945B32209343030E945D
:1020C00013339C01B901882777FD8095982F660FFF
:1020D000771F881F991F660F771F881F991FA801F8
:1020E00097010E945B32209344030E9413339C01AA
:1020F000B901882777FD8095982F0E94253120E02F
:102100003EEF4FEF56E40E948F3069837A838B83D2
:102110009C83C60165E473E00E9425090E94133385
:102120009C01B901882777FD8095982F660F771F4E
:10213000881F991F660F771F881F991FA801970195
:102140000E945B32209351030E9413339C01B9011A
:10215000882777FD8095982F660F771F881F991F16
:10216000660F771F881F991FA80197010E945B3295
:10217000209352030E9413339C01B901882777FDF5
:102180008095982F660F771F881F991F660F771FFE
:10219000881F991FA80197010E945B322093530367
:1021A0000E9413339C01B901882777FD8095982FF1
:1021B0000E94253120E03EEF4FEF56E40E948F3021
:1021C00069837A838B839C83C60164E573E00E94F4
:1021D00025090E9413339C01B901882777FD80955A
:1021E000982F660F771F881F991F660F771F881F0C
:1021F000991FA80197010E945B32209360030E94FF
:1022000013339C01B901882777FD8095982F660FBD
:10221000771F881F991F660F771F881F991FA801B6
:1022200097010E945B32209361030E9413339C014B
:10223000B901882777FD8095982F660F771F881F33
:10224000991F660F771F881F991FA80197010E9489
:102250005B32209362030E9413339C01B9018827EB
:1022600077FD8095982F0E94253120E03EEF4FEFBB
:1022700056E40E948F3069837A838B839C83C601E6
:1022800063E673E00E9425090E9413339C01B901A3
:10229000882777FD8095982F660F771F881F991FD5
:1022A000660F771F881F991FA80197010E945B3254
:1022B00020936F030E9413339C01B901882777FD97
:1022C0008095982F660F771F881F991F660F771FBD
:1022D000881F991FA80197010E945B322093700309
:1022E0000E9413339C01B901882777FD8095982FB0
:1022F000660F771F881F991F660F771F881F991F0A
:10230000A80197010E945B32209371030E9413334E
:102310002C960FB6F894DEBF0FBECDBFCF91DF91E4
:102320001F910F91FF90EF90DF90CF90089580E084
:1023300090E00E94CC0288EE92E00E94840D88EE2C
:1023400092E06CED72E00E94490787EF92E00E94F4
:10235000840D87EF92E06BEE72E00E94490786E001
:1023600093E00E94840D86E093E06AEF72E00E94A1
:10237000490785E193E00E94840D85E193E069E0DF
:1023800073E00E94490784E293E00E94840D84E296
:1023900093E068E173E00E94490783E393E00E94C1
:1023A000840D83E393E067E273E00E94490782E4CF
:1023B00093E00E94840D82E493E066E373E00E9460
:1023C000490781E593E00E94840D81E593E065E48F
:1023D00073E00E94490780E693E00E94840D80E646
:1023E00093E064E573E00E9449078FE693E00E9462
:1023F000840D8FE693E063E673E00E9449070E9434
:10240000450388EE93E024EF31E0F9013197F1F7CD
:102410000197D9F708950F931F93DF93CF93CDB70B
:10242000DEB72C970FB6F894DEBF0FBECDBF8E017E
:102430000F5F1F4FD801ECE1F1E08CE001900D92AD
:102440008150E1F780917203882309F4E8C0C80144
:1024500065E773E00E9425090E9413339C01B901CE
:10246000882777FD8095982F0E94253120E03EEF48
:102470004FEF56E40E948F3069837A838B839C836D
:1024800080917203882309F43FC1C80164E873E0B6
:102490000E9425090E9413339C01B901882777FD0A
:1024A0008095982F0E94253120E03EEF4FEF56E4B3
:1024B0000E948F3069837A838B839C83809172031F
:1024C000882309F4FAC0C80163E973E00E94250972
:1024D0000E9413339C01B901882777FD8095982FBE
:1024E0000E94253120E03EEF4FEF56E40E948F30EE
:1024F00069837A838B839C8380917203882309F498
:10250000B5C0C80162EA73E00E9425090E94133336
:102510009C01B901882777FD8095982F0E9425316D
:1025200020E03EEF4FEF56E40E948F3069837A83BC
:102530008B839C8380917203813029F48091730393
:10254000882309F47DC1C80161EB73E00E9425096D
:102550000E9413339C01B901882777FD8095982F3D
:102560000E94253120E03EEF4FEF56E40E948F306D
:1025700069837A838B839C8380917203813009F411
:1025800038C1C80160EC73E00E9425090E94133332
:102590009C01B901882777FD8095982F0E942531ED
:1025A00020E03EEF4FEF56E40E948F3069837A833C
:1025B0008B839C8380917203813009F4F3C0C8013E
:1025C0006FEC73E00E9425090E9413339C01B9014E
:1025D000882777FD8095982F0E94253120E03EEFD7
:1025E0004FEF56E40E948F3069837A838B839C83FC
:1025F00080917203813009F4AEC0C8016EED73E0C2
:102600000E9425090E9413332C960FB6F894DEBF62
:102610000FBECDBFCF91DF911F910F910895809193
:102620007303882309F013CF80917403882309F082
:102630000ECF80E090E0A0E0B0E08093750390932F
:102640007603A0937703B0937803809379039093F4
:102650007A03A0937B03B0937C0380937D039093D4
:102660007E03A0937F03B093800353C080917303D4
:10267000813009F046CF80917403813009F041CF59
:1026800080E090E0A0E0B0E08093A2039093A303E9
:10269000A093A403B093A5038093A6039093A703EC
:1026A000A093A803B093A9038093AA039093AB03CC
:1026B000A093AC03B093AD0346CF809173038130F8
:1026C00009F001CF80917403882309F0FCCE80E0EB
:1026D00090E0A0E0B0E08093930390939403A093E4
:1026E0009503B09396038093970390939803A093D8
:1026F0009903B0939A0380939B0390939C03A093B8
:102700009D03B0939E03B7CF80917303882309F094
:10271000BCCE80917403813009F0B7CE80E090E0A8
:10272000A0E0B0E08093840390938503A093860398
:10273000B09387038093880390938903A0938A03BF
:10274000B0938B0380938C0390938D03A0938E039F
:10275000B0938F03B8CE80917303813009F04DCFD1
:1027600080917403813009F048CF80E090E0A0E0D0
:10277000B0E08093DE039093DF03A093E003B09377
:10278000E1038093E2039093E303A093E403B09307
:10279000E5038093E6039093E703A093E803B093E7
:1027A000E90332CF80917303813009F008CF809123
:1027B0007403882309F003CF80E090E0A0E0B0E04C
:1027C0008093CF039093D003A093D103B093D2030F
:1027D0008093D3039093D403A093D503B093D603EF
:1027E0008093D7039093D803A093D903B093DA03CF
:1027F000B7CF80917303882309F0C3CE809174030F
:10280000813009F0BECE80E090E0A0E0B0E080939F
:10281000C0039093C103A093C203B093C3038093FA
:10282000C4039093C503A093C603B093C7038093DA
:10283000C8039093C903A093CA03B093CB03BFCE40
:1028400080917403882309F07ECE80E090E0A0E0C0
:10285000B0E08093B1039093B203A093B303B0931D
:10286000B4038093B5039093B603A093B703B093DA
:10287000B8038093B9039093BA03A093BB03B093BA
:10288000BC03BCCFDF92EF92FF920F931F93CF93C5
:10289000DF93EC018B014881D42E4430B8F5598187
:1028A000543040F54A81E52E4430B8F4F42E03C08C
:1028B0008F2D843088F48D2D6E2D4F2D98010E9420
:1028C0009C05F3944A81242F30E02F5F3F4F8F2DDA
:1028D00090E02817390764F75981E394852F90E039
:1028E00001962E2D30E0821793071CF08E2D843038
:1028F000D8F24881D394842F90E001962D2D30E0BA
:10290000821793071CF08D2D843050F2DF91CF9108
:102910001F910F91FF90EF90DF9008952F923F92BB
:102920004F925F926F927F928F929F92AF92BF92DF
:10293000CF92DF92EF92FF920F931F93DF93CF938B
:10294000CDB7DEB72C970FB6F894DEBF0FBECDBF64
:102950001C821B821E821D828B806B807C8008946F
:10296000611C711C1A821982442455244D815E8198
:102970008CE390E0489F9001499F300D589F300DA7
:1029800011243A8729879980E980FA800894E11C0C
:10299000F11C01E010E0AA2422243324C201880F94
:1029A000991FA201440F551F42955295507F5427FD
:1029B000407F5427481B590B58874F83910122951C
:1029C0003295307F3227207F3227221933094F81F9
:1029D0005885240F351F89859A85280F391F2B5854
:1029E0003C4F982D943080F5B82C892D843018F503
:1029F000C92C4A2D4430B0F4DA2C3C872B8703C015
:102A0000ED2DE43068F48B2D6C2D4D2D2B853C8500
:102A10000E949C05D3948D2D90E00817190784F728
:102A20002B853C85C3948C2D90E0E816F9061CF0AC
:102A3000FC2DF430F0F2B3948B2D90E068167906FB
:102A40001CF05B2D543088F20894211C311C92E05C
:102A5000A90E0E5F1F4FEA2DE43009F0AFCF0894A6
:102A6000411C511C29813A812E5F3F4F3A832983B3
:102A700032E04316510409F086CF8D819E81019684
:102A80009E838D83EB81FC813296FC83EB838230C5
:102A9000910509F061CF2C960FB6F894DEBF0FBEFA
:102AA000CDBFCF91DF911F910F91FF90EF90DF90FD
:102AB000CF90BF90AF909F908F907F906F905F90DE
:102AC0004F903F902F9008950F931F93DF93CF93D4
:102AD0000F92CDB7DEB78C0169830E941333AA270A
:102AE00097FDA095BA2F6981262F30E040E050E095
:102AF000BC01CD010E943C322FEF3FE740E050E0A7
:102B00000E945B32F801E20FF11D80810F90CF919E
:102B1000DF911F910F9108952F923F924F925F92F4
:102B20006F927F928F929F92AF92BF92CF92DF92DD
:102B3000EF92FF920F931F93DF93CF93CDB7DEB742
:102B4000AF970FB6F894DEBF0FBECDBF8091720372
:102B5000882309F455C22091ED03243009F46BC297
:102B600083E08F83CE010996FE013896CC24C3946E
:102B70008E01095F1F4F30917303332309F436C26E
:102B8000213031F0C39422E02083FC012091ED0339
:102B900080917403882309F422C2253019F0C3946C
:102BA00086E080830E941333DD24EE24FF249C0101
:102BB000442737FD4095542FC701B6010E943C328F
:102BC0002FEF3FE740E050E00E945B32F801E20F58
:102BD000F11D80818093ED03609172035091730326
:102BE00040917403833009F420C2843008F0EDC1B1
:102BF000813009F430C2823009F427C24C8F5B8FD8
:102C00006D8F3D8D232F30E03BA72AA79C8D892F08
:102C100090E09BA38AA382959295907F9827807FCE
:102C200098279DA78CA77C01EAA1FBA1EE1AFF0AB9
:102C30008B8D90E09C01220F331F880F991F829586
:102C40009295907F9827807F9827821B930BE80EA0
:102C5000F91E2CE330E0EAA5FBA5E29FC001E39F4B
:102C6000900DF29F900D1124E80EF91E25E733E038
:102C7000E20EF31E80E090E0A0E0B0E08D879E873A
:102C8000AF87B88B898B9A8BAB8BBC8B8D8B9E8BD4
:102C9000AF8BB88F2D8D220F29839B8D990F9A832F
:102CA0008C8D880F8B83660F6C83550F5D83440F6B
:102CB0004E83261708F484C1621708F47CC11F8E66
:102CC0001E8E951708F472C1591708F46AC119A22B
:102CD00018A2841708F451C1481708F43BC11DA27B
:102CE0001CA29DE0C92ED12CCC0EDD1EAE014C5F86
:102CF0005F4F59A748A7CE0101969FA38EA314EF5B
:102D0000412E11E0512E4701F9806F2C7724089451
:102D1000611C711C3F2D343008F095C1AF2C2A8105
:102D20001401F98EE22E822E99240894811C911CA4
:102D3000243018F5BB800B2D10E00F5F1F4F4B2D7B
:102D4000443088F4FB2C03C05F2D543060F48A2D8E
:102D50006E2D4F2D96010E949C05F3948F2D90E0CF
:102D6000081719078CF7E3948E2D90E088169906C2
:102D70001CF08E2D843018F32A81A3948A2D90E0C4
:102D8000681679061CF09A2D943060F24101F98C96
:102D9000AE8CAF0CA982F8A0F20EFA826B80ECA187
:102DA0006E0E6B822A2D30E02F5F3F4F3A8F298FB6
:102DB0003A2D3430D0F52F2C33240894211C311CAB
:102DC000062D10E00F5F1F4FDFA6CEA6CF2C2C2DB7
:102DD0002430F0F4EC2C862D843088F4F62C03C0DB
:102DE0004F2D443060F48A2D6E2D4F2D94010E949A
:102DF0009C05F3948F2D90E0081719078CF7E39446
:102E00008E2D90E0281639061CF05E2D543018F3F4
:102E1000A3948A2D90E0E98DFA8DE817F9071CF04C
:102E2000FA2DF430A0F2CEA4DFA40E9445038CE278
:102E300091E0F2013197F1F70197D9F78EA19FA1A7
:102E400068A579A543E050E00E940634009709F098
:102E50005BCF74018091740390E0FC01E295F295E0
:102E6000F07FFE27E07FFE27E81BF90B80917303BC
:102E700090E09C01220F331F880F991F8295929535
:102E8000907F9827807F9827821B930BE80FF91F6C
:102E90004091720350E02CE330E0429FC001439F19
:102EA000900D529F900D1124E80FF91FACA5BDA500
:102EB0004AA15BA1A41BB50B4AA55BA5429FC0011B
:102EC000439F900D529F900D1124A80FB91F8B8D19
:102ED00090E09C01220F331F880F991F82959295D5
:102EE000907F9827807F9827821B930BA80FB91F8C
:102EF000EB58FC4FAB58BC4F8CE00D9001928150C9
:102F0000E1F7D701F6018CE001900D928150E1F7D5
:102F10005D8D509372038B8D809373039C8D909382
:102F20007403AF960FB6F894DEBF0FBECDBFCF913E
:102F3000DF911F910F91FF90EF90DF90CF90BF90A6
:102F4000AF909F908F907F906F905F904F903F9049
:102F50002F9008958FEF9FEF9DA38CA30DE0C02EBF
:102F6000D12CCC0EDD1EFE013496F9A7E8A79E01F8
:102F70002F5F3F4F3FA32EA3C2CEE1E0F0E0FDA3C1
:102F8000ECA38DE0C82ED12CCC0EDD1E9E012C5F53
:102F90003F4F39A728A7AE014F5F5F4F5FA34EA3F6
:102FA000AECE2FEF3FEF39A328A393CEE1E0F0E0C0
:102FB000F9A3E8A38ECE2FEF3FEF3F8F2E8F81CE68
:102FC000E1E0F0E0FF8FEE8F7CCE853041F185307F
:102FD000E8F4962F9F5F9D8F4C8F5B8F12CE26302B
:102FE00009F4E0CDC39485E08083DCCD223009F480
:102FF000CFCDC39421E02083FC012091ED03C8CD07
:103000002091ED032330B9F084E0ABCD863009F098
:10301000F5CDF42FF150FC8F5B8F6D8FF2CDE42F47
:10302000EF5FEC8F5B8F6D8FECCD862F81508D8F96
:103030004C8F5B8FE6CD8E01095F1F4FCE01089646
:10304000F801CC2498CD2A81A3CE352F31503B8F67
:103050004C8F6D8FD6CD252F2F5F2B8F4C8F6D8F83
:10306000D0CD2F923F924F925F926F927F928F922C
:103070009F92AF92BF92CF92DF92EF92FF920F9307
:103080001F93DF93CF93CDB7DEB72C970FB6F8948D
:10309000DEBF0FBECDBF1A8219821E821D828980BB
:1030A00069807A800894611C711C1C821B824424F4
:1030B00055244D815E818CE390E0489F9001499FAB
:1030C000300D589F300D11243A8729879B80EB8063
:1030D000FC800894E11CF11C01E010E0AA242224E9
:1030E0003324C201880F991FA201440F551F429536
:1030F0005295507F5427407F5427481B590B5887BF
:103100004F83910122953295307F3227207F3227DD
:10311000221933094F815885240F351F89859A85D7
:10312000280F391F2B583C4F982D943080F5B82C20
:10313000892D843018F5C92C4A2D4430B0F4DA2C8E
:103140003C872B8703C0ED2DE43068F48B2D6C2D6C
:103150004D2D2B853C850E949C05D3948D2D90E0B0
:103160000817190784F72B853C85C3948C2D90E0B4
:10317000E816F9061CF0FC2DF430F0F2B3948B2D18
:1031800090E0681679061CF05B2D543088F20894A4
:10319000211C311C92E0A90E0E5F1F4FEA2DE43076
:1031A00009F0AFCF0894411C511C2B813C812E5F4C
:1031B0003F4F3C832B8332E04316510409F086CF06
:1031C0008D819E8101969E838D83E981FA8132965D
:1031D000FA83E9838230910509F061CF0E944503AB
:1031E0008CE291E024EF31E0F9013197F1F701979A
:1031F000D9F70E948C152C960FB6F894DEBF0FBE3F
:10320000CDBFCF91DF911F910F91FF90EF90DF9095
:10321000CF90BF90AF909F908F907F906F905F9076
:103220004F903F902F9008952F923F924F925F9230
:103230006F927F928F929F92AF92BF92CF92DF92C6
:10324000EF92FF920F931F93DF93CF93CDB7DEB72B
:103250002C970FB6F894DEBF0FBECDBF80E090E094
:10326000A0E0B0E08D839E83AF83B88789879A877B
:10327000AB87BC8723E0622E7E010894E11CF11C21
:1032800004EF11E00F2EF0E0AF2EF0E0BF2EF0E8DB
:10329000CF2EFFE3DF2EF02D1C012D017724882493
:1032A0009924A982BA82CB82DC82892D672D482D90
:1032B00097010E949C050E94450388EE93E0F80167
:1032C0003197F1F70197D9F729823A824B825C82D4
:1032D000AD82BE82CF82D886892D672D482D970179
:1032E0000E949C050E94450388EE93E0F801319707
:1032F000F1F70197D9F72D823E824F825886A98631
:10330000BA86CB86DC86892D672D482D97010E94D1
:103310009C050E94450388EE93E0F8013197F1F790
:103320000197D9F729863A864B865C86892D672DC9
:10333000482D97010E949C059394892D843009F0B3
:10334000B0CF8394882D843009F0AACF7394872D51
:10335000843009F0A4CF6A9409F0A0CF2C960FB660
:10336000F894DEBF0FBECDBFCF91DF911F910F91BB
:10337000FF90EF90DF90CF90BF90AF909F908F9095
:103380007F906F905F904F903F902F900895FF92A5
:103390000F931F93DF93CF93CDB7DEB72C970FB664
:1033A000F894DEBF0FBECDBF33E0F32E8E010F5F6A
:1033B0001F4FD801E8E2F1E08CE001900D928150BE
:1033C000E1F760E040E098010E949C0581E060E048
:1033D00040E098010E949C0582E060E040E0980196
:1033E0000E949C0583E060E040E098010E949C05FB
:1033F000D801E8E2F1E08CE001900D928150E1F714
:1034000060E041E098010E949C0581E060E041E0BD
:1034100098010E949C0582E060E041E098010E94D2
:103420009C0583E060E041E098010E949C05D80182
:10343000E8E2F1E08CE001900D928150E1F760E06C
:1034400042E098010E949C0581E060E042E0980122
:103450000E949C0582E060E042E098010E949C0589
:1034600083E060E042E098010E949C05D801E8E218
:10347000F1E08CE001900D928150E1F760E043E0D3
:1034800098010E949C0581E060E043E098010E9461
:103490009C0582E060E043E098010E949C0583E087
:1034A00060E043E098010E949C05D801E8E2F1E069
:1034B0008CE001900D928150E1F761E040E09801CD
:1034C0000E949C0581E061E040E098010E949C051B
:1034D00082E061E040E098010E949C0583E061E0A9
:1034E00040E098010E949C05D801E8E2F1E08CE000
:1034F00001900D928150E1F761E041E098010E9456
:103500009C0581E061E041E098010E949C0582E019
:1035100061E041E098010E949C0583E061E041E0A8
:1035200098010E949C05D801E8E2F1E08CE001904E
:103530000D928150E1F761E042E098010E949C0504
:1035400081E061E042E098010E949C0582E061E038
:1035500042E098010E949C0583E061E042E098010E
:103560000E949C05D801E8E2F1E08CE001900D9208
:103570008150E1F761E043E098010E949C0581E001
:1035800061E043E098010E949C0582E061E043E035
:1035900098010E949C0583E061E043E098010E944D
:1035A0009C05D801E8E2F1E08CE001900D92815099
:1035B000E1F762E040E098010E949C0581E062E052
:1035C00040E098010E949C0582E062E040E09801A2
:1035D0000E949C0583E062E040E098010E949C0507
:1035E000D801E8E2F1E08CE001900D928150E1F722
:1035F00062E041E098010E949C0581E062E041E0C8
:1036000098010E949C0582E062E041E098010E94DE
:103610009C0583E062E041E098010E949C05D8018E
:10362000E8E2F1E08CE001900D928150E1F762E078
:1036300042E098010E949C0581E062E042E098012E
:103640000E949C0582E062E042E098010E949C0595
:1036500083E062E042E098010E949C05D801E8E224
:10366000F1E08CE001900D928150E1F762E043E0DF
:1036700098010E949C0581E062E043E098010E946D
:103680009C0582E062E043E098010E949C0583E093
:1036900062E043E098010E949C05D801E8E2F1E075
:1036A0008CE001900D928150E1F763E040E09801D9
:1036B0000E949C0581E063E040E098010E949C0527
:1036C00082E063E040E098010E949C0583E063E0B3
:1036D00040E098010E949C05D801E8E2F1E08CE00E
:1036E00001900D928150E1F763E041E098010E9462
:1036F0009C0581E063E041E098010E949C0582E026
:1037000063E041E098010E949C0583E063E041E0B2
:1037100098010E949C05D801E8E2F1E08CE001905C
:103720000D928150E1F763E042E098010E949C0510
:1037300081E063E042E098010E949C0582E063E042
:1037400042E098010E949C0583E063E042E098011A
:103750000E949C05D801E8E2F1E08CE001900D9216
:103760008150E1F763E043E098010E949C0581E00D
:1037700063E043E098010E949C0582E063E043E03F
:1037800098010E949C0583E063E043E098010E9459
:103790009C05FA9409F00DCE0E9445032C960FB6B5
:1037A000F894DEBF0FBECDBFCF91DF911F910F9177
:1037B000FF9008952F923F924F925F926F927F9267
:1037C0008F929F92AF92BF92CF92DF92EF92FF9231
:1037D0000F931F93DF93CF93CDB7DEB72C970FB620
:1037E000F894DEBF0FBECDBF22247E010894E11CF9
:1037F000F11C04EF11E00F2EF0E08F2EF0E09F2E71
:10380000F0E0AF2EF0E0BF2EF02D0F2EF0E04F2EA7
:10381000F0E05F2EF0E86F2EFFE37F2EF02D3324D3
:10382000DD2489829A82AB82BC828D829E82AF82A5
:10383000B88689869A86AB86BC86822D813009F44B
:103840004AC0823009F442C049825A826B827C822B
:1038500082E390E00E94CC02CC248C2D632D4D2D70
:1038600097010E949C050E94450388EB9BE0F801AC
:103870003197F1F70197D9F7C3948C2D843069F70C
:10388000D3948D2D843069F63394832D843041F6A2
:103890002394822D833009F0C2CF2C960FB6F89472
:1038A000DEBF0FBECDBFCF91DF911F910F91FF9073
:1038B000EF90DF90CF90BF90AF909F908F907F90D0
:1038C0006F905F904F903F902F90089549865A8651
:1038D0006B867C86BDCF4D825E826F827886B8CF44
:1038E0002F923F924F925F926F927F928F929F9210
:1038F000AF92BF92CF92DF92EF92FF920F931F93FE
:10390000DF93CF93CDB7DEB72C970FB6F894DEBF19
:103910000FBECDBF88243E010894611C711C04EFCA
:1039200011E00F2EF0E0CF2EF0E0DF2EF0E0EF2ED2
:10393000F0E0FF2EF02D0F2EF0E02F2EF0E03F2EC6
:10394000F0E84F2EFFE35F2EF02D9924AA24BB242C
:10395000C982DA82EB82FC82CD82DE82EF82F88637
:10396000C986DA86EB86FC86882D813009F459C039
:10397000823009F451C029823A824B825C82892DBF
:103980006A2D4B2D93010E949C050E94450388EEF1
:1039900093E0F8013197F1F70197D9F7C986DA86F4
:1039A000EB86FC86CD82DE82EF82F886C982DA82DF
:1039B000EB82FC82892D6A2D4B2D93010E949C0580
:1039C000B3948B2D843021F6A3948A2D843009F092
:1039D000BECF9394892D843009F0B8CF8394882D7D
:1039E000833009F0B2CF2C960FB6F894DEBF0FBE2D
:1039F000CDBFCF91DF911F910F91FF90EF90DF909E
:103A0000CF90BF90AF909F908F907F906F905F907E
:103A10004F903F902F90089529863A864B865C867A
:103A2000AECF2D823E824F825886A9CF4F925F92B1
:103A30006F927F928F929F92AF92BF92CF92DF92BE
:103A4000EF92FF920F931F93DF93CF93CDB7DEB723
:103A50002C970FB6F894DEBF0FBECDBF99245E0140
:103A60000894A11CB11C0F2EF0E04F2EF0E05F2E49
:103A7000F0E06F2EF0E07F2EF02D0F2EF0E0CF2E35
:103A8000F0E0DF2EF0E8EF2EFFE3FF2EF02D04EF45
:103A900011E049825A826B827C824D825E826F8203
:103AA000788649865A866B867C868824892D813063
:103AB00009F4D1C1823009F433C1C982DA82EB82C0
:103AC000FC82882D60E040E095010E949C05892DD4
:103AD000813009F4CAC1823009F42CC1C982DA826A
:103AE000EB82FC82882D60E041E095010E949C05FC
:103AF000892D813009F4C3C1823009F425C1C982FE
:103B0000DA82EB82FC82882D60E042E095010E941F
:103B10009C05892D813009F4BCC1823009F41EC195
:103B2000C982DA82EB82FC82882D60E043E0950155
:103B30000E949C05892D813009F4B5C1823009F4B9
:103B400017C1C982DA82EB82FC82882D61E040E0F5
:103B500095010E949C05892D813009F4AEC1823007
:103B600009F410C1C982DA82EB82FC82882D61E0FF
:103B700041E095010E949C05892D813009F4A7C17F
:103B8000823009F409C1C982DA82EB82FC82882D75
:103B900061E042E095010E949C05892D813009F485
:103BA000A0C1823009F402C1C982DA82EB82FC82B0
:103BB000882D61E043E095010E949C05892D8130AC
:103BC00009F499C1823009F4FBC0C982DA82EB8220
:103BD000FC82882D62E040E095010E949C05892DC1
:103BE000813009F492C1823009F4F4C0C982DA82CA
:103BF000EB82FC82882D62E041E095010E949C05E9
:103C0000892D813009F48BC1823009F4EDC0C9825D
:103C1000DA82EB82FC82882D62E042E095010E940C
:103C20009C05892D813009F484C1823009F4E6C0F5
:103C3000C982DA82EB82FC82882D62E043E0950142
:103C40000E949C05892D813009F47DC1823009F4E0
:103C5000DFC0C982DA82EB82FC82882D63E040E01B
:103C600095010E949C05892D813009F476C182302E
:103C700009F4D8C0C982DA82EB82FC82882D63E025
:103C800041E095010E949C05892D813009F46FC1A6
:103C9000823009F4D1C0C982DA82EB82FC82882D9D
:103CA00063E042E095010E949C05892D813009F472
:103CB00068C1823009F4CAC0C982DA82EB82FC8210
:103CC000882D63E043E095010E949C058394882D34
:103CD000843009F0EBCE0E94450388E99AE3F801AD
:103CE0003197F1F70197D9F79394892D833009F033
:103CF000D0CE2C960FB6F894DEBF0FBECDBFCF91BD
:103D0000DF911F910F91FF90EF90DF90CF90BF90C8
:103D1000AF909F908F907F906F905F904F9008959D
:103D2000C986DA86EB86FC86882D60E040E0950146
:103D30000E949C05C986DA86EB86FC86882D60E0A9
:103D400041E095010E949C05C986DA86EB86FC86D7
:103D5000882D60E042E095010E949C05C986DA86C4
:103D6000EB86FC86882D60E043E095010E949C056F
:103D7000C986DA86EB86FC86882D61E040E09501F5
:103D80000E949C05C986DA86EB86FC86882D61E058
:103D900041E095010E949C05C986DA86EB86FC8687
:103DA000882D61E042E095010E949C05C986DA8673
:103DB000EB86FC86882D61E043E095010E949C051E
:103DC000C986DA86EB86FC86882D62E040E09501A4
:103DD0000E949C05C986DA86EB86FC86882D62E007
:103DE00041E095010E949C05C986DA86EB86FC8637
:103DF000882D62E042E095010E949C05C986DA8622
:103E0000EB86FC86882D62E043E095010E949C05CC
:103E1000C986DA86EB86FC86882D63E040E0950152
:103E20000E949C05C986DA86EB86FC86882D63E0B5
:103E300041E095010E949C05C986DA86EB86FC86E6
:103E4000882D63E042E095010E949C05C986DA86D0
:103E5000EB86FC8635CFCD82DE82EF82F886882D18
:103E600060E040E095010E949C05CD82DE82EF82F9
:103E7000F886882D60E041E095010E949C05CD8286
:103E8000DE82EF82F886882D60E042E095010E9494
:103E90009C05CD82DE82EF82F886882D60E043E0CB
:103EA00095010E949C05CD82DE82EF82F886882DE6
:103EB00061E040E095010E949C05CD82DE82EF82A8
:103EC000F886882D61E041E095010E949C05CD8235
:103ED000DE82EF82F886882D61E042E095010E9443
:103EE0009C05CD82DE82EF82F886882D61E043E07A
:103EF00095010E949C05CD82DE82EF82F886882D96
:103F000062E040E095010E949C05CD82DE82EF8256
:103F1000F886882D62E041E095010E949C05CD82E3
:103F2000DE82EF82F886882D62E042E095010E94F1
:103F30009C05CD82DE82EF82F886882D62E043E028
:103F400095010E949C05CD82DE82EF82F886882D45
:103F500063E040E095010E949C05CD82DE82EF8205
:103F6000F886882D63E041E095010E949C05CD8292
:103F7000DE82EF82F886882D63E042E095010E94A0
:103F80009C05CD82DE82EF82F8869ACE80E090E0BA
:103F90000E94CC020E94450308952F923F924F92B7
:103FA0005F926F927F928F929F92AF92BF92CF92C9
:103FB000DF92EF92FF920F931F93DF93CF93CDB7D2
:103FC000DEB72D970FB6F894DEBF0FBECDBF0E94AF
:103FD0001333E0903401F0903501009136011091D7
:103FE00037010E9413339C01B901882777FD809522
:103FF000982F0E94253120E03EEF4FEF56E40E94BB
:104000008F302BEA3AEA4AEA5EE30E94D9319B01FB
:10401000AC01C801B7010E942730D62EE72EF82E3A
:10402000092F862F9E2DAF2DB02F809334019093B2
:104030003501A0933601B09337016D2D7E2D8F2D64
:10404000902F20E030E040E85FE30E94D53187FD0B
:1040500012C06D2D7E2D8F2D902F20E030E040E896
:104060005FE30E94263060933401709335018093A2
:10407000360190933701F9E05F2EEAE94E2E79E997
:10408000372E69E9262E3EEB3D878E010F5F1F4FCD
:1040900054EFA52E51E0B52E632EE42CD32C722CB8
:1040A00044E0F42E33E0C32E93018E2D9D2DA32FDB
:1040B000B62D80933C0190933D01A0933E01B093B7
:1040C0003F016E2D7D2D832F962D20E030E040E0C6
:1040D0005FE30E94D53118160CF054C080E090E0E8
:1040E000A0E0BFE380933C0190933D01A0933E018B
:1040F000B0933F0184E391E0B8010E942509FF20BD
:1041000009F461C0882499248C2D682D492D9801CB
:104110000E949C0593949F14B8F383948F1498F392
:1041200088249924892D682D4C2D98010E949C0586
:1041300093949F14B8F383948F1498F3882499244C
:10414000892D6C2D482D98010E949C0593949F14F5
:10415000B8F383948F1498F30E944503CC20B1F1F7
:1041600093016E2D7D2D832F962D2DEC3CEC4CEC88
:104170005DE30E942730E62ED72E782E692ECA9452
:10418000FA9492CF93016E2D7D2D832F962D20E0F2
:1041900030E040E050E00E948B3087FFABCF80E002
:1041A00090E0A0E0B0E080933C0190933D01A093AB
:1041B0003E01B0933F0184E391E0B8010E942509DC
:1041C000FF2009F09FCF0E944503CACF0E944503FC
:1041D00088EE93E0F5013197F1F70197D9F72D8536
:1041E000642D732D822D922F2DEC3CEC4CEC5DE375
:1041F0000E9427305A9431F0462E372E282E9D8764
:10420000692E4BCF2DEC3CEC4CEC5DE30E9426304C
:10421000662E572E482E392E29E0222E94EFC92ED5
:1042200091E0D92EE62CA52CB42C732C83E0F82E2B
:104230008E2D9A2DAB2DB72D80933C0190933D018F
:10424000A0933E01B0933F016E2D7A2D8B2D972DBB
:1042500020E030E040E05FE30E94D53118160CF01A
:1042600056C080E090E0A0E0BFE380933C019093D3
:104270003D01A0933E01B0933F0184E391E0B8017A
:104280000E9425098F2C9F2C8F2D682D492D980178
:104290000E949C059394892D8430B0F38394282D3B
:1042A000243089F78F2C9F2C892D682D4F2D980154
:1042B0000E949C059394392D3430B0F38394882D5B
:1042C000843088F38F2C9F2C892D6F2D482D9801D9
:1042D0000E949C059394292D2430B0F38394382DAB
:1042E000343088F30E944503FA948F2D8F3F41F1BB
:1042F0006E2D7A2D8B2D972D2DEC3CEC4CEC5DE347
:104300000E942630E62EA72EB82E792E91CF6E2D44
:104310007A2D8B2D972D20E030E040E050E00E9478
:104320008B3087FFAACF80E090E0A0E0B0E08093E0
:104330003C0190933D01A0933E01B0933F019DCF7E
:104340000E94450388EE93E0F6013197F1F701975B
:10435000D9F72A9479F0662D752D842D932D2DECA7
:104360003CEC4CEC5DE30E942630662E572E482E26
:10437000392E58CF2D960FB6F894DEBF0FBECDBFA5
:10438000CF91DF911F910F91FF90EF90DF90CF9031
:10439000BF90AF909F908F907F906F905F904F9065
:1043A0003F902F9008951092EE0380E090E0A0E0FF
:1043B000B0E08093140490931504A0931604B09376
:1043C000170480E090E0A0E8BFE380931804909386
:1043D0001904A0931A04B0931B041092EF031092D7
:1043E000200420E030E040E05FE320934604309377
:1043F0004704409348045093490480934A0490939F
:104400004B04A0934C04B0934D041092210480E01F
:1044100090E00E94CC020E9445030895CF93DF9361
:10442000AC014E5F5F4F9C01205E3F4FDC019396D5
:10443000F90183E001900D928150E1F7CA014B969A
:10444000D901FC0123E001900D922150E1F79A017E
:10445000285E3F4FDC01F90183E001900D9281500D
:10446000E1F7CA014596D901FC0123E001900D92C4
:104470002150E1F79A012E5E3F4FDC01F90183E004
:1044800001900D928150E1F7DA011F96C901FD01FB
:1044900023E00190EC010992CE012150D1F7CA012D
:1044A0000C96FC0123E001900D922150E1F7DA0116
:1044B0001996FD0123E00190EC010992CE012150F3
:1044C000D1F7CA010696FC0123E001900D9221501C
:1044D000E1F7DA011396FD0123E00190EC01099266
:1044E000CE012150D1F7FA0183E001900D92815065
:1044F000E1F7DF91CF9108950F931F93DF93CF934F
:104500000F92CDB7DEB78C0169830E941333AA27BF
:1045100097FDA095BA2F6981262F30E040E050E04A
:10452000BC01CD010E943C322FEF3FE740E050E05C
:104530000E945B32F801E20FF11D80810F90CF9154
:10454000DF911F910F9108952F923F924F925F92AA
:104550006F927F928F929F92AF92BF92CF92DF9293
:10456000EF92FF920F931F93DF93CF93CDB7DEB7F8
:104570006C970FB6F894DEBF0FBECDBF8C01DC0187
:104580008C918C3010F48F5F8C9398012E5F3F4F8D
:10459000C8018096D8019396FC0143E001900D92EA
:1045A0004150E1F7A901455E5F4FDC01FA0183E06C
:1045B00001900D928150E1F7C9014896DA01FC01A2
:1045C00043E001900D924150E1F7A9014B5E5F4F2E
:1045D000DC01FA0183E001900D928150E1F7C901FD
:1045E0004296DA01FC0143E001900D924150E1F75F
:1045F000D9011F96FD0143E0BD010190DC010D9240
:10460000CD014150D1F7DB01C9010C96FC0143E01B
:1046100001900D924150E1F7D9011996FD0143E057
:10462000BD010190DC010D92CD014150D1F7DB01BC
:10463000C9010696FC0143E001900D924150E1F75B
:10464000D9011396FD0143E0BD010190DC010D92FB
:10465000CD014150D1F7DB01F90183E001900D92CA
:104660008150E1F7F8018081813009F41CC2F80122
:104670003280332009F40AC1E180FE2DF33009F4C1
:10468000CAC184E08983F43009F46CC2CE0140963B
:104690009C8B8B8BDE011F96BA8BA98BDE011E963D
:1046A000FE013D96F88BEF879E01245F3F4F3E87CA
:1046B0002D876BE0662E712C6C0E7D1E5AE0A52EA8
:1046C000B12CAC0EBD1E49E0842E912C8C0E9D1E8B
:1046D00038E0C32ED12CCC0EDD1EAE01495F5F4FFA
:1046E0009E012A5F3F4FBE016B5F7F4F7C8F6B8FB8
:1046F000CE010496FE013396BE016E5F7F4F7A8F26
:10470000698FFF24F3942E010894411C511C732DD2
:10471000733008F478C23E2CD80113962C9013976E
:10472000222009F497C0BE2DB13009F467C1F3947B
:1047300062E0362EA98DBA8D3C92BE2DB23009F4BE
:10474000FFC1622D633008F476C0D80111963C9009
:10475000D80114966C911497662309F459C0B32DAF
:10476000B63009F42EC1F39475E07083B53009F4C6
:104770003EC2633008F445C00E941333CF2CDD24C1
:10478000EE24FF249C01442737FD4095542FC70198
:10479000B6010E943C322FEF3FE740E050E00E941C
:1047A0005B32F201E20FF11D8081D80111968C93EA
:1047B0001197833009F4E9C0843008F0D6C0813005
:1047C00009F4ECC0823021F4F801838181508383A5
:1047D0006C960FB6F894DEBF0FBECDBFCF91DF91C0
:1047E0001F910F91FF90EF90DF90CF90BF90AF900F
:1047F0009F908F907F906F905F904F903F902F9001
:104800000895F8013180FC018B8D9C8D3C8F2B8F9E
:10481000232D253009F4B0CFF39426E02083332DE7
:10482000363009F0A9CFDC013C92B2E0FB0EEB8DF3
:10483000FC8D3082A1CFD80111963C90FA8FE98F80
:10484000FC018B8D9C8D3C8F2B8F9A01A6016401FE
:1048500045015301B32DB23009F41BC1F394EE248A
:10486000E394A98DBA8DEC92B32DB13009F070CFDD
:104870003082E2E0FE0EDC013C92C9019601650146
:10488000EB8DFC8D5C8F4B8FA40162CFCE010F9618
:104890009C8B8B8BDE011E96BA8BA98BFE013D96FD
:1048A000F88BEF879E01245F3F4F3E872D872BE0DB
:1048B000622E712C6C0E7D1E9AE0A92EB12CAC0ECE
:1048C000BD1E89E0882E912C8C0E9D1EB8E0CB2E4B
:1048D000D12CCC0EDD1EAE01495F5F4F9E012A5FD9
:1048E0003F4FBE016B5F7F4F7C8F6B8FCE01049675
:1048F000FE013396DE011296BA8FA98F2E0108941D
:10490000411C511C5E8A4D8AFF24D8011196EC90FF
:1049100011973E2C7E2D743009F459C0F394A3E016
:104920002A2EAD89BE892C92733009F0F5CEA98D5F
:10493000BA8DEC92B2E0FB0EE082EB8DFC8D5C8FC9
:104940004B8FA40143016F8478886B897C89788BB5
:104950006F879A8F898FC90196016501AD84BE84E6
:10496000A989BA89BE87AD87D7CE853029F1853030
:10497000F0F0863009F02CCFD80114968C91149762
:104980008F5F14968C93149723CFD80112968C9135
:1049900012978F5F12968C9312971ACFD8011396A5
:1049A0008C9113978F5F13968C93139711CFF80107
:1049B0008281815082830CCFF8018481815084836D
:1049C00007CF2B8D3C8D9C8F8B8FCF01D2CE6D85E9
:1049D0007E85788B6F877E866D8635015401460112
:1049E0006A01A9012B8D3C8D9C8F8B8FCF01E98DA6
:1049F000FA8DAD89BE89BA8FA98F8ECE350154014B
:104A000046016A01A9012B8D3C8D9C8F8B8FCF01B4
:104A1000E98DFA8D96CECE010F969C8B8B8BDE01A5
:104A20001E96BA8BA98BDE011D96FE013C96F88B73
:104A3000EF879E01255F3F4F3E872D878AE0682ED6
:104A4000712C6C0E7D1EF9E0AF2EB12CAC0EBD1E8C
:104A5000E8E08E2E912C8C0E9D1E77E0C72ED12C77
:104A6000CC0EDD1EAE014A5F5F4F9E012B5F3F4FB4
:104A7000BE016C5F7F4F7C8F6B8FCE010396FE0172
:104A800032962E010894411C511C5A8E498EFF24E7
:104A90003ECE6A01A9012B8D3C8D9C8F8B8FCF015F
:104AA000E98DFA8D55CE0E9413339C01B9018827F8
:104AB00077FD8095982F660F771F881F991F660FC7
:104AC000771F881F991F4FEFC42E4FE7D42EE12C7C
:104AD000F12CA70196010E945B32D80112962C930B
:104AE0000E941333FC01BF01882777FD8095982F22
:104AF000660F771F881F991F660F771F881F991FE2
:104B0000A70196010E945B32D80113962C930E9454
:104B10001333FC01BF01882777FD8095982F660F1E
:104B2000771F881F991F660F771F881F991FA7017E
:104B300096010E945B32D80114962C93149748CEAC
:104B4000E082F30CFC01E082C90196016501AD84AD
:104B5000BE84EB8DFC8D5C8F4B8FA40143016F8471
:104B60007888EFCDEA82EB829E012E5E3F4F3C8B30
:104B70002B8BBE016F5E7F4F7A8B698BDE01509667
:104B8000CE010F96988B8F87FE013E96FE87ED87AC
:104B90008DE0682E712C6C0E7D1EFCE0AF2EB12CCA
:104BA000AC0EBD1EEBE08E2E912C8C0E9D1E7AE07D
:104BB000C72ED12CCC0EDD1EAE01475F5F4F9E018C
:104BC000285F3F4FBE01695F7F4F7C8F6B8FCE01A7
:104BD0000696FE013596BE016C5F7F4F7A8F698F16
:104BE00063E0F62E2E010894411C511C90CDFC016F
:104BF0003082F2E0FF0EAB8DBC8D3C925C8F4B8F10
:104C0000C9019601B6CD698D7A8D7E8B6D8BFA8F39
:104C1000E98FFC018B8D9C8D3C8F2B8F9A01A60117
:104C20006401450153016D847E846F8578897E8798
:104C30006D87B88BAF876DCE2F923F924F925F9268
:104C40006F927F928F929F92AF92BF92CF92DF929C
:104C5000EF92FF920F931F93DF93CF93CDB7DEB701
:104C6000AF970FB6F894DEBF0FBECDBF9EA38DA346
:104C7000FC010081602F70E080E090E00E94233111
:104C80006B017C0160E070E080E09FE3A70196018A
:104C90000E948F306FA378A789A7492EEDA1FEA1AE
:104CA00066A177A180A591A52FE632E143E85AE3FA
:104CB0000E942730262F372F482F592FEDA1FEA114
:104CC00026A337A340A751A720E030E040E85FE3E8
:104CD0000E94D53187FD0AC080E090E0A0E0B0E0FE
:104CE000EDA1FEA186A397A3A0A7B1A780E090E0C5
:104CF000A0E0B0E0EDA1FEA186A797A7A0ABB1AB65
:104D0000DE011D96B6968CE001900D928150E1F780
:104D10006DEC7CEC8CEC9DE3A70196010E948F303A
:104D20006CA77DA78EA79FA7002309F4DEC0802F64
:104D300090E001978C01000F111F080F191F0E5FE3
:104D40001F4F8DA19EA1080F191F992402969BA7A2
:104D50008AA71E010894211C311C69E1A62EB12CE2
:104D6000AC0EBD1E43C0CE010D96B1010E942509B7
:104D7000C801B5010E941A08698D7A8D8B8D9C8DB2
:104D800020E030E040E050E00E948B308823C9F4FE
:104D90006D8D7E8D8F8D98A120E030E040E050E059
:104DA0000E948B30882369F469A17AA18BA19CA110
:104DB00020E030E040E050E00E948B30882309F48E
:104DC00089C0C501B10120E030E040E05FE30E940E
:104DD000B20CC801B5010E9449079394EDA1FEA150
:104DE0008081981608F081C0035010405FA148A54B
:104DF00039A5652F742F832F942D2D893E894F89D6
:104E0000588D0E942730862E772E682E592E862F99
:104E1000972DA62DB52D8D8B9E8BAF8BB88F5CA556
:104E20004DA53EA52FA5652F742F832F922F2D857D
:104E30003E854F8558890E942730F62EE72ED82EC2
:104E4000C92EA7019601852F942FA32FB22F8D87EE
:104E50009E87AF87B88B652F742F832F922F20E00A
:104E600030E040E85FE30E94D53187FD10C0A70124
:104E70009601652F742F832F922F20E030E040E8B9
:104E80005FE30E9426306D877E878F87988B682D21
:104E9000772D862D952D20E030E040E05FE30E94E5
:104EA000D531181644F480E090E0A0E0BFE38D8B8C
:104EB0009E8BAF8BB88FEAA5FBA50E171F0709F0D5
:104EC00052CF80E090E0A0E0BFE38D8B9E8BAF8B54
:104ED000B88F49CFC801B1010E9449079394EDA151
:104EE000FEA18081981608F47FCFAF960FB6F89494
:104EF000DEBF0FBECDBFCF91DF911F910F91FF900D
:104F0000EF90DF90CF90BF90AF909F908F907F9069
:104F10006F905F904F903F902F9008958091520432
:104F200090915304A0915404B09155049C01AD019B
:104F30002F5F3F4F4F4F5F4F2093520430935304E6
:104F400040935404509355048E309105A105B1054A
:104F500008F40895109252041092530410925404CD
:104F60001092550480E090E00E94CC028EEE93E017
:104F70000E94A4228EEE93E060E00E941C2680E254
:104F800094E00E94A42280E294E061E00E941C264A
:104F90000E9445030895559A84E187BD87B586959B
:104FA00088BD83E284BD8AE085BD80E480937C0077
:104FB000EAE7F0E08FEA808310927B0078948081AA
:104FC000806480830895AF92BF92CF92DF92EF9278
:104FD000FF920F931F93DF93CF93CDB7DEB7A097C8
:104FE0000FB6F894DEBF0FBECDBF82EE96E06EE541
:104FF00074E00E94BA2A8EE594E00E94FF2A8EE5B2
:1050000094E0BE016F5F7F4F0E94C92B6A8170E000
:10501000882777FD8095982F0E94253120E030E089
:1050200040E050E00E9427307B018C016B8170E0F2
:10503000882777FD8095982F0E9425319B01AC0130
:105040006E2D7F2D802F912F0E9427307B018C01A8
:105050006C8170E0882777FD8095982F0E9425311C
:105060009B01AC016E2D7F2D802F912F0E94273048
:105070007B018C016D8170E0882777FD8095982FEA
:105080000E9425312E2D3F2D402F512F0E94273079
:105090007B018C017F2D912F20E030E048E452E429
:1050A0000E948B3087FD24C16E2D7F2D802F912F84
:1050B0002BEA3AEA4AE25EE30E94D9317B018C0195
:1050C00060915E0570915F0580916005909161052A
:1050D00020E030E040EA50E40E94D93120E030E0A6
:1050E00040EC50E40E948F302E2D3F2D402F512F49
:1050F0000E942730162F072FF82EE92EA8019701BE
:10510000652F742F832F922F20E030E040E05BE387
:105110000E94D9312DEC3CEC4CEC5DE30E94D53182
:105120001816BCF580915A0490915B04A0915C0420
:10513000B0915D040097A105B10509F4EAC001969C
:10514000A11DB11D80935A0490935B04A0935C044D
:10515000B0935D04A8019701852F902FA32FBE2D3A
:1051600080935E0590935F05A0936005B093610501
:10517000A0960FB6F894DEBF0FBECDBFCF91DF91E2
:105180001F910F91FF90EF90DF90CF90BF90AF9065
:1051900008958091560490915704A0915804B091BD
:1051A00059040097A105B10509F0A7C060915A0400
:1051B00070915B0480915C0490915D040E942531A4
:1051C000DD24D39420E030E040E05FEB0E94D53155
:1051D00018160CF0A7C010925A0410925B0410929B
:1051E0005C0410925D0481E090E0A0E0B0E0809368
:1051F000560490935704A0935804B0935904DD20AB
:1052000009F4A8CF81E0809348016091000170917A
:10521000010180910201909103012AE939E949E9EC
:105220005EE30E942730D62EC72EB82EA92EA601E7
:105230009501852F942FA32FB22F80930001909377
:105240000101A0930201B09303010E9413339C015A
:10525000B901882777FD8095982F0E94253120E09D
:105260003EEF4FEF56E40E948F3020E030E040E008
:105270005FE30E94D9319B01AC01D601F5016B2F90
:105280007A2F8F2F9E2F0E942730D62EC72EB82E12
:10529000A92EA6019501852F942FA32FB22F8093BD
:1052A000000190930101A0930201B0930301652FC7
:1052B000742F832F922F20E030E040E85FE30E94BC
:1052C000D53187FD47CFA6019501652F742F832F18
:1052D000922F20E030E040E85FE30E9426306093A8
:1052E000000170930101809302019093030132CF7A
:1052F000EE24FF2400E010E0E3CE0196A11DB11DD5
:105300008093560490935704A0935804B093590483
:1053100021CF109256041092570410925804109204
:1053200059040DCFDD2457CF0F930FB70F931F9361
:10533000AF93BF9300917800109179000050124014
:10534000A0914001B09141010D931D930091420144
:105350000A9519F400E4A2EEB6E000934201A0938E
:105360004001B0934101BF91AF911F910F910FBFC9
:105370000F911895A895AF93AFB7AF93BF930F93C5
:1053800000910D01003069F00A9500930D01A09184
:105390000E01B0910F010E910EBDA0930E01B093BE
:1053A0000F010F91BF91AF91AFBFAF911895A89525
:1053B0002F930F931F93AF93BF93BFB7BF93A0914A
:1053C0000E01B0910F0102E615E0A017B10711F42C
:1053D000A2EEB6E007E100930D01209180002F7D41
:1053E00020938000299A299800914E01003039F4C9
:1053F0004398459A4598439AAAECB6E002C0459A6C
:105400004598209180002062209380000395003110
:1054100008F0002700934E011E911EBDA0930E01BF
:10542000B0930F01BF91BFBFBF91AF911F910F917B
:105430002F9118953D0A880A680BDB0CDC0E681169
:1054400078140318011C68202C25412A9B2F2C3529
:10545000E53AB8409646704C3852DF57555D8E623B
:105460007D67146C47700D745C772A7A727C2D7E90
:10547000577FEC7FEC7F577F2D7E727C2A7A5C779A
:105480000D744770146C7D678E62555DDF5738521E
:10549000704C9646B840E53A2C359B2F412A2C2576
:1054A0006820011C031878146811DC0EDB0C680BF3
:1054B000880A3D0AFF7F0000617F8B0C897DF81808
:1054C0007C7A27254076FB30E170563C6C6A1C479D
:1054D000F1623351815A815A3351F1621C476C6A2F
:1054E000563CE170FB30407627257C7AF818897DA0
:1054F0008B0C617F0000FE7F75F3617F08E7897D7B
:10550000D9DA7C7A05CF4076AAC3E170E4B86C6A38
:10551000CDAEF1627FA5815A0F9D335194951C4702
:105520001F8F563CC089FB30848527257782F81869
:105530009F808B0C000080004000C0002000A00075
:105540006000E000100090005000D0003000B0007B
:105550007000F000080088004800C8002800A8007B
:105560006800E800180098005800D8003800B8001B
:105570007800F8003F922F921F930F93DF93CF9301
:10558000DC01EB019927E4E3F4E500E410E0259168
:1055900035914D915D91B503B0012C031001691F48
:1055A000BC03790B300C611D791FDA03790B300CC9
:1055B000611D791F69937993699379930150104024
:1055C00031F7CF91DF910F911F912F903F901124D0
:1055D00008951F930F93DF93CF93DC01EB0100E459
:1055E00010E04D915D91499359934993599301501E
:1055F0001040B9F7CF91DF910F911F9108953F921D
:105600002F925F924F927F926F929F928F92BF9252
:10561000AF92DF92CF92FF92EF921F930F93DF939F
:10562000CF93FC0181E090E0A0E2B0E004E0809F35
:105630006001909FD00C7C019F938F93EF01A09FFE
:10564000C00DD11DB09FD00DFF93EF93BB24AA24B2
:105650009927008111811595079568817981759544
:105660006795A801061B170B460F571F41935193CF
:1056700020813181359527956A817B817595679564
:10568000A901261B370B460F571F419351930F015A
:10569000E4EBF4E5EA0DFB1D45915591659175919B
:1056A000F001950320010C031001491E9C03590AC7
:1056B000300C411C591ED803590A300C411C591E8C
:1056C000B70340012E033001891EBE03990A700CF6
:1056D000811C991EFA03990A700C811C991E260CD4
:1056E000371C481C591C49925992B50320012C03C0
:1056F0001001491EBC03590A300C411C591EDA0323
:10570000590A300C411C591E970340010E03300109
:10571000891E9E03990A700C811C991EF803990A30
:10572000700C811C991E26183708480859084992A0
:105730005992AC0CBD1CA7FE8CCF04E0A09FC00DFD
:10574000D11DE00DF11DB09FD00DF00D81E0E81AE4
:10575000F90A09F07BCFEF91FF918F919F91880F0C
:10576000991FB695A795109609F060CFCF91DF915C
:105770000F911F91EF90FF90CF90DF90AF90BF906F
:105780008F909F906F907F904F905F902F903F9061
:1057900008953F922F925F924F927F926F929F92C5
:1057A0008F92BF92AF921F930F93DF93CF935C01C1
:1057B000EB01E4E3F5E5992700E210E0A591B5914E
:1057C000AA0DBB1D2D913D914D915D91B30320011B
:1057D0002A031001491EBA03590A300C411C591EF4
:1057E000BA03590A300C411C591ED50340014C0321
:1057F0003001891EDC03990A700C811C991EDC03A0
:10580000990A700C811C991E260C371C481C591CC7
:1058100050EC442730E4221B18F04216530620F0C7
:10582000421A530A242B352B5695479535272427A2
:10583000221C331C441C551C20FEEECF18F0330CE8
:1058400024053505251F29930150104009F0B6CFD6
:10585000CF91DF910F911F91AF90BF908F909F904C
:105860006F907F904F905F902F903F900895AC0184
:105870009927D703F0014E03D001E91FDE03F90B8E
:10588000B00DE11DF91FFC03F90BB00DE11DF91F6F
:10589000CF010895611571058105910521F4FA0183
:1058A00080E3819315C0DA019B01217030702115CE
:1058B000310511F021E301C020E32D93FD01969500
:1058C000879577956795611571058105910561F754
:1058D000CF010895A3E1B0E0E0E7FCE20C9476325A
:1058E0005C017D876C87FC0117821682838181FDB4
:1058F00003C0A5C3A10105C09E012F5F3F4F3B8B95
:105900002A8BF5019381EC85FD8593FD859193FFAD
:105910008191FD87EC87882309F48DC3853241F49A
:1059200093FD859193FF8191FD87EC87853251F43A
:1059300090E0B501488B598B0E941E3448895989E3
:105940001A01D8CF10E0FF2400E00032B0F48B320F
:1059500069F08C3228F4803251F0833271F40BC03C
:105960008D3239F0803349F401602CC0026004604C
:1059700029C0086027C0006125C007FD2EC0282F60
:1059800020532A3098F406FF08C0812F880F182F63
:10599000110F110F180F120F15C08F2D880FF82E31
:1059A000FF0CFF0CF80EF20E00620CC08E3221F4D8
:1059B00006FD41C3006406C08C3611F4006802C0C5
:1059C000883659F4EC85FD8593FD859193FF81918F
:1059D000FD87EC87882309F0B8CF982F9554933032
:1059E00018F40061805E06C0982F9556933008F039
:1059F000A5C10F7E06FF16E0EFE3EE2EE02285360E
:105A000019F4F0E4EF2A07C0863619F420E8E22AF8
:105A100002C011111150E7FE06C01C3340F4912E54
:105A2000939427E00BC0183030F4212F06C027E0F4
:105A30007CE3972E03C027E017E0992464E0262E2C
:105A4000312C240E351EFA0160817181828193818F
:105A5000AE014F5F5F4F092D0E9423336C016980B7
:105A6000262D30E03F872E8760FE03C03E8533FF42
:105A700006C0E1FC06C0E2FE06C000E205C00DE281
:105A800003C00BE201C000E08E859F858C70907092
:105A90000097C1F1002311F084E001C083E08F156D
:105AA00058F4F81AE3FC09C080E290E0B5010E94C6
:105AB0001E34FA94C9F701C0FF24002329F0802F77
:105AC00090E0B5010E941E348E8583FD03C00CE674
:105AD00010E00EC008E610E00BC0C114D10409F0BC
